{
  "contractName": "ArtistEditionControlsV2",
  "abi": [
    {
      "constant": false,
      "inputs": [],
      "name": "unpause",
      "outputs": [],
      "payable": false,
      "stateMutability": "nonpayable",
      "type": "function"
    },
    {
      "constant": true,
      "inputs": [],
      "name": "paused",
      "outputs": [
        {
          "name": "",
          "type": "bool"
        }
      ],
      "payable": false,
      "stateMutability": "view",
      "type": "function"
    },
    {
      "constant": false,
      "inputs": [],
      "name": "renounceOwnership",
      "outputs": [],
      "payable": false,
      "stateMutability": "nonpayable",
      "type": "function"
    },
    {
      "constant": false,
      "inputs": [],
      "name": "pause",
      "outputs": [],
      "payable": false,
      "stateMutability": "nonpayable",
      "type": "function"
    },
    {
      "constant": true,
      "inputs": [],
      "name": "owner",
      "outputs": [
        {
          "name": "",
          "type": "address"
        }
      ],
      "payable": false,
      "stateMutability": "view",
      "type": "function"
    },
    {
      "constant": true,
      "inputs": [],
      "name": "kodaAddress",
      "outputs": [
        {
          "name": "",
          "type": "address"
        }
      ],
      "payable": false,
      "stateMutability": "view",
      "type": "function"
    },
    {
      "constant": true,
      "inputs": [],
      "name": "deactivationPaused",
      "outputs": [
        {
          "name": "",
          "type": "bool"
        }
      ],
      "payable": false,
      "stateMutability": "view",
      "type": "function"
    },
    {
      "constant": false,
      "inputs": [
        {
          "name": "_newOwner",
          "type": "address"
        }
      ],
      "name": "transferOwnership",
      "outputs": [],
      "payable": false,
      "stateMutability": "nonpayable",
      "type": "function"
    },
    {
      "inputs": [
        {
          "name": "_kodaAddress",
          "type": "address"
        }
      ],
      "payable": false,
      "stateMutability": "nonpayable",
      "type": "constructor"
    },
    {
      "anonymous": false,
      "inputs": [
        {
          "indexed": true,
          "name": "_editionNumber",
          "type": "uint256"
        },
        {
          "indexed": true,
          "name": "_artist",
          "type": "address"
        },
        {
          "indexed": false,
          "name": "_priceInWei",
          "type": "uint256"
        }
      ],
      "name": "PriceChanged",
      "type": "event"
    },
    {
      "anonymous": false,
      "inputs": [
        {
          "indexed": true,
          "name": "_editionNumber",
          "type": "uint256"
        },
        {
          "indexed": true,
          "name": "_artist",
          "type": "address"
        },
        {
          "indexed": true,
          "name": "_tokenId",
          "type": "uint256"
        }
      ],
      "name": "EditionGifted",
      "type": "event"
    },
    {
      "anonymous": false,
      "inputs": [
        {
          "indexed": true,
          "name": "_editionNumber",
          "type": "uint256"
        }
      ],
      "name": "EditionDeactivated",
      "type": "event"
    },
    {
      "anonymous": false,
      "inputs": [],
      "name": "Pause",
      "type": "event"
    },
    {
      "anonymous": false,
      "inputs": [],
      "name": "Unpause",
      "type": "event"
    },
    {
      "anonymous": false,
      "inputs": [
        {
          "indexed": true,
          "name": "previousOwner",
          "type": "address"
        }
      ],
      "name": "OwnershipRenounced",
      "type": "event"
    },
    {
      "anonymous": false,
      "inputs": [
        {
          "indexed": true,
          "name": "previousOwner",
          "type": "address"
        },
        {
          "indexed": true,
          "name": "newOwner",
          "type": "address"
        }
      ],
      "name": "OwnershipTransferred",
      "type": "event"
    },
    {
      "constant": false,
      "inputs": [
        {
          "name": "_receivingAddress",
          "type": "address"
        },
        {
          "name": "_editionNumber",
          "type": "uint256"
        }
      ],
      "name": "gift",
      "outputs": [
        {
          "name": "",
          "type": "uint256"
        }
      ],
      "payable": false,
      "stateMutability": "nonpayable",
      "type": "function"
    },
    {
      "constant": false,
      "inputs": [
        {
          "name": "_editionNumber",
          "type": "uint256"
        },
        {
          "name": "_priceInWei",
          "type": "uint256"
        }
      ],
      "name": "updateEditionPrice",
      "outputs": [
        {
          "name": "",
          "type": "bool"
        }
      ],
      "payable": false,
      "stateMutability": "nonpayable",
      "type": "function"
    },
    {
      "constant": false,
      "inputs": [
        {
          "name": "_editionNumber",
          "type": "uint256"
        }
      ],
      "name": "deactivateEdition",
      "outputs": [
        {
          "name": "",
          "type": "bool"
        }
      ],
      "payable": false,
      "stateMutability": "nonpayable",
      "type": "function"
    },
    {
      "constant": false,
      "inputs": [
        {
          "name": "_kodaAddress",
          "type": "address"
        }
      ],
      "name": "setKodavV2",
      "outputs": [],
      "payable": false,
      "stateMutability": "nonpayable",
      "type": "function"
    },
    {
      "constant": false,
      "inputs": [],
      "name": "pauseDeactivation",
      "outputs": [],
      "payable": false,
      "stateMutability": "nonpayable",
      "type": "function"
    },
    {
      "constant": false,
      "inputs": [],
      "name": "enablesDeactivation",
      "outputs": [],
      "payable": false,
      "stateMutability": "nonpayable",
      "type": "function"
    }
  ],
  "bytecode": "0x60806040526000805460a060020a60ff021990811690915560018054909116905534801561002c57600080fd5b50604051602080610eb3833981016040525160008054600160a060020a0319908116331790915560018054600160a060020a0390931692909116919091179055610e388061007b6000396000f3006080604052600436106100cf5763ffffffff7c010000000000000000000000000000000000000000000000000000000060003504166313c7f2ee81146100d45780633f4ba83a146100eb5780635c975abb14610100578063715018a6146101295780638456cb591461013e5780638da5cb5b146101535780639e0fd99814610184578063a604b7dd1461019f578063bbee17a3146101b4578063cbce4c97146101d5578063e0758c9d1461020b578063ee40f3ef14610220578063f00d05e914610235578063f2fde38b1461024d575b600080fd5b3480156100e057600080fd5b506100e961026e565b005b3480156100f757600080fd5b506100e96102a5565b34801561010c57600080fd5b5061011561031b565b604080519115158252519081900360200190f35b34801561013557600080fd5b506100e961032b565b34801561014a57600080fd5b506100e9610397565b34801561015f57600080fd5b50610168610412565b60408051600160a060020a039092168252519081900360200190f35b34801561019057600080fd5b50610115600435602435610421565b3480156101ab57600080fd5b506100e961063c565b3480156101c057600080fd5b506100e9600160a060020a0360043516610679565b3480156101e157600080fd5b506101f9600160a060020a03600435166024356106bf565b60408051918252519081900360200190f35b34801561021757600080fd5b50610168610a3a565b34801561022c57600080fd5b50610115610a49565b34801561024157600080fd5b50610115600435610a59565b34801561025957600080fd5b506100e9600160a060020a0360043516610d6c565b600054600160a060020a0316331461028557600080fd5b6001805474ff000000000000000000000000000000000000000019169055565b600054600160a060020a031633146102bc57600080fd5b60005460a060020a900460ff1615156102d457600080fd5b6000805474ff0000000000000000000000000000000000000000191681556040517f7805862f689e2f13df9f062ff482ad3ad112aca9e0847911ed832e158c525b339190a1565b60005460a060020a900460ff1681565b600054600160a060020a0316331461034257600080fd5b60008054604051600160a060020a03909116917ff8df31144d9c2f0f6b59d69b8b98abd5459d07f2742c4df920b25aae33c6482091a26000805473ffffffffffffffffffffffffffffffffffffffff19169055565b600054600160a060020a031633146103ae57600080fd5b60005460a060020a900460ff16156103c557600080fd5b6000805474ff0000000000000000000000000000000000000000191660a060020a1781556040517f6985a02210a168e66602d3235cb6db0e70f92b3ba4d376a33c0f3d9434bff6259190a1565b600054600160a060020a031681565b600080548190819060a060020a900460ff161561043d57600080fd5b600154604080517f32fd8478000000000000000000000000000000000000000000000000000000008152600481018890528151600160a060020a03909316926332fd8478926024808401939192918290030181600087803b1580156104a157600080fd5b505af11580156104b5573d6000803e3d6000fd5b505050506040513d60408110156104cb57600080fd5b508051602090910151909250905033600160a060020a03831614806104fa5750600054600160a060020a031633145b1515610575576040805160e560020a62461bcd028152602060048201526024808201527f4f6e6c792066726f6d207468652065646974696f6e206172746973742061636360448201527f6f756e7400000000000000000000000000000000000000000000000000000000606482015290519081900360840190fd5b600154604080517f7eb9f04a00000000000000000000000000000000000000000000000000000000815260048101889052602481018790529051600160a060020a0390921691637eb9f04a9160448082019260009290919082900301818387803b1580156105e257600080fd5b505af11580156105f6573d6000803e3d6000fd5b50506040805187815290513393508892507f7b9e70728348c5a660506950e5eeb19dee00e0a53e8ce602353738185a8cd3729181900360200190a3506001949350505050565b600054600160a060020a0316331461065357600080fd5b6001805474ff0000000000000000000000000000000000000000191660a060020a179055565b600054600160a060020a0316331461069057600080fd5b6001805473ffffffffffffffffffffffffffffffffffffffff1916600160a060020a0392909216919091179055565b60008054819081908190819060a060020a900460ff16156106df57600080fd5b600160a060020a038716151561073f576040805160e560020a62461bcd02815260206004820152601e60248201527f556e61626c6520746f2073656e6420746f207a65726f20616464726573730000604482015290519081900360640190fd5b600154604080517f32fd8478000000000000000000000000000000000000000000000000000000008152600481018990528151600160a060020a03909316926332fd8478926024808401939192918290030181600087803b1580156107a357600080fd5b505af11580156107b7573d6000803e3d6000fd5b505050506040513d60408110156107cd57600080fd5b508051602090910151909450925033600160a060020a03851614806107fc5750600054600160a060020a031633145b1515610877576040805160e560020a62461bcd028152602060048201526024808201527f4f6e6c792066726f6d207468652065646974696f6e206172746973742061636360448201527f6f756e7400000000000000000000000000000000000000000000000000000000606482015290519081900360840190fd5b600154604080517fbbd1e1fc000000000000000000000000000000000000000000000000000000008152600481018990529051600160a060020a039092169163bbd1e1fc916024808201926020929091908290030181600087803b1580156108de57600080fd5b505af11580156108f2573d6000803e3d6000fd5b505050506040513d602081101561090857600080fd5b50519150811515610963576040805160e560020a62461bcd02815260206004820152601b60248201527f4f6e6c79207768656e2065646974696f6e206973206163746976650000000000604482015290519081900360640190fd5b600154604080517f40c10f19000000000000000000000000000000000000000000000000000000008152600160a060020a038a81166004830152602482018a9052915191909216916340c10f199160448083019260209291908290030181600087803b1580156109d257600080fd5b505af11580156109e6573d6000803e3d6000fd5b505050506040513d60208110156109fc57600080fd5b50516040519091508190339088907f77c159b62cf9bb44a58d77815fbbb0c7d28272bbb6459f92f90a0cd41aadab0390600090a49695505050505050565b600154600160a060020a031681565b60015460a060020a900460ff1681565b6000805481908190819060a060020a900460ff1615610a7757600080fd5b60015460a060020a900460ff1615610a8e57600080fd5b600154604080517f32fd8478000000000000000000000000000000000000000000000000000000008152600481018890528151600160a060020a03909316926332fd8478926024808401939192918290030181600087803b158015610af257600080fd5b505af1158015610b06573d6000803e3d6000fd5b505050506040513d6040811015610b1c57600080fd5b508051602090910151909350915033600160a060020a0384161480610b4b5750600054600160a060020a031633145b1515610bc6576040805160e560020a62461bcd028152602060048201526024808201527f4f6e6c792066726f6d207468652065646974696f6e206172746973742061636360448201527f6f756e7400000000000000000000000000000000000000000000000000000000606482015290519081900360840190fd5b600154604080517fbbd1e1fc000000000000000000000000000000000000000000000000000000008152600481018890529051600160a060020a039092169163bbd1e1fc916024808201926020929091908290030181600087803b158015610c2d57600080fd5b505af1158015610c41573d6000803e3d6000fd5b505050506040513d6020811015610c5757600080fd5b50519050801515610cb2576040805160e560020a62461bcd02815260206004820152601b60248201527f4f6e6c79207768656e2065646974696f6e206973206163746976650000000000604482015290519081900360640190fd5b600154604080517f04bb1e3d000000000000000000000000000000000000000000000000000000008152600481018890526000602482018190529151600160a060020a03909316926304bb1e3d9260448084019391929182900301818387803b158015610d1e57600080fd5b505af1158015610d32573d6000803e3d6000fd5b50506040518792507f348df167e29ec37668ed9a0fc6ab683a2ccb42aea11f5a58732e0614674b12989150600090a2506001949350505050565b600054600160a060020a03163314610d8357600080fd5b610d8c81610d8f565b50565b600160a060020a0381161515610da457600080fd5b60008054604051600160a060020a03808516939216917f8be0079c531659141344cd1fd0a4f28419497f9722a3daafe3b4186f6b6457e091a36000805473ffffffffffffffffffffffffffffffffffffffff1916600160a060020a03929092169190911790555600a165627a7a723058200b3bb8652c154119843f4c050dc1d72e54d7978dfdfc58fb7a9226121d5837eb0029",
  "source": "pragma solidity 0.4.24;\n\nimport \"openzeppelin-solidity/contracts/ownership/Ownable.sol\";\nimport \"openzeppelin-solidity/contracts/lifecycle/Pausable.sol\";\nimport \"openzeppelin-solidity/contracts/math/SafeMath.sol\";\n\nimport \"../interfaces/IKODAV2Controls.sol\";\n\n/**\n* @title Artists self minting for KnownOrigin (KODA)\n*\n* Allows for the edition artists to mint there own assets and control the price of an edition\n*\n* https://www.knownorigin.io/\n*\n* BE ORIGINAL. BUY ORIGINAL.\n*/\ncontract ArtistEditionControlsV2 is Ownable, Pausable {\n  using SafeMath for uint256;\n\n  // Interface into the KODA world\n  IKODAV2Controls public kodaAddress;\n\n  event PriceChanged(\n    uint256 indexed _editionNumber,\n    address indexed _artist,\n    uint256 _priceInWei\n  );\n\n  event EditionGifted(\n    uint256 indexed _editionNumber,\n    address indexed _artist,\n    uint256 indexed _tokenId\n  );\n\n  event EditionDeactivated(\n    uint256 indexed _editionNumber\n  );\n\n  bool public deactivationPaused = false;\n\n  modifier whenDeactivationNotPaused() {\n    require(!deactivationPaused);\n    _;\n  }\n\n  constructor(IKODAV2Controls _kodaAddress) public {\n    kodaAddress = _kodaAddress;\n  }\n\n  /**\n   * @dev Ability to gift new NFTs to an address, from a KODA edition\n   * @dev Only callable from edition artists defined in KODA NFT contract\n   * @dev Only callable when contract is not paused\n   * @dev Reverts if edition is invalid\n   * @dev Reverts if edition is not active in KDOA NFT contract\n   */\n  function gift(address _receivingAddress, uint256 _editionNumber)\n  external\n  whenNotPaused\n  returns (uint256)\n  {\n    require(_receivingAddress != address(0), \"Unable to send to zero address\");\n\n    (address artistAccount, uint256 _) = kodaAddress.artistCommission(_editionNumber);\n    require(msg.sender == artistAccount || msg.sender == owner, \"Only from the edition artist account\");\n\n    bool isActive = kodaAddress.editionActive(_editionNumber);\n    require(isActive, \"Only when edition is active\");\n\n    uint256 tokenId = kodaAddress.mint(_receivingAddress, _editionNumber);\n\n    emit EditionGifted(_editionNumber, msg.sender, tokenId);\n\n    return tokenId;\n  }\n\n  /**\n   * @dev Sets the price of the provided edition in the WEI\n   * @dev Only callable from edition artists defined in KODA NFT contract\n   * @dev Only callable when contract is not paused\n   * @dev Reverts if edition is invalid\n   */\n  function updateEditionPrice(uint256 _editionNumber, uint256 _priceInWei)\n  external\n  whenNotPaused\n  returns (bool)\n  {\n    (address artistAccount, uint256 _) = kodaAddress.artistCommission(_editionNumber);\n    require(msg.sender == artistAccount || msg.sender == owner, \"Only from the edition artist account\");\n\n    kodaAddress.updatePriceInWei(_editionNumber, _priceInWei);\n\n    emit PriceChanged(_editionNumber, msg.sender, _priceInWei);\n\n    return true;\n  }\n\n  /**\n   * @dev Sets provided edition to deactivated so it does not appear on the platform\n   * @dev Only callable from edition artists defined in KODA NFT contract\n   * @dev Only callable when contract is not paused\n   * @dev Reverts if edition is invalid\n   * @dev Reverts if edition is not active in KDOA NFT contract\n   */\n  function deactivateEdition(uint256 _editionNumber)\n  external\n  whenNotPaused\n  whenDeactivationNotPaused\n  returns (bool)\n  {\n    (address artistAccount, uint256 _) = kodaAddress.artistCommission(_editionNumber);\n    require(msg.sender == artistAccount || msg.sender == owner, \"Only from the edition artist account\");\n\n    // Only allow them to be disabled if we have not already done it already\n    bool isActive = kodaAddress.editionActive(_editionNumber);\n    require(isActive, \"Only when edition is active\");\n\n    kodaAddress.updateActive(_editionNumber, false);\n\n    emit EditionDeactivated(_editionNumber);\n\n    return true;\n  }\n\n  /**\n   * @dev Sets the KODA address\n   * @dev Only callable from owner\n   */\n  function setKodavV2(IKODAV2Controls _kodaAddress) onlyOwner public {\n    kodaAddress = _kodaAddress;\n  }\n\n  /**\n   * @dev Disables the ability to deactivate editions from the this contract\n   * @dev Only callable from owner\n   */\n  function pauseDeactivation() onlyOwner public {\n    deactivationPaused = true;\n  }\n\n  /**\n   * @dev Enables the ability to deactivate editions from the this contract\n   * @dev Only callable from owner\n   */\n  function enablesDeactivation() onlyOwner public {\n    deactivationPaused = false;\n  }\n\n}\n",
  "sourcePath": "/Users/jamesmorgan/Dropbox/workspace-blockrocket/knownorigin/known-origin-contracts/contracts/v2/artist-controls/ArtistEditionControlsV2.sol",
  "compiler": {
    "name": "solc",
    "version": "0.4.24+commit.e67f0147.Emscripten.clang"
  },
  "schemaVersion": "3.0.16",
  "updatedAt": "2019-11-16T07:22:38.213Z",
  "devdoc": {
    "methods": {
      "deactivateEdition(uint256)": {
        "details": "Sets provided edition to deactivated so it does not appear on the platformOnly callable from edition artists defined in KODA NFT contractOnly callable when contract is not pausedReverts if edition is invalidReverts if edition is not active in KDOA NFT contract"
      },
      "enablesDeactivation()": {
        "details": "Enables the ability to deactivate editions from the this contractOnly callable from owner"
      },
      "gift(address,uint256)": {
        "details": "Ability to gift new NFTs to an address, from a KODA editionOnly callable from edition artists defined in KODA NFT contractOnly callable when contract is not pausedReverts if edition is invalidReverts if edition is not active in KDOA NFT contract"
      },
      "pause()": {
        "details": "called by the owner to pause, triggers stopped state"
      },
      "pauseDeactivation()": {
        "details": "Disables the ability to deactivate editions from the this contractOnly callable from owner"
      },
      "renounceOwnership()": {
        "details": "Allows the current owner to relinquish control of the contract."
      },
      "setKodavV2(address)": {
        "details": "Sets the KODA addressOnly callable from owner"
      },
      "transferOwnership(address)": {
        "details": "Allows the current owner to transfer control of the contract to a newOwner.",
        "params": {
          "_newOwner": "The address to transfer ownership to."
        }
      },
      "unpause()": {
        "details": "called by the owner to unpause, returns to normal state"
      },
      "updateEditionPrice(uint256,uint256)": {
        "details": "Sets the price of the provided edition in the WEIOnly callable from edition artists defined in KODA NFT contractOnly callable when contract is not pausedReverts if edition is invalid"
      }
    },
    "title": "Artists self minting for KnownOrigin (KODA) * Allows for the edition artists to mint there own assets and control the price of an edition * https://www.knownorigin.io/ * BE ORIGINAL. BUY ORIGINAL."
  },
  "userdoc": {
    "methods": {
      "renounceOwnership()": {
        "notice": "Renouncing to ownership will leave the contract without an owner. It will not be possible to call the functions with the `onlyOwner` modifier anymore."
      }
    }
  }
}