{
  "contractName": "ArtistEditionBurner",
  "abi": [
    {
      "constant": false,
      "inputs": [],
      "name": "unpause",
      "outputs": [],
      "payable": false,
      "stateMutability": "nonpayable",
      "type": "function"
    },
    {
      "constant": true,
      "inputs": [],
      "name": "paused",
      "outputs": [
        {
          "name": "",
          "type": "bool"
        }
      ],
      "payable": false,
      "stateMutability": "view",
      "type": "function"
    },
    {
      "constant": false,
      "inputs": [],
      "name": "renounceOwnership",
      "outputs": [],
      "payable": false,
      "stateMutability": "nonpayable",
      "type": "function"
    },
    {
      "constant": false,
      "inputs": [],
      "name": "pause",
      "outputs": [],
      "payable": false,
      "stateMutability": "nonpayable",
      "type": "function"
    },
    {
      "constant": true,
      "inputs": [],
      "name": "owner",
      "outputs": [
        {
          "name": "",
          "type": "address"
        }
      ],
      "payable": false,
      "stateMutability": "view",
      "type": "function"
    },
    {
      "constant": true,
      "inputs": [],
      "name": "kodaAddress",
      "outputs": [
        {
          "name": "",
          "type": "address"
        }
      ],
      "payable": false,
      "stateMutability": "view",
      "type": "function"
    },
    {
      "constant": false,
      "inputs": [
        {
          "name": "_newOwner",
          "type": "address"
        }
      ],
      "name": "transferOwnership",
      "outputs": [],
      "payable": false,
      "stateMutability": "nonpayable",
      "type": "function"
    },
    {
      "inputs": [
        {
          "name": "_kodaAddress",
          "type": "address"
        }
      ],
      "payable": false,
      "stateMutability": "nonpayable",
      "type": "constructor"
    },
    {
      "anonymous": false,
      "inputs": [
        {
          "indexed": true,
          "name": "_editionNumber",
          "type": "uint256"
        }
      ],
      "name": "EditionDeactivated",
      "type": "event"
    },
    {
      "anonymous": false,
      "inputs": [
        {
          "indexed": true,
          "name": "_editionNumber",
          "type": "uint256"
        }
      ],
      "name": "EditionSupplyReduced",
      "type": "event"
    },
    {
      "anonymous": false,
      "inputs": [],
      "name": "Pause",
      "type": "event"
    },
    {
      "anonymous": false,
      "inputs": [],
      "name": "Unpause",
      "type": "event"
    },
    {
      "anonymous": false,
      "inputs": [
        {
          "indexed": true,
          "name": "previousOwner",
          "type": "address"
        }
      ],
      "name": "OwnershipRenounced",
      "type": "event"
    },
    {
      "anonymous": false,
      "inputs": [
        {
          "indexed": true,
          "name": "previousOwner",
          "type": "address"
        },
        {
          "indexed": true,
          "name": "newOwner",
          "type": "address"
        }
      ],
      "name": "OwnershipTransferred",
      "type": "event"
    },
    {
      "constant": false,
      "inputs": [
        {
          "name": "_editionNumber",
          "type": "uint256"
        }
      ],
      "name": "deactivateOrReduceEditionSupply",
      "outputs": [],
      "payable": false,
      "stateMutability": "nonpayable",
      "type": "function"
    },
    {
      "constant": false,
      "inputs": [
        {
          "name": "_kodaAddress",
          "type": "address"
        }
      ],
      "name": "setKodavV2",
      "outputs": [],
      "payable": false,
      "stateMutability": "nonpayable",
      "type": "function"
    }
  ],
  "bytecode": "0x60806040526000805460a060020a60ff021916905534801561002057600080fd5b50604051602080610a32833981016040525160008054600160a060020a0319908116331790915560018054600160a060020a03909316929091169190911790556109c38061006f6000396000f3006080604052600436106100985763ffffffff7c01000000000000000000000000000000000000000000000000000000006000350416633f4ba83a811461009d578063422df36b146100b45780635c975abb146100cc578063715018a6146100f55780638456cb591461010a5780638da5cb5b1461011f578063bbee17a314610150578063e0758c9d14610171578063f2fde38b14610186575b600080fd5b3480156100a957600080fd5b506100b26101a7565b005b3480156100c057600080fd5b506100b260043561021d565b3480156100d857600080fd5b506100e161079c565b604080519115158252519081900360200190f35b34801561010157600080fd5b506100b26107ac565b34801561011657600080fd5b506100b2610818565b34801561012b57600080fd5b50610134610893565b60408051600160a060020a039092168252519081900360200190f35b34801561015c57600080fd5b506100b2600160a060020a03600435166108a2565b34801561017d57600080fd5b506101346108e8565b34801561019257600080fd5b506100b2600160a060020a03600435166108f7565b600054600160a060020a031633146101be57600080fd5b60005460a060020a900460ff1615156101d657600080fd5b6000805474ff0000000000000000000000000000000000000000191681556040517f7805862f689e2f13df9f062ff482ad3ad112aca9e0847911ed832e158c525b339190a1565b60008054819081908190819060a060020a900460ff161561023d57600080fd5b600154604080517f32fd8478000000000000000000000000000000000000000000000000000000008152600481018990528151600160a060020a03909316926332fd8478926024808401939192918290030181600087803b1580156102a157600080fd5b505af11580156102b5573d6000803e3d6000fd5b505050506040513d60408110156102cb57600080fd5b508051602090910151909550935033600160a060020a03861614806102fa5750600054600160a060020a031633145b151561038c57604080517f08c379a0000000000000000000000000000000000000000000000000000000008152602060048201526024808201527f4f6e6c792066726f6d207468652065646974696f6e206172746973742061636360448201527f6f756e7400000000000000000000000000000000000000000000000000000000606482015290519081900360840190fd5b600154604080517fbbd1e1fc000000000000000000000000000000000000000000000000000000008152600481018990529051600160a060020a039092169163bbd1e1fc916024808201926020929091908290030181600087803b1580156103f357600080fd5b505af1158015610407573d6000803e3d6000fd5b505050506040513d602081101561041d57600080fd5b5051925082151561048f57604080517f08c379a000000000000000000000000000000000000000000000000000000000815260206004820152601b60248201527f4f6e6c79207768656e2065646974696f6e206973206163746976650000000000604482015290519081900360640190fd5b600154604080517fbc02844c000000000000000000000000000000000000000000000000000000008152600481018990529051600160a060020a039092169163bc02844c916024808201926020929091908290030181600087803b1580156104f657600080fd5b505af115801561050a573d6000803e3d6000fd5b505050506040513d602081101561052057600080fd5b505191506000821161059357604080517f08c379a000000000000000000000000000000000000000000000000000000000815260206004820152601e60248201527f4f6e6c79207768656e2065646974696f6e206e6f7420736f6c64206f75740000604482015290519081900360640190fd5b600154604080517fb6f4df34000000000000000000000000000000000000000000000000000000008152600481018990529051600160a060020a039092169163b6f4df34916024808201926020929091908290030181600087803b1580156105fa57600080fd5b505af115801561060e573d6000803e3d6000fd5b505050506040513d602081101561062457600080fd5b505190508015156106e357600154604080517f04bb1e3d000000000000000000000000000000000000000000000000000000008152600481018990526000602482018190529151600160a060020a03909316926304bb1e3d9260448084019391929182900301818387803b15801561069b57600080fd5b505af11580156106af573d6000803e3d6000fd5b50506040518892507f348df167e29ec37668ed9a0fc6ab683a2ccb42aea11f5a58732e0614674b12989150600090a2610794565b600154604080517fbdcdc0bc00000000000000000000000000000000000000000000000000000000815260048101899052602481018490529051600160a060020a039092169163bdcdc0bc9160448082019260009290919082900301818387803b15801561075057600080fd5b505af1158015610764573d6000803e3d6000fd5b50506040518892507f55721ed6e8ec3c7fae02c16c56c150fbcd92f4485005953a6da5728e2bcefa839150600090a25b505050505050565b60005460a060020a900460ff1681565b600054600160a060020a031633146107c357600080fd5b60008054604051600160a060020a03909116917ff8df31144d9c2f0f6b59d69b8b98abd5459d07f2742c4df920b25aae33c6482091a26000805473ffffffffffffffffffffffffffffffffffffffff19169055565b600054600160a060020a0316331461082f57600080fd5b60005460a060020a900460ff161561084657600080fd5b6000805474ff0000000000000000000000000000000000000000191660a060020a1781556040517f6985a02210a168e66602d3235cb6db0e70f92b3ba4d376a33c0f3d9434bff6259190a1565b600054600160a060020a031681565b600054600160a060020a031633146108b957600080fd5b6001805473ffffffffffffffffffffffffffffffffffffffff1916600160a060020a0392909216919091179055565b600154600160a060020a031681565b600054600160a060020a0316331461090e57600080fd5b6109178161091a565b50565b600160a060020a038116151561092f57600080fd5b60008054604051600160a060020a03808516939216917f8be0079c531659141344cd1fd0a4f28419497f9722a3daafe3b4186f6b6457e091a36000805473ffffffffffffffffffffffffffffffffffffffff1916600160a060020a03929092169190911790555600a165627a7a723058206596ae853e3d86b75867c631bf752c0e369ca044feeee33b3f584d0cafce9c360029",
  "source": "pragma solidity 0.4.24;\n\nimport \"openzeppelin-solidity/contracts/ownership/Ownable.sol\";\nimport \"openzeppelin-solidity/contracts/lifecycle/Pausable.sol\";\nimport \"openzeppelin-solidity/contracts/math/SafeMath.sol\";\n\ninterface IKODAV2ArtistBurner {\n  function editionActive(uint256 _editionNumber) external view returns (bool);\n\n  function artistCommission(uint256 _editionNumber) external view returns (address _artistAccount, uint256 _artistCommission);\n\n  function updateActive(uint256 _editionNumber, bool _active) external;\n\n  function totalSupplyEdition(uint256 _editionNumber) external view returns (uint256);\n\n  function totalRemaining(uint256 _editionNumber) external view returns (uint256);\n\n  function updateTotalAvailable(uint256 _editionNumber, uint256 _totalAvailable) external;\n}\n\n/**\n* @title Artists burning contract for KnownOrigin (KODA)\n*\n* Allows for the edition artists to burn unsold editions or reduce the supply of sold ones\n*\n* https://www.knownorigin.io/\n*\n* BE ORIGINAL. BUY ORIGINAL.\n*/\ncontract ArtistEditionBurner is Ownable, Pausable {\n  using SafeMath for uint256;\n\n  // Interface into the KODA world\n  IKODAV2ArtistBurner public kodaAddress;\n\n  event EditionDeactivated(\n    uint256 indexed _editionNumber\n  );\n\n  event EditionSupplyReduced(\n    uint256 indexed _editionNumber\n  );\n\n  constructor(IKODAV2ArtistBurner _kodaAddress) public {\n    kodaAddress = _kodaAddress;\n  }\n\n  /**\n   * @dev Sets the provided edition to either a deactivated state or reduces the available supply to zero\n   * @dev Only callable from edition artists defined in KODA NFT contract\n   * @dev Only callable when contract is not paused\n   * @dev Reverts if edition is invalid\n   * @dev Reverts if edition is not active in KDOA NFT contract\n   */\n  function deactivateOrReduceEditionSupply(uint256 _editionNumber) external whenNotPaused {\n    (address artistAccount, uint256 _) = kodaAddress.artistCommission(_editionNumber);\n    require(msg.sender == artistAccount || msg.sender == owner, \"Only from the edition artist account\");\n\n    // only allow them to be disabled if we have not already done it already\n    bool isActive = kodaAddress.editionActive(_editionNumber);\n    require(isActive, \"Only when edition is active\");\n\n    // only allow changes if not sold out\n    uint256 totalRemaining = kodaAddress.totalRemaining(_editionNumber);\n    require(totalRemaining > 0, \"Only when edition not sold out\");\n\n    // total issued so far\n    uint256 totalSupply = kodaAddress.totalSupplyEdition(_editionNumber);\n\n    // if no tokens issued, simply disable the edition, burn it!\n    if (totalSupply == 0) {\n      kodaAddress.updateActive(_editionNumber, false);\n      emit EditionDeactivated(_editionNumber);\n    }\n    // if some tokens issued, reduce ths supply so that no more can be issued\n    else {\n      kodaAddress.updateTotalAvailable(_editionNumber, totalSupply);\n      emit EditionSupplyReduced(_editionNumber);\n    }\n  }\n\n  /**\n   * @dev Sets the KODA address\n   * @dev Only callable from owner\n   */\n  function setKodavV2(IKODAV2ArtistBurner _kodaAddress) onlyOwner public {\n    kodaAddress = _kodaAddress;\n  }\n\n}\n",
  "sourcePath": "/Users/jamesmorgan/Dropbox/workspace-blockrocket/knownorigin/known-origin-contracts/contracts/v2/artist-controls/ArtistEditionBurner.sol",
  "compiler": {
    "name": "solc",
    "version": "0.4.24+commit.e67f0147.Emscripten.clang"
  },
  "schemaVersion": "3.1.0",
  "updatedAt": "2020-05-18T13:19:12.050Z",
  "devdoc": {
    "methods": {
      "deactivateOrReduceEditionSupply(uint256)": {
        "details": "Sets the provided edition to either a deactivated state or reduces the available supply to zeroOnly callable from edition artists defined in KODA NFT contractOnly callable when contract is not pausedReverts if edition is invalidReverts if edition is not active in KDOA NFT contract"
      },
      "pause()": {
        "details": "called by the owner to pause, triggers stopped state"
      },
      "renounceOwnership()": {
        "details": "Allows the current owner to relinquish control of the contract."
      },
      "setKodavV2(address)": {
        "details": "Sets the KODA addressOnly callable from owner"
      },
      "transferOwnership(address)": {
        "details": "Allows the current owner to transfer control of the contract to a newOwner.",
        "params": {
          "_newOwner": "The address to transfer ownership to."
        }
      },
      "unpause()": {
        "details": "called by the owner to unpause, returns to normal state"
      }
    },
    "title": "Artists burning contract for KnownOrigin (KODA) * Allows for the edition artists to burn unsold editions or reduce the supply of sold ones * https://www.knownorigin.io/ * BE ORIGINAL. BUY ORIGINAL."
  },
  "userdoc": {
    "methods": {
      "renounceOwnership()": {
        "notice": "Renouncing to ownership will leave the contract without an owner. It will not be possible to call the functions with the `onlyOwner` modifier anymore."
      }
    }
  }
}