{
  "contractName": "ArtistAcceptingBidsV2",
  "abi": [
    {
      "constant": true,
      "inputs": [
        {
          "name": "_operator",
          "type": "address"
        },
        {
          "name": "_role",
          "type": "string"
        }
      ],
      "name": "checkRole",
      "outputs": [],
      "payable": false,
      "stateMutability": "view",
      "type": "function"
    },
    {
      "constant": true,
      "inputs": [],
      "name": "ROLE_WHITELISTED",
      "outputs": [
        {
          "name": "",
          "type": "string"
        }
      ],
      "payable": false,
      "stateMutability": "view",
      "type": "function"
    },
    {
      "constant": true,
      "inputs": [
        {
          "name": "_operator",
          "type": "address"
        },
        {
          "name": "_role",
          "type": "string"
        }
      ],
      "name": "hasRole",
      "outputs": [
        {
          "name": "",
          "type": "bool"
        }
      ],
      "payable": false,
      "stateMutability": "view",
      "type": "function"
    },
    {
      "constant": false,
      "inputs": [
        {
          "name": "_operators",
          "type": "address[]"
        }
      ],
      "name": "removeAddressesFromWhitelist",
      "outputs": [],
      "payable": false,
      "stateMutability": "nonpayable",
      "type": "function"
    },
    {
      "constant": false,
      "inputs": [
        {
          "name": "_operator",
          "type": "address"
        }
      ],
      "name": "removeAddressFromWhitelist",
      "outputs": [],
      "payable": false,
      "stateMutability": "nonpayable",
      "type": "function"
    },
    {
      "constant": false,
      "inputs": [],
      "name": "unpause",
      "outputs": [],
      "payable": false,
      "stateMutability": "nonpayable",
      "type": "function"
    },
    {
      "constant": true,
      "inputs": [
        {
          "name": "",
          "type": "uint256"
        }
      ],
      "name": "editionHighestBid",
      "outputs": [
        {
          "name": "",
          "type": "address"
        }
      ],
      "payable": false,
      "stateMutability": "view",
      "type": "function"
    },
    {
      "constant": true,
      "inputs": [],
      "name": "minBidAmount",
      "outputs": [
        {
          "name": "",
          "type": "uint256"
        }
      ],
      "payable": false,
      "stateMutability": "view",
      "type": "function"
    },
    {
      "constant": true,
      "inputs": [
        {
          "name": "",
          "type": "uint256"
        }
      ],
      "name": "editionsOnceEnabledForAuctions",
      "outputs": [
        {
          "name": "",
          "type": "uint256"
        }
      ],
      "payable": false,
      "stateMutability": "view",
      "type": "function"
    },
    {
      "constant": true,
      "inputs": [],
      "name": "paused",
      "outputs": [
        {
          "name": "",
          "type": "bool"
        }
      ],
      "payable": false,
      "stateMutability": "view",
      "type": "function"
    },
    {
      "constant": true,
      "inputs": [],
      "name": "koCommissionAccount",
      "outputs": [
        {
          "name": "",
          "type": "address"
        }
      ],
      "payable": false,
      "stateMutability": "view",
      "type": "function"
    },
    {
      "constant": false,
      "inputs": [],
      "name": "renounceOwnership",
      "outputs": [],
      "payable": false,
      "stateMutability": "nonpayable",
      "type": "function"
    },
    {
      "constant": true,
      "inputs": [
        {
          "name": "",
          "type": "uint256"
        }
      ],
      "name": "editionNumberToArtistControlAddress",
      "outputs": [
        {
          "name": "",
          "type": "address"
        }
      ],
      "payable": false,
      "stateMutability": "view",
      "type": "function"
    },
    {
      "constant": false,
      "inputs": [
        {
          "name": "_operator",
          "type": "address"
        }
      ],
      "name": "addAddressToWhitelist",
      "outputs": [],
      "payable": false,
      "stateMutability": "nonpayable",
      "type": "function"
    },
    {
      "constant": false,
      "inputs": [],
      "name": "pause",
      "outputs": [],
      "payable": false,
      "stateMutability": "nonpayable",
      "type": "function"
    },
    {
      "constant": true,
      "inputs": [],
      "name": "owner",
      "outputs": [
        {
          "name": "",
          "type": "address"
        }
      ],
      "payable": false,
      "stateMutability": "view",
      "type": "function"
    },
    {
      "constant": true,
      "inputs": [
        {
          "name": "_operator",
          "type": "address"
        }
      ],
      "name": "whitelist",
      "outputs": [
        {
          "name": "",
          "type": "bool"
        }
      ],
      "payable": false,
      "stateMutability": "view",
      "type": "function"
    },
    {
      "constant": true,
      "inputs": [
        {
          "name": "",
          "type": "uint256"
        }
      ],
      "name": "enabledEditions",
      "outputs": [
        {
          "name": "",
          "type": "bool"
        }
      ],
      "payable": false,
      "stateMutability": "view",
      "type": "function"
    },
    {
      "constant": true,
      "inputs": [],
      "name": "kodaAddress",
      "outputs": [
        {
          "name": "",
          "type": "address"
        }
      ],
      "payable": false,
      "stateMutability": "view",
      "type": "function"
    },
    {
      "constant": false,
      "inputs": [
        {
          "name": "_operators",
          "type": "address[]"
        }
      ],
      "name": "addAddressesToWhitelist",
      "outputs": [],
      "payable": false,
      "stateMutability": "nonpayable",
      "type": "function"
    },
    {
      "constant": false,
      "inputs": [
        {
          "name": "_newOwner",
          "type": "address"
        }
      ],
      "name": "transferOwnership",
      "outputs": [],
      "payable": false,
      "stateMutability": "nonpayable",
      "type": "function"
    },
    {
      "inputs": [
        {
          "name": "_kodaAddress",
          "type": "address"
        }
      ],
      "payable": false,
      "stateMutability": "nonpayable",
      "type": "constructor"
    },
    {
      "anonymous": false,
      "inputs": [
        {
          "indexed": true,
          "name": "_bidder",
          "type": "address"
        },
        {
          "indexed": true,
          "name": "_editionNumber",
          "type": "uint256"
        },
        {
          "indexed": false,
          "name": "_amount",
          "type": "uint256"
        }
      ],
      "name": "BidPlaced",
      "type": "event"
    },
    {
      "anonymous": false,
      "inputs": [
        {
          "indexed": true,
          "name": "_bidder",
          "type": "address"
        },
        {
          "indexed": true,
          "name": "_editionNumber",
          "type": "uint256"
        },
        {
          "indexed": false,
          "name": "_amount",
          "type": "uint256"
        }
      ],
      "name": "BidIncreased",
      "type": "event"
    },
    {
      "anonymous": false,
      "inputs": [
        {
          "indexed": true,
          "name": "_bidder",
          "type": "address"
        },
        {
          "indexed": true,
          "name": "_editionNumber",
          "type": "uint256"
        }
      ],
      "name": "BidWithdrawn",
      "type": "event"
    },
    {
      "anonymous": false,
      "inputs": [
        {
          "indexed": true,
          "name": "_bidder",
          "type": "address"
        },
        {
          "indexed": true,
          "name": "_editionNumber",
          "type": "uint256"
        },
        {
          "indexed": true,
          "name": "_tokenId",
          "type": "uint256"
        },
        {
          "indexed": false,
          "name": "_amount",
          "type": "uint256"
        }
      ],
      "name": "BidAccepted",
      "type": "event"
    },
    {
      "anonymous": false,
      "inputs": [
        {
          "indexed": true,
          "name": "_caller",
          "type": "address"
        },
        {
          "indexed": true,
          "name": "_bidder",
          "type": "address"
        },
        {
          "indexed": true,
          "name": "_editionNumber",
          "type": "uint256"
        },
        {
          "indexed": false,
          "name": "_amount",
          "type": "uint256"
        }
      ],
      "name": "BidRejected",
      "type": "event"
    },
    {
      "anonymous": false,
      "inputs": [
        {
          "indexed": true,
          "name": "_editionNumber",
          "type": "uint256"
        },
        {
          "indexed": true,
          "name": "_bidder",
          "type": "address"
        },
        {
          "indexed": false,
          "name": "_amount",
          "type": "uint256"
        }
      ],
      "name": "BidderRefunded",
      "type": "event"
    },
    {
      "anonymous": false,
      "inputs": [
        {
          "indexed": true,
          "name": "_editionNumber",
          "type": "uint256"
        }
      ],
      "name": "AuctionCancelled",
      "type": "event"
    },
    {
      "anonymous": false,
      "inputs": [
        {
          "indexed": true,
          "name": "_editionNumber",
          "type": "uint256"
        },
        {
          "indexed": true,
          "name": "_auctioneer",
          "type": "address"
        }
      ],
      "name": "AuctionEnabled",
      "type": "event"
    },
    {
      "anonymous": false,
      "inputs": [
        {
          "indexed": true,
          "name": "_editionNumber",
          "type": "uint256"
        },
        {
          "indexed": true,
          "name": "_auctioneer",
          "type": "address"
        }
      ],
      "name": "AuctionDisabled",
      "type": "event"
    },
    {
      "anonymous": false,
      "inputs": [],
      "name": "Pause",
      "type": "event"
    },
    {
      "anonymous": false,
      "inputs": [],
      "name": "Unpause",
      "type": "event"
    },
    {
      "anonymous": false,
      "inputs": [
        {
          "indexed": true,
          "name": "operator",
          "type": "address"
        },
        {
          "indexed": false,
          "name": "role",
          "type": "string"
        }
      ],
      "name": "RoleAdded",
      "type": "event"
    },
    {
      "anonymous": false,
      "inputs": [
        {
          "indexed": true,
          "name": "operator",
          "type": "address"
        },
        {
          "indexed": false,
          "name": "role",
          "type": "string"
        }
      ],
      "name": "RoleRemoved",
      "type": "event"
    },
    {
      "anonymous": false,
      "inputs": [
        {
          "indexed": true,
          "name": "previousOwner",
          "type": "address"
        }
      ],
      "name": "OwnershipRenounced",
      "type": "event"
    },
    {
      "anonymous": false,
      "inputs": [
        {
          "indexed": true,
          "name": "previousOwner",
          "type": "address"
        },
        {
          "indexed": true,
          "name": "newOwner",
          "type": "address"
        }
      ],
      "name": "OwnershipTransferred",
      "type": "event"
    },
    {
      "constant": false,
      "inputs": [
        {
          "name": "_editionNumber",
          "type": "uint256"
        }
      ],
      "name": "placeBid",
      "outputs": [
        {
          "name": "success",
          "type": "bool"
        }
      ],
      "payable": true,
      "stateMutability": "payable",
      "type": "function"
    },
    {
      "constant": false,
      "inputs": [
        {
          "name": "_editionNumber",
          "type": "uint256"
        }
      ],
      "name": "increaseBid",
      "outputs": [
        {
          "name": "success",
          "type": "bool"
        }
      ],
      "payable": true,
      "stateMutability": "payable",
      "type": "function"
    },
    {
      "constant": false,
      "inputs": [
        {
          "name": "_editionNumber",
          "type": "uint256"
        }
      ],
      "name": "withdrawBid",
      "outputs": [
        {
          "name": "success",
          "type": "bool"
        }
      ],
      "payable": false,
      "stateMutability": "nonpayable",
      "type": "function"
    },
    {
      "constant": false,
      "inputs": [
        {
          "name": "_editionNumber",
          "type": "uint256"
        }
      ],
      "name": "cancelAuction",
      "outputs": [
        {
          "name": "success",
          "type": "bool"
        }
      ],
      "payable": false,
      "stateMutability": "nonpayable",
      "type": "function"
    },
    {
      "constant": false,
      "inputs": [
        {
          "name": "_editionNumber",
          "type": "uint256"
        }
      ],
      "name": "rejectBid",
      "outputs": [
        {
          "name": "success",
          "type": "bool"
        }
      ],
      "payable": false,
      "stateMutability": "nonpayable",
      "type": "function"
    },
    {
      "constant": false,
      "inputs": [
        {
          "name": "_editionNumber",
          "type": "uint256"
        }
      ],
      "name": "acceptBid",
      "outputs": [
        {
          "name": "tokenId",
          "type": "uint256"
        }
      ],
      "payable": false,
      "stateMutability": "nonpayable",
      "type": "function"
    },
    {
      "constant": false,
      "inputs": [
        {
          "name": "_editionNumber",
          "type": "uint256"
        }
      ],
      "name": "enableEditionForArtist",
      "outputs": [
        {
          "name": "",
          "type": "bool"
        }
      ],
      "payable": false,
      "stateMutability": "nonpayable",
      "type": "function"
    },
    {
      "constant": false,
      "inputs": [
        {
          "name": "_editionNumber",
          "type": "uint256"
        }
      ],
      "name": "enableEdition",
      "outputs": [
        {
          "name": "",
          "type": "bool"
        }
      ],
      "payable": false,
      "stateMutability": "nonpayable",
      "type": "function"
    },
    {
      "constant": false,
      "inputs": [
        {
          "name": "_editionNumber",
          "type": "uint256"
        }
      ],
      "name": "disableEdition",
      "outputs": [
        {
          "name": "",
          "type": "bool"
        }
      ],
      "payable": false,
      "stateMutability": "nonpayable",
      "type": "function"
    },
    {
      "constant": false,
      "inputs": [
        {
          "name": "_editionNumber",
          "type": "uint256"
        },
        {
          "name": "_address",
          "type": "address"
        }
      ],
      "name": "setArtistsControlAddress",
      "outputs": [
        {
          "name": "",
          "type": "bool"
        }
      ],
      "payable": false,
      "stateMutability": "nonpayable",
      "type": "function"
    },
    {
      "constant": false,
      "inputs": [
        {
          "name": "_editionNumber",
          "type": "uint256"
        },
        {
          "name": "_address",
          "type": "address"
        }
      ],
      "name": "setArtistsControlAddressAndEnabledEdition",
      "outputs": [
        {
          "name": "",
          "type": "bool"
        }
      ],
      "payable": false,
      "stateMutability": "nonpayable",
      "type": "function"
    },
    {
      "constant": false,
      "inputs": [
        {
          "name": "_minBidAmount",
          "type": "uint256"
        }
      ],
      "name": "setMinBidAmount",
      "outputs": [],
      "payable": false,
      "stateMutability": "nonpayable",
      "type": "function"
    },
    {
      "constant": false,
      "inputs": [
        {
          "name": "_kodaAddress",
          "type": "address"
        }
      ],
      "name": "setKodavV2",
      "outputs": [],
      "payable": false,
      "stateMutability": "nonpayable",
      "type": "function"
    },
    {
      "constant": false,
      "inputs": [
        {
          "name": "_koCommissionAccount",
          "type": "address"
        }
      ],
      "name": "setKoCommissionAccount",
      "outputs": [],
      "payable": false,
      "stateMutability": "nonpayable",
      "type": "function"
    },
    {
      "constant": false,
      "inputs": [
        {
          "name": "_withdrawalAccount",
          "type": "address"
        }
      ],
      "name": "withdrawStuckEther",
      "outputs": [],
      "payable": false,
      "stateMutability": "nonpayable",
      "type": "function"
    },
    {
      "constant": false,
      "inputs": [
        {
          "name": "_withdrawalAccount",
          "type": "address"
        },
        {
          "name": "_amount",
          "type": "uint256"
        }
      ],
      "name": "withdrawStuckEtherOfAmount",
      "outputs": [],
      "payable": false,
      "stateMutability": "nonpayable",
      "type": "function"
    },
    {
      "constant": false,
      "inputs": [
        {
          "name": "_editionNumber",
          "type": "uint256"
        },
        {
          "name": "_bidder",
          "type": "address"
        },
        {
          "name": "_amount",
          "type": "uint256"
        }
      ],
      "name": "manualOverrideEditionHighestBidAndBidder",
      "outputs": [
        {
          "name": "",
          "type": "bool"
        }
      ],
      "payable": false,
      "stateMutability": "nonpayable",
      "type": "function"
    },
    {
      "constant": false,
      "inputs": [
        {
          "name": "_editionNumber",
          "type": "uint256"
        },
        {
          "name": "_bidder",
          "type": "address"
        }
      ],
      "name": "manualDeleteEditionBids",
      "outputs": [
        {
          "name": "",
          "type": "bool"
        }
      ],
      "payable": false,
      "stateMutability": "nonpayable",
      "type": "function"
    },
    {
      "constant": true,
      "inputs": [
        {
          "name": "_editionNumber",
          "type": "uint256"
        }
      ],
      "name": "auctionDetails",
      "outputs": [
        {
          "name": "_enabled",
          "type": "bool"
        },
        {
          "name": "_bidder",
          "type": "address"
        },
        {
          "name": "_value",
          "type": "uint256"
        },
        {
          "name": "_controller",
          "type": "address"
        }
      ],
      "payable": false,
      "stateMutability": "view",
      "type": "function"
    },
    {
      "constant": true,
      "inputs": [
        {
          "name": "_editionNumber",
          "type": "uint256"
        }
      ],
      "name": "highestBidForEdition",
      "outputs": [
        {
          "name": "_bidder",
          "type": "address"
        },
        {
          "name": "_value",
          "type": "uint256"
        }
      ],
      "payable": false,
      "stateMutability": "view",
      "type": "function"
    },
    {
      "constant": true,
      "inputs": [
        {
          "name": "_editionNumber",
          "type": "uint256"
        }
      ],
      "name": "isEditionEnabled",
      "outputs": [
        {
          "name": "",
          "type": "bool"
        }
      ],
      "payable": false,
      "stateMutability": "view",
      "type": "function"
    },
    {
      "constant": true,
      "inputs": [
        {
          "name": "_editionNumber",
          "type": "uint256"
        }
      ],
      "name": "editionController",
      "outputs": [
        {
          "name": "",
          "type": "address"
        }
      ],
      "payable": false,
      "stateMutability": "view",
      "type": "function"
    },
    {
      "constant": true,
      "inputs": [],
      "name": "addedEditions",
      "outputs": [
        {
          "name": "",
          "type": "uint256[]"
        }
      ],
      "payable": false,
      "stateMutability": "view",
      "type": "function"
    }
  ],
  "bytecode": "0x60806040526002805460ff19169055662386f26fc100006008553480156200002657600080fd5b506040516020806200350183398101604052516000805433600160a060020a03199182168117909255600980548216600160a060020a038516179055600a80549091168217905562000086906401000000006200008d810262001b651704565b5062000243565b600054600160a060020a03163314620000a557600080fd5b620000f5816040805190810160405280600981526020017f77686974656c6973740000000000000000000000000000000000000000000000815250620000f8640100000000026401000000009004565b50565b62000174826001836040518082805190602001908083835b60208310620001315780518252601f19909201916020918201910162000110565b51815160209384036101000a60001901801990921691161790529201948552506040519384900301909220929150506401000000006200021e8102620031fd1704565b81600160a060020a03167fbfec83d64eaa953f2708271a023ab9ee82057f8f3578d548c1a4ba0b5b700489826040518080602001828103825283818151815260200191508051906020019080838360005b83811015620001df578181015183820152602001620001c5565b50505050905090810190601f1680156200020d5780820380516001836020036101000a031916815260200191505b509250505060405180910390a25050565b600160a060020a0316600090815260209190915260409020805460ff19166001179055565b6132ae80620002536000396000f3006080604052600436106102185763ffffffff7c010000000000000000000000000000000000000000000000000000000060003504166270c537811461021d578063017b0d001461023c5780630988ca8c146102775780630eaaf4c8146102e057806318b919e9146102f8578063217fe6c61461038257806324953eaa146103e957806326ccd77a1461043e578063286dd3f51461045f5780632b1fd58a146104805780633f0bfab1146104aa5780633f4ba83a1461050f578063417fd6b614610524578063438bad751461053c57806349751788146105705780635514735c146105855780635c975abb1461059d5780635e101e51146105b25780636e3341b3146105ca5780636e93dbdc146105e2578063715018a6146105f757806374b799af1461060c5780637526a8e5146106245780637b9417c81461063c5780638456cb591461065d5780638603d31a146106725780638716f4c1146106bd5780638ba5882a146106d55780638da5cb5b146106fc578063953e474a1461071157806396b5a7551461073257806396d9a8811461074a5780639979ef451461076e5780639b19251a14610779578063b5e7f3c31461079a578063b9e04eea146107be578063bbee17a3146107e2578063d1d58f0014610803578063e0397a941461081b578063e0758c9d1461083f578063e2ec6ec314610854578063e3ecbd7e146108a9578063e4ae2e88146108c1578063f2fde38b146108d9575b600080fd5b6102286004356108fa565b604080519115158252519081900360200190f35b34801561024857600080fd5b50610254600435610cf1565b60408051600160a060020a03909316835260208301919091528051918290030190f35b34801561028357600080fd5b5060408051602060046024803582810135601f81018590048502860185019096528585526102de958335600160a060020a0316953695604494919390910191908190840183828082843750949750610d229650505050505050565b005b3480156102ec57600080fd5b50610228600435610d90565b34801561030457600080fd5b5061030d610f42565b6040805160208082528351818301528351919283929083019185019080838360005b8381101561034757818101518382015260200161032f565b50505050905090810190601f1680156103745780820380516001836020036101000a031916815260200191505b509250505060405180910390f35b34801561038e57600080fd5b5060408051602060046024803582810135601f8101859004850286018501909652858552610228958335600160a060020a0316953695604494919390910191908190840183828082843750949750610f679650505050505050565b3480156103f557600080fd5b50604080516020600480358082013583810280860185019096528085526102de95369593946024949385019291829185019084908082843750949750610fdc9650505050505050565b34801561044a57600080fd5b506102de600160a060020a0360043516611029565b34801561046b57600080fd5b506102de600160a060020a036004351661114a565b34801561048c57600080fd5b50610498600435611191565b60408051918252519081900360200190f35b3480156104b657600080fd5b506104bf61169d565b60408051602080825283518183015283519192839290830191858101910280838360005b838110156104fb5781810151838201526020016104e3565b505050509050019250505060405180910390f35b34801561051b57600080fd5b506102de6116f5565b34801561053057600080fd5b506102de600435611752565b34801561054857600080fd5b50610554600435611786565b60408051600160a060020a039092168252519081900360200190f35b34801561057c57600080fd5b506104986117a1565b34801561059157600080fd5b506104986004356117a7565b3480156105a957600080fd5b506102286117c6565b3480156105be57600080fd5b506105546004356117cf565b3480156105d657600080fd5b506102286004356117ea565b3480156105ee57600080fd5b50610554611a63565b34801561060357600080fd5b506102de611a72565b34801561061857600080fd5b50610228600435611ad1565b34801561063057600080fd5b50610554600435611b4a565b34801561064857600080fd5b506102de600160a060020a0360043516611b65565b34801561066957600080fd5b506102de611ba9565b34801561067e57600080fd5b5061068a600435611c08565b604080519415158552600160a060020a039384166020860152848101929092529091166060830152519081900360800190f35b3480156106c957600080fd5b50610228600435611c58565b3480156106e157600080fd5b50610228600435600160a060020a0360243516604435611f76565b34801561070857600080fd5b50610554611ff3565b34801561071d57600080fd5b506102de600160a060020a0360043516612002565b34801561073e57600080fd5b506102286004356120b3565b34801561075657600080fd5b50610228600435600160a060020a03602435166121fc565b61022860043561226d565b34801561078557600080fd5b50610228600160a060020a03600435166126f1565b3480156107a657600080fd5b50610228600435600160a060020a0360243516612720565b3480156107ca57600080fd5b506102de600160a060020a0360043516602435612860565b3480156107ee57600080fd5b506102de600160a060020a03600435166129da565b34801561080f57600080fd5b50610228600435612a2b565b34801561082757600080fd5b50610228600435600160a060020a0360243516612a40565b34801561084b57600080fd5b50610554612aa4565b34801561086057600080fd5b50604080516020600480358082013583810280860185019096528085526102de95369593946024949385019291829185019084908082843750949750612ab39650505050505050565b3480156108b557600080fd5b50610228600435612b00565b3480156108cd57600080fd5b50610228600435612b15565b3480156108e557600080fd5b506102de600160a060020a0360043516612b91565b60025460009060ff161561090d57600080fd5b60085434101561098d576040805160e560020a62461bcd02815260206004820152602b60248201527f42696473206d75737420626520686967686572207468616e206d696e696d756d60448201527f2062696420616d6f756e74000000000000000000000000000000000000000000606482015290519081900360840190fd5b6009546040805160e160020a6361597daf0281526004810185905290518492600092600160a060020a039091169163c2b2fb5e9160248082019260209290919082900301818787803b1580156109e257600080fd5b505af11580156109f6573d6000803e3d6000fd5b505050506040513d6020811015610a0c57600080fd5b50519050801515610a55576040805160e560020a62461bcd0281526020600482015260166024820152600080516020613243833981519152604482015290519081900360640190fd5b600084815260046020526040902054849060ff161515610abc576040805160e560020a62461bcd0281526020600482015260236024820152600080516020613263833981519152604482015260e860020a626f6e7302606482015290519081900360840190fd5b600954604080517fbc02844c0000000000000000000000000000000000000000000000000000000081526004810188905290518792600092600160a060020a039091169163bc02844c9160248082019260209290919082900301818787803b158015610b2757600080fd5b505af1158015610b3b573d6000803e3d6000fd5b505050506040513d6020811015610b5157600080fd5b5051905060008111610bd3576040805160e560020a62461bcd02815260206004820152603360248201527f556e61626c6520746f2061636365707420616e79206d6f726520626964732c2060448201527f65646974696f6e20697320736f6c64206f757400000000000000000000000000606482015290519081900360840190fd5b6000878152600560205260409020548790600160a060020a03163314610c69576040805160e560020a62461bcd02815260206004820152603560248201527f43616e206f6e6c7920776974686472617720612062696420696620796f75206160448201527f7265207468652068696768657374206269646465720000000000000000000000606482015290519081900360840190fd5b6000888152600660209081526040808320338452909152902054610c93903463ffffffff612bb116565b600089815260066020908152604080832033808552908352928190208490558051938452518b937fabdd90c2558a13a111c790b3e52da9a52768834a1139e2993b68b6db09c071c592908290030190a3506001979650505050505050565b60009081526005602090815260408083205460068352818420600160a060020a039091168085529252909120549091565b610d8c826001836040518082805190602001908083835b60208310610d585780518252601f199092019160209182019101610d39565b51815160209384036101000a6000190180199092169116179052920194855250604051938490030190922092915050612bbe565b5050565b60025460009060ff1615610da357600080fd5b6009546040805160e160020a6361597daf0281526004810185905290518492600092600160a060020a039091169163c2b2fb5e9160248082019260209290919082900301818787803b158015610df857600080fd5b505af1158015610e0c573d6000803e3d6000fd5b505050506040513d6020811015610e2257600080fd5b50519050801515610e6b576040805160e560020a62461bcd0281526020600482015260166024820152600080516020613243833981519152604482015290519081900360640190fd5b6000848152600560205260409020548490600160a060020a03163314610f01576040805160e560020a62461bcd02815260206004820152603560248201527f43616e206f6e6c7920776974686472617720612062696420696620796f75206160448201527f7265207468652068696768657374206269646465720000000000000000000000606482015290519081900360840190fd5b610f0a85612bd3565b604051859033907f03f0427e8bcfdf5f69217150cf160ebe2dac5fa607336fd7643bfd61a901908090600090a3506001949350505050565b6040805180820190915260098152600080516020613223833981519152602082015281565b6000610fd3836001846040518082805190602001908083835b60208310610f9f5780518252601f199092019160209182019101610f80565b51815160209384036101000a6000190180199092169116179052920194855250604051938490030190922092915050612ca9565b90505b92915050565b60008054600160a060020a03163314610ff457600080fd5b5060005b8151811015610d8c57611021828281518110151561101257fe5b9060200190602002015161114a565b600101610ff8565b3361105781604080519081016040528060098152602001600080516020613223833981519152815250610d22565b600160a060020a03821615156110b7576040805160e560020a62461bcd02815260206004820152601860248201527f496e76616c696420616464726573732070726f76696465640000000000000000604482015290519081900360640190fd5b3031151561110f576040805160e560020a62461bcd02815260206004820152601960248201527f4e6f206d6f726520657468657220746f20776974686472617700000000000000604482015290519081900360640190fd5b604051600160a060020a03831690303180156108fc02916000818181858888f19350505050158015611145573d6000803e3d6000fd5b505050565b600054600160a060020a0316331461116157600080fd5b61118e81604080519081016040528060098152602001600080516020613223833981519152815250612cc8565b50565b600254600090819081908190819060ff16156111ac57600080fd5b6000868152600360205260409020548690600160a060020a03163314806111d757506111d7336126f1565b1515611253576040805160e560020a62461bcd02815260206004820152602660248201527f45646974696f6e206e6f74206d616e616765642062792063616c6c696e67206160448201527f6464726573730000000000000000000000000000000000000000000000000000606482015290519081900360840190fd5b600087815260046020526040902054879060ff1615156112ba576040805160e560020a62461bcd0281526020600482015260236024820152600080516020613263833981519152604482015260e860020a626f6e7302606482015290519081900360840190fd5b600954604080517fbc02844c000000000000000000000000000000000000000000000000000000008152600481018b90529051600160a060020a039092169163bc02844c916024808201926020929091908290030181600087803b15801561132157600080fd5b505af1158015611335573d6000803e3d6000fd5b505050506040513d602081101561134b57600080fd5b50519550600086116113cd576040805160e560020a62461bcd02815260206004820152602960248201527f556e61626c6520746f20616363657074206269642c2065646974696f6e20697360448201527f20736f6c64206f75740000000000000000000000000000000000000000000000606482015290519081900360840190fd5b600088815260056020526040902054600160a060020a03169450841515611464576040805160e560020a62461bcd02815260206004820152603560248201527f43616e6e6f742077696e20616e2061756374696f6e207768656e20746865726560448201527f206973206e6f2068696768657374206269646465720000000000000000000000606482015290519081900360840190fd5b6000888152600660209081526040808320600160a060020a03891684529091528120549450841015611506576040805160e560020a62461bcd02815260206004820152602c60248201527f43616e6e6f742077696e20616e2061756374696f6e207768656e206e6f20626960448201527f6420616d6f756e74207365740000000000000000000000000000000000000000606482015290519081900360840190fd5b600954604080517f40c10f19000000000000000000000000000000000000000000000000000000008152600160a060020a038881166004830152602482018c9052915191909216916340c10f199160448083019260209291908290030181600087803b15801561157557600080fd5b505af1158015611589573d6000803e3d6000fd5b505050506040513d602081101561159f57600080fd5b505192508215156115fa576040805160e560020a62461bcd02815260206004820152601860248201527f4661696c656420746f206d696e74206e657720746f6b656e0000000000000000604482015290519081900360640190fd5b6116048885612dd9565b60008881526005602052604090208054600160a060020a031916905561163186600163ffffffff61304916565b151561164e576000888152600460205260409020805460ff191690555b828886600160a060020a03167f77273c2a169296530c120eb6f1142012378aad0ed4337eac090eaf4223a1a2f1876040518082815260200191505060405180910390a450909695505050505050565b606060078054806020026020016040519081016040528092919081815260200182805480156116eb57602002820191906000526020600020905b8154815260200190600101908083116116d7575b5050505050905090565b600054600160a060020a0316331461170c57600080fd5b60025460ff16151561171d57600080fd5b6002805460ff191690556040517f7805862f689e2f13df9f062ff482ad3ad112aca9e0847911ed832e158c525b3390600090a1565b3361178081604080519081016040528060098152602001600080516020613223833981519152815250610d22565b50600855565b600560205260009081526040902054600160a060020a031681565b60085481565b60078054829081106117b557fe5b600091825260209091200154905081565b60025460ff1681565b600090815260036020526040902054600160a060020a031690565b6002546000908190819060ff161561180157600080fd5b6009546040805160e160020a6361597daf0281526004810187905290518692600092600160a060020a039091169163c2b2fb5e9160248082019260209290919082900301818787803b15801561185657600080fd5b505af115801561186a573d6000803e3d6000fd5b505050506040513d602081101561188057600080fd5b505190508015156118c9576040805160e560020a62461bcd0281526020600482015260166024820152600080516020613243833981519152604482015290519081900360640190fd5b6000868152600360205260409020548690600160a060020a03163314806118f457506118f4336126f1565b1515611970576040805160e560020a62461bcd02815260206004820152602660248201527f45646974696f6e206e6f74206d616e616765642062792063616c6c696e67206160448201527f6464726573730000000000000000000000000000000000000000000000000000606482015290519081900360840190fd5b600087815260046020526040902054879060ff1615156119d7576040805160e560020a62461bcd0281526020600482015260236024820152600080516020613263833981519152604482015260e860020a626f6e7302606482015290519081900360840190fd5b60008881526005602090815260408083205460068352818420600160a060020a039091168085529252909120549096509450611a1288612bd3565b6040805186815290518991600160a060020a0389169133917f841d03d1231c7a17778be9efc220fccbcf8e0d79180778eb59c0653373aa9018919081900360200190a4506001979650505050505050565b600a54600160a060020a031681565b600054600160a060020a03163314611a8957600080fd5b60008054604051600160a060020a03909116917ff8df31144d9c2f0f6b59d69b8b98abd5459d07f2742c4df920b25aae33c6482091a260008054600160a060020a0319169055565b600033611b0181604080519081016040528060098152602001600080516020613223833981519152815250610d22565b600083815260046020526040808220805460ff1916905551339185917fe0c56951f00a75f5139f9af608a2ae603fe7c340a8f4b4b3125e9a7018041b609190a350600192915050565b600360205260009081526040902054600160a060020a031681565b600054600160a060020a03163314611b7c57600080fd5b61118e8160408051908101604052806009815260200160008051602061322383398151915281525061305b565b600054600160a060020a03163314611bc057600080fd5b60025460ff1615611bd057600080fd5b6002805460ff191660011790556040517f6985a02210a168e66602d3235cb6db0e70f92b3ba4d376a33c0f3d9434bff62590600090a1565b60008181526005602090815260408083205460068352818420600160a060020a039182168086529084528285205486865260038552838620546004909552929094205460ff169392169193509193565b6002546000908190819060ff1615611c6f57600080fd5b6009546040805160e160020a6361597daf0281526004810187905290518692600092600160a060020a039091169163c2b2fb5e9160248082019260209290919082900301818787803b158015611cc457600080fd5b505af1158015611cd8573d6000803e3d6000fd5b505050506040513d6020811015611cee57600080fd5b50519050801515611d37576040805160e560020a62461bcd0281526020600482015260166024820152600080516020613243833981519152604482015290519081900360640190fd5b600954604080517f32fd8478000000000000000000000000000000000000000000000000000000008152600481018990528151600160a060020a03909316926332fd8478926024808401939192918290030181600087803b158015611d9b57600080fd5b505af1158015611daf573d6000803e3d6000fd5b505050506040513d6040811015611dc557600080fd5b5080516020909101519094509250611ddc336126f1565b80611def575033600160a060020a038516145b1515611e6b576040805160e560020a62461bcd02815260206004820152602960248201527f43616e6e6f7420656e61626c65207768656e206e6f742074686520656469746960448201527f6f6e206172746973740000000000000000000000000000000000000000000000606482015290519081900360840190fd5b60008681526004602052604090205460ff1615611ed2576040805160e560020a62461bcd02815260206004820152601760248201527f45646974696f6e20616c726561647920656e61626c6564000000000000000000604482015290519081900360640190fd5b60008681526004602090815260408083208054600160ff1990911681179091556007805491820190557fa66cc928b5edb82af9bd49922954155ab7b0942694bea4ce44661d9a8736c6880189905560039091528082208054600160a060020a031916600160a060020a03881617905551339188917fdeb115d202a55795fb5e47cee9ce6c0bd792a016a2d1251f937b1bb24e92332e9190a350600195945050505050565b600033611fa681604080519081016040528060098152602001600080516020613223833981519152815250610d22565b50506000838152600660209081526040808320600160a060020a03959095168084529482528083209390935593815260059093529091208054600160a060020a0319169091179055600190565b600054600160a060020a031681565b3361203081604080519081016040528060098152602001600080516020613223833981519152815250610d22565b600160a060020a0382161515612090576040805160e560020a62461bcd02815260206004820152600f60248201527f496e76616c696420616464726573730000000000000000000000000000000000604482015290519081900360640190fd5b50600a8054600160a060020a031916600160a060020a0392909216919091179055565b6000336120e381604080519081016040528060098152602001600080516020613223833981519152815250610d22565b6009546040805160e160020a6361597daf0281526004810186905290518592600092600160a060020a039091169163c2b2fb5e9160248082019260209290919082900301818787803b15801561213857600080fd5b505af115801561214c573d6000803e3d6000fd5b505050506040513d602081101561216257600080fd5b505190508015156121ab576040805160e560020a62461bcd0281526020600482015260166024820152600080516020613243833981519152604482015290519081900360640190fd5b6121b485612bd3565b600085815260046020526040808220805460ff191690555186917f2809c7e17bf978fbc7194c0a694b638c4215e9140cacc6c38ca36010b45697df91a2506001949350505050565b60003361222c81604080519081016040528060098152602001600080516020613223833981519152815250610d22565b505060009182526005602090815260408084208054600160a060020a031916905560068252808420600160a060020a03939093168452919052812055600190565b60025460009060ff161561228057600080fd5b6009546040805160e160020a6361597daf0281526004810185905290518492600092600160a060020a039091169163c2b2fb5e9160248082019260209290919082900301818787803b1580156122d557600080fd5b505af11580156122e9573d6000803e3d6000fd5b505050506040513d60208110156122ff57600080fd5b50519050801515612348576040805160e560020a62461bcd0281526020600482015260166024820152600080516020613243833981519152604482015290519081900360640190fd5b600084815260046020526040902054849060ff1615156123af576040805160e560020a62461bcd0281526020600482015260236024820152600080516020613263833981519152604482015260e860020a626f6e7302606482015290519081900360840190fd5b60008581526005602090815260408083205460068352818420600160a060020a039091168085529252909120546008548792919034906123f690839063ffffffff612bb116565b1115612472576040805160e560020a62461bcd02815260206004820152603760248201527f42696473206d75737420626520686967686572207468616e2070726576696f7560448201527f73206269647320706c7573206d696e696d756d20626964000000000000000000606482015290519081900360840190fd5b6000888152600560205260409020548890600160a060020a03163381141561250a576040805160e560020a62461bcd02815260206004820152603560248201527f43616e742062696420616e796d6f72652c20796f752061726520616c7265616460448201527f79207468652063757272656e7420686967686573740000000000000000000000606482015290519081900360840190fd5b600954604080517fbc02844c000000000000000000000000000000000000000000000000000000008152600481018d905290518c92600092600160a060020a039091169163bc02844c9160248082019260209290919082900301818787803b15801561257557600080fd5b505af1158015612589573d6000803e3d6000fd5b505050506040513d602081101561259f57600080fd5b5051905060008111612621576040805160e560020a62461bcd02815260206004820152603360248201527f556e61626c6520746f2061636365707420616e79206d6f726520626964732c2060448201527f65646974696f6e20697320736f6c64206f757400000000000000000000000000606482015290519081900360840190fd5b61262a8c612bd3565b34600660008e8152602001908152602001600020600033600160a060020a0316600160a060020a031681526020019081526020016000208190555033600560008e815260200190815260200160002060006101000a815481600160a060020a030219169083600160a060020a031602179055508b33600160a060020a03167fdf8644c0a4c21ed214ce69f395675b3a5fcd1039083daea5058898de40ea3149346040518082815260200191505060405180910390a35060019b9a5050505050505050505050565b6000610fd682604080519081016040528060098152602001600080516020613223833981519152815250610f67565b60003361275081604080519081016040528060098152602001600080516020613223833981519152815250610d22565b60008481526004602052604090205460ff16156127b7576040805160e560020a62461bcd02815260206004820152601760248201527f45646974696f6e20616c726561647920656e61626c6564000000000000000000604482015290519081900360640190fd5b6000848152600460209081526040808320805460ff1916600190811790915560039092528083208054600160a060020a038816600160a060020a0319909116811790915560078054938401815584527fa66cc928b5edb82af9bd49922954155ab7b0942694bea4ce44661d9a8736c68890920187905551909186917fdeb115d202a55795fb5e47cee9ce6c0bd792a016a2d1251f937b1bb24e92332e9190a35060019392505050565b3361288e81604080519081016040528060098152602001600080516020613223833981519152815250610d22565b600160a060020a03831615156128ee576040805160e560020a62461bcd02815260206004820152601860248201527f496e76616c696420616464726573732070726f76696465640000000000000000604482015290519081900360640190fd5b811515612945576040805160e560020a62461bcd02815260206004820152601a60248201527f496e76616c696420616d6f756e7420746f207769746864726177000000000000604482015290519081900360640190fd5b303182111561299e576040805160e560020a62461bcd02815260206004820152601960248201527f4e6f206d6f726520657468657220746f20776974686472617700000000000000604482015290519081900360640190fd5b604051600160a060020a0384169083156108fc029084906000818181858888f193505050501580156129d4573d6000803e3d6000fd5b50505050565b33612a0881604080519081016040528060098152602001600080516020613223833981519152815250610d22565b5060098054600160a060020a031916600160a060020a0392909216919091179055565b60046020526000908152604090205460ff1681565b600033612a7081604080519081016040528060098152602001600080516020613223833981519152815250610d22565b60008481526003602052604090208054600160a060020a038516600160a060020a0319909116179055600191505092915050565b600954600160a060020a031681565b60008054600160a060020a03163314612acb57600080fd5b5060005b8151811015610d8c57612af88282815181101515612ae957fe5b90602001906020020151611b65565b600101612acf565b60009081526004602052604090205460ff1690565b600033612b4581604080519081016040528060098152602001600080516020613223833981519152815250610d22565b600083815260046020526040808220805460ff1916600117905551339185917fdeb115d202a55795fb5e47cee9ce6c0bd792a016a2d1251f937b1bb24e92332e9190a350600192915050565b600054600160a060020a03163314612ba857600080fd5b61118e8161312d565b81810182811015610fd657fe5b612bc88282612ca9565b1515610d8c57600080fd5b60008181526005602090815260408083205460068352818420600160a060020a039091168085529252909120548115801590612c0f5750600081115b15611145576000838152600560205260408082208054600160a060020a031916905551600160a060020a0384169183156108fc02918491818181858888f19350505050158015612c63573d6000803e3d6000fd5b50604080518281529051600160a060020a0384169185917fa01ed4ff1bfc084518bd795b4114da41c800c9ae1fc5e594cb505cb4c0c3fae19181900360200190a3505050565b600160a060020a03166000908152602091909152604090205460ff1690565b612d32826001836040518082805190602001908083835b60208310612cfe5780518252601f199092019160209182019101612cdf565b51815160209384036101000a600019018019909216911617905292019485525060405193849003019092209291505061319d565b81600160a060020a03167fd211483f91fc6eff862467f8de606587a30c8fc9981056f051b897a418df803a826040518080602001828103825283818151815260200191508051906020019080838360005b83811015612d9b578181015183820152602001612d83565b50505050905090810190601f168015612dc85780820380516001836020036101000a031916815260200191505b509250505060405180910390a25050565b6000806000806000806000600960009054906101000a9004600160a060020a0316600160a060020a03166332fd84788a6040518263ffffffff167c0100000000000000000000000000000000000000000000000000000000028152600401808281526020019150506040805180830381600087803b158015612e5a57600080fd5b505af1158015612e6e573d6000803e3d6000fd5b505050506040513d6040811015612e8457600080fd5b5080516020909101519097509550612eb386612ea78a606463ffffffff6131bf16565b9063ffffffff6131d416565b604051909550600160a060020a0388169086156108fc029087906000818181858888f19350505050158015612eec573d6000803e3d6000fd5b50600954604080517fde56a245000000000000000000000000000000000000000000000000000000008152600481018c90528151600160a060020a039093169263de56a245926024808401939192918290030181600087803b158015612f5157600080fd5b505af1158015612f65573d6000803e3d6000fd5b505050506040513d6040811015612f7b57600080fd5b50805160209091015190945092506000841115612fe257612fa784612ea78a606463ffffffff6131bf16565b604051909250600160a060020a0384169083156108fc029084906000818181858888f19350505050158015612fe0573d6000803e3d6000fd5b505b61300282612ff68a8863ffffffff61304916565b9063ffffffff61304916565b600a54604051919250600160a060020a03169082156108fc029083906000818181858888f1935050505015801561303d573d6000803e3d6000fd5b50505050505050505050565b60008282111561305557fe5b50900390565b6130c5826001836040518082805190602001908083835b602083106130915780518252601f199092019160209182019101613072565b51815160209384036101000a60001901801990921691161790529201948552506040519384900301909220929150506131fd565b81600160a060020a03167fbfec83d64eaa953f2708271a023ab9ee82057f8f3578d548c1a4ba0b5b7004898260405180806020018281038252838181518152602001915080519060200190808383600083811015612d9b578181015183820152602001612d83565b600160a060020a038116151561314257600080fd5b60008054604051600160a060020a03808516939216917f8be0079c531659141344cd1fd0a4f28419497f9722a3daafe3b4186f6b6457e091a360008054600160a060020a031916600160a060020a0392909216919091179055565b600160a060020a0316600090815260209190915260409020805460ff19169055565b600081838115156131cc57fe5b049392505050565b60008215156131e557506000610fd6565b508181028183828115156131f557fe5b0414610fd657fe5b600160a060020a0316600090815260209190915260409020805460ff19166001179055560077686974656c697374000000000000000000000000000000000000000000000045646974696f6e20646f6573206e6f742065786973740000000000000000000045646974696f6e206973206e6f7420656e61626c656420666f72206175637469a165627a7a723058200cb6b2adff7e001eb6ce750348bb69a5bf58e880b3f5eaa465ced3014964c6e50029",
  "source": "pragma solidity 0.4.24;\n\nimport \"openzeppelin-solidity/contracts/access/Whitelist.sol\";\nimport \"openzeppelin-solidity/contracts/lifecycle/Pausable.sol\";\nimport \"openzeppelin-solidity/contracts/math/SafeMath.sol\";\nimport \"./IKODAV2.sol\";\n\n/**\n* Auction V2 interface definition - event and method definitions\n*\n* https://www.knownorigin.io/\n*/\ninterface IAuctionV2 {\n\n  event BidPlaced(\n    address indexed _bidder,\n    uint256 indexed _editionNumber,\n    uint256 _amount\n  );\n\n  event BidIncreased(\n    address indexed _bidder,\n    uint256 indexed _editionNumber,\n    uint256 _amount\n  );\n\n  event BidWithdrawn(\n    address indexed _bidder,\n    uint256 indexed _editionNumber\n  );\n\n  event BidAccepted(\n    address indexed _bidder,\n    uint256 indexed _editionNumber,\n    uint256 indexed _tokenId,\n    uint256 _amount\n  );\n\n  event BidRejected(\n    address indexed _caller,\n    address indexed _bidder,\n    uint256 indexed _editionNumber,\n    uint256 _amount\n  );\n\n  event BidderRefunded(\n    uint256 indexed _editionNumber,\n    address indexed _bidder,\n    uint256 _amount\n  );\n\n  event AuctionCancelled(\n    uint256 indexed _editionNumber\n  );\n\n  event AuctionEnabled(\n    uint256 indexed _editionNumber,\n    address indexed _auctioneer\n  );\n\n  event AuctionDisabled(\n    uint256 indexed _editionNumber,\n    address indexed _auctioneer\n  );\n\n  function placeBid(uint256 _editionNumber) payable external returns (bool success);\n\n  function increaseBid(uint256 _editionNumber) payable external returns (bool success);\n\n  function withdrawBid(uint256 _editionNumber) external returns (bool success);\n\n  function acceptBid(uint256 _editionNumber) external returns (uint256 tokenId);\n\n  function rejectBid(uint256 _editionNumber) external returns (bool success);\n\n  function cancelAuction(uint256 _editionNumber) external returns (bool success);\n}\n\n/**\n* @title Artists accepting bidding contract for KnownOrigin (KODA)\n*\n* Rules:\n* Can only bid for an edition which is enabled\n* Can only add new bids higher than previous highest bid plus minimum bid amount\n* Can increase your bid, only if you are the top current bidder\n* Once outbid, original bidder has ETH returned\n* Cannot double bid once you are already the highest bidder, can only call increaseBid()\n* Only the defined controller address can accept the bid\n* If a bid is revoked, the auction remains open however no highest bid exists\n* If the contract is Paused, no public actions can happen e.g. bids, increases, withdrawals\n* Managers of contract have full control over it act as a fallback in-case funds go missing or errors are found\n* On accepting of any bid, funds are split to KO and Artists - optional 3rd party split not currently supported\n* If an edition is sold out, the auction is stopped, manual refund required by bidder or whitelisted\n* Upon cancelling a bid which is in flight, funds are returned and contract stops further bids on the edition\n* Artists commissions and address are pulled from the KODA contract and are not based on the controller address\n*\n* Scenario:\n* 1) Config artist (Dave) & edition (1000)\n* 2) Bob places a bid on edition 1000 for 1 ETH\n* 3) Alice places a higher bid of 1.5ETH, overriding Bobs position as the leader, sends Bobs 1 ETH back and taking 1st place\n* 4) Dave accepts Alice's bid\n* 5) KODA token generated and transferred to Alice, funds are split between KO and Artist\n*\n* https://www.knownorigin.io/\n*\n* BE ORIGINAL. BUY ORIGINAL.\n*/\ncontract ArtistAcceptingBidsV2 is Whitelist, Pausable, IAuctionV2 {\n  using SafeMath for uint256;\n\n  // A mapping of the controller address to the edition number\n  mapping(uint256 => address) public editionNumberToArtistControlAddress;\n\n  // Enabled/disable the auction for the edition number\n  mapping(uint256 => bool) public enabledEditions;\n\n  // Edition to current highest bidders address\n  mapping(uint256 => address) public editionHighestBid;\n\n  // Mapping for edition -> bidder -> bid amount\n  mapping(uint256 => mapping(address => uint256)) internal editionBids;\n\n  // A simple list of editions which have been once added to this contract\n  uint256[] public editionsOnceEnabledForAuctions;\n\n  // Min increase in bid amount\n  uint256 public minBidAmount = 0.01 ether;\n\n  // Interface into the KODA world\n  IKODAV2 public kodaAddress;\n\n  // KO account which can receive commission\n  address public koCommissionAccount;\n\n  ///////////////\n  // Modifiers //\n  ///////////////\n\n  // Checks the auction is enabled\n  modifier whenAuctionEnabled(uint256 _editionNumber) {\n    require(enabledEditions[_editionNumber], \"Edition is not enabled for auctions\");\n    _;\n  }\n\n  // Checks the msg.sender is the artists control address or the auction whitelisted\n  modifier whenCallerIsController(uint256 _editionNumber) {\n    require(editionNumberToArtistControlAddress[_editionNumber] == msg.sender || whitelist(msg.sender), \"Edition not managed by calling address\");\n    _;\n  }\n\n  // Checks the bid is higher than the current amount + min bid\n  modifier whenPlacedBidIsAboveMinAmount(uint256 _editionNumber) {\n    address currentHighestBidder = editionHighestBid[_editionNumber];\n    uint256 currentHighestBidderAmount = editionBids[_editionNumber][currentHighestBidder];\n    require(currentHighestBidderAmount.add(minBidAmount) <= msg.value, \"Bids must be higher than previous bids plus minimum bid\");\n    _;\n  }\n\n  // Checks the bid is higher than the min bid\n  modifier whenBidIncreaseIsAboveMinAmount() {\n    require(minBidAmount <= msg.value, \"Bids must be higher than minimum bid amount\");\n    _;\n  }\n\n  // Check the caller in not already the highest bidder\n  modifier whenCallerNotAlreadyTheHighestBidder(uint256 _editionNumber) {\n    address currentHighestBidder = editionHighestBid[_editionNumber];\n    require(currentHighestBidder != msg.sender, \"Cant bid anymore, you are already the current highest\");\n    _;\n  }\n\n  // Checks msg.sender is the highest bidder\n  modifier whenCallerIsHighestBidder(uint256 _editionNumber) {\n    require(editionHighestBid[_editionNumber] == msg.sender, \"Can only withdraw a bid if you are the highest bidder\");\n    _;\n  }\n\n  // Only when editions are not sold out in KODA\n  modifier whenEditionNotSoldOut(uint256 _editionNumber) {\n    uint256 totalRemaining = kodaAddress.totalRemaining(_editionNumber);\n    require(totalRemaining > 0, \"Unable to accept any more bids, edition is sold out\");\n    _;\n  }\n\n  // Only when edition exists in KODA\n  modifier whenEditionExists(uint256 _editionNumber) {\n    bool editionExists = kodaAddress.editionExists(_editionNumber);\n    require(editionExists, \"Edition does not exist\");\n    _;\n  }\n\n  /////////////////\n  // Constructor //\n  /////////////////\n\n  // Set the caller as the default KO account\n  constructor(IKODAV2 _kodaAddress) public {\n    kodaAddress = _kodaAddress;\n    koCommissionAccount = msg.sender;\n    super.addAddressToWhitelist(msg.sender);\n  }\n\n  //////////////////////////\n  // Core Auction Methods //\n  //////////////////////////\n\n  /**\n   * @dev Public method for placing a bid, reverts if:\n   * - Contract is Paused\n   * - Edition provided is not valid\n   * - Edition provided is not configured for auctions\n   * - Edition provided is sold out\n   * - msg.sender is already the highest bidder\n   * - msg.value is not greater than highest bid + minimum amount\n   * @dev refunds the previous bidders ether if the bid is overwritten\n   * @return true on success\n   */\n  function placeBid(uint256 _editionNumber)\n  public\n  payable\n  whenNotPaused\n  whenEditionExists(_editionNumber)\n  whenAuctionEnabled(_editionNumber)\n  whenPlacedBidIsAboveMinAmount(_editionNumber)\n  whenCallerNotAlreadyTheHighestBidder(_editionNumber)\n  whenEditionNotSoldOut(_editionNumber)\n  returns (bool success)\n  {\n    // Grab the previous holders bid so we can refund it\n    _refundHighestBidder(_editionNumber);\n\n    // Keep a record of the current users bid (previous bidder has been refunded)\n    editionBids[_editionNumber][msg.sender] = msg.value;\n\n    // Update the highest bid to be the latest bidder\n    editionHighestBid[_editionNumber] = msg.sender;\n\n    // Emit event\n    emit BidPlaced(msg.sender, _editionNumber, msg.value);\n\n    return true;\n  }\n\n  /**\n   * @dev Public method for increasing your bid, reverts if:\n   * - Contract is Paused\n   * - Edition provided is not valid\n   * - Edition provided is not configured for auctions\n   * - Edition provided is sold out\n   * - msg.sender is not the current highest bidder\n   * @return true on success\n   */\n  function increaseBid(uint256 _editionNumber)\n  public\n  payable\n  whenNotPaused\n  whenBidIncreaseIsAboveMinAmount\n  whenEditionExists(_editionNumber)\n  whenAuctionEnabled(_editionNumber)\n  whenEditionNotSoldOut(_editionNumber)\n  whenCallerIsHighestBidder(_editionNumber)\n  returns (bool success)\n  {\n    // Bump the current highest bid by provided amount\n    editionBids[_editionNumber][msg.sender] = editionBids[_editionNumber][msg.sender].add(msg.value);\n\n    // Emit event\n    emit BidIncreased(msg.sender, _editionNumber, editionBids[_editionNumber][msg.sender]);\n\n    return true;\n  }\n\n  /**\n   * @dev Public method for withdrawing your bid, reverts if:\n   * - Contract is Paused\n   * - msg.sender is not the current highest bidder\n   * @dev removes current highest bid so there is no current highest bidder\n   * @return true on success\n   */\n  function withdrawBid(uint256 _editionNumber)\n  public\n  whenNotPaused\n  whenEditionExists(_editionNumber)\n  whenCallerIsHighestBidder(_editionNumber)\n  returns (bool success)\n  {\n    // get current highest bid and refund it\n    _refundHighestBidder(_editionNumber);\n\n    // Fire event\n    emit BidWithdrawn(msg.sender, _editionNumber);\n\n    return true;\n  }\n\n  /**\n   * @dev Method for cancelling an auction, only called from contract whitelist\n   * @dev refunds previous highest bidders bid\n   * @dev removes current highest bid so there is no current highest bidder\n   * @return true on success\n   */\n  function cancelAuction(uint256 _editionNumber)\n  public\n  onlyIfWhitelisted(msg.sender)\n  whenEditionExists(_editionNumber)\n  returns (bool success)\n  {\n    // get current highest bid and refund it\n    _refundHighestBidder(_editionNumber);\n\n    // Disable the auction\n    enabledEditions[_editionNumber] = false;\n\n    // Fire event\n    emit AuctionCancelled(_editionNumber);\n\n    return true;\n  }\n\n  /**\n   * @dev Public method for increasing your bid, reverts if:\n   * - Contract is Paused\n   * - Edition provided is not valid\n   * - Edition provided is not configured for auctions\n   * - Edition provided is sold out\n   * - msg.sender is not the current highest bidder\n   * @return true on success\n   */\n  function rejectBid(uint256 _editionNumber)\n  public\n  whenNotPaused\n  whenEditionExists(_editionNumber)\n  whenCallerIsController(_editionNumber) // Checks only the controller can call this\n  whenAuctionEnabled(_editionNumber) // Checks auction is still enabled\n  returns (bool success)\n  {\n    address rejectedBidder = editionHighestBid[_editionNumber];\n    uint256 rejectedBidAmount = editionBids[_editionNumber][rejectedBidder];\n\n    // get current highest bid and refund it\n    _refundHighestBidder(_editionNumber);\n\n    emit BidRejected(msg.sender, rejectedBidder, _editionNumber, rejectedBidAmount);\n\n    return true;\n  }\n\n  /**\n   * @dev Method for accepting the highest bid, only called by edition creator, reverts if:\n   * - Contract is Paused\n   * - msg.sender is not the edition controller\n   * - Edition provided is not valid\n   * @dev Mints a new token in KODA contract\n   * @dev Splits bid amount to KO and Artist, based on KODA contract defined values\n   * @dev Removes current highest bid so there is no current highest bidder\n   * @dev If no more editions are available the auction is stopped\n   * @return the generated tokenId on success\n   */\n  function acceptBid(uint256 _editionNumber)\n  public\n  whenNotPaused\n  whenCallerIsController(_editionNumber) // Checks only the controller can call this\n  whenAuctionEnabled(_editionNumber) // Checks auction is still enabled\n  returns (uint256 tokenId)\n  {\n    // Get total remaining here so we can use it below\n    uint256 totalRemaining = kodaAddress.totalRemaining(_editionNumber);\n    require(totalRemaining > 0, \"Unable to accept bid, edition is sold out\");\n\n    // Get the winner of the bidding action\n    address winningAccount = editionHighestBid[_editionNumber];\n    require(winningAccount != address(0), \"Cannot win an auction when there is no highest bidder\");\n\n    uint256 winningBidAmount = editionBids[_editionNumber][winningAccount];\n    require(winningBidAmount >= 0, \"Cannot win an auction when no bid amount set\");\n\n    // Mint a new token to the winner\n    uint256 _tokenId = kodaAddress.mint(winningAccount, _editionNumber);\n    require(_tokenId != 0, \"Failed to mint new token\");\n\n    // Split the monies\n    _handleFunds(_editionNumber, winningBidAmount);\n\n    // Clear out highest bidder for this auction\n    delete editionHighestBid[_editionNumber];\n\n    // If the edition is sold out, disable the auction\n    if (totalRemaining.sub(1) == 0) {\n      enabledEditions[_editionNumber] = false;\n    }\n\n    // Fire event\n    emit BidAccepted(winningAccount, _editionNumber, _tokenId, winningBidAmount);\n\n    return _tokenId;\n  }\n\n  /**\n   * Handle all splitting of funds to the artist, any optional split and KO\n   */\n  function _handleFunds(uint256 _editionNumber, uint256 _winningBidAmount) internal {\n\n    // Get the commission and split bid amount accordingly\n    (address artistAccount, uint256 artistCommission) = kodaAddress.artistCommission(_editionNumber);\n\n    // Extract the artists commission and send it\n    uint256 artistPayment = _winningBidAmount.div(100).mul(artistCommission);\n    artistAccount.transfer(artistPayment);\n\n    // Optional Commission Splits\n    (uint256 optionalCommissionRate, address optionalCommissionRecipient) = kodaAddress.editionOptionalCommission(_editionNumber);\n\n    // Apply optional commission structure if we have one\n    if (optionalCommissionRate > 0) {\n      uint256 rateSplit = _winningBidAmount.div(100).mul(optionalCommissionRate);\n      optionalCommissionRecipient.transfer(rateSplit);\n    }\n\n    // Send KO remaining amount\n    uint256 remainingCommission = _winningBidAmount.sub(artistPayment).sub(rateSplit);\n    koCommissionAccount.transfer(remainingCommission);\n  }\n\n  /**\n   * Returns funds of the previous highest bidder back to them if present\n   */\n  function _refundHighestBidder(uint256 _editionNumber) internal {\n    // Get current highest bidder\n    address currentHighestBidder = editionHighestBid[_editionNumber];\n\n    // Get current highest bid amount\n    uint256 currentHighestBiddersAmount = editionBids[_editionNumber][currentHighestBidder];\n\n    if (currentHighestBidder != address(0) && currentHighestBiddersAmount > 0) {\n\n      // Clear out highest bidder as there is no long one\n      delete editionHighestBid[_editionNumber];\n\n      // Refund it\n      currentHighestBidder.transfer(currentHighestBiddersAmount);\n\n      // Emit event\n      emit BidderRefunded(_editionNumber, currentHighestBidder, currentHighestBiddersAmount);\n    }\n  }\n\n  ///////////////////////////////\n  // Public management methods //\n  ///////////////////////////////\n\n  /**\n   * @dev Enables the edition for auctions in a single call\n   * @dev Only callable from whitelisted account or KODA edition artists\n   */\n  function enableEditionForArtist(uint256 _editionNumber)\n  public\n  whenNotPaused\n  whenEditionExists(_editionNumber)\n  returns (bool)\n  {\n    // Ensure caller is whitelisted or artists\n    (address artistAccount, uint256 artistCommission) = kodaAddress.artistCommission(_editionNumber);\n    require(whitelist(msg.sender) || msg.sender == artistAccount, \"Cannot enable when not the edition artist\");\n\n    // Ensure not already setup\n    require(!enabledEditions[_editionNumber], \"Edition already enabled\");\n\n    // Enable the auction\n    enabledEditions[_editionNumber] = true;\n\n    // keep track of the edition\n    editionsOnceEnabledForAuctions.push(_editionNumber);\n\n    // Setup the controller address to be the artist\n    editionNumberToArtistControlAddress[_editionNumber] = artistAccount;\n\n    emit AuctionEnabled(_editionNumber, msg.sender);\n\n    return true;\n  }\n\n  /**\n   * @dev Enables the edition for auctions\n   * @dev Only callable from whitelist\n   */\n  function enableEdition(uint256 _editionNumber)\n  onlyIfWhitelisted(msg.sender)\n  public returns (bool) {\n    enabledEditions[_editionNumber] = true;\n    emit AuctionEnabled(_editionNumber, msg.sender);\n    return true;\n  }\n\n  /**\n   * @dev Disables the edition for auctions\n   * @dev Only callable from whitelist\n   */\n  function disableEdition(uint256 _editionNumber)\n  onlyIfWhitelisted(msg.sender)\n  public returns (bool) {\n    enabledEditions[_editionNumber] = false;\n    emit AuctionDisabled(_editionNumber, msg.sender);\n    return true;\n  }\n\n  /**\n   * @dev Sets the edition artist control address\n   * @dev Only callable from whitelist\n   */\n  function setArtistsControlAddress(uint256 _editionNumber, address _address)\n  onlyIfWhitelisted(msg.sender)\n  public returns (bool) {\n    editionNumberToArtistControlAddress[_editionNumber] = _address;\n    return true;\n  }\n\n  /**\n   * @dev Sets the edition artist control address and enables the edition for auction\n   * @dev Only callable from whitelist\n   */\n  function setArtistsControlAddressAndEnabledEdition(uint256 _editionNumber, address _address)\n  onlyIfWhitelisted(msg.sender)\n  public returns (bool) {\n    require(!enabledEditions[_editionNumber], \"Edition already enabled\");\n\n    // Enable the edition\n    enabledEditions[_editionNumber] = true;\n\n    // Setup the artist address for this edition\n    editionNumberToArtistControlAddress[_editionNumber] = _address;\n\n    // keep track of the edition\n    editionsOnceEnabledForAuctions.push(_editionNumber);\n\n    emit AuctionEnabled(_editionNumber, _address);\n\n    return true;\n  }\n\n  /**\n   * @dev Sets the minimum bid amount\n   * @dev Only callable from whitelist\n   */\n  function setMinBidAmount(uint256 _minBidAmount) onlyIfWhitelisted(msg.sender) public {\n    minBidAmount = _minBidAmount;\n  }\n\n  /**\n   * @dev Sets the KODA address\n   * @dev Only callable from whitelist\n   */\n  function setKodavV2(IKODAV2 _kodaAddress) onlyIfWhitelisted(msg.sender) public {\n    kodaAddress = _kodaAddress;\n  }\n\n  /**\n   * @dev Sets the KODA address\n   * @dev Only callable from whitelist\n   */\n  function setKoCommissionAccount(address _koCommissionAccount) public onlyIfWhitelisted(msg.sender) {\n    require(_koCommissionAccount != address(0), \"Invalid address\");\n    koCommissionAccount = _koCommissionAccount;\n  }\n\n  /////////////////////////////\n  // Manual Override methods //\n  /////////////////////////////\n\n  /**\n   * @dev Allows for the ability to extract ether so we can distribute to the correct bidders accordingly\n   * @dev Only callable from whitelist\n   */\n  function withdrawStuckEther(address _withdrawalAccount)\n  onlyIfWhitelisted(msg.sender)\n  public {\n    require(_withdrawalAccount != address(0), \"Invalid address provided\");\n    require(address(this).balance != 0, \"No more ether to withdraw\");\n    _withdrawalAccount.transfer(address(this).balance);\n  }\n\n  /**\n   * @dev Allows for the ability to extract specific ether amounts so we can distribute to the correct bidders accordingly\n   * @dev Only callable from whitelist\n   */\n  function withdrawStuckEtherOfAmount(address _withdrawalAccount, uint256 _amount)\n  onlyIfWhitelisted(msg.sender)\n  public {\n    require(_withdrawalAccount != address(0), \"Invalid address provided\");\n    require(_amount != 0, \"Invalid amount to withdraw\");\n    require(address(this).balance >= _amount, \"No more ether to withdraw\");\n    _withdrawalAccount.transfer(_amount);\n  }\n\n  /**\n   * @dev Manual override method for setting edition highest bid & the highest bidder to the provided address\n   * @dev Only callable from whitelist\n   */\n  function manualOverrideEditionHighestBidAndBidder(uint256 _editionNumber, address _bidder, uint256 _amount)\n  onlyIfWhitelisted(msg.sender)\n  public returns (bool) {\n    editionBids[_editionNumber][_bidder] = _amount;\n    editionHighestBid[_editionNumber] = _bidder;\n    return true;\n  }\n\n  /**\n   * @dev Manual override method removing bidding values\n   * @dev Only callable from whitelist\n   */\n  function manualDeleteEditionBids(uint256 _editionNumber, address _bidder)\n  onlyIfWhitelisted(msg.sender)\n  public returns (bool) {\n    delete editionHighestBid[_editionNumber];\n    delete editionBids[_editionNumber][_bidder];\n    return true;\n  }\n\n  //////////////////////////\n  // Public query methods //\n  //////////////////////////\n\n  /**\n   * @dev Look up all the known data about the latest edition bidding round\n   * @dev Returns zeros for all values when not valid\n   */\n  function auctionDetails(uint256 _editionNumber) public view returns (bool _enabled, address _bidder, uint256 _value, address _controller) {\n    address highestBidder = editionHighestBid[_editionNumber];\n    uint256 bidValue = editionBids[_editionNumber][highestBidder];\n    address controlAddress = editionNumberToArtistControlAddress[_editionNumber];\n    return (\n    enabledEditions[_editionNumber],\n    highestBidder,\n    bidValue,\n    controlAddress\n    );\n  }\n\n  /**\n   * @dev Look up all the current highest bidder for the latest edition\n   * @dev Returns zeros for all values when not valid\n   */\n  function highestBidForEdition(uint256 _editionNumber) public view returns (address _bidder, uint256 _value) {\n    address highestBidder = editionHighestBid[_editionNumber];\n    uint256 bidValue = editionBids[_editionNumber][highestBidder];\n    return (highestBidder, bidValue);\n  }\n\n  /**\n   * @dev Check an edition is enabled for auction\n   */\n  function isEditionEnabled(uint256 _editionNumber) public view returns (bool) {\n    return enabledEditions[_editionNumber];\n  }\n\n  /**\n   * @dev Check which address can action a bid for the given edition\n   */\n  function editionController(uint256 _editionNumber) public view returns (address) {\n    return editionNumberToArtistControlAddress[_editionNumber];\n  }\n\n  /**\n   * @dev Returns the array of edition numbers\n   */\n  function addedEditions() public view returns (uint256[]) {\n    return editionsOnceEnabledForAuctions;\n  }\n\n}\n",
  "sourcePath": "/Users/jamesmorgan/Dropbox/workspace-blockrocket/knownorigin/known-origin-contracts/contracts/v2/auctions/ArtistAcceptingBidsV2.sol",
  "compiler": {
    "name": "solc",
    "version": "0.4.24+commit.e67f0147.Emscripten.clang"
  },
  "schemaVersion": "3.1.0",
  "updatedAt": "2020-10-23T11:15:10.080Z",
  "devdoc": {
    "methods": {
      "acceptBid(uint256)": {
        "details": "Method for accepting the highest bid, only called by edition creator, reverts if: - Contract is Paused - msg.sender is not the edition controller - Edition provided is not validMints a new token in KODA contractSplits bid amount to KO and Artist, based on KODA contract defined valuesRemoves current highest bid so there is no current highest bidderIf no more editions are available the auction is stopped",
        "return": "the generated tokenId on success"
      },
      "addAddressToWhitelist(address)": {
        "details": "add an address to the whitelist",
        "params": {
          "_operator": "address"
        },
        "return": "true if the address was added to the whitelist, false if the address was already in the whitelist"
      },
      "addAddressesToWhitelist(address[])": {
        "details": "add addresses to the whitelist",
        "params": {
          "_operators": "addresses"
        },
        "return": "true if at least one address was added to the whitelist, false if all addresses were already in the whitelist"
      },
      "addedEditions()": {
        "details": "Returns the array of edition numbers"
      },
      "auctionDetails(uint256)": {
        "details": "Look up all the known data about the latest edition bidding roundReturns zeros for all values when not valid"
      },
      "cancelAuction(uint256)": {
        "details": "Method for cancelling an auction, only called from contract whitelistrefunds previous highest bidders bidremoves current highest bid so there is no current highest bidder",
        "return": "true on success"
      },
      "checkRole(address,string)": {
        "details": "reverts if addr does not have role",
        "params": {
          "_operator": "address",
          "_role": "the name of the role // reverts"
        }
      },
      "disableEdition(uint256)": {
        "details": "Disables the edition for auctionsOnly callable from whitelist"
      },
      "editionController(uint256)": {
        "details": "Check which address can action a bid for the given edition"
      },
      "enableEdition(uint256)": {
        "details": "Enables the edition for auctionsOnly callable from whitelist"
      },
      "enableEditionForArtist(uint256)": {
        "details": "Enables the edition for auctions in a single callOnly callable from whitelisted account or KODA edition artists"
      },
      "hasRole(address,string)": {
        "details": "determine if addr has role",
        "params": {
          "_operator": "address",
          "_role": "the name of the role"
        },
        "return": "bool"
      },
      "highestBidForEdition(uint256)": {
        "details": "Look up all the current highest bidder for the latest editionReturns zeros for all values when not valid"
      },
      "increaseBid(uint256)": {
        "details": "Public method for increasing your bid, reverts if: - Contract is Paused - Edition provided is not valid - Edition provided is not configured for auctions - Edition provided is sold out - msg.sender is not the current highest bidder",
        "return": "true on success"
      },
      "isEditionEnabled(uint256)": {
        "details": "Check an edition is enabled for auction"
      },
      "manualDeleteEditionBids(uint256,address)": {
        "details": "Manual override method removing bidding valuesOnly callable from whitelist"
      },
      "manualOverrideEditionHighestBidAndBidder(uint256,address,uint256)": {
        "details": "Manual override method for setting edition highest bid & the highest bidder to the provided addressOnly callable from whitelist"
      },
      "pause()": {
        "details": "called by the owner to pause, triggers stopped state"
      },
      "placeBid(uint256)": {
        "details": "Public method for placing a bid, reverts if: - Contract is Paused - Edition provided is not valid - Edition provided is not configured for auctions - Edition provided is sold out - msg.sender is already the highest bidder - msg.value is not greater than highest bid + minimum amountrefunds the previous bidders ether if the bid is overwritten",
        "return": "true on success"
      },
      "rejectBid(uint256)": {
        "details": "Public method for increasing your bid, reverts if: - Contract is Paused - Edition provided is not valid - Edition provided is not configured for auctions - Edition provided is sold out - msg.sender is not the current highest bidder",
        "return": "true on success"
      },
      "removeAddressFromWhitelist(address)": {
        "details": "remove an address from the whitelist",
        "params": {
          "_operator": "address"
        },
        "return": "true if the address was removed from the whitelist, false if the address wasn't in the whitelist in the first place"
      },
      "removeAddressesFromWhitelist(address[])": {
        "details": "remove addresses from the whitelist",
        "params": {
          "_operators": "addresses"
        },
        "return": "true if at least one address was removed from the whitelist, false if all addresses weren't in the whitelist in the first place"
      },
      "renounceOwnership()": {
        "details": "Allows the current owner to relinquish control of the contract."
      },
      "setArtistsControlAddress(uint256,address)": {
        "details": "Sets the edition artist control addressOnly callable from whitelist"
      },
      "setArtistsControlAddressAndEnabledEdition(uint256,address)": {
        "details": "Sets the edition artist control address and enables the edition for auctionOnly callable from whitelist"
      },
      "setKoCommissionAccount(address)": {
        "details": "Sets the KODA addressOnly callable from whitelist"
      },
      "setKodavV2(address)": {
        "details": "Sets the KODA addressOnly callable from whitelist"
      },
      "setMinBidAmount(uint256)": {
        "details": "Sets the minimum bid amountOnly callable from whitelist"
      },
      "transferOwnership(address)": {
        "details": "Allows the current owner to transfer control of the contract to a newOwner.",
        "params": {
          "_newOwner": "The address to transfer ownership to."
        }
      },
      "unpause()": {
        "details": "called by the owner to unpause, returns to normal state"
      },
      "whitelist(address)": {
        "details": "getter to determine if address is in whitelist"
      },
      "withdrawBid(uint256)": {
        "details": "Public method for withdrawing your bid, reverts if: - Contract is Paused - msg.sender is not the current highest bidderremoves current highest bid so there is no current highest bidder",
        "return": "true on success"
      },
      "withdrawStuckEther(address)": {
        "details": "Allows for the ability to extract ether so we can distribute to the correct bidders accordinglyOnly callable from whitelist"
      },
      "withdrawStuckEtherOfAmount(address,uint256)": {
        "details": "Allows for the ability to extract specific ether amounts so we can distribute to the correct bidders accordinglyOnly callable from whitelist"
      }
    },
    "title": "Artists accepting bidding contract for KnownOrigin (KODA) * Rules: Can only bid for an edition which is enabled Can only add new bids higher than previous highest bid plus minimum bid amount Can increase your bid, only if you are the top current bidder Once outbid, original bidder has ETH returned Cannot double bid once you are already the highest bidder, can only call increaseBid() Only the defined controller address can accept the bid If a bid is revoked, the auction remains open however no highest bid exists If the contract is Paused, no public actions can happen e.g. bids, increases, withdrawals Managers of contract have full control over it act as a fallback in-case funds go missing or errors are found On accepting of any bid, funds are split to KO and Artists - optional 3rd party split not currently supported If an edition is sold out, the auction is stopped, manual refund required by bidder or whitelisted Upon cancelling a bid which is in flight, funds are returned and contract stops further bids on the edition Artists commissions and address are pulled from the KODA contract and are not based on the controller address * Scenario: 1) Config artist (Dave) & edition (1000) 2) Bob places a bid on edition 1000 for 1 ETH 3) Alice places a higher bid of 1.5ETH, overriding Bobs position as the leader, sends Bobs 1 ETH back and taking 1st place 4) Dave accepts Alice's bid 5) KODA token generated and transferred to Alice, funds are split between KO and Artist * https://www.knownorigin.io/ * BE ORIGINAL. BUY ORIGINAL."
  },
  "userdoc": {
    "methods": {
      "renounceOwnership()": {
        "notice": "Renouncing to ownership will leave the contract without an owner. It will not be possible to call the functions with the `onlyOwner` modifier anymore."
      }
    }
  }
}