{
  "contractName": "AuctionReentrancyAttack",
  "abi": [
    {
      "constant": false,
      "inputs": [],
      "name": "renounceOwnership",
      "outputs": [],
      "payable": false,
      "stateMutability": "nonpayable",
      "type": "function"
    },
    {
      "constant": true,
      "inputs": [],
      "name": "auction",
      "outputs": [
        {
          "name": "",
          "type": "address"
        }
      ],
      "payable": false,
      "stateMutability": "view",
      "type": "function"
    },
    {
      "constant": true,
      "inputs": [],
      "name": "owner",
      "outputs": [
        {
          "name": "",
          "type": "address"
        }
      ],
      "payable": false,
      "stateMutability": "view",
      "type": "function"
    },
    {
      "constant": false,
      "inputs": [
        {
          "name": "_newOwner",
          "type": "address"
        }
      ],
      "name": "transferOwnership",
      "outputs": [],
      "payable": false,
      "stateMutability": "nonpayable",
      "type": "function"
    },
    {
      "constant": true,
      "inputs": [],
      "name": "editionToAttack",
      "outputs": [
        {
          "name": "",
          "type": "uint256"
        }
      ],
      "payable": false,
      "stateMutability": "view",
      "type": "function"
    },
    {
      "inputs": [
        {
          "name": "_auction",
          "type": "address"
        },
        {
          "name": "_editionToAttack",
          "type": "uint256"
        }
      ],
      "payable": true,
      "stateMutability": "payable",
      "type": "constructor"
    },
    {
      "payable": true,
      "stateMutability": "payable",
      "type": "fallback"
    },
    {
      "anonymous": false,
      "inputs": [
        {
          "indexed": true,
          "name": "previousOwner",
          "type": "address"
        }
      ],
      "name": "OwnershipRenounced",
      "type": "event"
    },
    {
      "anonymous": false,
      "inputs": [
        {
          "indexed": true,
          "name": "previousOwner",
          "type": "address"
        },
        {
          "indexed": true,
          "name": "newOwner",
          "type": "address"
        }
      ],
      "name": "OwnershipTransferred",
      "type": "event"
    },
    {
      "constant": false,
      "inputs": [],
      "name": "makeBid",
      "outputs": [],
      "payable": true,
      "stateMutability": "payable",
      "type": "function"
    },
    {
      "constant": false,
      "inputs": [],
      "name": "attack",
      "outputs": [],
      "payable": false,
      "stateMutability": "nonpayable",
      "type": "function"
    }
  ],
  "bytecode": "0x608060408181528061050a8339810160405280516020909101516000805460018054600160a060020a03909516600160a060020a03199586161790558316339081179093169092179091556002556104ae8061005c6000396000f3006080604052600436106100825763ffffffff7c0100000000000000000000000000000000000000000000000000000000600035041663715018a681146101375780637d9f6db51461014c5780638da5cb5b1461017d5780639e5faafc14610192578063f2fde38b146101a7578063f30e3658146101c8578063f9581111146101d0575b600154662386f26fc10000600160a060020a03909116311061013557600154600254604080517f0eaaf4c8000000000000000000000000000000000000000000000000000000008152600481019290925251600160a060020a0390921691630eaaf4c8916024808201926020929091908290030181600087803b15801561010857600080fd5b505af115801561011c573d6000803e3d6000fd5b505050506040513d602081101561013257600080fd5b50505b005b34801561014357600080fd5b506101356101f7565b34801561015857600080fd5b50610161610263565b60408051600160a060020a039092168252519081900360200190f35b34801561018957600080fd5b50610161610272565b34801561019e57600080fd5b50610135610281565b3480156101b357600080fd5b50610135600160a060020a0360043516610330565b610135610353565b3480156101dc57600080fd5b506101e56103ff565b60408051918252519081900360200190f35b600054600160a060020a0316331461020e57600080fd5b60008054604051600160a060020a03909116917ff8df31144d9c2f0f6b59d69b8b98abd5459d07f2742c4df920b25aae33c6482091a26000805473ffffffffffffffffffffffffffffffffffffffff19169055565b600154600160a060020a031681565b600054600160a060020a031681565b600054600160a060020a0316331461029857600080fd5b600154600254604080517f0eaaf4c8000000000000000000000000000000000000000000000000000000008152600481019290925251600160a060020a0390921691630eaaf4c8916024808201926020929091908290030181600087803b15801561030257600080fd5b505af1158015610316573d6000803e3d6000fd5b505050506040513d602081101561032c57600080fd5b5050565b600054600160a060020a0316331461034757600080fd5b61035081610405565b50565b600054600160a060020a0316331461036a57600080fd5b600154600254604080517f9979ef45000000000000000000000000000000000000000000000000000000008152600481019290925251600160a060020a0390921691639979ef45913491602480830192602092919082900301818588803b1580156103d457600080fd5b505af11580156103e8573d6000803e3d6000fd5b50505050506040513d602081101561032c57600080fd5b60025481565b600160a060020a038116151561041a57600080fd5b60008054604051600160a060020a03808516939216917f8be0079c531659141344cd1fd0a4f28419497f9722a3daafe3b4186f6b6457e091a36000805473ffffffffffffffffffffffffffffffffffffffff1916600160a060020a03929092169190911790555600a165627a7a7230582021fe14214d2dcd891aaf6eb135d8d6065012ad2d48b3e1a9260a5802448fb1930029",
  "source": "import \"openzeppelin-solidity/contracts/ownership/Ownable.sol\";\n\nimport '../v2/auctions/ArtistAcceptingBids.sol';\n\ncontract AuctionReentrancyAttack is Ownable {\n\n  IAuction public auction;\n\n  uint256 public editionToAttack;\n\n  // Set the caller as the default KO account\n  constructor(IAuction _auction, uint256 _editionToAttack) public payable {\n    auction = _auction;\n    owner = msg.sender;\n    editionToAttack = _editionToAttack;\n  }\n\n  function() payable {\n    // on withdrawal, triggers payable and we can try to withdraw some more\n    if (auction.balance >= 0.01 ether) {\n      // Luckily as we use transfer() which only provides 2300 GAS which is not enough to re-enter the contract and hence it reverts\n      auction.withdrawBid(editionToAttack);\n    }\n  }\n\n  function makeBid() public payable onlyOwner {\n    // register a bid for an edition\n    auction.placeBid.value(msg.value)(editionToAttack);\n  }\n\n  function attack() public onlyOwner {\n    // try and trigger a reentrancy attack by withdrawing the bid and invoking the fallback function\n//     auction.call(bytes4(keccak256(\"auction.withdrawBid(uint256)\")), editionToAttack);\n//     auction.withdrawBid.value(address(this).balance).gas(10000000)(editionToAttack);\n    auction.withdrawBid(editionToAttack);\n  }\n\n}\n",
  "sourcePath": "/Users/jamesmorgan/Dropbox/workspace-blockrocket/knownorigin/known-origin-contracts/contracts/mocks/AuctionReentrancyAttack.sol",
  "compiler": {
    "name": "solc",
    "version": "0.4.24+commit.e67f0147.Emscripten.clang"
  },
  "schemaVersion": "3.0.19",
  "updatedAt": "2020-03-13T16:17:40.226Z",
  "devdoc": {
    "methods": {
      "renounceOwnership()": {
        "details": "Allows the current owner to relinquish control of the contract."
      },
      "transferOwnership(address)": {
        "details": "Allows the current owner to transfer control of the contract to a newOwner.",
        "params": {
          "_newOwner": "The address to transfer ownership to."
        }
      }
    }
  },
  "userdoc": {
    "methods": {
      "renounceOwnership()": {
        "notice": "Renouncing to ownership will leave the contract without an owner. It will not be possible to call the functions with the `onlyOwner` modifier anymore."
      }
    }
  }
}