{
  "contractName": "ForceEther",
  "abi": [
    {
      "inputs": [],
      "payable": true,
      "stateMutability": "payable",
      "type": "constructor"
    },
    {
      "constant": false,
      "inputs": [
        {
          "name": "_recipient",
          "type": "address"
        }
      ],
      "name": "destroyAndSend",
      "outputs": [],
      "payable": false,
      "stateMutability": "nonpayable",
      "type": "function"
    }
  ],
  "bytecode": "0x608060405260b5806100126000396000f300608060405260043610603e5763ffffffff7c0100000000000000000000000000000000000000000000000000000000600035041663f5074f4181146043575b600080fd5b348015604e57600080fd5b50606e73ffffffffffffffffffffffffffffffffffffffff600435166070565b005b8073ffffffffffffffffffffffffffffffffffffffff16ff00a165627a7a723058201af4e4fe3ff91a40a762d1576dfdd205178994d1eab7571bc1f05f6226ef5a300029",
  "source": "pragma solidity ^0.4.24;\n\n\n// @title Force Ether into a contract.\n// @notice  even\n// if the contract is not payable.\n// @notice To use, construct the contract with the target as argument.\n// @author Remco Bloemen <remco@neufund.org>\ncontract ForceEther {\n\n  constructor() public payable { }\n\n  function destroyAndSend(address _recipient) public {\n    selfdestruct(_recipient);\n  }\n}\n",
  "sourcePath": "/Users/jamesmorgan/Dropbox/workspace-blockrocket/knownorigin/known-origin-contracts/contracts/mocks/ForceEther.sol",
  "compiler": {
    "name": "solc",
    "version": "0.4.24+commit.e67f0147.Emscripten.clang"
  },
  "schemaVersion": "3.0.16",
  "updatedAt": "2019-11-15T09:11:15.019Z",
  "devdoc": {
    "methods": {}
  },
  "userdoc": {
    "methods": {}
  }
}