{
  "contractName": "SelfServiceFrequencyControls",
  "abi": [
    {
      "constant": true,
      "inputs": [
        {
          "name": "_operator",
          "type": "address"
        },
        {
          "name": "_role",
          "type": "string"
        }
      ],
      "name": "checkRole",
      "outputs": [],
      "payable": false,
      "stateMutability": "view",
      "type": "function"
    },
    {
      "constant": true,
      "inputs": [
        {
          "name": "",
          "type": "address"
        }
      ],
      "name": "frequencyOverride",
      "outputs": [
        {
          "name": "",
          "type": "bool"
        }
      ],
      "payable": false,
      "stateMutability": "view",
      "type": "function"
    },
    {
      "constant": true,
      "inputs": [],
      "name": "ROLE_WHITELISTED",
      "outputs": [
        {
          "name": "",
          "type": "string"
        }
      ],
      "payable": false,
      "stateMutability": "view",
      "type": "function"
    },
    {
      "constant": true,
      "inputs": [
        {
          "name": "_operator",
          "type": "address"
        },
        {
          "name": "_role",
          "type": "string"
        }
      ],
      "name": "hasRole",
      "outputs": [
        {
          "name": "",
          "type": "bool"
        }
      ],
      "payable": false,
      "stateMutability": "view",
      "type": "function"
    },
    {
      "constant": false,
      "inputs": [
        {
          "name": "_operators",
          "type": "address[]"
        }
      ],
      "name": "removeAddressesFromWhitelist",
      "outputs": [],
      "payable": false,
      "stateMutability": "nonpayable",
      "type": "function"
    },
    {
      "constant": false,
      "inputs": [
        {
          "name": "_operator",
          "type": "address"
        }
      ],
      "name": "removeAddressFromWhitelist",
      "outputs": [],
      "payable": false,
      "stateMutability": "nonpayable",
      "type": "function"
    },
    {
      "constant": true,
      "inputs": [],
      "name": "freezeWindow",
      "outputs": [
        {
          "name": "",
          "type": "uint256"
        }
      ],
      "payable": false,
      "stateMutability": "view",
      "type": "function"
    },
    {
      "constant": false,
      "inputs": [],
      "name": "renounceOwnership",
      "outputs": [],
      "payable": false,
      "stateMutability": "nonpayable",
      "type": "function"
    },
    {
      "constant": false,
      "inputs": [
        {
          "name": "_operator",
          "type": "address"
        }
      ],
      "name": "addAddressToWhitelist",
      "outputs": [],
      "payable": false,
      "stateMutability": "nonpayable",
      "type": "function"
    },
    {
      "constant": true,
      "inputs": [
        {
          "name": "",
          "type": "address"
        }
      ],
      "name": "frozenTil",
      "outputs": [
        {
          "name": "",
          "type": "uint256"
        }
      ],
      "payable": false,
      "stateMutability": "view",
      "type": "function"
    },
    {
      "constant": true,
      "inputs": [],
      "name": "owner",
      "outputs": [
        {
          "name": "",
          "type": "address"
        }
      ],
      "payable": false,
      "stateMutability": "view",
      "type": "function"
    },
    {
      "constant": true,
      "inputs": [
        {
          "name": "_operator",
          "type": "address"
        }
      ],
      "name": "whitelist",
      "outputs": [
        {
          "name": "",
          "type": "bool"
        }
      ],
      "payable": false,
      "stateMutability": "view",
      "type": "function"
    },
    {
      "constant": false,
      "inputs": [
        {
          "name": "_operators",
          "type": "address[]"
        }
      ],
      "name": "addAddressesToWhitelist",
      "outputs": [],
      "payable": false,
      "stateMutability": "nonpayable",
      "type": "function"
    },
    {
      "constant": false,
      "inputs": [
        {
          "name": "_newOwner",
          "type": "address"
        }
      ],
      "name": "transferOwnership",
      "outputs": [],
      "payable": false,
      "stateMutability": "nonpayable",
      "type": "function"
    },
    {
      "inputs": [],
      "payable": false,
      "stateMutability": "nonpayable",
      "type": "constructor"
    },
    {
      "anonymous": false,
      "inputs": [
        {
          "indexed": true,
          "name": "operator",
          "type": "address"
        },
        {
          "indexed": false,
          "name": "role",
          "type": "string"
        }
      ],
      "name": "RoleAdded",
      "type": "event"
    },
    {
      "anonymous": false,
      "inputs": [
        {
          "indexed": true,
          "name": "operator",
          "type": "address"
        },
        {
          "indexed": false,
          "name": "role",
          "type": "string"
        }
      ],
      "name": "RoleRemoved",
      "type": "event"
    },
    {
      "anonymous": false,
      "inputs": [
        {
          "indexed": true,
          "name": "previousOwner",
          "type": "address"
        }
      ],
      "name": "OwnershipRenounced",
      "type": "event"
    },
    {
      "anonymous": false,
      "inputs": [
        {
          "indexed": true,
          "name": "previousOwner",
          "type": "address"
        },
        {
          "indexed": true,
          "name": "newOwner",
          "type": "address"
        }
      ],
      "name": "OwnershipTransferred",
      "type": "event"
    },
    {
      "constant": true,
      "inputs": [
        {
          "name": "artist",
          "type": "address"
        }
      ],
      "name": "canCreateNewEdition",
      "outputs": [
        {
          "name": "",
          "type": "bool"
        }
      ],
      "payable": false,
      "stateMutability": "view",
      "type": "function"
    },
    {
      "constant": false,
      "inputs": [
        {
          "name": "artist",
          "type": "address"
        },
        {
          "name": "totalAvailable",
          "type": "uint256"
        },
        {
          "name": "priceInWei",
          "type": "uint256"
        }
      ],
      "name": "recordSuccessfulMint",
      "outputs": [
        {
          "name": "",
          "type": "bool"
        }
      ],
      "payable": false,
      "stateMutability": "nonpayable",
      "type": "function"
    },
    {
      "constant": false,
      "inputs": [
        {
          "name": "artist",
          "type": "address"
        },
        {
          "name": "value",
          "type": "bool"
        }
      ],
      "name": "setFrequencyOverride",
      "outputs": [],
      "payable": false,
      "stateMutability": "nonpayable",
      "type": "function"
    },
    {
      "constant": false,
      "inputs": [
        {
          "name": "_freezeWindow",
          "type": "uint256"
        }
      ],
      "name": "setFreezeWindow",
      "outputs": [],
      "payable": false,
      "stateMutability": "nonpayable",
      "type": "function"
    },
    {
      "constant": false,
      "inputs": [
        {
          "name": "_withdrawalAccount",
          "type": "address"
        }
      ],
      "name": "withdrawStuckEther",
      "outputs": [],
      "payable": false,
      "stateMutability": "nonpayable",
      "type": "function"
    }
  ],
  "bytecode": "0x60806040526201518060025534801561001757600080fd5b5060008054600160a060020a03191633908117909155610043906401000000006107fe61004882021704565b6101f3565b600054600160a060020a0316331461005f57600080fd5b6100ad816040805190810160405280600981526020017f77686974656c69737400000000000000000000000000000000000000000000008152506100b0640100000000026401000000009004565b50565b610127826001836040518082805190602001908083835b602083106100e65780518252601f1990920191602091820191016100c7565b51815160209384036101000a60001901801990921691161790529201948552506040519384900301909220929150506401000000006101ce8102610d0f1704565b81600160a060020a03167fbfec83d64eaa953f2708271a023ab9ee82057f8f3578d548c1a4ba0b5b700489826040518080602001828103825283818151815260200191508051906020019080838360005b83811015610190578181015183820152602001610178565b50505050905090810190601f1680156101bd5780820380516001836020036101000a031916815260200191505b509250505060405180910390a25050565b600160a060020a0316600090815260209190915260409020805460ff19166001179055565b610d80806102026000396000f3006080604052600436106101065763ffffffff7c01000000000000000000000000000000000000000000000000000000006000350416630988ca8c811461010b5780630cd85ece1461017457806318b919e9146101a9578063217fe6c61461023357806324953eaa1461029a57806326ccd77a146102ef578063286dd3f51461031057806360ade0f414610331578063715018a6146103585780637b9417c81461036d57806386f00bd71461038e5780638da5cb5b146103af5780639b19251a146103e0578063d13ed98b14610401578063dd3e5e9514610428578063e2ec6ec31461044e578063f2fde38b146104a3578063fb08af80146104c4578063fce17bbf146104e5575b600080fd5b34801561011757600080fd5b5060408051602060046024803582810135601f8101859004850286018501909652858552610172958335600160a060020a03169536956044949193909101919081908401838280828437509497506104fd9650505050505050565b005b34801561018057600080fd5b50610195600160a060020a036004351661056b565b604080519115158252519081900360200190f35b3480156101b557600080fd5b506101be610580565b6040805160208082528351818301528351919283929083019185019080838360005b838110156101f85781810151838201526020016101e0565b50505050905090810190601f1680156102255780820380516001836020036101000a031916815260200191505b509250505060405180910390f35b34801561023f57600080fd5b5060408051602060046024803582810135601f8101859004850286018501909652858552610195958335600160a060020a03169536956044949193909101919081908401838280828437509497506105a59650505050505050565b3480156102a657600080fd5b5060408051602060048035808201358381028086018501909652808552610172953695939460249493850192918291850190849080828437509497506106189650505050505050565b3480156102fb57600080fd5b50610172600160a060020a0360043516610665565b34801561031c57600080fd5b50610172600160a060020a0360043516610745565b34801561033d57600080fd5b5061034661078c565b60408051918252519081900360200190f35b34801561036457600080fd5b50610172610792565b34801561037957600080fd5b50610172600160a060020a03600435166107fe565b34801561039a57600080fd5b50610346600160a060020a0360043516610842565b3480156103bb57600080fd5b506103c4610854565b60408051600160a060020a039092168252519081900360200190f35b3480156103ec57600080fd5b50610195600160a060020a0360043516610863565b34801561040d57600080fd5b50610195600160a060020a036004351660243560443561089a565b34801561043457600080fd5b50610172600160a060020a03600435166024351515610903565b34801561045a57600080fd5b50604080516020600480358082013583810280860185019096528085526101729536959394602494938501929182918501908490808284375094975061095d9650505050505050565b3480156104af57600080fd5b50610172600160a060020a03600435166109aa565b3480156104d057600080fd5b50610195600160a060020a03600435166109ca565b3480156104f157600080fd5b50610172600435610a12565b610567826001836040518082805190602001908083835b602083106105335780518252601f199092019160209182019101610514565b51815160209384036101000a6000190180199092169116179052920194855250604051938490030190922092915050610a46565b5050565b60046020526000908152604090205460ff1681565b6040805180820190915260098152600080516020610d35833981519152602082015281565b6000610611836001846040518082805190602001908083835b602083106105dd5780518252601f1990920191602091820191016105be565b51815160209384036101000a6000190180199092169116179052920194855250604051938490030190922092915050610a5b565b9392505050565b60008054600160a060020a0316331461063057600080fd5b5060005b81518110156105675761065d828281518110151561064e57fe5b90602001906020020151610745565b600101610634565b3361069381604080519081016040528060098152602001600080516020610d358339815191528152506104fd565b600160a060020a038216151561070a57604080517f08c379a000000000000000000000000000000000000000000000000000000000815260206004820152601860248201527f496e76616c696420616464726573732070726f76696465640000000000000000604482015290519081900360640190fd5b604051600160a060020a03831690303180156108fc02916000818181858888f19350505050158015610740573d6000803e3d6000fd5b505050565b600054600160a060020a0316331461075c57600080fd5b61078981604080519081016040528060098152602001600080516020610d35833981519152815250610a7a565b50565b60025481565b600054600160a060020a031633146107a957600080fd5b60008054604051600160a060020a03909116917ff8df31144d9c2f0f6b59d69b8b98abd5459d07f2742c4df920b25aae33c6482091a26000805473ffffffffffffffffffffffffffffffffffffffff19169055565b600054600160a060020a0316331461081557600080fd5b61078981604080519081016040528060098152602001600080516020610d35833981519152815250610b8b565b60036020526000908152604090205481565b600054600160a060020a031681565b600061089282604080519081016040528060098152602001600080516020610d358339815191528152506105a5565b90505b919050565b6000336108ca81604080519081016040528060098152602001600080516020610d358339815191528152506104fd565b6002546108de90429063ffffffff610c5d16565b600160a060020a03861660009081526003602052604090205560019150509392505050565b3361093181604080519081016040528060098152602001600080516020610d358339815191528152506104fd565b50600160a060020a03919091166000908152600460205260409020805460ff1916911515919091179055565b60008054600160a060020a0316331461097557600080fd5b5060005b8151811015610567576109a2828281518110151561099357fe5b906020019060200201516107fe565b600101610979565b600054600160a060020a031633146109c157600080fd5b61078981610c70565b600160a060020a03811660009081526004602052604081205460ff16156109f357506001610895565b50600160a060020a031660009081526003602052604090205442101590565b33610a4081604080519081016040528060098152602001600080516020610d358339815191528152506104fd565b50600255565b610a508282610a5b565b151561056757600080fd5b600160a060020a03166000908152602091909152604090205460ff1690565b610ae4826001836040518082805190602001908083835b60208310610ab05780518252601f199092019160209182019101610a91565b51815160209384036101000a6000190180199092169116179052920194855250604051938490030190922092915050610ced565b81600160a060020a03167fd211483f91fc6eff862467f8de606587a30c8fc9981056f051b897a418df803a826040518080602001828103825283818151815260200191508051906020019080838360005b83811015610b4d578181015183820152602001610b35565b50505050905090810190601f168015610b7a5780820380516001836020036101000a031916815260200191505b509250505060405180910390a25050565b610bf5826001836040518082805190602001908083835b60208310610bc15780518252601f199092019160209182019101610ba2565b51815160209384036101000a6000190180199092169116179052920194855250604051938490030190922092915050610d0f565b81600160a060020a03167fbfec83d64eaa953f2708271a023ab9ee82057f8f3578d548c1a4ba0b5b7004898260405180806020018281038252838181518152602001915080519060200190808383600083811015610b4d578181015183820152602001610b35565b81810182811015610c6a57fe5b92915050565b600160a060020a0381161515610c8557600080fd5b60008054604051600160a060020a03808516939216917f8be0079c531659141344cd1fd0a4f28419497f9722a3daafe3b4186f6b6457e091a36000805473ffffffffffffffffffffffffffffffffffffffff1916600160a060020a0392909216919091179055565b600160a060020a0316600090815260209190915260409020805460ff19169055565b600160a060020a0316600090815260209190915260409020805460ff19166001179055560077686974656c6973740000000000000000000000000000000000000000000000a165627a7a723058209dcee53a63b0d87f1476e1a9c8796cadfe23abd0c23d688c01b7a483060839c70029",
  "source": "pragma solidity 0.4.24;\n\nimport \"openzeppelin-solidity/contracts/math/SafeMath.sol\";\nimport \"openzeppelin-solidity/contracts/access/Whitelist.sol\";\nimport \"../interfaces/ISelfServiceFrequencyControls.sol\";\n\ncontract SelfServiceFrequencyControls is ISelfServiceFrequencyControls, Whitelist {\n  using SafeMath for uint256;\n\n  // frozen out for..\n  uint256 public freezeWindow = 1 days;\n\n  // When the current time period started\n  mapping(address => uint256) public frozenTil;\n\n  // Frequency override list for users - you can temporaily add in address which disables the 24hr check\n  mapping(address => bool) public frequencyOverride;\n\n  constructor() public {\n    super.addAddressToWhitelist(msg.sender);\n  }\n\n  function canCreateNewEdition(address artist) external view returns (bool) {\n    if (frequencyOverride[artist]) {\n      return true;\n    }\n    return (block.timestamp >= frozenTil[artist]);\n  }\n\n  function recordSuccessfulMint(address artist, uint256 totalAvailable, uint256 priceInWei) external onlyIfWhitelisted(msg.sender) returns (bool) {\n    frozenTil[artist] = block.timestamp.add(freezeWindow);\n    return true;\n  }\n\n  function setFrequencyOverride(address artist, bool value) external onlyIfWhitelisted(msg.sender) {\n    frequencyOverride[artist] = value;\n  }\n\n  /**\n   * @dev Sets freeze window\n   * @dev Only callable from owner\n   */\n  function setFreezeWindow(uint256 _freezeWindow) onlyIfWhitelisted(msg.sender) public {\n    freezeWindow = _freezeWindow;\n  }\n\n  /**\n   * @dev Allows for the ability to extract stuck ether\n   * @dev Only callable from owner\n   */\n  function withdrawStuckEther(address _withdrawalAccount) onlyIfWhitelisted(msg.sender) public {\n    require(_withdrawalAccount != address(0), \"Invalid address provided\");\n    _withdrawalAccount.transfer(address(this).balance);\n  }\n}\n",
  "sourcePath": "/Users/jamesmorgan/Dropbox/workspace-blockrocket/knownorigin/known-origin-contracts/contracts/v2/self-service/SelfServiceFrequencyControls.sol",
  "compiler": {
    "name": "solc",
    "version": "0.4.24+commit.e67f0147.Emscripten.clang"
  },
  "schemaVersion": "3.0.19",
  "updatedAt": "2019-12-12T09:46:55.110Z",
  "networkType": "ethereum",
  "devdoc": {
    "methods": {
      "addAddressToWhitelist(address)": {
        "details": "add an address to the whitelist",
        "params": {
          "_operator": "address"
        },
        "return": "true if the address was added to the whitelist, false if the address was already in the whitelist"
      },
      "addAddressesToWhitelist(address[])": {
        "details": "add addresses to the whitelist",
        "params": {
          "_operators": "addresses"
        },
        "return": "true if at least one address was added to the whitelist, false if all addresses were already in the whitelist"
      },
      "checkRole(address,string)": {
        "details": "reverts if addr does not have role",
        "params": {
          "_operator": "address",
          "_role": "the name of the role // reverts"
        }
      },
      "hasRole(address,string)": {
        "details": "determine if addr has role",
        "params": {
          "_operator": "address",
          "_role": "the name of the role"
        },
        "return": "bool"
      },
      "removeAddressFromWhitelist(address)": {
        "details": "remove an address from the whitelist",
        "params": {
          "_operator": "address"
        },
        "return": "true if the address was removed from the whitelist, false if the address wasn't in the whitelist in the first place"
      },
      "removeAddressesFromWhitelist(address[])": {
        "details": "remove addresses from the whitelist",
        "params": {
          "_operators": "addresses"
        },
        "return": "true if at least one address was removed from the whitelist, false if all addresses weren't in the whitelist in the first place"
      },
      "renounceOwnership()": {
        "details": "Allows the current owner to relinquish control of the contract."
      },
      "setFreezeWindow(uint256)": {
        "details": "Sets freeze windowOnly callable from owner"
      },
      "transferOwnership(address)": {
        "details": "Allows the current owner to transfer control of the contract to a newOwner.",
        "params": {
          "_newOwner": "The address to transfer ownership to."
        }
      },
      "whitelist(address)": {
        "details": "getter to determine if address is in whitelist"
      },
      "withdrawStuckEther(address)": {
        "details": "Allows for the ability to extract stuck etherOnly callable from owner"
      }
    }
  },
  "userdoc": {
    "methods": {
      "renounceOwnership()": {
        "notice": "Renouncing to ownership will leave the contract without an owner. It will not be possible to call the functions with the `onlyOwner` modifier anymore."
      }
    }
  }
}