{
  "contractName": "SelfServiceEditionCurationV4",
  "abi": [
    {
      "constant": true,
      "inputs": [
        {
          "name": "_operator",
          "type": "address"
        },
        {
          "name": "_role",
          "type": "string"
        }
      ],
      "name": "checkRole",
      "outputs": [],
      "payable": false,
      "stateMutability": "view",
      "type": "function"
    },
    {
      "constant": true,
      "inputs": [],
      "name": "ROLE_WHITELISTED",
      "outputs": [
        {
          "name": "",
          "type": "string"
        }
      ],
      "payable": false,
      "stateMutability": "view",
      "type": "function"
    },
    {
      "constant": true,
      "inputs": [
        {
          "name": "_operator",
          "type": "address"
        },
        {
          "name": "_role",
          "type": "string"
        }
      ],
      "name": "hasRole",
      "outputs": [
        {
          "name": "",
          "type": "bool"
        }
      ],
      "payable": false,
      "stateMutability": "view",
      "type": "function"
    },
    {
      "constant": false,
      "inputs": [
        {
          "name": "_operators",
          "type": "address[]"
        }
      ],
      "name": "removeAddressesFromWhitelist",
      "outputs": [],
      "payable": false,
      "stateMutability": "nonpayable",
      "type": "function"
    },
    {
      "constant": false,
      "inputs": [
        {
          "name": "_operator",
          "type": "address"
        }
      ],
      "name": "removeAddressFromWhitelist",
      "outputs": [],
      "payable": false,
      "stateMutability": "nonpayable",
      "type": "function"
    },
    {
      "constant": false,
      "inputs": [],
      "name": "unpause",
      "outputs": [],
      "payable": false,
      "stateMutability": "nonpayable",
      "type": "function"
    },
    {
      "constant": true,
      "inputs": [],
      "name": "minPricePerEdition",
      "outputs": [
        {
          "name": "",
          "type": "uint256"
        }
      ],
      "payable": false,
      "stateMutability": "view",
      "type": "function"
    },
    {
      "constant": true,
      "inputs": [],
      "name": "koCommission",
      "outputs": [
        {
          "name": "",
          "type": "uint256"
        }
      ],
      "payable": false,
      "stateMutability": "view",
      "type": "function"
    },
    {
      "constant": true,
      "inputs": [],
      "name": "kodaV2",
      "outputs": [
        {
          "name": "",
          "type": "address"
        }
      ],
      "payable": false,
      "stateMutability": "view",
      "type": "function"
    },
    {
      "constant": true,
      "inputs": [],
      "name": "paused",
      "outputs": [
        {
          "name": "",
          "type": "bool"
        }
      ],
      "payable": false,
      "stateMutability": "view",
      "type": "function"
    },
    {
      "constant": false,
      "inputs": [],
      "name": "renounceOwnership",
      "outputs": [],
      "payable": false,
      "stateMutability": "nonpayable",
      "type": "function"
    },
    {
      "constant": true,
      "inputs": [],
      "name": "accessControls",
      "outputs": [
        {
          "name": "",
          "type": "address"
        }
      ],
      "payable": false,
      "stateMutability": "view",
      "type": "function"
    },
    {
      "constant": true,
      "inputs": [],
      "name": "maxEditionSize",
      "outputs": [
        {
          "name": "",
          "type": "uint256"
        }
      ],
      "payable": false,
      "stateMutability": "view",
      "type": "function"
    },
    {
      "constant": false,
      "inputs": [
        {
          "name": "_operator",
          "type": "address"
        }
      ],
      "name": "addAddressToWhitelist",
      "outputs": [],
      "payable": false,
      "stateMutability": "nonpayable",
      "type": "function"
    },
    {
      "constant": true,
      "inputs": [],
      "name": "auction",
      "outputs": [
        {
          "name": "",
          "type": "address"
        }
      ],
      "payable": false,
      "stateMutability": "view",
      "type": "function"
    },
    {
      "constant": false,
      "inputs": [],
      "name": "pause",
      "outputs": [],
      "payable": false,
      "stateMutability": "nonpayable",
      "type": "function"
    },
    {
      "constant": true,
      "inputs": [],
      "name": "owner",
      "outputs": [
        {
          "name": "",
          "type": "address"
        }
      ],
      "payable": false,
      "stateMutability": "view",
      "type": "function"
    },
    {
      "constant": true,
      "inputs": [
        {
          "name": "_operator",
          "type": "address"
        }
      ],
      "name": "whitelist",
      "outputs": [
        {
          "name": "",
          "type": "bool"
        }
      ],
      "payable": false,
      "stateMutability": "view",
      "type": "function"
    },
    {
      "constant": true,
      "inputs": [],
      "name": "frequencyControls",
      "outputs": [
        {
          "name": "",
          "type": "address"
        }
      ],
      "payable": false,
      "stateMutability": "view",
      "type": "function"
    },
    {
      "constant": false,
      "inputs": [
        {
          "name": "_operators",
          "type": "address[]"
        }
      ],
      "name": "addAddressesToWhitelist",
      "outputs": [],
      "payable": false,
      "stateMutability": "nonpayable",
      "type": "function"
    },
    {
      "constant": false,
      "inputs": [
        {
          "name": "_newOwner",
          "type": "address"
        }
      ],
      "name": "transferOwnership",
      "outputs": [],
      "payable": false,
      "stateMutability": "nonpayable",
      "type": "function"
    },
    {
      "inputs": [
        {
          "name": "_kodaV2",
          "type": "address"
        },
        {
          "name": "_auction",
          "type": "address"
        },
        {
          "name": "_accessControls",
          "type": "address"
        },
        {
          "name": "_frequencyControls",
          "type": "address"
        }
      ],
      "payable": false,
      "stateMutability": "nonpayable",
      "type": "constructor"
    },
    {
      "anonymous": false,
      "inputs": [
        {
          "indexed": true,
          "name": "_editionNumber",
          "type": "uint256"
        },
        {
          "indexed": true,
          "name": "_creator",
          "type": "address"
        },
        {
          "indexed": false,
          "name": "_priceInWei",
          "type": "uint256"
        },
        {
          "indexed": false,
          "name": "_totalAvailable",
          "type": "uint256"
        },
        {
          "indexed": false,
          "name": "_enableAuction",
          "type": "bool"
        }
      ],
      "name": "SelfServiceEditionCreated",
      "type": "event"
    },
    {
      "anonymous": false,
      "inputs": [],
      "name": "Pause",
      "type": "event"
    },
    {
      "anonymous": false,
      "inputs": [],
      "name": "Unpause",
      "type": "event"
    },
    {
      "anonymous": false,
      "inputs": [
        {
          "indexed": true,
          "name": "operator",
          "type": "address"
        },
        {
          "indexed": false,
          "name": "role",
          "type": "string"
        }
      ],
      "name": "RoleAdded",
      "type": "event"
    },
    {
      "anonymous": false,
      "inputs": [
        {
          "indexed": true,
          "name": "operator",
          "type": "address"
        },
        {
          "indexed": false,
          "name": "role",
          "type": "string"
        }
      ],
      "name": "RoleRemoved",
      "type": "event"
    },
    {
      "anonymous": false,
      "inputs": [
        {
          "indexed": true,
          "name": "previousOwner",
          "type": "address"
        }
      ],
      "name": "OwnershipRenounced",
      "type": "event"
    },
    {
      "anonymous": false,
      "inputs": [
        {
          "indexed": true,
          "name": "previousOwner",
          "type": "address"
        },
        {
          "indexed": true,
          "name": "newOwner",
          "type": "address"
        }
      ],
      "name": "OwnershipTransferred",
      "type": "event"
    },
    {
      "constant": false,
      "inputs": [
        {
          "name": "_enableAuction",
          "type": "bool"
        },
        {
          "name": "_optionalSplitAddress",
          "type": "address"
        },
        {
          "name": "_optionalSplitRate",
          "type": "uint256"
        },
        {
          "name": "_totalAvailable",
          "type": "uint256"
        },
        {
          "name": "_priceInWei",
          "type": "uint256"
        },
        {
          "name": "_startDate",
          "type": "uint256"
        },
        {
          "name": "_endDate",
          "type": "uint256"
        },
        {
          "name": "_artistCommission",
          "type": "uint256"
        },
        {
          "name": "_editionType",
          "type": "uint256"
        },
        {
          "name": "_tokenUri",
          "type": "string"
        }
      ],
      "name": "createEdition",
      "outputs": [
        {
          "name": "_editionNumber",
          "type": "uint256"
        }
      ],
      "payable": false,
      "stateMutability": "nonpayable",
      "type": "function"
    },
    {
      "constant": false,
      "inputs": [
        {
          "name": "_enableAuction",
          "type": "bool"
        },
        {
          "name": "_totalAvailable",
          "type": "uint256"
        },
        {
          "name": "_priceInWei",
          "type": "uint256"
        },
        {
          "name": "_startDate",
          "type": "uint256"
        },
        {
          "name": "_endDate",
          "type": "uint256"
        },
        {
          "name": "_artistCommission",
          "type": "uint256"
        },
        {
          "name": "_editionType",
          "type": "uint256"
        },
        {
          "name": "_tokenUri",
          "type": "string"
        }
      ],
      "name": "createEditionSimple",
      "outputs": [
        {
          "name": "_editionNumber",
          "type": "uint256"
        }
      ],
      "payable": false,
      "stateMutability": "nonpayable",
      "type": "function"
    },
    {
      "constant": false,
      "inputs": [
        {
          "name": "_artist",
          "type": "address"
        },
        {
          "name": "_enableAuction",
          "type": "bool"
        },
        {
          "name": "_optionalSplitAddress",
          "type": "address"
        },
        {
          "name": "_optionalSplitRate",
          "type": "uint256"
        },
        {
          "name": "_totalAvailable",
          "type": "uint256"
        },
        {
          "name": "_priceInWei",
          "type": "uint256"
        },
        {
          "name": "_startDate",
          "type": "uint256"
        },
        {
          "name": "_endDate",
          "type": "uint256"
        },
        {
          "name": "_artistCommission",
          "type": "uint256"
        },
        {
          "name": "_editionType",
          "type": "uint256"
        },
        {
          "name": "_tokenUri",
          "type": "string"
        }
      ],
      "name": "createEditionFor",
      "outputs": [
        {
          "name": "_editionNumber",
          "type": "uint256"
        }
      ],
      "payable": false,
      "stateMutability": "nonpayable",
      "type": "function"
    },
    {
      "constant": false,
      "inputs": [
        {
          "name": "_kodaV2",
          "type": "address"
        }
      ],
      "name": "setKodavV2",
      "outputs": [],
      "payable": false,
      "stateMutability": "nonpayable",
      "type": "function"
    },
    {
      "constant": false,
      "inputs": [
        {
          "name": "_auction",
          "type": "address"
        }
      ],
      "name": "setAuction",
      "outputs": [],
      "payable": false,
      "stateMutability": "nonpayable",
      "type": "function"
    },
    {
      "constant": false,
      "inputs": [
        {
          "name": "_koCommission",
          "type": "uint256"
        }
      ],
      "name": "setKoCommission",
      "outputs": [],
      "payable": false,
      "stateMutability": "nonpayable",
      "type": "function"
    },
    {
      "constant": false,
      "inputs": [
        {
          "name": "_maxEditionSize",
          "type": "uint256"
        }
      ],
      "name": "setMaxEditionSize",
      "outputs": [],
      "payable": false,
      "stateMutability": "nonpayable",
      "type": "function"
    },
    {
      "constant": false,
      "inputs": [
        {
          "name": "_minPricePerEdition",
          "type": "uint256"
        }
      ],
      "name": "setMinPricePerEdition",
      "outputs": [],
      "payable": false,
      "stateMutability": "nonpayable",
      "type": "function"
    },
    {
      "constant": true,
      "inputs": [
        {
          "name": "account",
          "type": "address"
        }
      ],
      "name": "isFrozen",
      "outputs": [
        {
          "name": "",
          "type": "bool"
        }
      ],
      "payable": false,
      "stateMutability": "view",
      "type": "function"
    },
    {
      "constant": true,
      "inputs": [
        {
          "name": "account",
          "type": "address"
        }
      ],
      "name": "isEnabledForAccount",
      "outputs": [
        {
          "name": "",
          "type": "bool"
        }
      ],
      "payable": false,
      "stateMutability": "view",
      "type": "function"
    },
    {
      "constant": true,
      "inputs": [
        {
          "name": "account",
          "type": "address"
        }
      ],
      "name": "canCreateAnotherEdition",
      "outputs": [
        {
          "name": "",
          "type": "bool"
        }
      ],
      "payable": false,
      "stateMutability": "view",
      "type": "function"
    },
    {
      "constant": false,
      "inputs": [
        {
          "name": "_withdrawalAccount",
          "type": "address"
        }
      ],
      "name": "withdrawStuckEther",
      "outputs": [],
      "payable": false,
      "stateMutability": "nonpayable",
      "type": "function"
    }
  ],
  "bytecode": "0x60806040526002805460ff19169055600f6006556064600755662386f26fc100006008553480156200003057600080fd5b50604051608080620023ce833981016040908152815160208301519183015160609093015160008054600160a060020a03191633908117909155919391620000869064010000000062000ed3620000e382021704565b60028054600160a060020a039586166101000261010060a860020a031990911617905560038054938516600160a060020a031994851617905560048054928516928416929092179091556005805491909316911617905562000299565b600054600160a060020a03163314620000fb57600080fd5b6200014b816040805190810160405280600981526020017f77686974656c69737400000000000000000000000000000000000000000000008152506200014e640100000000026401000000009004565b50565b620001ca826001836040518082805190602001908083835b60208310620001875780518252601f19909201916020918201910162000166565b51815160209384036101000a6000190180199092169116179052920194855250604051938490030190922092915050640100000000620002748102620020b41704565b81600160a060020a03167fbfec83d64eaa953f2708271a023ab9ee82057f8f3578d548c1a4ba0b5b700489826040518080602001828103825283818151815260200191508051906020019080838360005b83811015620002355781810151838201526020016200021b565b50505050905090810190601f168015620002635780820380516001836020036101000a031916815260200191505b509250505060405180910390a25050565b600160a060020a0316600090815260209190915260409020805460ff19166001179055565b61212580620002a96000396000f3006080604052600436106101875763ffffffff60e060020a6000350416630988ca8c811461018c57806318b919e9146101f5578063217fe6c61461027f57806324953eaa146102fa57806326ccd77a1461034f578063286dd3f5146103705780632bd3152d146103915780633648d891146103b25780633b7cc88a1461043d5780633f4ba83a14610455578063410112fd1461046a578063508a94171461047f578063566aac2f146104945780635b638fa5146104ac5780635c975abb146104dd578063715018a6146104f2578063748365ef146105075780637b37ce4f1461051c5780637b9417c8146105315780637d9f6db5146105525780638456cb59146105675780638da5cb5b1461057c5780639b19251a14610591578063a28c5294146105b2578063a7e717af146105c7578063ab1183e014610653578063afc57f9814610674578063b8c6f5791461068c578063bbee17a3146106ad578063c6b5bb3a146106ce578063e2ec6ec314610765578063e5839836146107ba578063f2fde38b146107db575b600080fd5b34801561019857600080fd5b5060408051602060046024803582810135601f81018590048502860185019096528585526101f3958335600160a060020a03169536956044949193909101919081908401838280828437509497506107fc9650505050505050565b005b34801561020157600080fd5b5061020a61086a565b6040805160208082528351818301528351919283929083019185019080838360005b8381101561024457818101518382015260200161022c565b50505050905090810190601f1680156102715780820380516001836020036101000a031916815260200191505b509250505060405180910390f35b34801561028b57600080fd5b5060408051602060046024803582810135601f81018590048502860185019096528585526102e6958335600160a060020a031695369560449491939091019190819084018382808284375094975061088f9650505050505050565b604080519115158252519081900360200190f35b34801561030657600080fd5b50604080516020600480358082013583810280860185019096528085526101f3953695939460249493850192918291850190849080828437509497506109029650505050505050565b34801561035b57600080fd5b506101f3600160a060020a036004351661094f565b34801561037c57600080fd5b506101f3600160a060020a0360043516610a18565b34801561039d57600080fd5b506102e6600160a060020a0360043516610a5f565b3480156103be57600080fd5b50604080516020600460e43581810135601f810184900484028501840190955284845261042b948235151594602480359560443595606435956084359560a4359560c43595369561010494929391909201918190840183828082843750949750610b009650505050505050565b60408051918252519081900360200190f35b34801561044957600080fd5b506101f3600435610d64565b34801561046157600080fd5b506101f3610d98565b34801561047657600080fd5b5061042b610df5565b34801561048b57600080fd5b5061042b610dfb565b3480156104a057600080fd5b506101f3600435610e01565b3480156104b857600080fd5b506104c1610e35565b60408051600160a060020a039092168252519081900360200190f35b3480156104e957600080fd5b506102e6610e49565b3480156104fe57600080fd5b506101f3610e52565b34801561051357600080fd5b506104c1610ebe565b34801561052857600080fd5b5061042b610ecd565b34801561053d57600080fd5b506101f3600160a060020a0360043516610ed3565b34801561055e57600080fd5b506104c1610f17565b34801561057357600080fd5b506101f3610f26565b34801561058857600080fd5b506104c1610f85565b34801561059d57600080fd5b506102e6600160a060020a0360043516610f94565b3480156105be57600080fd5b506104c1610fc9565b3480156105d357600080fd5b50604080516020601f6101243560048181013592830184900484028501840190955281845261042b948035151594600160a060020a0360248035919091169560443595606435956084359560a4359560c4359560e4359561010435953695610144949301918190840183828082843750949750610fd89650505050505050565b34801561065f57600080fd5b506102e6600160a060020a03600435166112fd565b34801561068057600080fd5b506101f36004356113f6565b34801561069857600080fd5b506101f3600160a060020a036004351661142a565b3480156106b957600080fd5b506101f3600160a060020a0360043516611488565b3480156106da57600080fd5b50604080516020601f6101443560048181013592830184900484028501840190955281845261042b94600160a060020a0381358116956024803515159660443590931695606435956084359560a4359560c4359560e4359561010435956101243595369594610164949391909101919081908401838280828437509497506114ec9650505050505050565b34801561077157600080fd5b50604080516020600480358082013583810280860185019096528085526101f3953695939460249493850192918291850190849080828437509497506117379650505050505050565b3480156107c657600080fd5b506102e6600160a060020a0360043516611784565b3480156107e757600080fd5b506101f3600160a060020a03600435166117d9565b610866826001836040518082805190602001908083835b602083106108325780518252601f199092019160209182019101610813565b51815160209384036101000a60001901801990921691161790529201948552506040519384900301909220929150506117f9565b5050565b60408051808201909152600981526000805160206120da833981519152602082015281565b60006108fb836001846040518082805190602001908083835b602083106108c75780518252601f1990920191602091820191016108a8565b51815160209384036101000a600019018019909216911617905292019485525060405193849003019092209291505061180e565b9392505050565b60008054600160a060020a0316331461091a57600080fd5b5060005b815181101561086657610947828281518110151561093857fe5b90602001906020020151610a18565b60010161091e565b3361097d816040805190810160405280600981526020016000805160206120da8339815191528152506107fc565b600160a060020a03821615156109dd576040805160e560020a62461bcd02815260206004820152601860248201527f496e76616c696420616464726573732070726f76696465640000000000000000604482015290519081900360640190fd5b604051600160a060020a03831690303180156108fc02916000818181858888f19350505050158015610a13573d6000803e3d6000fd5b505050565b600054600160a060020a03163314610a2f57600080fd5b610a5c816040805190810160405280600981526020016000805160206120da83398151915281525061182d565b50565b60048054604080517f2bd3152d000000000000000000000000000000000000000000000000000000008152600160a060020a0385811694820194909452905160009390921691632bd3152d9160248082019260209290919082900301818787803b158015610acc57600080fd5b505af1158015610ae0573d6000803e3d6000fd5b505050506040513d6020811015610af657600080fd5b505190505b919050565b600254600090819060ff1615610b1557600080fd5b6005546040805160e760020a6301f6115f0281523360048201529051600160a060020a039092169163fb08af80916024808201926020929091908290030181600087803b158015610b6557600080fd5b505af1158015610b79573d6000803e3d6000fd5b505050506040513d6020811015610b8f57600080fd5b50511515610c0d576040805160e560020a62461bcd02815260206004820152602760248201527f53656e6465722063757272656e746c792066726f7a656e206f7574206f66206360448201527f72656174696f6e00000000000000000000000000000000000000000000000000606482015290519081900360840190fd5b6064610c246006548761193e90919063ffffffff16565b1115610c7a576040805160e560020a62461bcd02815260206004820152601c60248201527f546f74616c20636f6d6d697373696f6e20657863656564732031303000000000604482015290519081900360640190fd5b610cb3338b60c0604051908101604052808d81526020018c81526020018b81526020018a8152602001898152602001888152508661194b565b600554604080517fd13ed98b000000000000000000000000000000000000000000000000000000008152336004820152602481018d9052604481018c90529051929350600160a060020a039091169163d13ed98b916064808201926020929091908290030181600087803b158015610d2a57600080fd5b505af1158015610d3e573d6000803e3d6000fd5b505050506040513d6020811015610d5457600080fd5b50909a9950505050505050505050565b33610d92816040805190810160405280600981526020016000805160206120da8339815191528152506107fc565b50600655565b600054600160a060020a03163314610daf57600080fd5b60025460ff161515610dc057600080fd5b6002805460ff191690556040517f7805862f689e2f13df9f062ff482ad3ad112aca9e0847911ed832e158c525b3390600090a1565b60085481565b60065481565b33610e2f816040805190810160405280600981526020016000805160206120da8339815191528152506107fc565b50600755565b6002546101009004600160a060020a031681565b60025460ff1681565b600054600160a060020a03163314610e6957600080fd5b60008054604051600160a060020a03909116917ff8df31144d9c2f0f6b59d69b8b98abd5459d07f2742c4df920b25aae33c6482091a26000805473ffffffffffffffffffffffffffffffffffffffff19169055565b600454600160a060020a031681565b60075481565b600054600160a060020a03163314610eea57600080fd5b610a5c816040805190810160405280600981526020016000805160206120da833981519152815250611dec565b600354600160a060020a031681565b600054600160a060020a03163314610f3d57600080fd5b60025460ff1615610f4d57600080fd5b6002805460ff191660011790556040517f6985a02210a168e66602d3235cb6db0e70f92b3ba4d376a33c0f3d9434bff62590600090a1565b600054600160a060020a031681565b6000610fc3826040805190810160405280600981526020016000805160206120da83398151915281525061088f565b92915050565b600554600160a060020a031681565b600254600090819060ff1615610fed57600080fd5b6005546040805160e760020a6301f6115f0281523360048201529051600160a060020a039092169163fb08af80916024808201926020929091908290030181600087803b15801561103d57600080fd5b505af1158015611051573d6000803e3d6000fd5b505050506040513d602081101561106757600080fd5b505115156110e5576040805160e560020a62461bcd02815260206004820152602760248201527f53656e6465722063757272656e746c792066726f7a656e206f7574206f66206360448201527f72656174696f6e00000000000000000000000000000000000000000000000000606482015290519081900360840190fd5b60065460649061110b906110ff888e63ffffffff61193e16565b9063ffffffff61193e16565b1115611161576040805160e560020a62461bcd02815260206004820152601c60248201527f546f74616c20636f6d6d697373696f6e20657863656564732031303000000000604482015290519081900360640190fd5b61119a338d60c0604051908101604052808d81526020018c81526020018b81526020018a8152602001898152602001888152508661194b565b905060008a1180156111b45750600160a060020a038b1615155b1561124d57600254604080517f97e851f600000000000000000000000000000000000000000000000000000000815260048101849052602481018d9052600160a060020a038e811660448301529151610100909304909116916397e851f69160648082019260009290919082900301818387803b15801561123457600080fd5b505af1158015611248573d6000803e3d6000fd5b505050505b600554604080517fd13ed98b000000000000000000000000000000000000000000000000000000008152336004820152602481018c9052604481018b90529051600160a060020a039092169163d13ed98b916064808201926020929091908290030181600087803b1580156112c157600080fd5b505af11580156112d5573d6000803e3d6000fd5b505050506040513d60208110156112eb57600080fd5b50909c9b505050505050505050505050565b60048054604080517f2bd3152d000000000000000000000000000000000000000000000000000000008152600160a060020a0385811694820194909452905160009390921691632bd3152d9160248082019260209290919082900301818787803b15801561136a57600080fd5b505af115801561137e573d6000803e3d6000fd5b505050506040513d602081101561139457600080fd5b505115156113a457506000610afb565b6005546040805160e760020a6301f6115f028152600160a060020a0385811660048301529151919092169163fb08af809160248083019260209291908290030181600087803b158015610acc57600080fd5b33611424816040805190810160405280600981526020016000805160206120da8339815191528152506107fc565b50600855565b33611458816040805190810160405280600981526020016000805160206120da8339815191528152506107fc565b506003805473ffffffffffffffffffffffffffffffffffffffff1916600160a060020a0392909216919091179055565b336114b6816040805190810160405280600981526020016000805160206120da8339815191528152506107fc565b5060028054600160a060020a039092166101000274ffffffffffffffffffffffffffffffffffffffff0019909216919091179055565b6000803361151d816040805190810160405280600981526020016000805160206120da8339815191528152506107fc565b600654606490611537906110ff898f63ffffffff61193e16565b111561158d576040805160e560020a62461bcd02815260206004820152601c60248201527f546f74616c20636f6d6d697373696f6e20657863656564732031303000000000604482015290519081900360640190fd5b6115c68e8e60c0604051908101604052808e81526020018d81526020018c81526020018b81526020018a8152602001898152508761194b565b915060008b1180156115e05750600160a060020a038c1615155b1561167957600254604080517f97e851f600000000000000000000000000000000000000000000000000000000815260048101859052602481018e9052600160a060020a038f811660448301529151610100909304909116916397e851f69160648082019260009290919082900301818387803b15801561166057600080fd5b505af1158015611674573d6000803e3d6000fd5b505050505b600560009054906101000a9004600160a060020a0316600160a060020a031663d13ed98b8f8c8c6040518463ffffffff1660e060020a0281526004018084600160a060020a0316600160a060020a031681526020018381526020018281526020019350505050602060405180830381600087803b1580156116f957600080fd5b505af115801561170d573d6000803e3d6000fd5b505050506040513d602081101561172357600080fd5b50919e9d5050505050505050505050505050565b60008054600160a060020a0316331461174f57600080fd5b5060005b81518110156108665761177c828281518110151561176d57fe5b90602001906020020151610ed3565b600101611753565b6005546040805160e760020a6301f6115f028152600160a060020a0384811660048301529151600093929092169163fb08af809160248082019260209290919082900301818787803b158015610acc57600080fd5b600054600160a060020a031633146117f057600080fd5b610a5c81611ebe565b611803828261180e565b151561086657600080fd5b600160a060020a03166000908152602091909152604090205460ff1690565b611897826001836040518082805190602001908083835b602083106118635780518252601f199092019160209182019101611844565b51815160209384036101000a6000190180199092169116179052920194855250604051938490030190922092915050611f3b565b81600160a060020a03167fd211483f91fc6eff862467f8de606587a30c8fc9981056f051b897a418df803a826040518080602001828103825283818151815260200191508051906020019080838360005b838110156119005781810151838201526020016118e8565b50505050905090810190601f16801561192d5780820380516001836020036101000a031916815260200191505b509250505060405180910390a25050565b81810182811015610fc357fe5b8151602083015160008054909291908390600160a060020a031633148061197f575060008311801561197f57506007548311155b15156119d5576040805160e560020a62461bcd02815260206004820152601460248201527f496e76616c69642065646974696f6e2073697a65000000000000000000000000604482015290519081900360640190fd5b600054600160a060020a03163314806119f057506008548210155b1515611a46576040805160e560020a62461bcd02815260206004820152600d60248201527f496e76616c696420707269636500000000000000000000000000000000000000604482015290519081900360640190fd5b600054600160a060020a0316331480611af3575060048054604080517f2bd3152d000000000000000000000000000000000000000000000000000000008152600160a060020a038c81169482019490945290519290911691632bd3152d916024808201926020929091908290030181600087803b158015611ac657600080fd5b505af1158015611ada573d6000803e3d6000fd5b505050506040513d6020811015611af057600080fd5b50515b1515611b49576040805160e560020a62461bcd02815260206004820152601d60248201527f4e6f7420616c6c6f77656420746f206372656174652065646974696f6e000000604482015290519081900360640190fd5b611b51611f5d565b6002549091506101009004600160a060020a0316638bbb594a82600089600560200201518a600260200201518b600360200201518e8d600460200201518a8e8d6040518b63ffffffff1660e060020a028152600401808b81526020018a60010260001916815260200189815260200188815260200187815260200186600160a060020a0316600160a060020a0316815260200185815260200184815260200180602001838152602001828103825284818151815260200191508051906020019080838360005b83811015611c2f578181015183820152602001611c17565b50505050905090810190601f168015611c5c5780820380516001836020036101000a031916815260200191505b509b505050505050505050505050602060405180830381600087803b158015611c8457600080fd5b505af1158015611c98573d6000803e3d6000fd5b505050506040513d6020811015611cae57600080fd5b50511515611d06576040805160e560020a62461bcd02815260206004820152601c60248201527f4661696c656420746f20637265617465206e65772065646974696f6e00000000604482015290519081900360640190fd5b8615611d9357600354604080517fb5e7f3c300000000000000000000000000000000000000000000000000000000815260048101849052600160a060020a038b811660248301529151919092169163b5e7f3c391604480830192600092919082900301818387803b158015611d7a57600080fd5b505af1158015611d8e573d6000803e3d6000fd5b505050505b6040805183815260208101859052881515818301529051600160a060020a038a169183917faa456f9f24703ca25ecf5b0bfd7bed18ed96589119418060049a312d983727669181900360600190a3979650505050505050565b611e56826001836040518082805190602001908083835b60208310611e225780518252601f199092019160209182019101611e03565b51815160209384036101000a60001901801990921691161790529201948552506040519384900301909220929150506120b4565b81600160a060020a03167fbfec83d64eaa953f2708271a023ab9ee82057f8f3578d548c1a4ba0b5b70048982604051808060200182810382528381815181526020019150805190602001908083836000838110156119005781810151838201526020016118e8565b600160a060020a0381161515611ed357600080fd5b60008054604051600160a060020a03808516939216917f8be0079c531659141344cd1fd0a4f28419497f9722a3daafe3b4186f6b6457e091a36000805473ffffffffffffffffffffffffffffffffffffffff1916600160a060020a0392909216919091179055565b600160a060020a0316600090815260209190915260409020805460ff19169055565b600080600080600260019054906101000a9004600160a060020a0316600160a060020a031663abf3260f6040518163ffffffff1660e060020a028152600401602060405180830381600087803b158015611fb657600080fd5b505af1158015611fca573d6000803e3d6000fd5b505050506040513d6020811015611fe057600080fd5b5051600254604080517f6a028692000000000000000000000000000000000000000000000000000000008152600481018490529051929550610100909104600160a060020a031691636a028692916024808201926020929091908290030181600087803b15801561205057600080fd5b505af1158015612064573d6000803e3d6000fd5b505050506040513d602081101561207a57600080fd5b5051915061209360016110ff858563ffffffff61193e16565b60075490915080600019818401018115156120aa57fe5b0402935050505090565b600160a060020a0316600090815260209190915260409020805460ff19166001179055560077686974656c6973740000000000000000000000000000000000000000000000a165627a7a723058203e913125f3be0cc8e674f20a38ffb4cfe39ee0dff4d44636591e57f149761d9b0029",
  "source": "pragma solidity 0.4.24;\n\nimport \"openzeppelin-solidity/contracts/access/Whitelist.sol\";\nimport \"openzeppelin-solidity/contracts/lifecycle/Pausable.sol\";\nimport \"openzeppelin-solidity/contracts/math/SafeMath.sol\";\n\nimport \"../interfaces/IKODAV2SelfServiceEditionCuration.sol\";\nimport \"../interfaces/IKODAAuction.sol\";\nimport \"../interfaces/ISelfServiceAccessControls.sol\";\nimport \"../interfaces/ISelfServiceFrequencyControls.sol\";\n\n// One invocation per time-period\ncontract SelfServiceEditionCurationV4 is Whitelist, Pausable {\n  using SafeMath for uint256;\n\n  event SelfServiceEditionCreated(\n    uint256 indexed _editionNumber,\n    address indexed _creator,\n    uint256 _priceInWei,\n    uint256 _totalAvailable,\n    bool _enableAuction\n  );\n\n  // Calling address\n  IKODAV2SelfServiceEditionCuration public kodaV2;\n  IKODAAuction public auction;\n  ISelfServiceAccessControls public accessControls;\n  ISelfServiceFrequencyControls public frequencyControls;\n\n  // Default KO commission\n  uint256 public koCommission = 15;\n\n  // Config which enforces editions to not be over this size\n  uint256 public maxEditionSize = 100;\n\n  // Config the minimum price per edition\n  uint256 public minPricePerEdition = 0.01 ether;\n\n  /**\n   * @dev Construct a new instance of the contract\n   */\n  constructor(\n    IKODAV2SelfServiceEditionCuration _kodaV2,\n    IKODAAuction _auction,\n    ISelfServiceAccessControls _accessControls,\n    ISelfServiceFrequencyControls _frequencyControls\n  ) public {\n    super.addAddressToWhitelist(msg.sender);\n    kodaV2 = _kodaV2;\n    auction = _auction;\n    accessControls = _accessControls;\n    frequencyControls = _frequencyControls;\n  }\n\n  /**\n   * @dev Called by artists, create new edition on the KODA platform\n   */\n  function createEdition(\n    bool _enableAuction,\n    address _optionalSplitAddress,\n    uint256 _optionalSplitRate,\n    uint256 _totalAvailable,\n    uint256 _priceInWei,\n    uint256 _startDate,\n    uint256 _endDate,\n    uint256 _artistCommission,\n    uint256 _editionType,\n    string _tokenUri\n  )\n  public\n  whenNotPaused\n  returns (uint256 _editionNumber)\n  {\n    require(frequencyControls.canCreateNewEdition(msg.sender), 'Sender currently frozen out of creation');\n    require(_artistCommission.add(_optionalSplitRate).add(koCommission) <= 100, \"Total commission exceeds 100\");\n\n    uint256 editionNumber = _createEdition(\n      msg.sender,\n      _enableAuction,\n      [_totalAvailable, _priceInWei, _startDate, _endDate, _artistCommission, _editionType],\n      _tokenUri\n    );\n\n    if (_optionalSplitRate > 0 && _optionalSplitAddress != address(0)) {\n      kodaV2.updateOptionalCommission(editionNumber, _optionalSplitRate, _optionalSplitAddress);\n    }\n\n    frequencyControls.recordSuccessfulMint(msg.sender, _totalAvailable, _priceInWei);\n\n    return editionNumber;\n  }\n\n  /**\n   * @dev Called by artists, create new edition on the KODA platform, single commission split between artists and KO only\n   */\n  function createEditionSimple(\n    bool _enableAuction,\n    uint256 _totalAvailable,\n    uint256 _priceInWei,\n    uint256 _startDate,\n    uint256 _endDate,\n    uint256 _artistCommission,\n    uint256 _editionType,\n    string _tokenUri\n  )\n  public\n  whenNotPaused\n  returns (uint256 _editionNumber)\n  {\n    require(frequencyControls.canCreateNewEdition(msg.sender), 'Sender currently frozen out of creation');\n    require(_artistCommission.add(koCommission) <= 100, \"Total commission exceeds 100\");\n\n    uint256 editionNumber = _createEdition(\n      msg.sender,\n      _enableAuction,\n      [_totalAvailable, _priceInWei, _startDate, _endDate, _artistCommission, _editionType],\n      _tokenUri\n    );\n\n    frequencyControls.recordSuccessfulMint(msg.sender, _totalAvailable, _priceInWei);\n\n    return editionNumber;\n  }\n\n  /**\n   * @dev Caller by owner, can create editions for other artists\n   * @dev Only callable from owner regardless of pause state\n   */\n  function createEditionFor(\n    address _artist,\n    bool _enableAuction,\n    address _optionalSplitAddress,\n    uint256 _optionalSplitRate,\n    uint256 _totalAvailable,\n    uint256 _priceInWei,\n    uint256 _startDate,\n    uint256 _endDate,\n    uint256 _artistCommission,\n    uint256 _editionType,\n    string _tokenUri\n  )\n  public\n  onlyIfWhitelisted(msg.sender)\n  returns (uint256 _editionNumber)\n  {\n    require(_artistCommission.add(_optionalSplitRate).add(koCommission) <= 100, \"Total commission exceeds 100\");\n\n    uint256 editionNumber = _createEdition(\n      _artist,\n      _enableAuction,\n      [_totalAvailable, _priceInWei, _startDate, _endDate, _artistCommission, _editionType],\n      _tokenUri\n    );\n\n    if (_optionalSplitRate > 0 && _optionalSplitAddress != address(0)) {\n      kodaV2.updateOptionalCommission(editionNumber, _optionalSplitRate, _optionalSplitAddress);\n    }\n\n    frequencyControls.recordSuccessfulMint(_artist, _totalAvailable, _priceInWei);\n\n    return editionNumber;\n  }\n\n  /**\n   * @dev Internal function for edition creation\n   */\n  function _createEdition(\n    address _artist,\n    bool _enableAuction,\n    uint256[6] memory _params,\n    string _tokenUri\n  )\n  internal\n  returns (uint256 _editionNumber) {\n\n    uint256 _totalAvailable = _params[0];\n    uint256 _priceInWei = _params[1];\n\n    // Enforce edition size\n    require(msg.sender == owner || (_totalAvailable > 0 && _totalAvailable <= maxEditionSize), \"Invalid edition size\");\n\n    // Enforce min price\n    require(msg.sender == owner || _priceInWei >= minPricePerEdition, \"Invalid price\");\n\n    // If we are the owner, skip this artists check\n    require(msg.sender == owner || accessControls.isEnabledForAccount(_artist), \"Not allowed to create edition\");\n\n    // Find the next edition number we can use\n    uint256 editionNumber = getNextAvailableEditionNumber();\n\n    require(\n      kodaV2.createActiveEdition(\n        editionNumber,\n        0x0, // _editionData - no edition data\n        _params[5], //_editionType,\n        _params[2], // _startDate,\n        _params[3], //_endDate,\n        _artist,\n        _params[4], // _artistCommission - defaults to artistCommission if optional commission split missing\n        _priceInWei,\n        _tokenUri,\n        _totalAvailable\n      ),\n      \"Failed to create new edition\"\n    );\n\n    // Enable the auction if desired\n    if (_enableAuction) {\n      auction.setArtistsControlAddressAndEnabledEdition(editionNumber, _artist);\n    }\n\n    // Trigger event\n    emit SelfServiceEditionCreated(editionNumber, _artist, _priceInWei, _totalAvailable, _enableAuction);\n\n    return editionNumber;\n  }\n\n  /**\n   * @dev Internal function for dynamically generating the next KODA edition number\n   */\n  function getNextAvailableEditionNumber() internal returns (uint256 editionNumber) {\n\n    // Get current highest edition and total in the edition\n    uint256 highestEditionNumber = kodaV2.highestEditionNumber();\n    uint256 totalAvailableEdition = kodaV2.totalAvailableEdition(highestEditionNumber);\n\n    // Add the current highest plus its total, plus 1 as tokens start at 1 not zero\n    uint256 nextAvailableEditionNumber = highestEditionNumber.add(totalAvailableEdition).add(1);\n\n    // Round up to next 100, 1000 etc based on max allowed size\n    return ((nextAvailableEditionNumber + maxEditionSize - 1) / maxEditionSize) * maxEditionSize;\n  }\n\n  /**\n   * @dev Sets the KODA address\n   * @dev Only callable from owner\n   */\n  function setKodavV2(IKODAV2SelfServiceEditionCuration _kodaV2) onlyIfWhitelisted(msg.sender) public {\n    kodaV2 = _kodaV2;\n  }\n\n  /**\n   * @dev Sets the KODA auction\n   * @dev Only callable from owner\n   */\n  function setAuction(IKODAAuction _auction) onlyIfWhitelisted(msg.sender) public {\n    auction = _auction;\n  }\n\n  /**\n   * @dev Sets the default KO commission for each edition\n   * @dev Only callable from owner\n   */\n  function setKoCommission(uint256 _koCommission) onlyIfWhitelisted(msg.sender) public {\n    koCommission = _koCommission;\n  }\n\n  /**\n   * @dev Sets the max edition size\n   * @dev Only callable from owner\n   */\n  function setMaxEditionSize(uint256 _maxEditionSize) onlyIfWhitelisted(msg.sender) public {\n    maxEditionSize = _maxEditionSize;\n  }\n\n  /**\n   * @dev Sets minimum price per edition\n   * @dev Only callable from owner\n   */\n  function setMinPricePerEdition(uint256 _minPricePerEdition) onlyIfWhitelisted(msg.sender) public {\n    minPricePerEdition = _minPricePerEdition;\n  }\n\n  /**\n   * @dev Checks to see if the account is currently frozen out\n   */\n  function isFrozen(address account) public view returns (bool) {\n    return frequencyControls.canCreateNewEdition(account);\n  }\n\n  /**\n   * @dev Checks to see if the account can create editions\n   */\n  function isEnabledForAccount(address account) public view returns (bool) {\n    return accessControls.isEnabledForAccount(account);\n  }\n\n  /**\n   * @dev Checks to see if the account can create editions\n   */\n  function canCreateAnotherEdition(address account) public view returns (bool) {\n    if (!accessControls.isEnabledForAccount(account)) {\n      return false;\n    }\n    return frequencyControls.canCreateNewEdition(account);\n  }\n\n  /**\n   * @dev Allows for the ability to extract stuck ether\n   * @dev Only callable from owner\n   */\n  function withdrawStuckEther(address _withdrawalAccount) onlyIfWhitelisted(msg.sender) public {\n    require(_withdrawalAccount != address(0), \"Invalid address provided\");\n    _withdrawalAccount.transfer(address(this).balance);\n  }\n}\n",
  "sourcePath": "/Users/jamesmorgan/Dropbox/workspace-blockrocket/knownorigin/known-origin-contracts/contracts/v2/self-service/SelfServiceEditionCurationV4.sol",
  "compiler": {
    "name": "solc",
    "version": "0.4.24+commit.e67f0147.Emscripten.clang"
  },
  "schemaVersion": "3.0.16",
  "updatedAt": "2019-12-06T10:33:32.421Z",
  "devdoc": {
    "methods": {
      "addAddressToWhitelist(address)": {
        "details": "add an address to the whitelist",
        "params": {
          "_operator": "address"
        },
        "return": "true if the address was added to the whitelist, false if the address was already in the whitelist"
      },
      "addAddressesToWhitelist(address[])": {
        "details": "add addresses to the whitelist",
        "params": {
          "_operators": "addresses"
        },
        "return": "true if at least one address was added to the whitelist, false if all addresses were already in the whitelist"
      },
      "canCreateAnotherEdition(address)": {
        "details": "Checks to see if the account can create editions"
      },
      "checkRole(address,string)": {
        "details": "reverts if addr does not have role",
        "params": {
          "_operator": "address",
          "_role": "the name of the role // reverts"
        }
      },
      "createEdition(bool,address,uint256,uint256,uint256,uint256,uint256,uint256,uint256,string)": {
        "details": "Called by artists, create new edition on the KODA platform"
      },
      "createEditionFor(address,bool,address,uint256,uint256,uint256,uint256,uint256,uint256,uint256,string)": {
        "details": "Caller by owner, can create editions for other artistsOnly callable from owner regardless of pause state"
      },
      "createEditionSimple(bool,uint256,uint256,uint256,uint256,uint256,uint256,string)": {
        "details": "Called by artists, create new edition on the KODA platform, single commission split between artists and KO only"
      },
      "hasRole(address,string)": {
        "details": "determine if addr has role",
        "params": {
          "_operator": "address",
          "_role": "the name of the role"
        },
        "return": "bool"
      },
      "isEnabledForAccount(address)": {
        "details": "Checks to see if the account can create editions"
      },
      "isFrozen(address)": {
        "details": "Checks to see if the account is currently frozen out"
      },
      "pause()": {
        "details": "called by the owner to pause, triggers stopped state"
      },
      "removeAddressFromWhitelist(address)": {
        "details": "remove an address from the whitelist",
        "params": {
          "_operator": "address"
        },
        "return": "true if the address was removed from the whitelist, false if the address wasn't in the whitelist in the first place"
      },
      "removeAddressesFromWhitelist(address[])": {
        "details": "remove addresses from the whitelist",
        "params": {
          "_operators": "addresses"
        },
        "return": "true if at least one address was removed from the whitelist, false if all addresses weren't in the whitelist in the first place"
      },
      "renounceOwnership()": {
        "details": "Allows the current owner to relinquish control of the contract."
      },
      "setAuction(address)": {
        "details": "Sets the KODA auctionOnly callable from owner"
      },
      "setKoCommission(uint256)": {
        "details": "Sets the default KO commission for each editionOnly callable from owner"
      },
      "setKodavV2(address)": {
        "details": "Sets the KODA addressOnly callable from owner"
      },
      "setMaxEditionSize(uint256)": {
        "details": "Sets the max edition sizeOnly callable from owner"
      },
      "setMinPricePerEdition(uint256)": {
        "details": "Sets minimum price per editionOnly callable from owner"
      },
      "transferOwnership(address)": {
        "details": "Allows the current owner to transfer control of the contract to a newOwner.",
        "params": {
          "_newOwner": "The address to transfer ownership to."
        }
      },
      "unpause()": {
        "details": "called by the owner to unpause, returns to normal state"
      },
      "whitelist(address)": {
        "details": "getter to determine if address is in whitelist"
      },
      "withdrawStuckEther(address)": {
        "details": "Allows for the ability to extract stuck etherOnly callable from owner"
      }
    }
  },
  "userdoc": {
    "methods": {
      "renounceOwnership()": {
        "notice": "Renouncing to ownership will leave the contract without an owner. It will not be possible to call the functions with the `onlyOwner` modifier anymore."
      }
    }
  }
}