{
  "contractName": "SelfServiceFrequencyControls",
  "abi": [
    {
      "constant": true,
      "inputs": [
        {
          "name": "_operator",
          "type": "address"
        },
        {
          "name": "_role",
          "type": "string"
        }
      ],
      "name": "checkRole",
      "outputs": [],
      "payable": false,
      "stateMutability": "view",
      "type": "function"
    },
    {
      "constant": true,
      "inputs": [],
      "name": "ROLE_WHITELISTED",
      "outputs": [
        {
          "name": "",
          "type": "string"
        }
      ],
      "payable": false,
      "stateMutability": "view",
      "type": "function"
    },
    {
      "constant": true,
      "inputs": [
        {
          "name": "_operator",
          "type": "address"
        },
        {
          "name": "_role",
          "type": "string"
        }
      ],
      "name": "hasRole",
      "outputs": [
        {
          "name": "",
          "type": "bool"
        }
      ],
      "payable": false,
      "stateMutability": "view",
      "type": "function"
    },
    {
      "constant": false,
      "inputs": [
        {
          "name": "_operators",
          "type": "address[]"
        }
      ],
      "name": "removeAddressesFromWhitelist",
      "outputs": [],
      "payable": false,
      "stateMutability": "nonpayable",
      "type": "function"
    },
    {
      "constant": false,
      "inputs": [
        {
          "name": "_operator",
          "type": "address"
        }
      ],
      "name": "removeAddressFromWhitelist",
      "outputs": [],
      "payable": false,
      "stateMutability": "nonpayable",
      "type": "function"
    },
    {
      "constant": true,
      "inputs": [],
      "name": "freezeWindow",
      "outputs": [
        {
          "name": "",
          "type": "uint256"
        }
      ],
      "payable": false,
      "stateMutability": "view",
      "type": "function"
    },
    {
      "constant": false,
      "inputs": [],
      "name": "renounceOwnership",
      "outputs": [],
      "payable": false,
      "stateMutability": "nonpayable",
      "type": "function"
    },
    {
      "constant": false,
      "inputs": [
        {
          "name": "_operator",
          "type": "address"
        }
      ],
      "name": "addAddressToWhitelist",
      "outputs": [],
      "payable": false,
      "stateMutability": "nonpayable",
      "type": "function"
    },
    {
      "constant": true,
      "inputs": [
        {
          "name": "",
          "type": "address"
        }
      ],
      "name": "frozenTil",
      "outputs": [
        {
          "name": "",
          "type": "uint256"
        }
      ],
      "payable": false,
      "stateMutability": "view",
      "type": "function"
    },
    {
      "constant": true,
      "inputs": [],
      "name": "owner",
      "outputs": [
        {
          "name": "",
          "type": "address"
        }
      ],
      "payable": false,
      "stateMutability": "view",
      "type": "function"
    },
    {
      "constant": true,
      "inputs": [
        {
          "name": "_operator",
          "type": "address"
        }
      ],
      "name": "whitelist",
      "outputs": [
        {
          "name": "",
          "type": "bool"
        }
      ],
      "payable": false,
      "stateMutability": "view",
      "type": "function"
    },
    {
      "constant": false,
      "inputs": [
        {
          "name": "_operators",
          "type": "address[]"
        }
      ],
      "name": "addAddressesToWhitelist",
      "outputs": [],
      "payable": false,
      "stateMutability": "nonpayable",
      "type": "function"
    },
    {
      "constant": false,
      "inputs": [
        {
          "name": "_newOwner",
          "type": "address"
        }
      ],
      "name": "transferOwnership",
      "outputs": [],
      "payable": false,
      "stateMutability": "nonpayable",
      "type": "function"
    },
    {
      "inputs": [],
      "payable": false,
      "stateMutability": "nonpayable",
      "type": "constructor"
    },
    {
      "anonymous": false,
      "inputs": [
        {
          "indexed": true,
          "name": "operator",
          "type": "address"
        },
        {
          "indexed": false,
          "name": "role",
          "type": "string"
        }
      ],
      "name": "RoleAdded",
      "type": "event"
    },
    {
      "anonymous": false,
      "inputs": [
        {
          "indexed": true,
          "name": "operator",
          "type": "address"
        },
        {
          "indexed": false,
          "name": "role",
          "type": "string"
        }
      ],
      "name": "RoleRemoved",
      "type": "event"
    },
    {
      "anonymous": false,
      "inputs": [
        {
          "indexed": true,
          "name": "previousOwner",
          "type": "address"
        }
      ],
      "name": "OwnershipRenounced",
      "type": "event"
    },
    {
      "anonymous": false,
      "inputs": [
        {
          "indexed": true,
          "name": "previousOwner",
          "type": "address"
        },
        {
          "indexed": true,
          "name": "newOwner",
          "type": "address"
        }
      ],
      "name": "OwnershipTransferred",
      "type": "event"
    },
    {
      "constant": true,
      "inputs": [
        {
          "name": "artist",
          "type": "address"
        }
      ],
      "name": "canCreateNewEdition",
      "outputs": [
        {
          "name": "",
          "type": "bool"
        }
      ],
      "payable": false,
      "stateMutability": "view",
      "type": "function"
    },
    {
      "constant": false,
      "inputs": [
        {
          "name": "artist",
          "type": "address"
        },
        {
          "name": "totalAvailable",
          "type": "uint256"
        },
        {
          "name": "priceInWei",
          "type": "uint256"
        }
      ],
      "name": "recordSuccessfulMint",
      "outputs": [
        {
          "name": "",
          "type": "bool"
        }
      ],
      "payable": false,
      "stateMutability": "nonpayable",
      "type": "function"
    },
    {
      "constant": false,
      "inputs": [
        {
          "name": "_freezeWindow",
          "type": "uint256"
        }
      ],
      "name": "setFreezeWindow",
      "outputs": [],
      "payable": false,
      "stateMutability": "nonpayable",
      "type": "function"
    },
    {
      "constant": false,
      "inputs": [
        {
          "name": "_withdrawalAccount",
          "type": "address"
        }
      ],
      "name": "withdrawStuckEther",
      "outputs": [],
      "payable": false,
      "stateMutability": "nonpayable",
      "type": "function"
    }
  ],
  "bytecode": "0x60806040526201518060025534801561001757600080fd5b5060008054600160a060020a031916339081179091556100439064010000000061078c61004882021704565b6101f3565b600054600160a060020a0316331461005f57600080fd5b6100ad816040805190810160405280600981526020017f77686974656c69737400000000000000000000000000000000000000000000008152506100b0640100000000026401000000009004565b50565b610127826001836040518082805190602001908083835b602083106100e65780518252601f1990920191602091820191016100c7565b51815160209384036101000a60001901801990921691161790529201948552506040519384900301909220929150506401000000006101ce8102610c221704565b81600160a060020a03167fbfec83d64eaa953f2708271a023ab9ee82057f8f3578d548c1a4ba0b5b700489826040518080602001828103825283818151815260200191508051906020019080838360005b83811015610190578181015183820152602001610178565b50505050905090810190601f1680156101bd5780820380516001836020036101000a031916815260200191505b509250505060405180910390a25050565b600160a060020a0316600090815260209190915260409020805460ff19166001179055565b610c93806102026000396000f3006080604052600436106100f05763ffffffff7c01000000000000000000000000000000000000000000000000000000006000350416630988ca8c81146100f557806318b919e91461015e578063217fe6c6146101e857806324953eaa1461026357806326ccd77a146102b8578063286dd3f5146102d957806360ade0f4146102fa578063715018a6146103215780637b9417c81461033657806386f00bd7146103575780638da5cb5b146103785780639b19251a146103a9578063d13ed98b146103ca578063e2ec6ec3146103f1578063f2fde38b14610446578063fb08af8014610467578063fce17bbf14610488575b600080fd5b34801561010157600080fd5b5060408051602060046024803582810135601f810185900485028601850190965285855261015c958335600160a060020a03169536956044949193909101919081908401838280828437509497506104a09650505050505050565b005b34801561016a57600080fd5b5061017361050e565b6040805160208082528351818301528351919283929083019185019080838360005b838110156101ad578181015183820152602001610195565b50505050905090810190601f1680156101da5780820380516001836020036101000a031916815260200191505b509250505060405180910390f35b3480156101f457600080fd5b5060408051602060046024803582810135601f810185900485028601850190965285855261024f958335600160a060020a03169536956044949193909101919081908401838280828437509497506105339650505050505050565b604080519115158252519081900360200190f35b34801561026f57600080fd5b506040805160206004803580820135838102808601850190965280855261015c953695939460249493850192918291850190849080828437509497506105a69650505050505050565b3480156102c457600080fd5b5061015c600160a060020a03600435166105f3565b3480156102e557600080fd5b5061015c600160a060020a03600435166106d3565b34801561030657600080fd5b5061030f61071a565b60408051918252519081900360200190f35b34801561032d57600080fd5b5061015c610720565b34801561034257600080fd5b5061015c600160a060020a036004351661078c565b34801561036357600080fd5b5061030f600160a060020a03600435166107d0565b34801561038457600080fd5b5061038d6107e2565b60408051600160a060020a039092168252519081900360200190f35b3480156103b557600080fd5b5061024f600160a060020a03600435166107f1565b3480156103d657600080fd5b5061024f600160a060020a0360043516602435604435610826565b3480156103fd57600080fd5b506040805160206004803580820135838102808601850190965280855261015c9536959394602494938501929182918501908490808284375094975061088f9650505050505050565b34801561045257600080fd5b5061015c600160a060020a03600435166108dc565b34801561047357600080fd5b5061024f600160a060020a03600435166108fc565b34801561049457600080fd5b5061015c60043561090e565b61050a826001836040518082805190602001908083835b602083106104d65780518252601f1990920191602091820191016104b7565b51815160209384036101000a6000190180199092169116179052920194855250604051938490030190922092915050610942565b5050565b6040805180820190915260098152600080516020610c48833981519152602082015281565b600061059f836001846040518082805190602001908083835b6020831061056b5780518252601f19909201916020918201910161054c565b51815160209384036101000a6000190180199092169116179052920194855250604051938490030190922092915050610957565b9392505050565b60008054600160a060020a031633146105be57600080fd5b5060005b815181101561050a576105eb82828151811015156105dc57fe5b906020019060200201516106d3565b6001016105c2565b3361062181604080519081016040528060098152602001600080516020610c488339815191528152506104a0565b600160a060020a038216151561069857604080517f08c379a000000000000000000000000000000000000000000000000000000000815260206004820152601860248201527f496e76616c696420616464726573732070726f76696465640000000000000000604482015290519081900360640190fd5b604051600160a060020a03831690303180156108fc02916000818181858888f193505050501580156106ce573d6000803e3d6000fd5b505050565b600054600160a060020a031633146106ea57600080fd5b61071781604080519081016040528060098152602001600080516020610c48833981519152815250610976565b50565b60025481565b600054600160a060020a0316331461073757600080fd5b60008054604051600160a060020a03909116917ff8df31144d9c2f0f6b59d69b8b98abd5459d07f2742c4df920b25aae33c6482091a26000805473ffffffffffffffffffffffffffffffffffffffff19169055565b600054600160a060020a031633146107a357600080fd5b61071781604080519081016040528060098152602001600080516020610c48833981519152815250610a87565b60036020526000908152604090205481565b600054600160a060020a031681565b600061082082604080519081016040528060098152602001600080516020610c48833981519152815250610533565b92915050565b60003361085681604080519081016040528060098152602001600080516020610c488339815191528152506104a0565b60025461086a90429063ffffffff610b5916565b600160a060020a03861660009081526003602052604090205560019150509392505050565b60008054600160a060020a031633146108a757600080fd5b5060005b815181101561050a576108d482828151811015156108c557fe5b9060200190602002015161078c565b6001016108ab565b600054600160a060020a031633146108f357600080fd5b61071781610b66565b600061090782610be3565b1592915050565b3361093c81604080519081016040528060098152602001600080516020610c488339815191528152506104a0565b50600255565b61094c8282610957565b151561050a57600080fd5b600160a060020a03166000908152602091909152604090205460ff1690565b6109e0826001836040518082805190602001908083835b602083106109ac5780518252601f19909201916020918201910161098d565b51815160209384036101000a6000190180199092169116179052920194855250604051938490030190922092915050610c00565b81600160a060020a03167fd211483f91fc6eff862467f8de606587a30c8fc9981056f051b897a418df803a826040518080602001828103825283818151815260200191508051906020019080838360005b83811015610a49578181015183820152602001610a31565b50505050905090810190601f168015610a765780820380516001836020036101000a031916815260200191505b509250505060405180910390a25050565b610af1826001836040518082805190602001908083835b60208310610abd5780518252601f199092019160209182019101610a9e565b51815160209384036101000a6000190180199092169116179052920194855250604051938490030190922092915050610c22565b81600160a060020a03167fbfec83d64eaa953f2708271a023ab9ee82057f8f3578d548c1a4ba0b5b7004898260405180806020018281038252838181518152602001915080519060200190808383600083811015610a49578181015183820152602001610a31565b8181018281101561082057fe5b600160a060020a0381161515610b7b57600080fd5b60008054604051600160a060020a03808516939216917f8be0079c531659141344cd1fd0a4f28419497f9722a3daafe3b4186f6b6457e091a36000805473ffffffffffffffffffffffffffffffffffffffff1916600160a060020a0392909216919091179055565b600160a060020a0316600090815260036020526040902054421090565b600160a060020a0316600090815260209190915260409020805460ff19169055565b600160a060020a0316600090815260209190915260409020805460ff19166001179055560077686974656c6973740000000000000000000000000000000000000000000000a165627a7a72305820acaf427bc290c5b12fd8f986a323d2d50e7c90d78614c62ad95a4e3aeb05a3c60029",
  "source": "pragma solidity 0.4.24;\n\nimport \"openzeppelin-solidity/contracts/math/SafeMath.sol\";\nimport \"openzeppelin-solidity/contracts/access/Whitelist.sol\";\nimport \"../interfaces/ISelfServiceFrequencyControls.sol\";\n\ncontract SelfServiceFrequencyControls is ISelfServiceFrequencyControls, Whitelist {\n  using SafeMath for uint256;\n\n  // frozen out for..\n  uint256 public freezeWindow = 1 days;\n\n  // When the current time period started\n  mapping(address => uint256) public frozenTil;\n\n  constructor() public {\n    super.addAddressToWhitelist(msg.sender);\n  }\n\n  function canCreateNewEdition(address artist) external view returns (bool) {\n    return !_isFrozen(artist);\n  }\n\n  function recordSuccessfulMint(address artist, uint256 totalAvailable, uint256 priceInWei) external onlyIfWhitelisted(msg.sender) returns (bool) {\n    frozenTil[artist] = block.timestamp.add(freezeWindow);\n    return true;\n  }\n\n  /**\n   * @dev Internal function for checking is an account is frozen out yet\n   */\n  function _isFrozen(address account) internal view returns (bool) {\n    return (block.timestamp < frozenTil[account]);\n  }\n\n  /**\n   * @dev Sets freeze window\n   * @dev Only callable from owner\n   */\n  function setFreezeWindow(uint256 _freezeWindow) onlyIfWhitelisted(msg.sender) public {\n    freezeWindow = _freezeWindow;\n  }\n\n  /**\n   * @dev Allows for the ability to extract stuck ether\n   * @dev Only callable from owner\n   */\n  function withdrawStuckEther(address _withdrawalAccount) onlyIfWhitelisted(msg.sender) public {\n    require(_withdrawalAccount != address(0), \"Invalid address provided\");\n    _withdrawalAccount.transfer(address(this).balance);\n  }\n}\n",
  "sourcePath": "/Users/jamesmorgan/Dropbox/workspace-blockrocket/knownorigin/known-origin-contracts/contracts/v2/self-service/SelfServiceFrequencyControls.sol",
  "compiler": {
    "name": "solc",
    "version": "0.4.24+commit.e67f0147.Emscripten.clang"
  },
  "schemaVersion": "3.0.16",
  "updatedAt": "2019-11-20T20:59:51.698Z",
  "devdoc": {
    "methods": {
      "addAddressToWhitelist(address)": {
        "details": "add an address to the whitelist",
        "params": {
          "_operator": "address"
        },
        "return": "true if the address was added to the whitelist, false if the address was already in the whitelist"
      },
      "addAddressesToWhitelist(address[])": {
        "details": "add addresses to the whitelist",
        "params": {
          "_operators": "addresses"
        },
        "return": "true if at least one address was added to the whitelist, false if all addresses were already in the whitelist"
      },
      "checkRole(address,string)": {
        "details": "reverts if addr does not have role",
        "params": {
          "_operator": "address",
          "_role": "the name of the role // reverts"
        }
      },
      "hasRole(address,string)": {
        "details": "determine if addr has role",
        "params": {
          "_operator": "address",
          "_role": "the name of the role"
        },
        "return": "bool"
      },
      "removeAddressFromWhitelist(address)": {
        "details": "remove an address from the whitelist",
        "params": {
          "_operator": "address"
        },
        "return": "true if the address was removed from the whitelist, false if the address wasn't in the whitelist in the first place"
      },
      "removeAddressesFromWhitelist(address[])": {
        "details": "remove addresses from the whitelist",
        "params": {
          "_operators": "addresses"
        },
        "return": "true if at least one address was removed from the whitelist, false if all addresses weren't in the whitelist in the first place"
      },
      "renounceOwnership()": {
        "details": "Allows the current owner to relinquish control of the contract."
      },
      "setFreezeWindow(uint256)": {
        "details": "Sets freeze windowOnly callable from owner"
      },
      "transferOwnership(address)": {
        "details": "Allows the current owner to transfer control of the contract to a newOwner.",
        "params": {
          "_newOwner": "The address to transfer ownership to."
        }
      },
      "whitelist(address)": {
        "details": "getter to determine if address is in whitelist"
      },
      "withdrawStuckEther(address)": {
        "details": "Allows for the ability to extract stuck etherOnly callable from owner"
      }
    }
  },
  "userdoc": {
    "methods": {
      "renounceOwnership()": {
        "notice": "Renouncing to ownership will leave the contract without an owner. It will not be possible to call the functions with the `onlyOwner` modifier anymore."
      }
    }
  }
}