{
  "contractName": "SelfServiceEditionCurationV3",
  "abi": [
    {
      "constant": false,
      "inputs": [],
      "name": "unpause",
      "outputs": [],
      "payable": false,
      "stateMutability": "nonpayable",
      "type": "function"
    },
    {
      "constant": true,
      "inputs": [],
      "name": "minPricePerEdition",
      "outputs": [
        {
          "name": "",
          "type": "uint256"
        }
      ],
      "payable": false,
      "stateMutability": "view",
      "type": "function"
    },
    {
      "constant": true,
      "inputs": [],
      "name": "kodaV2",
      "outputs": [
        {
          "name": "",
          "type": "address"
        }
      ],
      "payable": false,
      "stateMutability": "view",
      "type": "function"
    },
    {
      "constant": true,
      "inputs": [],
      "name": "paused",
      "outputs": [
        {
          "name": "",
          "type": "bool"
        }
      ],
      "payable": false,
      "stateMutability": "view",
      "type": "function"
    },
    {
      "constant": true,
      "inputs": [],
      "name": "freezeWindow",
      "outputs": [
        {
          "name": "",
          "type": "uint256"
        }
      ],
      "payable": false,
      "stateMutability": "view",
      "type": "function"
    },
    {
      "constant": false,
      "inputs": [],
      "name": "renounceOwnership",
      "outputs": [],
      "payable": false,
      "stateMutability": "nonpayable",
      "type": "function"
    },
    {
      "constant": true,
      "inputs": [],
      "name": "accessControls",
      "outputs": [
        {
          "name": "",
          "type": "address"
        }
      ],
      "payable": false,
      "stateMutability": "view",
      "type": "function"
    },
    {
      "constant": true,
      "inputs": [],
      "name": "maxEditionSize",
      "outputs": [
        {
          "name": "",
          "type": "uint256"
        }
      ],
      "payable": false,
      "stateMutability": "view",
      "type": "function"
    },
    {
      "constant": true,
      "inputs": [],
      "name": "auction",
      "outputs": [
        {
          "name": "",
          "type": "address"
        }
      ],
      "payable": false,
      "stateMutability": "view",
      "type": "function"
    },
    {
      "constant": false,
      "inputs": [],
      "name": "pause",
      "outputs": [],
      "payable": false,
      "stateMutability": "nonpayable",
      "type": "function"
    },
    {
      "constant": true,
      "inputs": [
        {
          "name": "",
          "type": "address"
        }
      ],
      "name": "frozenTil",
      "outputs": [
        {
          "name": "",
          "type": "uint256"
        }
      ],
      "payable": false,
      "stateMutability": "view",
      "type": "function"
    },
    {
      "constant": true,
      "inputs": [],
      "name": "owner",
      "outputs": [
        {
          "name": "",
          "type": "address"
        }
      ],
      "payable": false,
      "stateMutability": "view",
      "type": "function"
    },
    {
      "constant": true,
      "inputs": [],
      "name": "artistCommission",
      "outputs": [
        {
          "name": "",
          "type": "uint256"
        }
      ],
      "payable": false,
      "stateMutability": "view",
      "type": "function"
    },
    {
      "constant": false,
      "inputs": [
        {
          "name": "_newOwner",
          "type": "address"
        }
      ],
      "name": "transferOwnership",
      "outputs": [],
      "payable": false,
      "stateMutability": "nonpayable",
      "type": "function"
    },
    {
      "inputs": [
        {
          "name": "_kodaV2",
          "type": "address"
        },
        {
          "name": "_auction",
          "type": "address"
        },
        {
          "name": "_accessControls",
          "type": "address"
        }
      ],
      "payable": false,
      "stateMutability": "nonpayable",
      "type": "constructor"
    },
    {
      "anonymous": false,
      "inputs": [
        {
          "indexed": true,
          "name": "_editionNumber",
          "type": "uint256"
        },
        {
          "indexed": true,
          "name": "_creator",
          "type": "address"
        },
        {
          "indexed": false,
          "name": "_priceInWei",
          "type": "uint256"
        },
        {
          "indexed": false,
          "name": "_totalAvailable",
          "type": "uint256"
        },
        {
          "indexed": false,
          "name": "_enableAuction",
          "type": "bool"
        }
      ],
      "name": "SelfServiceEditionCreated",
      "type": "event"
    },
    {
      "anonymous": false,
      "inputs": [],
      "name": "Pause",
      "type": "event"
    },
    {
      "anonymous": false,
      "inputs": [],
      "name": "Unpause",
      "type": "event"
    },
    {
      "anonymous": false,
      "inputs": [
        {
          "indexed": true,
          "name": "previousOwner",
          "type": "address"
        }
      ],
      "name": "OwnershipRenounced",
      "type": "event"
    },
    {
      "anonymous": false,
      "inputs": [
        {
          "indexed": true,
          "name": "previousOwner",
          "type": "address"
        },
        {
          "indexed": true,
          "name": "newOwner",
          "type": "address"
        }
      ],
      "name": "OwnershipTransferred",
      "type": "event"
    },
    {
      "constant": false,
      "inputs": [
        {
          "name": "_totalAvailable",
          "type": "uint256"
        },
        {
          "name": "_priceInWei",
          "type": "uint256"
        },
        {
          "name": "_startDate",
          "type": "uint256"
        },
        {
          "name": "_tokenUri",
          "type": "string"
        },
        {
          "name": "_enableAuction",
          "type": "bool"
        }
      ],
      "name": "createEdition",
      "outputs": [
        {
          "name": "_editionNumber",
          "type": "uint256"
        }
      ],
      "payable": false,
      "stateMutability": "nonpayable",
      "type": "function"
    },
    {
      "constant": false,
      "inputs": [
        {
          "name": "_artist",
          "type": "address"
        },
        {
          "name": "_totalAvailable",
          "type": "uint256"
        },
        {
          "name": "_priceInWei",
          "type": "uint256"
        },
        {
          "name": "_startDate",
          "type": "uint256"
        },
        {
          "name": "_tokenUri",
          "type": "string"
        },
        {
          "name": "_enableAuction",
          "type": "bool"
        }
      ],
      "name": "createEditionFor",
      "outputs": [
        {
          "name": "_editionNumber",
          "type": "uint256"
        }
      ],
      "payable": false,
      "stateMutability": "nonpayable",
      "type": "function"
    },
    {
      "constant": false,
      "inputs": [
        {
          "name": "_kodaV2",
          "type": "address"
        }
      ],
      "name": "setKodavV2",
      "outputs": [],
      "payable": false,
      "stateMutability": "nonpayable",
      "type": "function"
    },
    {
      "constant": false,
      "inputs": [
        {
          "name": "_auction",
          "type": "address"
        }
      ],
      "name": "setAuction",
      "outputs": [],
      "payable": false,
      "stateMutability": "nonpayable",
      "type": "function"
    },
    {
      "constant": false,
      "inputs": [
        {
          "name": "_artistCommission",
          "type": "uint256"
        }
      ],
      "name": "setArtistCommission",
      "outputs": [],
      "payable": false,
      "stateMutability": "nonpayable",
      "type": "function"
    },
    {
      "constant": false,
      "inputs": [
        {
          "name": "_maxEditionSize",
          "type": "uint256"
        }
      ],
      "name": "setMaxEditionSize",
      "outputs": [],
      "payable": false,
      "stateMutability": "nonpayable",
      "type": "function"
    },
    {
      "constant": false,
      "inputs": [
        {
          "name": "_minPricePerEdition",
          "type": "uint256"
        }
      ],
      "name": "setMinPricePerEdition",
      "outputs": [],
      "payable": false,
      "stateMutability": "nonpayable",
      "type": "function"
    },
    {
      "constant": false,
      "inputs": [
        {
          "name": "_freezeWindow",
          "type": "uint256"
        }
      ],
      "name": "setFreezeWindow",
      "outputs": [],
      "payable": false,
      "stateMutability": "nonpayable",
      "type": "function"
    },
    {
      "constant": true,
      "inputs": [
        {
          "name": "account",
          "type": "address"
        }
      ],
      "name": "isFrozen",
      "outputs": [
        {
          "name": "",
          "type": "bool"
        }
      ],
      "payable": false,
      "stateMutability": "view",
      "type": "function"
    },
    {
      "constant": true,
      "inputs": [
        {
          "name": "account",
          "type": "address"
        }
      ],
      "name": "isEnabledForAccount",
      "outputs": [
        {
          "name": "",
          "type": "bool"
        }
      ],
      "payable": false,
      "stateMutability": "view",
      "type": "function"
    },
    {
      "constant": true,
      "inputs": [
        {
          "name": "account",
          "type": "address"
        }
      ],
      "name": "canCreateAnotherEdition",
      "outputs": [
        {
          "name": "",
          "type": "bool"
        }
      ],
      "payable": false,
      "stateMutability": "view",
      "type": "function"
    },
    {
      "constant": false,
      "inputs": [
        {
          "name": "_withdrawalAccount",
          "type": "address"
        }
      ],
      "name": "withdrawStuckEther",
      "outputs": [],
      "payable": false,
      "stateMutability": "nonpayable",
      "type": "function"
    }
  ],
  "bytecode": "0x60806040526000805460a060020a60ff021916905560556004556064600555662386f26fc100006006556201518060075534801561003c57600080fd5b506040516060806112e88339810160409081528151602083015191909201516000805433600160a060020a0319918216178255600180548216600160a060020a039687161790556002805482169486169490941790935560038054909316939091169290921790556112349081906100b490396000f30060806040526004361061013a5763ffffffff60e060020a60003504166326ccd77a811461013f5780632bd3152d146101625780633f4ba83a14610197578063410112fd146101ac578063566aac2f146101d35780635b638fa5146101eb5780635c975abb1461021c57806360ade0f41461023157806367a27b9114610246578063715018a61461025e578063748365ef146102735780637b37ce4f146102885780637d9f6db51461029d5780638456cb59146102b257806386f00bd7146102c75780638da5cb5b146102e8578063983586b1146102fd5780639ca3bbb314610312578063a86f20571461038a578063ab1183e0146103f1578063afc57f9814610412578063b8c6f5791461042a578063bbee17a31461044b578063e58398361461046c578063f2fde38b1461048d578063fce17bbf146104ae575b600080fd5b34801561014b57600080fd5b50610160600160a060020a03600435166104c6565b005b34801561016e57600080fd5b50610183600160a060020a0360043516610577565b604080519115158252519081900360200190f35b3480156101a357600080fd5b50610160610616565b3480156101b857600080fd5b506101c161068c565b60408051918252519081900360200190f35b3480156101df57600080fd5b50610160600435610692565b3480156101f757600080fd5b506102006106ae565b60408051600160a060020a039092168252519081900360200190f35b34801561022857600080fd5b506101836106bd565b34801561023d57600080fd5b506101c16106cd565b34801561025257600080fd5b506101606004356106d3565b34801561026a57600080fd5b506101606106ef565b34801561027f57600080fd5b5061020061075b565b34801561029457600080fd5b506101c161076a565b3480156102a957600080fd5b50610200610770565b3480156102be57600080fd5b5061016061077f565b3480156102d357600080fd5b506101c1600160a060020a03600435166107fa565b3480156102f457600080fd5b5061020061080c565b34801561030957600080fd5b506101c161081b565b34801561031e57600080fd5b50604080516020601f6084356004818101359283018490048402850184019095528184526101c194600160a060020a03813516946024803595604435956064359536959460a4949093910191908190840183828082843750949750505050913515159250610821915050565b34801561039657600080fd5b50604080516020601f6064356004818101359283018490048402850184019095528184526101c19480359460248035956044359536956084949301918190840183828082843750949750505050913515159250610852915050565b3480156103fd57600080fd5b50610183600160a060020a036004351661092d565b34801561041e57600080fd5b50610160600435610956565b34801561043657600080fd5b50610160600160a060020a0360043516610972565b34801561045757600080fd5b50610160600160a060020a03600435166109b8565b34801561047857600080fd5b50610183600160a060020a03600435166109fe565b34801561049957600080fd5b50610160600160a060020a0360043516610a0f565b3480156104ba57600080fd5b50610160600435610a32565b600054600160a060020a031633146104dd57600080fd5b600160a060020a038116151561053d576040805160e560020a62461bcd02815260206004820152601860248201527f496e76616c696420616464726573732070726f76696465640000000000000000604482015290519081900360640190fd5b604051600160a060020a03821690303180156108fc02916000818181858888f19350505050158015610573573d6000803e3d6000fd5b5050565b600354604080517f2bd3152d000000000000000000000000000000000000000000000000000000008152600160a060020a03848116600483015291516000939290921691632bd3152d9160248082019260209290919082900301818787803b1580156105e257600080fd5b505af11580156105f6573d6000803e3d6000fd5b505050506040513d602081101561060c57600080fd5b505190505b919050565b600054600160a060020a0316331461062d57600080fd5b60005460a060020a900460ff16151561064557600080fd5b6000805474ff0000000000000000000000000000000000000000191681556040517f7805862f689e2f13df9f062ff482ad3ad112aca9e0847911ed832e158c525b339190a1565b60065481565b600054600160a060020a031633146106a957600080fd5b600555565b600154600160a060020a031681565b60005460a060020a900460ff1681565b60075481565b600054600160a060020a031633146106ea57600080fd5b600455565b600054600160a060020a0316331461070657600080fd5b60008054604051600160a060020a03909116917ff8df31144d9c2f0f6b59d69b8b98abd5459d07f2742c4df920b25aae33c6482091a26000805473ffffffffffffffffffffffffffffffffffffffff19169055565b600354600160a060020a031681565b60055481565b600254600160a060020a031681565b600054600160a060020a0316331461079657600080fd5b60005460a060020a900460ff16156107ad57600080fd5b6000805474ff0000000000000000000000000000000000000000191660a060020a1781556040517f6985a02210a168e66602d3235cb6db0e70f92b3ba4d376a33c0f3d9434bff6259190a1565b60086020526000908152604090205481565b600054600160a060020a031681565b60045481565b60008054600160a060020a0316331461083957600080fd5b610847878787878787610a4e565b979650505050505050565b6000805460a060020a900460ff161561086a57600080fd5b61087333610ea3565b156108ee576040805160e560020a62461bcd02815260206004820152602760248201527f53656e6465722063757272656e746c792066726f7a656e206f7574206f66206360448201527f72656174696f6e00000000000000000000000000000000000000000000000000606482015290519081900360840190fd5b60075461090290429063ffffffff610ec016565b33600081815260086020526040902091909155610923908787878787610a4e565b9695505050505050565b600061093882610577565b151561094657506000610611565b61094f82610ea3565b1592915050565b600054600160a060020a0316331461096d57600080fd5b600655565b600054600160a060020a0316331461098957600080fd5b6002805473ffffffffffffffffffffffffffffffffffffffff1916600160a060020a0392909216919091179055565b600054600160a060020a031633146109cf57600080fd5b6001805473ffffffffffffffffffffffffffffffffffffffff1916600160a060020a0392909216919091179055565b6000610a0982610ea3565b92915050565b600054600160a060020a03163314610a2657600080fd5b610a2f81610ecd565b50565b600054600160a060020a03163314610a4957600080fd5b600755565b600080808711610ace576040805160e560020a62461bcd02815260206004820152602960248201527f4d757374206265206174206c65617374206f6e6520617661696c61626c65206960448201527f6e2065646974696f6e0000000000000000000000000000000000000000000000606482015290519081900360840190fd5b600554871115610b28576040805160e560020a62461bcd02815260206004820181905260248201527f4d757374206e6f7420657863656564206d61782065646974696f6e2073697a65604482015290519081900360640190fd5b600654861015610ba8576040805160e560020a62461bcd02815260206004820152602260248201527f5072696365206d7573742062652067726561746572207468616e206d696e696d60448201527f756d000000000000000000000000000000000000000000000000000000000000606482015290519081900360840190fd5b600054600160a060020a03163314610d4f57600360009054906101000a9004600160a060020a0316600160a060020a031663e29cda486040518163ffffffff1660e060020a028152600401602060405180830381600087803b158015610c0d57600080fd5b505af1158015610c21573d6000803e3d6000fd5b505050506040513d6020811015610c3757600080fd5b50511515610d4f57600354604080517f46f7c98a000000000000000000000000000000000000000000000000000000008152600160a060020a038b81166004830152915191909216916346f7c98a9160248083019260209291908290030181600087803b158015610ca757600080fd5b505af1158015610cbb573d6000803e3d6000fd5b505050506040513d6020811015610cd157600080fd5b50511515610d4f576040805160e560020a62461bcd02815260206004820152603060248201527f4f6e6c7920616c6c6f77656420617274697374732063616e206372656174652060448201527f65646974696f6e7320666f72206e6f7700000000000000000000000000000000606482015290519081900360840190fd5b610d57610f4a565b9050610d678189898989896110a9565b1515610dbd576040805160e560020a62461bcd02815260206004820152601c60248201527f4661696c656420746f20637265617465206e65772065646974696f6e00000000604482015290519081900360640190fd5b8215610e4a57600254604080517fb5e7f3c300000000000000000000000000000000000000000000000000000000815260048101849052600160a060020a038b811660248301529151919092169163b5e7f3c391604480830192600092919082900301818387803b158015610e3157600080fd5b505af1158015610e45573d6000803e3d6000fd5b505050505b6040805187815260208101899052841515818301529051600160a060020a038a169183917faa456f9f24703ca25ecf5b0bfd7bed18ed96589119418060049a312d983727669181900360600190a3979650505050505050565b600160a060020a0316600090815260086020526040902054421090565b81810182811015610a0957fe5b600160a060020a0381161515610ee257600080fd5b60008054604051600160a060020a03808516939216917f8be0079c531659141344cd1fd0a4f28419497f9722a3daafe3b4186f6b6457e091a36000805473ffffffffffffffffffffffffffffffffffffffff1916600160a060020a0392909216919091179055565b600080600080600160009054906101000a9004600160a060020a0316600160a060020a031663abf3260f6040518163ffffffff1660e060020a028152600401602060405180830381600087803b158015610fa357600080fd5b505af1158015610fb7573d6000803e3d6000fd5b505050506040513d6020811015610fcd57600080fd5b5051600154604080517f6a028692000000000000000000000000000000000000000000000000000000008152600481018490529051929550600160a060020a0390911691636a028692916024808201926020929091908290030181600087803b15801561103957600080fd5b505af115801561104d573d6000803e3d6000fd5b505050506040513d602081101561106357600080fd5b50519150611088600161107c858563ffffffff610ec016565b9063ffffffff610ec016565b600554909150806000198184010181151561109f57fe5b0402935050505090565b6000600160009054906101000a9004600160a060020a0316600160a060020a0316638bbb594a88600060018760008c6004548c8b8f6040518b63ffffffff1660e060020a028152600401808b81526020018a60010260001916815260200189815260200188815260200187815260200186600160a060020a0316600160a060020a0316815260200185815260200184815260200180602001838152602001828103825284818151815260200191508051906020019080838360005b8381101561117c578181015183820152602001611164565b50505050905090810190601f1680156111a95780820380516001836020036101000a031916815260200191505b509b505050505050505050505050602060405180830381600087803b1580156111d157600080fd5b505af11580156111e5573d6000803e3d6000fd5b505050506040513d60208110156111fb57600080fd5b50519796505050505050505600a165627a7a7230582070438f08697610bcc15e0083d7ac6ea3892bd47224d89cbdcdf38606ecd474da0029",
  "source": "pragma solidity 0.4.24;\n\nimport \"openzeppelin-solidity/contracts/ownership/Ownable.sol\";\nimport \"openzeppelin-solidity/contracts/lifecycle/Pausable.sol\";\nimport \"openzeppelin-solidity/contracts/math/SafeMath.sol\";\n\nimport \"./SelfServiceAccessControls.sol\";\n\ninterface IKODAV2SelfServiceEditionCuration {\n\n  function createActiveEdition(\n    uint256 _editionNumber,\n    bytes32 _editionData,\n    uint256 _editionType,\n    uint256 _startDate,\n    uint256 _endDate,\n    address _artistAccount,\n    uint256 _artistCommission,\n    uint256 _priceInWei,\n    string _tokenUri,\n    uint256 _totalAvailable\n  ) external returns (bool);\n\n  function artistsEditions(address _artistsAccount) external returns (uint256[1] _editionNumbers);\n\n  function totalAvailableEdition(uint256 _editionNumber) external returns (uint256);\n\n  function highestEditionNumber() external returns (uint256);\n}\n\ninterface IKODAAuction {\n  function setArtistsControlAddressAndEnabledEdition(uint256 _editionNumber, address _address) external;\n}\n\n// One invocation per time-period\ncontract SelfServiceEditionCurationV3 is Ownable, Pausable {\n  using SafeMath for uint256;\n\n  event SelfServiceEditionCreated(\n    uint256 indexed _editionNumber,\n    address indexed _creator,\n    uint256 _priceInWei,\n    uint256 _totalAvailable,\n    bool _enableAuction\n  );\n\n  // Calling address\n  IKODAV2SelfServiceEditionCuration public kodaV2;\n  IKODAAuction public auction;\n  SelfServiceAccessControls public accessControls;\n\n  // Default artist commission\n  uint256 public artistCommission = 85;\n\n  // Config which enforces editions to not be over this size\n  uint256 public maxEditionSize = 100;\n\n  // Config the minimum price per edition\n  uint256 public minPricePerEdition = 0.01 ether;\n\n  // frozen out for..\n  uint256 public freezeWindow = 1 days;\n\n  // When the current time period started\n  mapping(address => uint256) public frozenTil;\n\n  /**\n   * @dev Construct a new instance of the contract\n   */\n  constructor(\n    IKODAV2SelfServiceEditionCuration _kodaV2,\n    IKODAAuction _auction,\n    SelfServiceAccessControls _accessControls\n  ) public {\n    kodaV2 = _kodaV2;\n    auction = _auction;\n    accessControls = _accessControls;\n  }\n\n  /**\n   * @dev Called by artists, create new edition on the KODA platform\n   */\n  function createEdition(\n    uint256 _totalAvailable,\n    uint256 _priceInWei,\n    uint256 _startDate,\n    string _tokenUri,\n    bool _enableAuction\n  )\n  public\n  whenNotPaused\n  returns (uint256 _editionNumber)\n  {\n    require(!_isFrozen(msg.sender), 'Sender currently frozen out of creation');\n\n    frozenTil[msg.sender] = block.timestamp.add(freezeWindow);\n\n    return _createEdition(msg.sender, _totalAvailable, _priceInWei, _startDate, _tokenUri, _enableAuction);\n  }\n\n  /**\n   * @dev Caller by owner, can create editions for other artists\n   * @dev Only callable from owner regardless of pause state\n   */\n  function createEditionFor(\n    address _artist,\n    uint256 _totalAvailable,\n    uint256 _priceInWei,\n    uint256 _startDate,\n    string _tokenUri,\n    bool _enableAuction\n  )\n  public\n  onlyOwner\n  returns (uint256 _editionNumber)\n  {\n    return _createEdition(_artist, _totalAvailable, _priceInWei, _startDate, _tokenUri, _enableAuction);\n  }\n\n  /**\n   * @dev Internal function for edition creation\n   */\n  function _createEdition(\n    address _artist,\n    uint256 _totalAvailable,\n    uint256 _priceInWei,\n    uint256 _startDate,\n    string _tokenUri,\n    bool _enableAuction\n  )\n  internal\n  returns (uint256 _editionNumber){\n\n    // Enforce edition size\n    require(_totalAvailable > 0, \"Must be at least one available in edition\");\n    require(_totalAvailable <= maxEditionSize, \"Must not exceed max edition size\");\n\n    // Enforce min price\n    require(_priceInWei >= minPricePerEdition, \"Price must be greater than minimum\");\n\n    // If we are the owner, skip this artists check\n    if (msg.sender != owner) {\n\n      // Enforce who can call this\n      if (!accessControls.openToAllArtist()) {\n        require(accessControls.allowedArtists(_artist), \"Only allowed artists can create editions for now\");\n      }\n    }\n\n    // Find the next edition number we can use\n    uint256 editionNumber = getNextAvailableEditionNumber();\n\n    // Attempt to create a new edition\n    require(\n      _createNewEdition(editionNumber, _artist, _totalAvailable, _priceInWei, _startDate, _tokenUri),\n      \"Failed to create new edition\"\n    );\n\n    // Enable the auction if desired\n    if (_enableAuction) {\n      auction.setArtistsControlAddressAndEnabledEdition(editionNumber, _artist);\n    }\n\n    // Trigger event\n    emit SelfServiceEditionCreated(editionNumber, _artist, _priceInWei, _totalAvailable, _enableAuction);\n\n    return editionNumber;\n  }\n\n  /**\n   * @dev Internal function for calling external create methods with some none configurable defaults\n   */\n  function _createNewEdition(\n    uint256 _editionNumber,\n    address _artist,\n    uint256 _totalAvailable,\n    uint256 _priceInWei,\n    uint256 _startDate,\n    string _tokenUri\n  )\n  internal\n  returns (bool) {\n    return kodaV2.createActiveEdition(\n      _editionNumber,\n      0x0, // _editionData - no edition data\n      1, // _editionType - KODA always type 1\n      _startDate,\n      0, // _endDate - 0 = MAX unit256\n      _artist,\n      artistCommission,\n      _priceInWei,\n      _tokenUri,\n      _totalAvailable\n    );\n  }\n\n  /**\n   * @dev Internal function for checking is an account is frozen out yet\n   */\n  function _isFrozen(address account) internal view returns (bool) {\n    return (block.timestamp < frozenTil[account]);\n  }\n\n  /**\n   * @dev Internal function for dynamically generating the next KODA edition number\n   */\n  function getNextAvailableEditionNumber() internal returns (uint256 editionNumber) {\n\n    // Get current highest edition and total in the edition\n    uint256 highestEditionNumber = kodaV2.highestEditionNumber();\n    uint256 totalAvailableEdition = kodaV2.totalAvailableEdition(highestEditionNumber);\n\n    // Add the current highest plus its total, plus 1 as tokens start at 1 not zero\n    uint256 nextAvailableEditionNumber = highestEditionNumber.add(totalAvailableEdition).add(1);\n\n    // Round up to next 100, 1000 etc based on max allowed size\n    return ((nextAvailableEditionNumber + maxEditionSize - 1) / maxEditionSize) * maxEditionSize;\n  }\n\n  /**\n   * @dev Sets the KODA address\n   * @dev Only callable from owner\n   */\n  function setKodavV2(IKODAV2SelfServiceEditionCuration _kodaV2) onlyOwner public {\n    kodaV2 = _kodaV2;\n  }\n\n  /**\n   * @dev Sets the KODA auction\n   * @dev Only callable from owner\n   */\n  function setAuction(IKODAAuction _auction) onlyOwner public {\n    auction = _auction;\n  }\n\n  /**\n   * @dev Sets the default commission for each edition\n   * @dev Only callable from owner\n   */\n  function setArtistCommission(uint256 _artistCommission) onlyOwner public {\n    artistCommission = _artistCommission;\n  }\n\n  /**\n   * @dev Sets the max edition size\n   * @dev Only callable from owner\n   */\n  function setMaxEditionSize(uint256 _maxEditionSize) onlyOwner public {\n    maxEditionSize = _maxEditionSize;\n  }\n\n  /**\n   * @dev Sets minimum price per edition\n   * @dev Only callable from owner\n   */\n  function setMinPricePerEdition(uint256 _minPricePerEdition) onlyOwner public {\n    minPricePerEdition = _minPricePerEdition;\n  }\n\n  /**\n   * @dev Sets freeze window\n   * @dev Only callable from owner\n   */\n  function setFreezeWindow(uint256 _freezeWindow) onlyOwner public {\n    freezeWindow = _freezeWindow;\n  }\n\n  /**\n   * @dev Checks to see if the account is currently frozen out\n   */\n  function isFrozen(address account) public view returns (bool) {\n    return _isFrozen(account);\n  }\n\n  /**\n   * @dev Checks to see if the account can create editions\n   */\n  function isEnabledForAccount(address account) public view returns (bool) {\n    return accessControls.isEnabledForAccount(account);\n  }\n\n  /**\n   * @dev Checks to see if the account can create editions\n   */\n  function canCreateAnotherEdition(address account) public view returns (bool) {\n    if (!isEnabledForAccount(account)) {\n      return false;\n    }\n    return !_isFrozen(account);\n  }\n\n  /**\n   * @dev Allows for the ability to extract stuck ether\n   * @dev Only callable from owner\n   */\n  function withdrawStuckEther(address _withdrawalAccount) onlyOwner public {\n    require(_withdrawalAccount != address(0), \"Invalid address provided\");\n    _withdrawalAccount.transfer(address(this).balance);\n  }\n}\n",
  "sourcePath": "/Users/jamesmorgan/Dropbox/workspace-blockrocket/knownorigin/known-origin-contracts/contracts/v2/self-service/SelfServiceEditionCurationV3.sol",
  "compiler": {
    "name": "solc",
    "version": "0.4.24+commit.e67f0147.Emscripten.clang"
  },
  "schemaVersion": "3.0.16",
  "updatedAt": "2019-11-16T07:22:38.270Z",
  "devdoc": {
    "methods": {
      "canCreateAnotherEdition(address)": {
        "details": "Checks to see if the account can create editions"
      },
      "createEdition(uint256,uint256,uint256,string,bool)": {
        "details": "Called by artists, create new edition on the KODA platform"
      },
      "createEditionFor(address,uint256,uint256,uint256,string,bool)": {
        "details": "Caller by owner, can create editions for other artistsOnly callable from owner regardless of pause state"
      },
      "isEnabledForAccount(address)": {
        "details": "Checks to see if the account can create editions"
      },
      "isFrozen(address)": {
        "details": "Checks to see if the account is currently frozen out"
      },
      "pause()": {
        "details": "called by the owner to pause, triggers stopped state"
      },
      "renounceOwnership()": {
        "details": "Allows the current owner to relinquish control of the contract."
      },
      "setArtistCommission(uint256)": {
        "details": "Sets the default commission for each editionOnly callable from owner"
      },
      "setAuction(address)": {
        "details": "Sets the KODA auctionOnly callable from owner"
      },
      "setFreezeWindow(uint256)": {
        "details": "Sets freeze windowOnly callable from owner"
      },
      "setKodavV2(address)": {
        "details": "Sets the KODA addressOnly callable from owner"
      },
      "setMaxEditionSize(uint256)": {
        "details": "Sets the max edition sizeOnly callable from owner"
      },
      "setMinPricePerEdition(uint256)": {
        "details": "Sets minimum price per editionOnly callable from owner"
      },
      "transferOwnership(address)": {
        "details": "Allows the current owner to transfer control of the contract to a newOwner.",
        "params": {
          "_newOwner": "The address to transfer ownership to."
        }
      },
      "unpause()": {
        "details": "called by the owner to unpause, returns to normal state"
      },
      "withdrawStuckEther(address)": {
        "details": "Allows for the ability to extract stuck etherOnly callable from owner"
      }
    }
  },
  "userdoc": {
    "methods": {
      "renounceOwnership()": {
        "notice": "Renouncing to ownership will leave the contract without an owner. It will not be possible to call the functions with the `onlyOwner` modifier anymore."
      }
    }
  }
}