{
  "contractName": "SelfServiceAccessControls",
  "abi": [
    {
      "constant": true,
      "inputs": [
        {
          "name": "",
          "type": "address"
        }
      ],
      "name": "allowedArtists",
      "outputs": [
        {
          "name": "",
          "type": "bool"
        }
      ],
      "payable": false,
      "stateMutability": "view",
      "type": "function"
    },
    {
      "constant": false,
      "inputs": [],
      "name": "renounceOwnership",
      "outputs": [],
      "payable": false,
      "stateMutability": "nonpayable",
      "type": "function"
    },
    {
      "constant": true,
      "inputs": [],
      "name": "owner",
      "outputs": [
        {
          "name": "",
          "type": "address"
        }
      ],
      "payable": false,
      "stateMutability": "view",
      "type": "function"
    },
    {
      "constant": true,
      "inputs": [],
      "name": "openToAllArtist",
      "outputs": [
        {
          "name": "",
          "type": "bool"
        }
      ],
      "payable": false,
      "stateMutability": "view",
      "type": "function"
    },
    {
      "constant": false,
      "inputs": [
        {
          "name": "_newOwner",
          "type": "address"
        }
      ],
      "name": "transferOwnership",
      "outputs": [],
      "payable": false,
      "stateMutability": "nonpayable",
      "type": "function"
    },
    {
      "anonymous": false,
      "inputs": [
        {
          "indexed": true,
          "name": "previousOwner",
          "type": "address"
        }
      ],
      "name": "OwnershipRenounced",
      "type": "event"
    },
    {
      "anonymous": false,
      "inputs": [
        {
          "indexed": true,
          "name": "previousOwner",
          "type": "address"
        },
        {
          "indexed": true,
          "name": "newOwner",
          "type": "address"
        }
      ],
      "name": "OwnershipTransferred",
      "type": "event"
    },
    {
      "constant": false,
      "inputs": [
        {
          "name": "_openToAllArtist",
          "type": "bool"
        }
      ],
      "name": "setOpenToAllArtist",
      "outputs": [],
      "payable": false,
      "stateMutability": "nonpayable",
      "type": "function"
    },
    {
      "constant": false,
      "inputs": [
        {
          "name": "_artist",
          "type": "address"
        },
        {
          "name": "_allowed",
          "type": "bool"
        }
      ],
      "name": "setAllowedArtist",
      "outputs": [],
      "payable": false,
      "stateMutability": "nonpayable",
      "type": "function"
    },
    {
      "constant": true,
      "inputs": [
        {
          "name": "account",
          "type": "address"
        }
      ],
      "name": "isEnabledForAccount",
      "outputs": [
        {
          "name": "",
          "type": "bool"
        }
      ],
      "payable": false,
      "stateMutability": "view",
      "type": "function"
    },
    {
      "constant": false,
      "inputs": [
        {
          "name": "_withdrawalAccount",
          "type": "address"
        }
      ],
      "name": "withdrawStuckEther",
      "outputs": [],
      "payable": false,
      "stateMutability": "nonpayable",
      "type": "function"
    }
  ],
  "bytecode": "0x60806040526002805460ff1916905560008054600160a060020a031916331790556104a48061002f6000396000f3006080604052600436106100985763ffffffff7c010000000000000000000000000000000000000000000000000000000060003504166326ccd77a811461009d5780632bd3152d146100c057806346f7c98a146100f5578063715018a6146101165780638da5cb5b1461012b578063a2ed40881461015c578063df282d9114610182578063e29cda481461019c578063f2fde38b146101b1575b600080fd5b3480156100a957600080fd5b506100be600160a060020a03600435166101d2565b005b3480156100cc57600080fd5b506100e1600160a060020a036004351661029a565b604080519115158252519081900360200190f35b34801561010157600080fd5b506100e1600160a060020a03600435166102d3565b34801561012257600080fd5b506100be6102e8565b34801561013757600080fd5b50610140610354565b60408051600160a060020a039092168252519081900360200190f35b34801561016857600080fd5b506100be600160a060020a03600435166024351515610363565b34801561018e57600080fd5b506100be60043515156103a5565b3480156101a857600080fd5b506100e16103cf565b3480156101bd57600080fd5b506100be600160a060020a03600435166103d8565b600054600160a060020a031633146101e957600080fd5b600160a060020a038116151561026057604080517f08c379a000000000000000000000000000000000000000000000000000000000815260206004820152601860248201527f496e76616c696420616464726573732070726f76696465640000000000000000604482015290519081900360640190fd5b604051600160a060020a03821690303180156108fc02916000818181858888f19350505050158015610296573d6000803e3d6000fd5b5050565b60025460009060ff16156102b0575060016102ce565b50600160a060020a03811660009081526001602052604090205460ff165b919050565b60016020526000908152604090205460ff1681565b600054600160a060020a031633146102ff57600080fd5b60008054604051600160a060020a03909116917ff8df31144d9c2f0f6b59d69b8b98abd5459d07f2742c4df920b25aae33c6482091a26000805473ffffffffffffffffffffffffffffffffffffffff19169055565b600054600160a060020a031681565b600054600160a060020a0316331461037a57600080fd5b600160a060020a03919091166000908152600160205260409020805460ff1916911515919091179055565b600054600160a060020a031633146103bc57600080fd5b6002805460ff1916911515919091179055565b60025460ff1681565b600054600160a060020a031633146103ef57600080fd5b6103f8816103fb565b50565b600160a060020a038116151561041057600080fd5b60008054604051600160a060020a03808516939216917f8be0079c531659141344cd1fd0a4f28419497f9722a3daafe3b4186f6b6457e091a36000805473ffffffffffffffffffffffffffffffffffffffff1916600160a060020a03929092169190911790555600a165627a7a72305820e3a21f5c74cc95a6fa219fb2a62ab49a320db201715eafae98efdbcf58d12f2e0029",
  "source": "import \"openzeppelin-solidity/contracts/ownership/Ownable.sol\";\nimport \"../interfaces/ISelfServiceAccessControls.sol\";\n\ncontract SelfServiceAccessControls is Ownable, ISelfServiceAccessControls {\n\n  // Simple map to only allow certain artist create editions at first\n  mapping(address => bool) public allowedArtists;\n\n  // When true any existing KO artist can mint their own editions\n  bool public openToAllArtist = false;\n\n  /**\n   * @dev Controls is the contract is open to all\n   * @dev Only callable from owner\n   */\n  function setOpenToAllArtist(bool _openToAllArtist) onlyOwner public {\n    openToAllArtist = _openToAllArtist;\n  }\n\n  /**\n   * @dev Controls who can call this contract\n   * @dev Only callable from owner\n   */\n  function setAllowedArtist(address _artist, bool _allowed) onlyOwner public {\n    allowedArtists[_artist] = _allowed;\n  }\n\n  /**\n   * @dev Checks to see if the account can create editions\n   */\n  function isEnabledForAccount(address account) public view returns (bool) {\n    if (openToAllArtist) {\n      return true;\n    }\n    return allowedArtists[account];\n  }\n\n  /**\n   * @dev Allows for the ability to extract stuck ether\n   * @dev Only callable from owner\n   */\n  function withdrawStuckEther(address _withdrawalAccount) onlyOwner public {\n    require(_withdrawalAccount != address(0), \"Invalid address provided\");\n    _withdrawalAccount.transfer(address(this).balance);\n  }\n}\n",
  "sourcePath": "/Users/jamesmorgan/Dropbox/workspace-blockrocket/knownorigin/known-origin-contracts/contracts/v2/self-service/SelfServiceAccessControls.sol",
  "compiler": {
    "name": "solc",
    "version": "0.4.24+commit.e67f0147.Emscripten.clang"
  },
  "schemaVersion": "3.1.0",
  "updatedAt": "2020-10-23T11:53:56.703Z",
  "networkType": "ethereum",
  "devdoc": {
    "methods": {
      "isEnabledForAccount(address)": {
        "details": "Checks to see if the account can create editions"
      },
      "renounceOwnership()": {
        "details": "Allows the current owner to relinquish control of the contract."
      },
      "setAllowedArtist(address,bool)": {
        "details": "Controls who can call this contractOnly callable from owner"
      },
      "setOpenToAllArtist(bool)": {
        "details": "Controls is the contract is open to allOnly callable from owner"
      },
      "transferOwnership(address)": {
        "details": "Allows the current owner to transfer control of the contract to a newOwner.",
        "params": {
          "_newOwner": "The address to transfer ownership to."
        }
      },
      "withdrawStuckEther(address)": {
        "details": "Allows for the ability to extract stuck etherOnly callable from owner"
      }
    }
  },
  "userdoc": {
    "methods": {
      "renounceOwnership()": {
        "notice": "Renouncing to ownership will leave the contract without an owner. It will not be possible to call the functions with the `onlyOwner` modifier anymore."
      }
    }
  }
}