{
  "contractName": "SelfServiceEditionCurationV4",
  "abi": [
    {
      "constant": false,
      "inputs": [],
      "name": "unpause",
      "outputs": [],
      "payable": false,
      "stateMutability": "nonpayable",
      "type": "function"
    },
    {
      "constant": true,
      "inputs": [],
      "name": "minPricePerEdition",
      "outputs": [
        {
          "name": "",
          "type": "uint256"
        }
      ],
      "payable": false,
      "stateMutability": "view",
      "type": "function"
    },
    {
      "constant": true,
      "inputs": [],
      "name": "koCommission",
      "outputs": [
        {
          "name": "",
          "type": "uint256"
        }
      ],
      "payable": false,
      "stateMutability": "view",
      "type": "function"
    },
    {
      "constant": true,
      "inputs": [],
      "name": "kodaV2",
      "outputs": [
        {
          "name": "",
          "type": "address"
        }
      ],
      "payable": false,
      "stateMutability": "view",
      "type": "function"
    },
    {
      "constant": true,
      "inputs": [],
      "name": "paused",
      "outputs": [
        {
          "name": "",
          "type": "bool"
        }
      ],
      "payable": false,
      "stateMutability": "view",
      "type": "function"
    },
    {
      "constant": false,
      "inputs": [],
      "name": "renounceOwnership",
      "outputs": [],
      "payable": false,
      "stateMutability": "nonpayable",
      "type": "function"
    },
    {
      "constant": true,
      "inputs": [],
      "name": "accessControls",
      "outputs": [
        {
          "name": "",
          "type": "address"
        }
      ],
      "payable": false,
      "stateMutability": "view",
      "type": "function"
    },
    {
      "constant": true,
      "inputs": [],
      "name": "maxEditionSize",
      "outputs": [
        {
          "name": "",
          "type": "uint256"
        }
      ],
      "payable": false,
      "stateMutability": "view",
      "type": "function"
    },
    {
      "constant": true,
      "inputs": [],
      "name": "auction",
      "outputs": [
        {
          "name": "",
          "type": "address"
        }
      ],
      "payable": false,
      "stateMutability": "view",
      "type": "function"
    },
    {
      "constant": false,
      "inputs": [],
      "name": "pause",
      "outputs": [],
      "payable": false,
      "stateMutability": "nonpayable",
      "type": "function"
    },
    {
      "constant": true,
      "inputs": [],
      "name": "owner",
      "outputs": [
        {
          "name": "",
          "type": "address"
        }
      ],
      "payable": false,
      "stateMutability": "view",
      "type": "function"
    },
    {
      "constant": true,
      "inputs": [],
      "name": "frequencyControls",
      "outputs": [
        {
          "name": "",
          "type": "address"
        }
      ],
      "payable": false,
      "stateMutability": "view",
      "type": "function"
    },
    {
      "constant": false,
      "inputs": [
        {
          "name": "_newOwner",
          "type": "address"
        }
      ],
      "name": "transferOwnership",
      "outputs": [],
      "payable": false,
      "stateMutability": "nonpayable",
      "type": "function"
    },
    {
      "inputs": [
        {
          "name": "_kodaV2",
          "type": "address"
        },
        {
          "name": "_auction",
          "type": "address"
        },
        {
          "name": "_accessControls",
          "type": "address"
        },
        {
          "name": "_frequencyControls",
          "type": "address"
        }
      ],
      "payable": false,
      "stateMutability": "nonpayable",
      "type": "constructor"
    },
    {
      "anonymous": false,
      "inputs": [
        {
          "indexed": true,
          "name": "_editionNumber",
          "type": "uint256"
        },
        {
          "indexed": true,
          "name": "_creator",
          "type": "address"
        },
        {
          "indexed": false,
          "name": "_priceInWei",
          "type": "uint256"
        },
        {
          "indexed": false,
          "name": "_totalAvailable",
          "type": "uint256"
        },
        {
          "indexed": false,
          "name": "_enableAuction",
          "type": "bool"
        }
      ],
      "name": "SelfServiceEditionCreated",
      "type": "event"
    },
    {
      "anonymous": false,
      "inputs": [],
      "name": "Pause",
      "type": "event"
    },
    {
      "anonymous": false,
      "inputs": [],
      "name": "Unpause",
      "type": "event"
    },
    {
      "anonymous": false,
      "inputs": [
        {
          "indexed": true,
          "name": "previousOwner",
          "type": "address"
        }
      ],
      "name": "OwnershipRenounced",
      "type": "event"
    },
    {
      "anonymous": false,
      "inputs": [
        {
          "indexed": true,
          "name": "previousOwner",
          "type": "address"
        },
        {
          "indexed": true,
          "name": "newOwner",
          "type": "address"
        }
      ],
      "name": "OwnershipTransferred",
      "type": "event"
    },
    {
      "constant": false,
      "inputs": [
        {
          "name": "_enableAuction",
          "type": "bool"
        },
        {
          "name": "_commissionSplitAddress",
          "type": "address"
        },
        {
          "name": "_commissionSplitRate",
          "type": "uint256"
        },
        {
          "name": "_totalAvailable",
          "type": "uint256"
        },
        {
          "name": "_priceInWei",
          "type": "uint256"
        },
        {
          "name": "_startDate",
          "type": "uint256"
        },
        {
          "name": "_endDate",
          "type": "uint256"
        },
        {
          "name": "_artistCommission",
          "type": "uint256"
        },
        {
          "name": "_tokenUri",
          "type": "string"
        }
      ],
      "name": "createEdition",
      "outputs": [
        {
          "name": "_editionNumber",
          "type": "uint256"
        }
      ],
      "payable": false,
      "stateMutability": "nonpayable",
      "type": "function"
    },
    {
      "constant": false,
      "inputs": [
        {
          "name": "_artist",
          "type": "address"
        },
        {
          "name": "_enableAuction",
          "type": "bool"
        },
        {
          "name": "_commissionSplitAddress",
          "type": "address"
        },
        {
          "name": "_commissionSplitRate",
          "type": "uint256"
        },
        {
          "name": "_totalAvailable",
          "type": "uint256"
        },
        {
          "name": "_priceInWei",
          "type": "uint256"
        },
        {
          "name": "_startDate",
          "type": "uint256"
        },
        {
          "name": "_endDate",
          "type": "uint256"
        },
        {
          "name": "_artistCommission",
          "type": "uint256"
        },
        {
          "name": "_tokenUri",
          "type": "string"
        }
      ],
      "name": "createEditionFor",
      "outputs": [
        {
          "name": "_editionNumber",
          "type": "uint256"
        }
      ],
      "payable": false,
      "stateMutability": "nonpayable",
      "type": "function"
    },
    {
      "constant": false,
      "inputs": [
        {
          "name": "_kodaV2",
          "type": "address"
        }
      ],
      "name": "setKodavV2",
      "outputs": [],
      "payable": false,
      "stateMutability": "nonpayable",
      "type": "function"
    },
    {
      "constant": false,
      "inputs": [
        {
          "name": "_auction",
          "type": "address"
        }
      ],
      "name": "setAuction",
      "outputs": [],
      "payable": false,
      "stateMutability": "nonpayable",
      "type": "function"
    },
    {
      "constant": false,
      "inputs": [
        {
          "name": "_koCommission",
          "type": "uint256"
        }
      ],
      "name": "setKoCommission",
      "outputs": [],
      "payable": false,
      "stateMutability": "nonpayable",
      "type": "function"
    },
    {
      "constant": false,
      "inputs": [
        {
          "name": "_maxEditionSize",
          "type": "uint256"
        }
      ],
      "name": "setMaxEditionSize",
      "outputs": [],
      "payable": false,
      "stateMutability": "nonpayable",
      "type": "function"
    },
    {
      "constant": false,
      "inputs": [
        {
          "name": "_minPricePerEdition",
          "type": "uint256"
        }
      ],
      "name": "setMinPricePerEdition",
      "outputs": [],
      "payable": false,
      "stateMutability": "nonpayable",
      "type": "function"
    },
    {
      "constant": true,
      "inputs": [
        {
          "name": "account",
          "type": "address"
        }
      ],
      "name": "isFrozen",
      "outputs": [
        {
          "name": "",
          "type": "bool"
        }
      ],
      "payable": false,
      "stateMutability": "view",
      "type": "function"
    },
    {
      "constant": true,
      "inputs": [
        {
          "name": "account",
          "type": "address"
        }
      ],
      "name": "isEnabledForAccount",
      "outputs": [
        {
          "name": "",
          "type": "bool"
        }
      ],
      "payable": false,
      "stateMutability": "view",
      "type": "function"
    },
    {
      "constant": true,
      "inputs": [
        {
          "name": "account",
          "type": "address"
        }
      ],
      "name": "canCreateAnotherEdition",
      "outputs": [
        {
          "name": "",
          "type": "bool"
        }
      ],
      "payable": false,
      "stateMutability": "view",
      "type": "function"
    },
    {
      "constant": false,
      "inputs": [
        {
          "name": "_withdrawalAccount",
          "type": "address"
        }
      ],
      "name": "withdrawStuckEther",
      "outputs": [],
      "payable": false,
      "stateMutability": "nonpayable",
      "type": "function"
    }
  ],
  "bytecode": "0x60806040526000805460a060020a60ff0219169055600f6005556064600655662386f26fc1000060075534801561003557600080fd5b506040516080806118eb83398101604090815281516020830151918301516060909301516000805433600160a060020a0319918216178255600180548216600160a060020a03958616179055600280548216958516959095179094556003805485169584169590951790945560048054909316911617905561182e9081906100bd90396000f3006080604052600436106101245763ffffffff60e060020a60003504166326ccd77a81146101295780632bd3152d1461014c5780633b7cc88a146101815780633f4ba83a14610199578063410112fd146101ae578063508a9417146101d5578063566aac2f146101ea5780635b638fa5146102025780635c975abb146102335780635fd0aaa614610248578063715018a6146102cd578063748365ef146102e25780637b37ce4f146102f75780637d9f6db51461030c5780638456cb59146103215780638da5cb5b1461033657806391a26fde1461034b578063a28c5294146103d8578063ab1183e0146103ed578063afc57f981461040e578063b8c6f57914610426578063bbee17a314610447578063e583983614610468578063f2fde38b14610489575b600080fd5b34801561013557600080fd5b5061014a600160a060020a03600435166104aa565b005b34801561015857600080fd5b5061016d600160a060020a036004351661055b565b604080519115158252519081900360200190f35b34801561018d57600080fd5b5061014a6004356105fa565b3480156101a557600080fd5b5061014a610616565b3480156101ba57600080fd5b506101c361068c565b60408051918252519081900360200190f35b3480156101e157600080fd5b506101c3610692565b3480156101f657600080fd5b5061014a600435610698565b34801561020e57600080fd5b506102176106b4565b60408051600160a060020a039092168252519081900360200190f35b34801561023f57600080fd5b5061016d6106c3565b34801561025457600080fd5b5060408051602060046101043581810135601f81018490048402850184019095528484526101c394823515159460248035600160a060020a03169560443595606435956084359560a4359560c4359560e43595369594610124949201919081908401838280828437509497506106d39650505050505050565b3480156102d957600080fd5b5061014a610ade565b3480156102ee57600080fd5b50610217610b4a565b34801561030357600080fd5b506101c3610b59565b34801561031857600080fd5b50610217610b5f565b34801561032d57600080fd5b5061014a610b6e565b34801561034257600080fd5b50610217610be9565b34801561035757600080fd5b50604080516020601f610124356004818101359283018490048402850184019095528184526101c394600160a060020a0381358116956024803515159660443590931695606435956084359560a4359560c4359560e4359561010435953695610144949201918190840183828082843750949750610bf89650505050505050565b3480156103e457600080fd5b50610217610ef3565b3480156103f957600080fd5b5061016d600160a060020a0360043516610f02565b34801561041a57600080fd5b5061014a600435610fba565b34801561043257600080fd5b5061014a600160a060020a0360043516610fd6565b34801561045357600080fd5b5061014a600160a060020a036004351661101c565b34801561047457600080fd5b5061016d600160a060020a0360043516611062565b34801561049557600080fd5b5061014a600160a060020a03600435166110cf565b600054600160a060020a031633146104c157600080fd5b600160a060020a0381161515610521576040805160e560020a62461bcd02815260206004820152601860248201527f496e76616c696420616464726573732070726f76696465640000000000000000604482015290519081900360640190fd5b604051600160a060020a03821690303180156108fc02916000818181858888f19350505050158015610557573d6000803e3d6000fd5b5050565b600354604080517f2bd3152d000000000000000000000000000000000000000000000000000000008152600160a060020a03848116600483015291516000939290921691632bd3152d9160248082019260209290919082900301818787803b1580156105c657600080fd5b505af11580156105da573d6000803e3d6000fd5b505050506040513d60208110156105f057600080fd5b505190505b919050565b600054600160a060020a0316331461061157600080fd5b600555565b600054600160a060020a0316331461062d57600080fd5b60005460a060020a900460ff16151561064557600080fd5b6000805474ff0000000000000000000000000000000000000000191681556040517f7805862f689e2f13df9f062ff482ad3ad112aca9e0847911ed832e158c525b339190a1565b60075481565b60055481565b600054600160a060020a031633146106af57600080fd5b600655565b600154600160a060020a031681565b60005460a060020a900460ff1681565b60008054819060a060020a900460ff16156106ed57600080fd5b60048054604080517fc2ba4744000000000000000000000000000000000000000000000000000000008152339381019390935251600160a060020a039091169163c2ba47449160248083019260209291908290030181600087803b15801561075457600080fd5b505af1158015610768573d6000803e3d6000fd5b505050506040513d602081101561077e57600080fd5b5051156107fb576040805160e560020a62461bcd02815260206004820152602760248201527f53656e6465722063757272656e746c792066726f7a656e206f7574206f66206360448201527f72656174696f6e00000000000000000000000000000000000000000000000000606482015290519081900360840190fd5b60055460649061082190610815878d63ffffffff6110f216565b9063ffffffff6110f216565b1115610877576040805160e560020a62461bcd02815260206004820152601c60248201527f546f74616c20636f6d6d697373696f6e20657863656564732031303000000000604482015290519081900360640190fd5b610885338c8a8a8888611105565b9050600086111561091657600154604080517f328a2c2d00000000000000000000000000000000000000000000000000000000815260048101849052602481018990529051600160a060020a039092169163328a2c2d9160448082019260009290919082900301818387803b1580156108fd57600080fd5b505af1158015610911573d6000803e3d6000fd5b505050505b60008511156109a557600154604080517fe6232ba100000000000000000000000000000000000000000000000000000000815260048101849052602481018890529051600160a060020a039092169163e6232ba19160448082019260009290919082900301818387803b15801561098c57600080fd5b505af11580156109a0573d6000803e3d6000fd5b505050505b6000891115610a3c57600154604080517f97e851f600000000000000000000000000000000000000000000000000000000815260048101859052602481018c9052600160a060020a038d81166044830152915191909216916397e851f691606480830192600092919082900301818387803b158015610a2357600080fd5b505af1158015610a37573d6000803e3d6000fd5b505050505b60048054604080517ff885e722000000000000000000000000000000000000000000000000000000008152339381019390935251600160a060020a039091169163f885e7229160248083019260209291908290030181600087803b158015610aa357600080fd5b505af1158015610ab7573d6000803e3d6000fd5b505050506040513d6020811015610acd57600080fd5b50909b9a5050505050505050505050565b600054600160a060020a03163314610af557600080fd5b60008054604051600160a060020a03909116917ff8df31144d9c2f0f6b59d69b8b98abd5459d07f2742c4df920b25aae33c6482091a26000805473ffffffffffffffffffffffffffffffffffffffff19169055565b600354600160a060020a031681565b60065481565b600254600160a060020a031681565b600054600160a060020a03163314610b8557600080fd5b60005460a060020a900460ff1615610b9c57600080fd5b6000805474ff0000000000000000000000000000000000000000191660a060020a1781556040517f6985a02210a168e66602d3235cb6db0e70f92b3ba4d376a33c0f3d9434bff6259190a1565b600054600160a060020a031681565b600080548190600160a060020a03163314610c1257600080fd5b600554606490610c2c90610815878d63ffffffff6110f216565b1115610c82576040805160e560020a62461bcd02815260206004820152601c60248201527f546f74616c20636f6d6d697373696f6e20657863656564732031303000000000604482015290519081900360640190fd5b610c908c8c8a8a8888611105565b90506000861115610d2157600154604080517f328a2c2d00000000000000000000000000000000000000000000000000000000815260048101849052602481018990529051600160a060020a039092169163328a2c2d9160448082019260009290919082900301818387803b158015610d0857600080fd5b505af1158015610d1c573d6000803e3d6000fd5b505050505b6000851115610db057600154604080517fe6232ba100000000000000000000000000000000000000000000000000000000815260048101849052602481018890529051600160a060020a039092169163e6232ba19160448082019260009290919082900301818387803b158015610d9757600080fd5b505af1158015610dab573d6000803e3d6000fd5b505050505b6000891115610e4757600154604080517f97e851f600000000000000000000000000000000000000000000000000000000815260048101859052602481018c9052600160a060020a038d81166044830152915191909216916397e851f691606480830192600092919082900301818387803b158015610e2e57600080fd5b505af1158015610e42573d6000803e3d6000fd5b505050505b600460009054906101000a9004600160a060020a0316600160a060020a031663f885e7228d6040518263ffffffff1660e060020a0281526004018082600160a060020a0316600160a060020a03168152602001915050602060405180830381600087803b158015610eb757600080fd5b505af1158015610ecb573d6000803e3d6000fd5b505050506040513d6020811015610ee157600080fd5b50909c9b505050505050505050505050565b600454600160a060020a031681565b6000610f0d8261055b565b1515610f1b575060006105f5565b60048054604080517fc2ba4744000000000000000000000000000000000000000000000000000000008152600160a060020a03868116948201949094529051929091169163c2ba4744916024808201926020929091908290030181600087803b158015610f8757600080fd5b505af1158015610f9b573d6000803e3d6000fd5b505050506040513d6020811015610fb157600080fd5b50511592915050565b600054600160a060020a03163314610fd157600080fd5b600755565b600054600160a060020a03163314610fed57600080fd5b6002805473ffffffffffffffffffffffffffffffffffffffff1916600160a060020a0392909216919091179055565b600054600160a060020a0316331461103357600080fd5b6001805473ffffffffffffffffffffffffffffffffffffffff1916600160a060020a0392909216919091179055565b60048054604080517fc2ba4744000000000000000000000000000000000000000000000000000000008152600160a060020a038581169482019490945290516000939092169163c2ba47449160248082019260209290919082900301818787803b1580156105c657600080fd5b600054600160a060020a031633146110e657600080fd5b6110ef816114d5565b50565b818101828110156110ff57fe5b92915050565b600080808611611185576040805160e560020a62461bcd02815260206004820152602960248201527f4d757374206265206174206c65617374206f6e6520617661696c61626c65206960448201527f6e2065646974696f6e0000000000000000000000000000000000000000000000606482015290519081900360840190fd5b6006548611156111df576040805160e560020a62461bcd02815260206004820181905260248201527f4d757374206e6f7420657863656564206d61782065646974696f6e2073697a65604482015290519081900360640190fd5b60075485101561125f576040805160e560020a62461bcd02815260206004820152602260248201527f5072696365206d7573742062652067726561746572207468616e206d696e696d60448201527f756d000000000000000000000000000000000000000000000000000000000000606482015290519081900360840190fd5b600054600160a060020a0316331461138157600354604080517f2bd3152d000000000000000000000000000000000000000000000000000000008152600160a060020a038b8116600483015291519190921691632bd3152d9160248083019260209291908290030181600087803b1580156112d957600080fd5b505af11580156112ed573d6000803e3d6000fd5b505050506040513d602081101561130357600080fd5b50511515611381576040805160e560020a62461bcd02815260206004820152603060248201527f4f6e6c7920616c6c6f77656420617274697374732063616e206372656174652060448201527f65646974696f6e7320666f72206e6f7700000000000000000000000000000000606482015290519081900360840190fd5b611389611552565b90506113998189888888886116a5565b15156113ef576040805160e560020a62461bcd02815260206004820152601c60248201527f4661696c656420746f20637265617465206e65772065646974696f6e00000000604482015290519081900360640190fd5b861561147c57600254604080517fb5e7f3c300000000000000000000000000000000000000000000000000000000815260048101849052600160a060020a038b811660248301529151919092169163b5e7f3c391604480830192600092919082900301818387803b15801561146357600080fd5b505af1158015611477573d6000803e3d6000fd5b505050505b6040805186815260208101889052881515818301529051600160a060020a038a169183917faa456f9f24703ca25ecf5b0bfd7bed18ed96589119418060049a312d983727669181900360600190a3979650505050505050565b600160a060020a03811615156114ea57600080fd5b60008054604051600160a060020a03808516939216917f8be0079c531659141344cd1fd0a4f28419497f9722a3daafe3b4186f6b6457e091a36000805473ffffffffffffffffffffffffffffffffffffffff1916600160a060020a0392909216919091179055565b600080600080600160009054906101000a9004600160a060020a0316600160a060020a031663abf3260f6040518163ffffffff1660e060020a028152600401602060405180830381600087803b1580156115ab57600080fd5b505af11580156115bf573d6000803e3d6000fd5b505050506040513d60208110156115d557600080fd5b5051600154604080517f6a028692000000000000000000000000000000000000000000000000000000008152600481018490529051929550600160a060020a0390911691636a028692916024808201926020929091908290030181600087803b15801561164157600080fd5b505af1158015611655573d6000803e3d6000fd5b505050506040513d602081101561166b57600080fd5b505191506116846001610815858563ffffffff6110f216565b600654909150806000198184010181151561169b57fe5b0402935050505090565b6000600160009054906101000a9004600160a060020a0316600160a060020a0316638bbb594a88600060016000808c8a8c8b8f6040518b63ffffffff1660e060020a028152600401808b81526020018a60010260001916815260200189815260200188815260200187815260200186600160a060020a0316600160a060020a0316815260200185815260200184815260200180602001838152602001828103825284818151815260200191508051906020019080838360005b8381101561177657818101518382015260200161175e565b50505050905090810190601f1680156117a35780820380516001836020036101000a031916815260200191505b509b505050505050505050505050602060405180830381600087803b1580156117cb57600080fd5b505af11580156117df573d6000803e3d6000fd5b505050506040513d60208110156117f557600080fd5b50519796505050505050505600a165627a7a72305820a134b68d658aa45925c507c7b2da8f3b0970d095bcff576a1a3d80382f6c5d2a0029",
  "source": "pragma solidity 0.4.24;\n\nimport \"openzeppelin-solidity/contracts/ownership/Ownable.sol\";\nimport \"openzeppelin-solidity/contracts/lifecycle/Pausable.sol\";\nimport \"openzeppelin-solidity/contracts/math/SafeMath.sol\";\n\nimport \"../interfaces/IKODAV2SelfServiceEditionCuration.sol\";\nimport \"../interfaces/IKODAAuction.sol\";\nimport \"../interfaces/ISelfServiceAccessControls.sol\";\nimport \"../interfaces/ISelfServiceFrequencyControls.sol\";\n\n// One invocation per time-period\ncontract SelfServiceEditionCurationV4 is Ownable, Pausable {\n  using SafeMath for uint256;\n\n  event SelfServiceEditionCreated(\n    uint256 indexed _editionNumber,\n    address indexed _creator,\n    uint256 _priceInWei,\n    uint256 _totalAvailable,\n    bool _enableAuction\n  );\n\n  // Calling address\n  IKODAV2SelfServiceEditionCuration public kodaV2;\n  IKODAAuction public auction;\n  ISelfServiceAccessControls public accessControls;\n  ISelfServiceFrequencyControls public frequencyControls;\n\n  // Default KO commission\n  uint256 public koCommission = 15;\n\n  // Config which enforces editions to not be over this size\n  uint256 public maxEditionSize = 100;\n\n  // Config the minimum price per edition\n  uint256 public minPricePerEdition = 0.01 ether;\n\n  /**\n   * @dev Construct a new instance of the contract\n   */\n  constructor(\n    IKODAV2SelfServiceEditionCuration _kodaV2,\n    IKODAAuction _auction,\n    ISelfServiceAccessControls _accessControls,\n    ISelfServiceFrequencyControls _frequencyControls\n  ) public {\n    kodaV2 = _kodaV2;\n    auction = _auction;\n    accessControls = _accessControls;\n    frequencyControls = _frequencyControls;\n  }\n\n  /**\n   * @dev Called by artists, create new edition on the KODA platform\n   */\n  function createEdition(\n    bool _enableAuction,\n    address _commissionSplitAddress,\n    uint256 _commissionSplitRate,\n    uint256 _totalAvailable,\n    uint256 _priceInWei,\n    uint256 _startDate,\n    uint256 _endDate,\n    uint256 _artistCommission,\n    string _tokenUri\n  )\n  public\n  whenNotPaused\n  returns (uint256 _editionNumber)\n  {\n    require(!frequencyControls.canMint(msg.sender), 'Sender currently frozen out of creation');\n    require(_artistCommission.add(_commissionSplitRate).add(koCommission) <= 100, \"Total commission exceeds 100\");\n\n    uint256 editionNumber = _createEdition(msg.sender, _enableAuction, _totalAvailable, _priceInWei, _artistCommission, _tokenUri);\n\n    if (_startDate > 0) {\n      kodaV2.updateStartDate(editionNumber, _startDate);\n    }\n\n    if (_endDate > 0) {\n      kodaV2.updateEndDate(editionNumber, _endDate);\n    }\n\n    if (_commissionSplitRate > 0) {\n      kodaV2.updateOptionalCommission(_editionNumber, _commissionSplitRate, _commissionSplitAddress);\n    }\n\n    frequencyControls.recordSuccessfulMint(msg.sender);\n\n    return editionNumber;\n  }\n\n  /**\n   * @dev Caller by owner, can create editions for other artists\n   * @dev Only callable from owner regardless of pause state\n   */\n  function createEditionFor(\n    address _artist,\n    bool _enableAuction,\n    address _commissionSplitAddress,\n    uint256 _commissionSplitRate,\n    uint256 _totalAvailable,\n    uint256 _priceInWei,\n    uint256 _startDate,\n    uint256 _endDate,\n    uint256 _artistCommission,\n    string _tokenUri\n  )\n  public\n  onlyOwner\n  returns (uint256 _editionNumber)\n  {\n    require(_artistCommission.add(_commissionSplitRate).add(koCommission) <= 100, \"Total commission exceeds 100\");\n\n    uint256 editionNumber = _createEdition(_artist, _enableAuction, _totalAvailable, _priceInWei, _artistCommission, _tokenUri);\n\n    if (_startDate > 0) {\n      kodaV2.updateStartDate(editionNumber, _startDate);\n    }\n\n    if (_endDate > 0) {\n      kodaV2.updateEndDate(editionNumber, _endDate);\n    }\n\n    if (_commissionSplitRate > 0) {\n      kodaV2.updateOptionalCommission(_editionNumber, _commissionSplitRate, _commissionSplitAddress);\n    }\n\n    frequencyControls.recordSuccessfulMint(_artist);\n\n    return editionNumber;\n  }\n\n  /**\n   * @dev Internal function for edition creation\n   */\n  function _createEdition(\n    address _artist,\n    bool _enableAuction,\n    uint256 _totalAvailable,\n    uint256 _priceInWei,\n    uint256 _artistCommission,\n    string _tokenUri\n  )\n  internal\n  returns (uint256 _editionNumber){\n\n    // Enforce edition size\n    require(_totalAvailable > 0, \"Must be at least one available in edition\");\n    require(_totalAvailable <= maxEditionSize, \"Must not exceed max edition size\");\n\n    // Enforce min price\n    require(_priceInWei >= minPricePerEdition, \"Price must be greater than minimum\");\n\n    // If we are the owner, skip this artists check\n    if (msg.sender != owner) {\n      // Enforce who can call this\n      require(accessControls.isEnabledForAccount(_artist), \"Only allowed artists can create editions for now\");\n    }\n\n    // Find the next edition number we can use\n    uint256 editionNumber = getNextAvailableEditionNumber();\n\n    // Attempt to create a new edition\n    require(\n      _createNewEdition(editionNumber, _artist, _totalAvailable, _priceInWei, _artistCommission, _tokenUri),\n      \"Failed to create new edition\"\n    );\n\n    // Enable the auction if desired\n    if (_enableAuction) {\n      auction.setArtistsControlAddressAndEnabledEdition(editionNumber, _artist);\n    }\n\n    // Trigger event\n    emit SelfServiceEditionCreated(editionNumber, _artist, _priceInWei, _totalAvailable, _enableAuction);\n\n    return editionNumber;\n  }\n\n  /**\n   * @dev Internal function for calling external create methods with some none configurable defaults\n   */\n  function _createNewEdition(\n    uint256 _editionNumber,\n    address _artist,\n    uint256 _totalAvailable,\n    uint256 _priceInWei,\n    uint256 _artistCommission,\n    string _tokenUri\n  )\n  internal\n  returns (bool) {\n    return kodaV2.createActiveEdition(\n      _editionNumber,\n      0x0, // _editionData - no edition data\n      1, // _editionType - KODA always type 1\n      0,\n      0, // _endDate - 0 = MAX unit256\n      _artist,\n      _artistCommission, // defaults to global property artistCommission if no extra commission split is found\n      _priceInWei,\n      _tokenUri,\n      _totalAvailable\n    );\n  }\n\n  /**\n   * @dev Internal function for dynamically generating the next KODA edition number\n   */\n  function getNextAvailableEditionNumber() internal returns (uint256 editionNumber) {\n\n    // Get current highest edition and total in the edition\n    uint256 highestEditionNumber = kodaV2.highestEditionNumber();\n    uint256 totalAvailableEdition = kodaV2.totalAvailableEdition(highestEditionNumber);\n\n    // Add the current highest plus its total, plus 1 as tokens start at 1 not zero\n    uint256 nextAvailableEditionNumber = highestEditionNumber.add(totalAvailableEdition).add(1);\n\n    // Round up to next 100, 1000 etc based on max allowed size\n    return ((nextAvailableEditionNumber + maxEditionSize - 1) / maxEditionSize) * maxEditionSize;\n  }\n\n  /**\n   * @dev Sets the KODA address\n   * @dev Only callable from owner\n   */\n  function setKodavV2(IKODAV2SelfServiceEditionCuration _kodaV2) onlyOwner public {\n    kodaV2 = _kodaV2;\n  }\n\n  /**\n   * @dev Sets the KODA auction\n   * @dev Only callable from owner\n   */\n  function setAuction(IKODAAuction _auction) onlyOwner public {\n    auction = _auction;\n  }\n\n  /**\n   * @dev Sets the default KO commission for each edition\n   * @dev Only callable from owner\n   */\n  function setKoCommission(uint256 _koCommission) onlyOwner public {\n    koCommission = _koCommission;\n  }\n\n  /**\n   * @dev Sets the max edition size\n   * @dev Only callable from owner\n   */\n  function setMaxEditionSize(uint256 _maxEditionSize) onlyOwner public {\n    maxEditionSize = _maxEditionSize;\n  }\n\n  /**\n   * @dev Sets minimum price per edition\n   * @dev Only callable from owner\n   */\n  function setMinPricePerEdition(uint256 _minPricePerEdition) onlyOwner public {\n    minPricePerEdition = _minPricePerEdition;\n  }\n\n  /**\n   * @dev Checks to see if the account is currently frozen out\n   */\n  function isFrozen(address account) public view returns (bool) {\n    return frequencyControls.canMint(account);\n  }\n\n  /**\n   * @dev Checks to see if the account can create editions\n   */\n  function isEnabledForAccount(address account) public view returns (bool) {\n    return accessControls.isEnabledForAccount(account);\n  }\n\n  /**\n   * @dev Checks to see if the account can create editions\n   */\n  function canCreateAnotherEdition(address account) public view returns (bool) {\n    if (!isEnabledForAccount(account)) {\n      return false;\n    }\n    return !frequencyControls.canMint(account);\n  }\n\n  /**\n   * @dev Allows for the ability to extract stuck ether\n   * @dev Only callable from owner\n   */\n  function withdrawStuckEther(address _withdrawalAccount) onlyOwner public {\n    require(_withdrawalAccount != address(0), \"Invalid address provided\");\n    _withdrawalAccount.transfer(address(this).balance);\n  }\n}\n",
  "sourcePath": "/Users/jamesmorgan/Dropbox/workspace-blockrocket/knownorigin/known-origin-contracts/contracts/v2/self-service/SelfServiceEditionCurationV4.sol",
  "compiler": {
    "name": "solc",
    "version": "0.4.24+commit.e67f0147.Emscripten.clang"
  },
  "schemaVersion": "3.0.16",
  "updatedAt": "2019-11-16T07:22:38.281Z",
  "devdoc": {
    "methods": {
      "canCreateAnotherEdition(address)": {
        "details": "Checks to see if the account can create editions"
      },
      "createEdition(bool,address,uint256,uint256,uint256,uint256,uint256,uint256,string)": {
        "details": "Called by artists, create new edition on the KODA platform"
      },
      "createEditionFor(address,bool,address,uint256,uint256,uint256,uint256,uint256,uint256,string)": {
        "details": "Caller by owner, can create editions for other artistsOnly callable from owner regardless of pause state"
      },
      "isEnabledForAccount(address)": {
        "details": "Checks to see if the account can create editions"
      },
      "isFrozen(address)": {
        "details": "Checks to see if the account is currently frozen out"
      },
      "pause()": {
        "details": "called by the owner to pause, triggers stopped state"
      },
      "renounceOwnership()": {
        "details": "Allows the current owner to relinquish control of the contract."
      },
      "setAuction(address)": {
        "details": "Sets the KODA auctionOnly callable from owner"
      },
      "setKoCommission(uint256)": {
        "details": "Sets the default KO commission for each editionOnly callable from owner"
      },
      "setKodavV2(address)": {
        "details": "Sets the KODA addressOnly callable from owner"
      },
      "setMaxEditionSize(uint256)": {
        "details": "Sets the max edition sizeOnly callable from owner"
      },
      "setMinPricePerEdition(uint256)": {
        "details": "Sets minimum price per editionOnly callable from owner"
      },
      "transferOwnership(address)": {
        "details": "Allows the current owner to transfer control of the contract to a newOwner.",
        "params": {
          "_newOwner": "The address to transfer ownership to."
        }
      },
      "unpause()": {
        "details": "called by the owner to unpause, returns to normal state"
      },
      "withdrawStuckEther(address)": {
        "details": "Allows for the ability to extract stuck etherOnly callable from owner"
      }
    }
  },
  "userdoc": {
    "methods": {
      "renounceOwnership()": {
        "notice": "Renouncing to ownership will leave the contract without an owner. It will not be possible to call the functions with the `onlyOwner` modifier anymore."
      }
    }
  }
}