{
  "contractName": "TokenMarketplaceV2",
  "abi": [
    {
      "constant": true,
      "inputs": [
        {
          "name": "_operator",
          "type": "address"
        },
        {
          "name": "_role",
          "type": "string"
        }
      ],
      "name": "checkRole",
      "outputs": [],
      "payable": false,
      "stateMutability": "view",
      "type": "function"
    },
    {
      "constant": true,
      "inputs": [],
      "name": "ROLE_WHITELISTED",
      "outputs": [
        {
          "name": "",
          "type": "string"
        }
      ],
      "payable": false,
      "stateMutability": "view",
      "type": "function"
    },
    {
      "constant": true,
      "inputs": [
        {
          "name": "",
          "type": "uint256"
        }
      ],
      "name": "disabledTokens",
      "outputs": [
        {
          "name": "",
          "type": "bool"
        }
      ],
      "payable": false,
      "stateMutability": "view",
      "type": "function"
    },
    {
      "constant": true,
      "inputs": [
        {
          "name": "_operator",
          "type": "address"
        },
        {
          "name": "_role",
          "type": "string"
        }
      ],
      "name": "hasRole",
      "outputs": [
        {
          "name": "",
          "type": "bool"
        }
      ],
      "payable": false,
      "stateMutability": "view",
      "type": "function"
    },
    {
      "constant": false,
      "inputs": [
        {
          "name": "_operators",
          "type": "address[]"
        }
      ],
      "name": "removeAddressesFromWhitelist",
      "outputs": [],
      "payable": false,
      "stateMutability": "nonpayable",
      "type": "function"
    },
    {
      "constant": false,
      "inputs": [
        {
          "name": "_operator",
          "type": "address"
        }
      ],
      "name": "removeAddressFromWhitelist",
      "outputs": [],
      "payable": false,
      "stateMutability": "nonpayable",
      "type": "function"
    },
    {
      "constant": false,
      "inputs": [],
      "name": "unpause",
      "outputs": [],
      "payable": false,
      "stateMutability": "nonpayable",
      "type": "function"
    },
    {
      "constant": true,
      "inputs": [],
      "name": "minBidAmount",
      "outputs": [
        {
          "name": "",
          "type": "uint256"
        }
      ],
      "payable": false,
      "stateMutability": "view",
      "type": "function"
    },
    {
      "constant": true,
      "inputs": [],
      "name": "artistRoyaltyPercentage",
      "outputs": [
        {
          "name": "",
          "type": "uint256"
        }
      ],
      "payable": false,
      "stateMutability": "view",
      "type": "function"
    },
    {
      "constant": true,
      "inputs": [],
      "name": "paused",
      "outputs": [
        {
          "name": "",
          "type": "bool"
        }
      ],
      "payable": false,
      "stateMutability": "view",
      "type": "function"
    },
    {
      "constant": true,
      "inputs": [],
      "name": "koCommissionAccount",
      "outputs": [
        {
          "name": "",
          "type": "address"
        }
      ],
      "payable": false,
      "stateMutability": "view",
      "type": "function"
    },
    {
      "constant": false,
      "inputs": [],
      "name": "renounceOwnership",
      "outputs": [],
      "payable": false,
      "stateMutability": "nonpayable",
      "type": "function"
    },
    {
      "constant": false,
      "inputs": [
        {
          "name": "_operator",
          "type": "address"
        }
      ],
      "name": "addAddressToWhitelist",
      "outputs": [],
      "payable": false,
      "stateMutability": "nonpayable",
      "type": "function"
    },
    {
      "constant": false,
      "inputs": [],
      "name": "pause",
      "outputs": [],
      "payable": false,
      "stateMutability": "nonpayable",
      "type": "function"
    },
    {
      "constant": true,
      "inputs": [
        {
          "name": "",
          "type": "uint256"
        }
      ],
      "name": "offers",
      "outputs": [
        {
          "name": "bidder",
          "type": "address"
        },
        {
          "name": "offer",
          "type": "uint256"
        }
      ],
      "payable": false,
      "stateMutability": "view",
      "type": "function"
    },
    {
      "constant": true,
      "inputs": [],
      "name": "owner",
      "outputs": [
        {
          "name": "",
          "type": "address"
        }
      ],
      "payable": false,
      "stateMutability": "view",
      "type": "function"
    },
    {
      "constant": true,
      "inputs": [
        {
          "name": "_operator",
          "type": "address"
        }
      ],
      "name": "whitelist",
      "outputs": [
        {
          "name": "",
          "type": "bool"
        }
      ],
      "payable": false,
      "stateMutability": "view",
      "type": "function"
    },
    {
      "constant": true,
      "inputs": [
        {
          "name": "",
          "type": "uint256"
        }
      ],
      "name": "disabledListings",
      "outputs": [
        {
          "name": "",
          "type": "bool"
        }
      ],
      "payable": false,
      "stateMutability": "view",
      "type": "function"
    },
    {
      "constant": true,
      "inputs": [],
      "name": "platformFeePercentage",
      "outputs": [
        {
          "name": "",
          "type": "uint256"
        }
      ],
      "payable": false,
      "stateMutability": "view",
      "type": "function"
    },
    {
      "constant": true,
      "inputs": [
        {
          "name": "",
          "type": "uint256"
        }
      ],
      "name": "listings",
      "outputs": [
        {
          "name": "price",
          "type": "uint256"
        },
        {
          "name": "seller",
          "type": "address"
        }
      ],
      "payable": false,
      "stateMutability": "view",
      "type": "function"
    },
    {
      "constant": true,
      "inputs": [],
      "name": "kodaAddress",
      "outputs": [
        {
          "name": "",
          "type": "address"
        }
      ],
      "payable": false,
      "stateMutability": "view",
      "type": "function"
    },
    {
      "constant": false,
      "inputs": [
        {
          "name": "_operators",
          "type": "address[]"
        }
      ],
      "name": "addAddressesToWhitelist",
      "outputs": [],
      "payable": false,
      "stateMutability": "nonpayable",
      "type": "function"
    },
    {
      "constant": false,
      "inputs": [
        {
          "name": "_newOwner",
          "type": "address"
        }
      ],
      "name": "transferOwnership",
      "outputs": [],
      "payable": false,
      "stateMutability": "nonpayable",
      "type": "function"
    },
    {
      "inputs": [
        {
          "name": "_kodaAddress",
          "type": "address"
        },
        {
          "name": "_koCommissionAccount",
          "type": "address"
        }
      ],
      "payable": false,
      "stateMutability": "nonpayable",
      "type": "constructor"
    },
    {
      "anonymous": false,
      "inputs": [
        {
          "indexed": false,
          "name": "_oldPercentage",
          "type": "uint256"
        },
        {
          "indexed": false,
          "name": "_newPercentage",
          "type": "uint256"
        }
      ],
      "name": "UpdatePlatformPercentageFee",
      "type": "event"
    },
    {
      "anonymous": false,
      "inputs": [
        {
          "indexed": false,
          "name": "_oldPercentage",
          "type": "uint256"
        },
        {
          "indexed": false,
          "name": "_newPercentage",
          "type": "uint256"
        }
      ],
      "name": "UpdateRoyaltyPercentageFee",
      "type": "event"
    },
    {
      "anonymous": false,
      "inputs": [
        {
          "indexed": false,
          "name": "minBidAmount",
          "type": "uint256"
        }
      ],
      "name": "UpdateMinBidAmount",
      "type": "event"
    },
    {
      "anonymous": false,
      "inputs": [
        {
          "indexed": true,
          "name": "_tokenId",
          "type": "uint256"
        },
        {
          "indexed": true,
          "name": "_seller",
          "type": "address"
        },
        {
          "indexed": false,
          "name": "_price",
          "type": "uint256"
        }
      ],
      "name": "TokenListed",
      "type": "event"
    },
    {
      "anonymous": false,
      "inputs": [
        {
          "indexed": true,
          "name": "_tokenId",
          "type": "uint256"
        }
      ],
      "name": "TokenDeListed",
      "type": "event"
    },
    {
      "anonymous": false,
      "inputs": [
        {
          "indexed": true,
          "name": "_tokenId",
          "type": "uint256"
        },
        {
          "indexed": true,
          "name": "_buyer",
          "type": "address"
        },
        {
          "indexed": true,
          "name": "_seller",
          "type": "address"
        },
        {
          "indexed": false,
          "name": "_price",
          "type": "uint256"
        }
      ],
      "name": "TokenPurchased",
      "type": "event"
    },
    {
      "anonymous": false,
      "inputs": [
        {
          "indexed": true,
          "name": "_tokenId",
          "type": "uint256"
        },
        {
          "indexed": true,
          "name": "_currentOwner",
          "type": "address"
        },
        {
          "indexed": true,
          "name": "_bidder",
          "type": "address"
        },
        {
          "indexed": false,
          "name": "_amount",
          "type": "uint256"
        }
      ],
      "name": "BidPlaced",
      "type": "event"
    },
    {
      "anonymous": false,
      "inputs": [
        {
          "indexed": true,
          "name": "_tokenId",
          "type": "uint256"
        },
        {
          "indexed": true,
          "name": "_bidder",
          "type": "address"
        }
      ],
      "name": "BidWithdrawn",
      "type": "event"
    },
    {
      "anonymous": false,
      "inputs": [
        {
          "indexed": true,
          "name": "_tokenId",
          "type": "uint256"
        },
        {
          "indexed": true,
          "name": "_currentOwner",
          "type": "address"
        },
        {
          "indexed": true,
          "name": "_bidder",
          "type": "address"
        },
        {
          "indexed": false,
          "name": "_amount",
          "type": "uint256"
        }
      ],
      "name": "BidAccepted",
      "type": "event"
    },
    {
      "anonymous": false,
      "inputs": [
        {
          "indexed": true,
          "name": "_tokenId",
          "type": "uint256"
        },
        {
          "indexed": true,
          "name": "_currentOwner",
          "type": "address"
        },
        {
          "indexed": true,
          "name": "_bidder",
          "type": "address"
        },
        {
          "indexed": false,
          "name": "_amount",
          "type": "uint256"
        }
      ],
      "name": "BidRejected",
      "type": "event"
    },
    {
      "anonymous": false,
      "inputs": [
        {
          "indexed": true,
          "name": "_tokenId",
          "type": "uint256"
        },
        {
          "indexed": true,
          "name": "_auctioneer",
          "type": "address"
        }
      ],
      "name": "AuctionEnabled",
      "type": "event"
    },
    {
      "anonymous": false,
      "inputs": [
        {
          "indexed": true,
          "name": "_tokenId",
          "type": "uint256"
        },
        {
          "indexed": true,
          "name": "_auctioneer",
          "type": "address"
        }
      ],
      "name": "AuctionDisabled",
      "type": "event"
    },
    {
      "anonymous": false,
      "inputs": [
        {
          "indexed": true,
          "name": "_tokenId",
          "type": "uint256"
        }
      ],
      "name": "ListingEnabled",
      "type": "event"
    },
    {
      "anonymous": false,
      "inputs": [
        {
          "indexed": true,
          "name": "_tokenId",
          "type": "uint256"
        }
      ],
      "name": "ListingDisabled",
      "type": "event"
    },
    {
      "anonymous": false,
      "inputs": [],
      "name": "Pause",
      "type": "event"
    },
    {
      "anonymous": false,
      "inputs": [],
      "name": "Unpause",
      "type": "event"
    },
    {
      "anonymous": false,
      "inputs": [
        {
          "indexed": true,
          "name": "operator",
          "type": "address"
        },
        {
          "indexed": false,
          "name": "role",
          "type": "string"
        }
      ],
      "name": "RoleAdded",
      "type": "event"
    },
    {
      "anonymous": false,
      "inputs": [
        {
          "indexed": true,
          "name": "operator",
          "type": "address"
        },
        {
          "indexed": false,
          "name": "role",
          "type": "string"
        }
      ],
      "name": "RoleRemoved",
      "type": "event"
    },
    {
      "anonymous": false,
      "inputs": [
        {
          "indexed": true,
          "name": "previousOwner",
          "type": "address"
        }
      ],
      "name": "OwnershipRenounced",
      "type": "event"
    },
    {
      "anonymous": false,
      "inputs": [
        {
          "indexed": true,
          "name": "previousOwner",
          "type": "address"
        },
        {
          "indexed": true,
          "name": "newOwner",
          "type": "address"
        }
      ],
      "name": "OwnershipTransferred",
      "type": "event"
    },
    {
      "constant": false,
      "inputs": [
        {
          "name": "_tokenId",
          "type": "uint256"
        }
      ],
      "name": "placeBid",
      "outputs": [],
      "payable": true,
      "stateMutability": "payable",
      "type": "function"
    },
    {
      "constant": false,
      "inputs": [
        {
          "name": "_tokenId",
          "type": "uint256"
        }
      ],
      "name": "withdrawBid",
      "outputs": [],
      "payable": false,
      "stateMutability": "nonpayable",
      "type": "function"
    },
    {
      "constant": false,
      "inputs": [
        {
          "name": "_tokenId",
          "type": "uint256"
        }
      ],
      "name": "rejectBid",
      "outputs": [],
      "payable": false,
      "stateMutability": "nonpayable",
      "type": "function"
    },
    {
      "constant": false,
      "inputs": [
        {
          "name": "_tokenId",
          "type": "uint256"
        },
        {
          "name": "_acceptedAmount",
          "type": "uint256"
        }
      ],
      "name": "acceptBid",
      "outputs": [],
      "payable": false,
      "stateMutability": "nonpayable",
      "type": "function"
    },
    {
      "constant": false,
      "inputs": [
        {
          "name": "_tokenId",
          "type": "uint256"
        },
        {
          "name": "_listingPrice",
          "type": "uint256"
        }
      ],
      "name": "listToken",
      "outputs": [],
      "payable": false,
      "stateMutability": "nonpayable",
      "type": "function"
    },
    {
      "constant": false,
      "inputs": [
        {
          "name": "_tokenId",
          "type": "uint256"
        }
      ],
      "name": "delistToken",
      "outputs": [],
      "payable": false,
      "stateMutability": "nonpayable",
      "type": "function"
    },
    {
      "constant": false,
      "inputs": [
        {
          "name": "_tokenId",
          "type": "uint256"
        }
      ],
      "name": "buyToken",
      "outputs": [],
      "payable": true,
      "stateMutability": "payable",
      "type": "function"
    },
    {
      "constant": true,
      "inputs": [
        {
          "name": "_tokenId",
          "type": "uint256"
        }
      ],
      "name": "tokenOffer",
      "outputs": [
        {
          "name": "_bidder",
          "type": "address"
        },
        {
          "name": "_offer",
          "type": "uint256"
        },
        {
          "name": "_owner",
          "type": "address"
        },
        {
          "name": "_enabled",
          "type": "bool"
        },
        {
          "name": "_paused",
          "type": "bool"
        }
      ],
      "payable": false,
      "stateMutability": "view",
      "type": "function"
    },
    {
      "constant": true,
      "inputs": [
        {
          "name": "_tokenId",
          "type": "uint256"
        }
      ],
      "name": "determineSaleValues",
      "outputs": [
        {
          "name": "_sellerTotal",
          "type": "uint256"
        },
        {
          "name": "_platformFee",
          "type": "uint256"
        },
        {
          "name": "_royaltyFee",
          "type": "uint256"
        }
      ],
      "payable": false,
      "stateMutability": "view",
      "type": "function"
    },
    {
      "constant": true,
      "inputs": [
        {
          "name": "_tokenId",
          "type": "uint256"
        }
      ],
      "name": "tokenListingDetails",
      "outputs": [
        {
          "name": "_price",
          "type": "uint256"
        },
        {
          "name": "_lister",
          "type": "address"
        },
        {
          "name": "_currentOwner",
          "type": "address"
        }
      ],
      "payable": false,
      "stateMutability": "view",
      "type": "function"
    },
    {
      "constant": false,
      "inputs": [
        {
          "name": "_tokenId",
          "type": "uint256"
        }
      ],
      "name": "disableAuction",
      "outputs": [],
      "payable": false,
      "stateMutability": "nonpayable",
      "type": "function"
    },
    {
      "constant": false,
      "inputs": [
        {
          "name": "_tokenId",
          "type": "uint256"
        }
      ],
      "name": "enableAuction",
      "outputs": [],
      "payable": false,
      "stateMutability": "nonpayable",
      "type": "function"
    },
    {
      "constant": false,
      "inputs": [
        {
          "name": "_tokenId",
          "type": "uint256"
        }
      ],
      "name": "disableListing",
      "outputs": [],
      "payable": false,
      "stateMutability": "nonpayable",
      "type": "function"
    },
    {
      "constant": false,
      "inputs": [
        {
          "name": "_tokenId",
          "type": "uint256"
        }
      ],
      "name": "enableListing",
      "outputs": [],
      "payable": false,
      "stateMutability": "nonpayable",
      "type": "function"
    },
    {
      "constant": false,
      "inputs": [
        {
          "name": "_minBidAmount",
          "type": "uint256"
        }
      ],
      "name": "setMinBidAmount",
      "outputs": [],
      "payable": false,
      "stateMutability": "nonpayable",
      "type": "function"
    },
    {
      "constant": false,
      "inputs": [
        {
          "name": "_kodaAddress",
          "type": "address"
        }
      ],
      "name": "setKodavV2",
      "outputs": [],
      "payable": false,
      "stateMutability": "nonpayable",
      "type": "function"
    },
    {
      "constant": false,
      "inputs": [
        {
          "name": "_koCommissionAccount",
          "type": "address"
        }
      ],
      "name": "setKoCommissionAccount",
      "outputs": [],
      "payable": false,
      "stateMutability": "nonpayable",
      "type": "function"
    },
    {
      "constant": false,
      "inputs": [
        {
          "name": "_artistRoyaltyPercentage",
          "type": "uint256"
        }
      ],
      "name": "setArtistRoyaltyPercentage",
      "outputs": [],
      "payable": false,
      "stateMutability": "nonpayable",
      "type": "function"
    },
    {
      "constant": false,
      "inputs": [
        {
          "name": "_platformFeePercentage",
          "type": "uint256"
        }
      ],
      "name": "setPlatformPercentage",
      "outputs": [],
      "payable": false,
      "stateMutability": "nonpayable",
      "type": "function"
    }
  ],
  "bytecode": "0x60806040526002805461ffff1916610100179055668e1bc9bf040000600355606460065560196007553480156200003557600080fd5b50604051604080620031828339810160405280516020909101516000805433600160a060020a03199182168117909255600480548216600160a060020a038087169190911790915560058054909216908416179055620000a390640100000000620000ab810262001ba81704565b505062000261565b600054600160a060020a03163314620000c357600080fd5b62000113816040805190810160405280600981526020017f77686974656c697374000000000000000000000000000000000000000000000081525062000116640100000000026401000000009004565b50565b62000192826001836040518082805190602001908083835b602083106200014f5780518252601f1990920191602091820191016200012e565b51815160209384036101000a60001901801990921691161790529201948552506040519384900301909220929150506401000000006200023c810262002d6d1704565b81600160a060020a03167fbfec83d64eaa953f2708271a023ab9ee82057f8f3578d548c1a4ba0b5b700489826040518080602001828103825283818151815260200191508051906020019080838360005b83811015620001fd578181015183820152602001620001e3565b50505050905090810190601f1680156200022b5780820380516001836020036101000a031916815260200191505b509250505060405180910390a25050565b600160a060020a0316600090815260209190915260409020805460ff19166001179055565b612f1180620002716000396000f3006080604052600436106102035763ffffffff7c010000000000000000000000000000000000000000000000000000000060003504166302e9d5e481146102085780630872ef6e146102255780630988ca8c1461023d5780630eaaf4c8146102a457806314d39bad146102bc57806318b919e9146102d4578063210d61011461035e578063217fe6c61461038a57806324953eaa146103f157806326aa594214610446578063286dd3f51461047c5780632d296bf11461049d5780633f4ba83a146104a8578063417fd6b6146104bd57806349751788146104d55780635c06d0e0146104fc5780635c3fec1e146105115780635c975abb146105295780636e3341b31461053e5780636e93dbdc14610556578063715018a61461058757806375c1631d1461059c5780637b9417c8146105b7578063811adfbe146105d85780638456cb59146105f05780638795dcff146106055780638a72ea6a146106595780638da5cb5b14610694578063953e474a146106a95780639841ee39146106ca5780639979ef45146106e25780639b19251a146106ed578063baea69441461070e578063bb435c8d14610726578063bbee17a31461073e578063bed659bc1461075f578063cdd78cfc14610777578063cfc307381461078c578063de74e57b146107cc578063e0758c9d14610805578063e2ec6ec31461081a578063f2fde38b1461086f575b600080fd5b34801561021457600080fd5b50610223600435602435610890565b005b34801561023157600080fd5b50610223600435610c15565b34801561024957600080fd5b5060408051602060046024803582810135601f8101859004850286018501909652858552610223958335600160a060020a0316953695604494919390910191908190840183828082843750949750610c909650505050505050565b3480156102b057600080fd5b50610223600435610cfe565b3480156102c857600080fd5b50610223600435610f0b565b3480156102e057600080fd5b506102e9610f7c565b6040805160208082528351818301528351919283929083019185019080838360005b8381101561032357818101518382015260200161030b565b50505050905090810190601f1680156103505780820380516001836020036101000a031916815260200191505b509250505060405180910390f35b34801561036a57600080fd5b50610376600435610fa1565b604080519115158252519081900360200190f35b34801561039657600080fd5b5060408051602060046024803582810135601f8101859004850286018501909652858552610376958335600160a060020a0316953695604494919390910191908190840183828082843750949750610fb69650505050505050565b3480156103fd57600080fd5b50604080516020600480358082013583810280860185019096528085526102239536959394602494938501929182918501908490808284375094975061102b9650505050505050565b34801561045257600080fd5b5061045e600435611078565b60408051938452602084019290925282820152519081900360600190f35b34801561048857600080fd5b50610223600160a060020a0360043516611132565b610223600435611179565b3480156104b457600080fd5b50610223611575565b3480156104c957600080fd5b506102236004356115d2565b3480156104e157600080fd5b506104ea61163c565b60408051918252519081900360200190f35b34801561050857600080fd5b506104ea611642565b34801561051d57600080fd5b50610223600435611648565b34801561053557600080fd5b506103766116c3565b34801561054a57600080fd5b506102236004356116cc565b34801561056257600080fd5b5061056b611907565b60408051600160a060020a039092168252519081900360200190f35b34801561059357600080fd5b50610223611916565b3480156105a857600080fd5b50610223600435602435611975565b3480156105c357600080fd5b50610223600160a060020a0360043516611ba8565b3480156105e457600080fd5b50610223600435611bec565b3480156105fc57600080fd5b50610223611c5b565b34801561061157600080fd5b5061061d600435611cba565b60408051600160a060020a0396871681526020810195909552929094168383015215156060830152911515608082015290519081900360a00190f35b34801561066557600080fd5b50610671600435611da1565b60408051600160a060020a03909316835260208301919091528051918290030190f35b3480156106a057600080fd5b5061056b611dc6565b3480156106b557600080fd5b50610223600160a060020a0360043516611dd5565b3480156106d657600080fd5b50610223600435611e86565b610223600435611ef7565b3480156106f957600080fd5b50610376600160a060020a03600435166122d2565b34801561071a57600080fd5b50610376600435612301565b34801561073257600080fd5b50610223600435612316565b34801561074a57600080fd5b50610223600160a060020a0360043516612394565b34801561076b57600080fd5b506102236004356123e5565b34801561078357600080fd5b506104ea612570565b34801561079857600080fd5b506107a4600435612576565b60408051938452600160a060020a039283166020850152911682820152519081900360600190f35b3480156107d857600080fd5b506107e460043561263c565b60408051928352600160a060020a0390911660208301528051918290030190f35b34801561081157600080fd5b5061056b61265e565b34801561082657600080fd5b50604080516020600480358082013583810280860185019096528085526102239536959394602494938501929182918501908490808284375094975061266d9650505050505050565b34801561087b57600080fd5b50610223600160a060020a03600435166126ba565b600254600090819081908190819060ff16156108ab57600080fd5b600254610100900460ff1615156108fa576040805160e560020a62461bcd02815260206004820152601f6024820152600080516020612ec6833981519152604482015290519081900360640190fd5b6002805461ff0019169055600480546040805160e160020a6331a9108f0281529283018a905251600160a060020a0390911691636352211e9160248083019260209291908290030181600087803b15801561095457600080fd5b505af1158015610968573d6000803e3d6000fd5b505050506040513d602081101561097e57600080fd5b50519450600160a060020a03851633146109e2576040805160e560020a62461bcd02815260206004820152600f60248201527f4e6f7420746f6b656e206f776e65720000000000000000000000000000000000604482015290519081900360640190fd5b60008781526008602052604081206001810154909550935083118015610a085750828610155b1515610a5e576040805160e560020a62461bcd02815260206004820152601a60248201527f4f6666657220616d6f756e74206e6f7420736174697366696564000000000000604482015290519081900360640190fd5b835460008881526008602090815260408083208054600160a060020a03191681556001018390556004805482517f824eec3b0000000000000000000000000000000000000000000000000000000081529182018d90529151600160a060020a039586169750949091169363824eec3b93602480840194938390030190829087803b158015610aeb57600080fd5b505af1158015610aff573d6000803e3d6000fd5b505050506040513d6020811015610b1557600080fd5b50519050610b248184876126da565b60048054604080517f42842e0e0000000000000000000000000000000000000000000000000000000081523393810193909352600160a060020a038581166024850152604484018b905290519116916342842e0e91606480830192600092919082900301818387803b158015610b9957600080fd5b505af1158015610bad573d6000803e3d6000fd5b5050505081600160a060020a031685600160a060020a0316887fe6d56779a392535d3a591e92b65ba36f2ecc424bbf5220d0176a7da29385b504866040518082815260200191505060405180910390a450506002805461ff0019166101001790555050505050565b33610c4381604080519081016040528060098152602001600080516020612ea6833981519152815250610c90565b610c4c8261282e565b6000828152600a6020526040808220805460ff1916905551339184917fdeb115d202a55795fb5e47cee9ce6c0bd792a016a2d1251f937b1bb24e92332e9190a35050565b610cfa826001836040518082805190602001908083835b60208310610cc65780518252601f199092019160209182019101610ca7565b51815160209384036101000a60001901801990921691161790529201948552506040519384900301909220929150506128c4565b5050565b60025460ff1615610d0e57600080fd5b600254610100900460ff161515610d5d576040805160e560020a62461bcd02815260206004820152601f6024820152600080516020612ec6833981519152604482015290519081900360640190fd5b6002805461ff001916905560048054604080517f4f558e79000000000000000000000000000000000000000000000000000000008152928301849052518392600160a060020a0390921691634f558e799160248083019260209291908290030181600087803b158015610dcf57600080fd5b505af1158015610de3573d6000803e3d6000fd5b505050506040513d6020811015610df957600080fd5b50511515610e51576040805160e560020a62461bcd02815260206004820152601460248201527f546f6b656e20646f6573206e6f74206578697374000000000000000000000000604482015290519081900360640190fd5b6000828152600860205260409020548290600160a060020a03163314610ec1576040805160e560020a62461bcd02815260206004820152600f60248201527f4e6f74206f66666572206d616b65720000000000000000000000000000000000604482015290519081900360640190fd5b610eca8361282e565b604051339084907f5e9c7ae3229b2cda5065d7058fcc05765c695c29ce05313fbe96cb2ca639231a90600090a350506002805461ff00191661010017905550565b33610f3981604080519081016040528060098152602001600080516020612ea6833981519152815250610c90565b600754604080519182526020820184905280517feacf709830352fe1a96d6837caea6476163d682a42a64eb621b34d9b901b50009281900390910190a150600755565b6040805180820190915260098152600080516020612ea6833981519152602082015281565b600a6020526000908152604090205460ff1681565b6000611022836001846040518082805190602001908083835b60208310610fee5780518252601f199092019160209182019101610fcf565b51815160209384036101000a60001901801990921691161790529201948552506040519384900301909220929150506128d9565b90505b92915050565b60008054600160a060020a0316331461104357600080fd5b5060005b8151811015610cfa57611070828281518110151561106157fe5b90602001906020020151611132565b600101611047565b6000806000611085612e8e565b50600084815260086020908152604080832081518083019092528054600160a060020a031682526001015491810182905260075490929081906110e0906110d4856103e863ffffffff6128f816565b9063ffffffff61290d16565b6006549092506110fc906110d4856103e863ffffffff6128f816565b90506111258161111984876020015161293690919063ffffffff16565b9063ffffffff61293616565b9891975095509350505050565b600054600160a060020a0316331461114957600080fd5b61117681604080519081016040528060098152602001600080516020612ea6833981519152815250612948565b50565b6000806000806000600260019054906101000a900460ff1615156111d5576040805160e560020a62461bcd02815260206004820152601f6024820152600080516020612ec6833981519152604482015290519081900360640190fd5b6002805461ff0019811690915560ff16156111ef57600080fd5b60008681526009602052604090206001810154909550600160a060020a03161515611264576040805160e560020a62461bcd02815260206004820152601060248201527f4e6f206c697374696e6720666f756e6400000000000000000000000000000000604482015290519081900360640190fd5b600480546040805160e160020a6331a9108f02815292830189905251600160a060020a0390911691636352211e9160248083019260209291908290030181600087803b1580156112b357600080fd5b505af11580156112c7573d6000803e3d6000fd5b505050506040513d60208110156112dd57600080fd5b50516001860154909450600160a060020a0380861691161461136f576040805160e560020a62461bcd02815260206004820152602a60248201527f4c697374696e67206e6f742076616c69642c20746f6b656e206f776e6572206860448201527f6173206368616e67656400000000000000000000000000000000000000000000606482015290519081900360840190fd5b845492503483146113ca576040805160e560020a62461bcd02815260206004820152601860248201527f4c697374207072696365206e6f74207361746973666965640000000000000000604482015290519081900360640190fd5b60048054604080517f824eec3b00000000000000000000000000000000000000000000000000000000815292830189905251600160a060020a039091169163824eec3b9160248083019260209291908290030181600087803b15801561142f57600080fd5b505af1158015611443573d6000803e3d6000fd5b505050506040513d602081101561145957600080fd5b5051600087815260086020526040902090925090506114778661282e565b6114828284866126da565b60048054604080517f42842e0e000000000000000000000000000000000000000000000000000000008152600160a060020a0388811694820194909452336024820152604481018a9052905192909116916342842e0e9160648082019260009290919082900301818387803b1580156114fa57600080fd5b505af115801561150e573d6000803e3d6000fd5b5050505061151b86612a59565b604080518481529051600160a060020a03861691339189917f704cf6cb1221490022185412a0f82fd80ca9ccf7b5f84482727d0f6924265bd8919081900360200190a450506002805461ff00191661010017905550505050565b600054600160a060020a0316331461158c57600080fd5b60025460ff16151561159d57600080fd5b6002805460ff191690556040517f7805862f689e2f13df9f062ff482ad3ad112aca9e0847911ed832e158c525b3390600090a1565b3361160081604080519081016040528060098152602001600080516020612ea6833981519152815250610c90565b60038290556040805183815290517f2bc4b9fa5449471c716310263f78104dee5bcb66018bcdb48fd1f61f5de81a1b9181900360200190a15050565b60035481565b60065481565b3361167681604080519081016040528060098152602001600080516020612ea6833981519152815250610c90565b61167f82612a59565b6000828152600b6020526040808220805460ff191660011790555183917ff50274e1c6256cf77899d9c47b15ab288f85c61c6582acb8ffc3af541eac10a391a25050565b60025460ff1681565b6002546000908190819060ff16156116e357600080fd5b600254610100900460ff161515611732576040805160e560020a62461bcd02815260206004820152601f6024820152600080516020612ec6833981519152604482015290519081900360640190fd5b6002805461ff0019169055600480546040805160e160020a6331a9108f02815292830187905251600160a060020a0390911691636352211e9160248083019260209291908290030181600087803b15801561178c57600080fd5b505af11580156117a0573d6000803e3d6000fd5b505050506040513d60208110156117b657600080fd5b50519250600160a060020a038316331461181a576040805160e560020a62461bcd02815260206004820152600f60248201527f4e6f7420746f6b656e206f776e65720000000000000000000000000000000000604482015290519081900360640190fd5b60008481526008602052604081206001015492508211611884576040805160e560020a62461bcd02815260206004820152600d60248201527f4e6f206f66666572206f70656e00000000000000000000000000000000000000604482015290519081900360640190fd5b50600083815260086020526040902054600160a060020a03166118a68461282e565b80600160a060020a031683600160a060020a0316857f6d699e170cc72516120ba19fe48e744504798d1afc2ffb65ff1154a6f4fa4d15856040518082815260200191505060405180910390a450506002805461ff0019166101001790555050565b600554600160a060020a031681565b600054600160a060020a0316331461192d57600080fd5b60008054604051600160a060020a03909116917ff8df31144d9c2f0f6b59d69b8b98abd5459d07f2742c4df920b25aae33c6482091a260008054600160a060020a0319169055565b60025460009060ff161561198857600080fd5b6000838152600b602052604090205460ff16156119ef576040805160e560020a62461bcd02815260206004820152601060248201527f4c697374696e672064697361626c656400000000000000000000000000000000604482015290519081900360640190fd5b600480546040805160e160020a6331a9108f02815292830186905251600160a060020a0390911691636352211e9160248083019260209291908290030181600087803b158015611a3e57600080fd5b505af1158015611a52573d6000803e3d6000fd5b505050506040513d6020811015611a6857600080fd5b50519050600160a060020a0381163314611acc576040805160e560020a62461bcd02815260206004820152600f60248201527f4e6f7420746f6b656e206f776e65720000000000000000000000000000000000604482015290519081900360640190fd5b600354821015611b26576040805160e560020a62461bcd02815260206004820152601860248201527f4c697374696e67207072696365206e6f7420656e6f7567680000000000000000604482015290519081900360640190fd5b604080518082018252838152336020808301828152600088815260098352859020935184555160019093018054600160a060020a031916600160a060020a039094169390931790925582518581529251909286927f7765a1c07bdce3390c521eaeb86030b188b77cbaba2d76bd7c9c32d906bfbcba92918290030190a3505050565b600054600160a060020a03163314611bbf57600080fd5b61117681604080519081016040528060098152602001600080516020612ea6833981519152815250612aa5565b33611c1a81604080519081016040528060098152602001600080516020612ea6833981519152815250610c90565b6000828152600b6020526040808220805460ff191690555183917f1e0a714b72e06f5169923cf6ffd0cd8a38954de64e275012265e0e5150d280cf91a25050565b600054600160a060020a03163314611c7257600080fd5b60025460ff1615611c8257600080fd5b6002805460ff191660011790556040517f6985a02210a168e66602d3235cb6db0e70f92b3ba4d376a33c0f3d9434bff62590600090a1565b6000806000806000611cca612e8e565b506000868152600860209081526040808320815180830183528154600160a060020a0390811680835260019093015482860181905260048054865160e160020a6331a9108f0281529182018f9052955193979496919590921693636352211e936024808501949192918390030190829087803b158015611d4957600080fd5b505af1158015611d5d573d6000803e3d6000fd5b505050506040513d6020811015611d7357600080fd5b50516000998a52600a602052604090992054600254929a9199985060ff908116159750909116945092505050565b60086020526000908152604090208054600190910154600160a060020a039091169082565b600054600160a060020a031681565b33611e0381604080519081016040528060098152602001600080516020612ea6833981519152815250610c90565b600160a060020a0382161515611e63576040805160e560020a62461bcd02815260206004820152600f60248201527f496e76616c696420616464726573730000000000000000000000000000000000604482015290519081900360640190fd5b5060058054600160a060020a031916600160a060020a0392909216919091179055565b33611eb481604080519081016040528060098152602001600080516020612ea6833981519152815250610c90565b600654604080519182526020820184905280517f3d843ef224be86afeee7f914f0fa9ddae84d6d9df67ca5edcb781900ee88bff49281900390910190a150600655565b60025460009060ff1615611f0a57600080fd5b600254610100900460ff161515611f59576040805160e560020a62461bcd02815260206004820152601f6024820152600080516020612ec6833981519152604482015290519081900360640190fd5b6002805461ff001916905560048054604080517f4f558e79000000000000000000000000000000000000000000000000000000008152928301859052518492600160a060020a0390921691634f558e799160248083019260209291908290030181600087803b158015611fcb57600080fd5b505af1158015611fdf573d6000803e3d6000fd5b505050506040513d6020811015611ff557600080fd5b5051151561204d576040805160e560020a62461bcd02815260206004820152601460248201527f546f6b656e20646f6573206e6f74206578697374000000000000000000000000604482015290519081900360640190fd5b6003546000848152600860205260409020600101548491612074919063ffffffff612b7716565b3410156120cb576040805160e560020a62461bcd02815260206004820152601060248201527f4f66666572206e6f7420656e6f75676800000000000000000000000000000000604482015290519081900360640190fd5b6000848152600a6020526040902054849060ff1615612134576040805160e560020a62461bcd02815260206004820152601c60248201527f546f6b656e206e6f7420656e61626c656420666f72206f666665727300000000604482015290519081900360640190fd5b61213d33612b84565b156121b8576040805160e560020a62461bcd02815260206004820152602360248201527f556e61626c6520746f20706c616365206120626964206173206120636f6e747260448201527f6163740000000000000000000000000000000000000000000000000000000000606482015290519081900360840190fd5b6121c18561282e565b60408051808201825233815234602080830191825260008981526008825284812093518454600160a060020a031916600160a060020a03918216178555925160019094019390935560048054855160e160020a6331a9108f0281529182018b905294519490921693636352211e936024808501948390030190829087803b15801561224b57600080fd5b505af115801561225f573d6000803e3d6000fd5b505050506040513d602081101561227557600080fd5b50516040805134815290519195503391600160a060020a0387169188917f3d87e1d02e187b9fe1095bc12567b7485b6cf54c47eea3dc9b5fd64d03cb67509181900360200190a450506002805461ff001916610100179055505050565b600061102582604080519081016040528060098152602001600080516020612ea6833981519152815250610fb6565b600b6020526000908152604090205460ff1681565b3361234481604080519081016040528060098152602001600080516020612ea6833981519152815250610c90565b61234d8261282e565b6000828152600a6020526040808220805460ff1916600117905551339184917fe0c56951f00a75f5139f9af608a2ae603fe7c340a8f4b4b3125e9a7018041b609190a35050565b336123c281604080519081016040528060098152602001600080516020612ea6833981519152815250610c90565b5060048054600160a060020a031916600160a060020a0392909216919091179055565b60025460ff16156123f557600080fd5b600081815260096020526040902060010154600160a060020a03161515612466576040805160e560020a62461bcd02815260206004820152601060248201527f4e6f206c697374696e6720666f756e6400000000000000000000000000000000604482015290519081900360640190fd5b600480546040805160e160020a6331a9108f028152928301849052513392600160a060020a0390921691636352211e9160248083019260209291908290030181600087803b1580156124b757600080fd5b505af11580156124cb573d6000803e3d6000fd5b505050506040513d60208110156124e157600080fd5b5051600160a060020a031614612567576040805160e560020a62461bcd02815260206004820152602160248201527f4f6e6c79207468652063757272656e74206f776e65722063616e2064656c697360448201527f7400000000000000000000000000000000000000000000000000000000000000606482015290519081900360840190fd5b61117681612a59565b60075481565b6000806000612583612e8e565b506000848152600960209081526040808320815180830183528154808252600190920154600160a060020a0390811682860181905260048054865160e160020a6331a9108f0281529182018d9052955193979496919590921693636352211e936024808501949192918390030190829087803b15801561260257600080fd5b505af1158015612616573d6000803e3d6000fd5b505050506040513d602081101561262c57600080fd5b5051919790965090945092505050565b60096020526000908152604090208054600190910154600160a060020a031682565b600454600160a060020a031681565b60008054600160a060020a0316331461268557600080fd5b5060005b8151811015610cfa576126b282828151811015156126a357fe5b90602001906020020151611ba8565b600101612689565b600054600160a060020a031633146126d157600080fd5b61117681612b8c565b60048054604080517f32fd84780000000000000000000000000000000000000000000000000000000081529283018690528051600093849384938493600160a060020a03909216926332fd8478926024808301939282900301818787803b15801561274457600080fd5b505af1158015612758573d6000803e3d6000fd5b505050506040513d604081101561276e57600080fd5b50805160209091015160048054604080517fde56a2450000000000000000000000000000000000000000000000000000000081529283018c90528051949850929650600160a060020a03169263de56a245926024808401939192918290030181600087803b1580156127df57600080fd5b505af11580156127f3573d6000803e3d6000fd5b505050506040513d604081101561280957600080fd5b5080516020909101519092509050612825848483858a8a612bfc565b50505050505050565b600081815260086020526040812054600160a060020a03169081156128bf5750600082815260086020526040812060010154908111156128bf576000838152600860205260408082208054600160a060020a031916815560010182905551600160a060020a0384169183156108fc02918491818181858888f193505050501580156128bd573d6000803e3d6000fd5b505b505050565b6128ce82826128d9565b1515610cfa57600080fd5b600160a060020a03166000908152602091909152604090205460ff1690565b6000818381151561290557fe5b049392505050565b600082151561291e57506000611025565b5081810281838281151561292e57fe5b041461102557fe5b60008282111561294257fe5b50900390565b6129b2826001836040518082805190602001908083835b6020831061297e5780518252601f19909201916020918201910161295f565b51815160209384036101000a6000190180199092169116179052920194855250604051938490030190922092915050612d4b565b81600160a060020a03167fd211483f91fc6eff862467f8de606587a30c8fc9981056f051b897a418df803a826040518080602001828103825283818151815260200191508051906020019080838360005b83811015612a1b578181015183820152602001612a03565b50505050905090810190601f168015612a485780820380516001836020036101000a031916815260200191505b509250505060405180910390a25050565b6000818152600960205260408082208281556001018054600160a060020a03191690555182917f6caa49919a8c0059b871ec5c8b81a13a285b53cd92216d310fcdcf9c893e5a4591a250565b612b0f826001836040518082805190602001908083835b60208310612adb5780518252601f199092019160209182019101612abc565b51815160209384036101000a6000190180199092169116179052920194855250604051938490030190922092915050612d6d565b81600160a060020a03167fbfec83d64eaa953f2708271a023ab9ee82057f8f3578d548c1a4ba0b5b7004898260405180806020018281038252838181518152602001915080519060200190808383600083811015612a1b578181015183820152602001612a03565b8181018281101561102557fe5b6000903b1190565b600160a060020a0381161515612ba157600080fd5b60008054604051600160a060020a03808516939216917f8be0079c531659141344cd1fd0a4f28419497f9722a3daafe3b4186f6b6457e091a360008054600160a060020a031916600160a060020a0392909216919091179055565b600080600080612c19600654600754612b7790919063ffffffff16565b9350612c41612c34856110d4896103e863ffffffff6128f816565b879063ffffffff61293616565b604051909350600160a060020a0386169084156108fc029085906000818181858888f19350505050158015612c7a573d6000803e3d6000fd5b50600754612c94906110d4886103e863ffffffff6128f816565b600554604051919350600160a060020a03169083156108fc029084906000818181858888f19350505050158015612ccf573d6000803e3d6000fd5b50612ce483611119888563ffffffff61293616565b9050600160a060020a0388161515612d3257604051600160a060020a038b169082156108fc029083906000818181858888f19350505050158015612d2c573d6000803e3d6000fd5b50612d3f565b612d3f8a8a8a8a85612d92565b50505050505050505050565b600160a060020a0316600090815260209190915260409020805460ff19169055565b600160a060020a0316600090815260209190915260409020805460ff19166001179055565b600080808080612da8898863ffffffff612b7716565b9450612dc289670de0b6b3a764000063ffffffff61290d16565b9350612dd4848663ffffffff6128f816565b9250612dfe670de0b6b3a7640000612df2888663ffffffff61290d16565b9063ffffffff6128f816565b604051909250600160a060020a038b169083156108fc029084906000818181858888f19350505050158015612e37573d6000803e3d6000fd5b50612e48868363ffffffff61293616565b604051909150600160a060020a0389169082156108fc029083906000818181858888f19350505050158015612e81573d6000803e3d6000fd5b5050505050505050505050565b604080518082019091526000808252602082015290560077686974656c69737400000000000000000000000000000000000000000000005265656e7472616e637947756172643a207265656e7472616e742063616c6c00a165627a7a72305820dc7bca7fc1bcc57fe46f1f5be14011e066bfac45dffb58a4a34d57e2296a6a610029",
  "source": "pragma solidity ^0.4.24;\n\nimport \"openzeppelin-solidity/contracts/lifecycle/Pausable.sol\";\nimport \"openzeppelin-solidity/contracts/access/Whitelist.sol\";\nimport \"openzeppelin-solidity/contracts/math/SafeMath.sol\";\nimport \"../ReentrancyGuard.sol\";\n\ninterface IKODAV2Methods {\n  function ownerOf(uint256 _tokenId) external view returns (address _owner);\n\n  function exists(uint256 _tokenId) external view returns (bool _exists);\n\n  function editionOfTokenId(uint256 _tokenId) external view returns (uint256 tokenId);\n\n  function artistCommission(uint256 _tokenId) external view returns (address _artistAccount, uint256 _artistCommission);\n\n  function editionOptionalCommission(uint256 _tokenId) external view returns (uint256 _rate, address _recipient);\n\n  function safeTransferFrom(address _from, address _to, uint256 _tokenId) external;\n}\n\n// Based on ITokenMarketplace.sol\ncontract TokenMarketplaceV2 is Whitelist, Pausable, ReentrancyGuard {\n  using SafeMath for uint256;\n\n  event UpdatePlatformPercentageFee(uint256 _oldPercentage, uint256 _newPercentage);\n  event UpdateRoyaltyPercentageFee(uint256 _oldPercentage, uint256 _newPercentage);\n  event UpdateMinBidAmount(uint256 minBidAmount);\n\n  event TokenListed(\n    uint256 indexed _tokenId,\n    address indexed _seller,\n    uint256 _price\n  );\n\n  event TokenDeListed(\n    uint256 indexed _tokenId\n  );\n\n  event TokenPurchased(\n    uint256 indexed _tokenId,\n    address indexed _buyer,\n    address indexed _seller,\n    uint256 _price\n  );\n\n  event BidPlaced(\n    uint256 indexed _tokenId,\n    address indexed _currentOwner,\n    address indexed _bidder,\n    uint256 _amount\n  );\n\n  event BidWithdrawn(\n    uint256 indexed _tokenId,\n    address indexed _bidder\n  );\n\n  event BidAccepted(\n    uint256 indexed _tokenId,\n    address indexed _currentOwner,\n    address indexed _bidder,\n    uint256 _amount\n  );\n\n  event BidRejected(\n    uint256 indexed _tokenId,\n    address indexed _currentOwner,\n    address indexed _bidder,\n    uint256 _amount\n  );\n\n  event AuctionEnabled(\n    uint256 indexed _tokenId,\n    address indexed _auctioneer\n  );\n\n  event AuctionDisabled(\n    uint256 indexed _tokenId,\n    address indexed _auctioneer\n  );\n\n  event ListingEnabled(\n    uint256 indexed _tokenId\n  );\n\n  event ListingDisabled(\n    uint256 indexed _tokenId\n  );\n\n  struct Offer {\n    address bidder;\n    uint256 offer;\n  }\n\n  struct Listing {\n    uint256 price;\n    address seller;\n  }\n\n  // Min increase in bid/list amount\n  uint256 public minBidAmount = 0.04 ether;\n\n  // Interface into the KODA world\n  IKODAV2Methods public kodaAddress;\n\n  // KO account which can receive commission\n  address public koCommissionAccount;\n\n  uint256 public artistRoyaltyPercentage = 100;\n  uint256 public platformFeePercentage = 25;\n\n  // Token ID to Offer mapping\n  mapping(uint256 => Offer) public offers;\n\n  // Token ID to Listing\n  mapping(uint256 => Listing) public listings;\n\n  // Explicitly disable sales for specific tokens\n  mapping(uint256 => bool) public disabledTokens;\n\n  // Explicitly disable listings for specific tokens\n  mapping(uint256 => bool) public disabledListings;\n\n  ///////////////\n  // Modifiers //\n  ///////////////\n\n  modifier onlyWhenOfferOwner(uint256 _tokenId) {\n    require(offers[_tokenId].bidder == msg.sender, \"Not offer maker\");\n    _;\n  }\n\n  modifier onlyWhenTokenExists(uint256 _tokenId) {\n    require(kodaAddress.exists(_tokenId), \"Token does not exist\");\n    _;\n  }\n\n  modifier onlyWhenBidOverMinAmount(uint256 _tokenId) {\n    require(msg.value >= offers[_tokenId].offer.add(minBidAmount), \"Offer not enough\");\n    _;\n  }\n\n  modifier onlyWhenTokenAuctionEnabled(uint256 _tokenId) {\n    require(!disabledTokens[_tokenId], \"Token not enabled for offers\");\n    _;\n  }\n\n  /////////////////\n  // Constructor //\n  /////////////////\n\n  // Set the caller as the default KO account\n  constructor(IKODAV2Methods _kodaAddress, address _koCommissionAccount) public {\n    kodaAddress = _kodaAddress;\n    koCommissionAccount = _koCommissionAccount;\n    super.addAddressToWhitelist(msg.sender);\n  }\n\n  //////////////////////////\n  // User Bidding Actions //\n  //////////////////////////\n\n  function placeBid(uint256 _tokenId)\n  public\n  payable\n  whenNotPaused\n  nonReentrant\n  onlyWhenTokenExists(_tokenId)\n  onlyWhenBidOverMinAmount(_tokenId)\n  onlyWhenTokenAuctionEnabled(_tokenId)\n  {\n    require(!isContract(msg.sender), \"Unable to place a bid as a contract\");\n    _refundHighestBidder(_tokenId);\n\n    offers[_tokenId] = Offer({bidder : msg.sender, offer : msg.value});\n\n    address currentOwner = kodaAddress.ownerOf(_tokenId);\n\n    emit BidPlaced(_tokenId, currentOwner, msg.sender, msg.value);\n  }\n\n  function withdrawBid(uint256 _tokenId)\n  public\n  whenNotPaused\n  nonReentrant\n  onlyWhenTokenExists(_tokenId)\n  onlyWhenOfferOwner(_tokenId)\n  {\n    _refundHighestBidder(_tokenId);\n\n    emit BidWithdrawn(_tokenId, msg.sender);\n  }\n\n  function rejectBid(uint256 _tokenId)\n  public\n  whenNotPaused\n  nonReentrant\n  {\n    address currentOwner = kodaAddress.ownerOf(_tokenId);\n    require(currentOwner == msg.sender, \"Not token owner\");\n\n    uint256 currentHighestBiddersAmount = offers[_tokenId].offer;\n    require(currentHighestBiddersAmount > 0, \"No offer open\");\n\n    address currentHighestBidder = offers[_tokenId].bidder;\n\n    _refundHighestBidder(_tokenId);\n\n    emit BidRejected(_tokenId, currentOwner, currentHighestBidder, currentHighestBiddersAmount);\n  }\n\n  function acceptBid(uint256 _tokenId, uint256 _acceptedAmount)\n  public\n  whenNotPaused\n  nonReentrant\n  {\n    address currentOwner = kodaAddress.ownerOf(_tokenId);\n    require(currentOwner == msg.sender, \"Not token owner\");\n\n    Offer storage offer = offers[_tokenId];\n\n    uint256 winningOffer = offer.offer;\n\n    // Check valid offer and offer not replaced whilst inflight\n    require(winningOffer > 0 && _acceptedAmount >= winningOffer, \"Offer amount not satisfied\");\n\n    address winningBidder = offer.bidder;\n\n    delete offers[_tokenId];\n\n    // Get edition no.\n    uint256 editionNumber = kodaAddress.editionOfTokenId(_tokenId);\n\n    _handleFunds(editionNumber, winningOffer, currentOwner);\n\n    kodaAddress.safeTransferFrom(msg.sender, winningBidder, _tokenId);\n\n    emit BidAccepted(_tokenId, currentOwner, winningBidder, winningOffer);\n  }\n\n  function _refundHighestBidder(uint256 _tokenId) internal {\n    // Get current highest bidder\n    address currentHighestBidder = offers[_tokenId].bidder;\n\n    if (currentHighestBidder != address(0)) {\n\n      // Get current highest bid amount\n      uint256 currentHighestBiddersAmount = offers[_tokenId].offer;\n\n      if (currentHighestBiddersAmount > 0) {\n\n        // Clear out highest bidder\n        delete offers[_tokenId];\n\n        // Refund it\n        currentHighestBidder.transfer(currentHighestBiddersAmount);\n      }\n    }\n  }\n\n  //////////////////////////\n  // User Listing Actions //\n  //////////////////////////\n\n  function listToken(uint256 _tokenId, uint256 _listingPrice)\n  public\n  whenNotPaused {\n    require(!disabledListings[_tokenId], \"Listing disabled\");\n\n    // Check ownership before listing\n    address tokenOwner = kodaAddress.ownerOf(_tokenId);\n    require(tokenOwner == msg.sender, \"Not token owner\");\n\n    // Check price over min bid\n    require(_listingPrice >= minBidAmount, \"Listing price not enough\");\n\n    // List the token\n    listings[_tokenId] = Listing({\n    price : _listingPrice,\n    seller : msg.sender\n    });\n\n    emit TokenListed(_tokenId, msg.sender, _listingPrice);\n  }\n\n  function delistToken(uint256 _tokenId)\n  public\n  whenNotPaused {\n\n    // check listing found\n    require(listings[_tokenId].seller != address(0), \"No listing found\");\n\n    // check owner is msg.sender\n    require(kodaAddress.ownerOf(_tokenId) == msg.sender, \"Only the current owner can delist\");\n\n    _delistToken(_tokenId);\n  }\n\n  function buyToken(uint256 _tokenId)\n  public\n  payable\n  nonReentrant\n  whenNotPaused {\n    Listing storage listing = listings[_tokenId];\n\n    // check token is listed\n    require(listing.seller != address(0), \"No listing found\");\n\n    // check current owner is the lister as it may have changed hands\n    address currentOwner = kodaAddress.ownerOf(_tokenId);\n    require(listing.seller == currentOwner, \"Listing not valid, token owner has changed\");\n\n    // check listing satisfied\n    uint256 listingPrice = listing.price;\n    require(msg.value == listingPrice, \"List price not satisfied\");\n\n    // Get edition no.\n    uint256 editionNumber = kodaAddress.editionOfTokenId(_tokenId);\n\n    // refund any open offers on it\n    Offer storage offer = offers[_tokenId];\n    _refundHighestBidder(_tokenId);\n\n    // split funds\n    _handleFunds(editionNumber, listingPrice, currentOwner);\n\n    // transfer token to buyer\n    kodaAddress.safeTransferFrom(currentOwner, msg.sender, _tokenId);\n\n    // de-list the token\n    _delistToken(_tokenId);\n\n    // Fire confirmation event\n    emit TokenPurchased(_tokenId, msg.sender, currentOwner, listingPrice);\n  }\n\n  function _delistToken(uint256 _tokenId) private {\n    delete listings[_tokenId];\n\n    emit TokenDeListed(_tokenId);\n  }\n\n  ////////////////////\n  // Funds handling //\n  ////////////////////\n\n  function _handleFunds(uint256 _editionNumber, uint256 _offer, address _currentOwner) internal {\n\n    // Get existing artist commission\n    (address artistAccount, uint256 artistCommissionRate) = kodaAddress.artistCommission(_editionNumber);\n\n    // Get existing optional commission\n    (uint256 optionalCommissionRate, address optionalCommissionRecipient) = kodaAddress.editionOptionalCommission(_editionNumber);\n\n    _splitFunds(artistAccount, artistCommissionRate, optionalCommissionRecipient, optionalCommissionRate, _offer, _currentOwner);\n  }\n\n  function _splitFunds(\n    address _artistAccount,\n    uint256 _artistCommissionRate,\n    address _optionalCommissionRecipient,\n    uint256 _optionalCommissionRate,\n    uint256 _offer,\n    address _currentOwner\n  ) internal {\n\n    // Work out total % of royalties to payout = creator royalties + KO commission\n    uint256 totalCommissionPercentageToPay = platformFeePercentage.add(artistRoyaltyPercentage);\n\n    // Send current owner majority share of the offer\n    uint256 totalToSendToOwner = _offer.sub(\n      _offer.div(1000).mul(totalCommissionPercentageToPay)\n    );\n    _currentOwner.transfer(totalToSendToOwner);\n\n    // Send % to KO\n    uint256 koCommission = _offer.div(1000).mul(platformFeePercentage);\n    koCommissionAccount.transfer(koCommission);\n\n    // Send to seller minus royalties and commission\n    uint256 remainingRoyalties = _offer.sub(koCommission).sub(totalToSendToOwner);\n\n    if (_optionalCommissionRecipient == address(0)) {\n      // After KO and Seller - send the rest to the original artist\n      _artistAccount.transfer(remainingRoyalties);\n    } else {\n      _handleOptionalSplits(_artistAccount, _artistCommissionRate, _optionalCommissionRecipient, _optionalCommissionRate, remainingRoyalties);\n    }\n  }\n\n  function _handleOptionalSplits(\n    address _artistAccount,\n    uint256 _artistCommissionRate,\n    address _optionalCommissionRecipient,\n    uint256 _optionalCommissionRate,\n    uint256 _remainingRoyalties\n  ) internal {\n    uint256 _totalCollaboratorsRate = _artistCommissionRate.add(_optionalCommissionRate);\n    uint256 _scaledUpCommission = _artistCommissionRate.mul(10 ** 18);\n\n    // work out % of royalties total to split e.g. 43 / 85 = 50.5882353%\n    uint256 primaryArtistPercentage = _scaledUpCommission.div(_totalCollaboratorsRate);\n\n    uint256 totalPrimaryRoyaltiesToArtist = _remainingRoyalties.mul(primaryArtistPercentage).div(10 ** 18);\n    _artistAccount.transfer(totalPrimaryRoyaltiesToArtist);\n\n    uint256 remainingRoyaltiesToCollaborator = _remainingRoyalties.sub(totalPrimaryRoyaltiesToArtist);\n    _optionalCommissionRecipient.transfer(remainingRoyaltiesToCollaborator);\n  }\n\n  ///////////////////\n  // Query Methods //\n  ///////////////////\n\n  function tokenOffer(uint256 _tokenId) external view returns (address _bidder, uint256 _offer, address _owner, bool _enabled, bool _paused) {\n    Offer memory offer = offers[_tokenId];\n    return (\n    offer.bidder,\n    offer.offer,\n    kodaAddress.ownerOf(_tokenId),\n    !disabledTokens[_tokenId],\n    paused\n    );\n  }\n\n  function determineSaleValues(uint256 _tokenId) external view returns (uint256 _sellerTotal, uint256 _platformFee, uint256 _royaltyFee) {\n    Offer memory offer = offers[_tokenId];\n    uint256 offerValue = offer.offer;\n    uint256 fee = offerValue.div(1000).mul(platformFeePercentage);\n    uint256 royalties = offerValue.div(1000).mul(artistRoyaltyPercentage);\n\n    return (\n    offer.offer.sub(fee).sub(royalties),\n    fee,\n    royalties\n    );\n  }\n\n  function tokenListingDetails(uint256 _tokenId) external view returns (uint256 _price, address _lister, address _currentOwner) {\n    Listing memory listing = listings[_tokenId];\n    return (\n    listing.price,\n    listing.seller,\n    kodaAddress.ownerOf(_tokenId)\n    );\n  }\n\n  function isContract(address account) internal view returns (bool) {\n    // This method relies in extcodesize, which returns 0 for contracts in\n    // construction, since the code is only stored at the end of the\n    // constructor execution.\n    uint256 size;\n    // solhint-disable-next-line no-inline-assembly\n    assembly {size := extcodesize(account)}\n    return size > 0;\n  }\n\n  ///////////////////\n  // Admin Actions //\n  ///////////////////\n\n  function disableAuction(uint256 _tokenId)\n  public\n  onlyIfWhitelisted(msg.sender)\n  {\n    _refundHighestBidder(_tokenId);\n\n    disabledTokens[_tokenId] = true;\n\n    emit AuctionDisabled(_tokenId, msg.sender);\n  }\n\n  function enableAuction(uint256 _tokenId)\n  public\n  onlyIfWhitelisted(msg.sender)\n  {\n    _refundHighestBidder(_tokenId);\n\n    disabledTokens[_tokenId] = false;\n\n    emit AuctionEnabled(_tokenId, msg.sender);\n  }\n\n  function disableListing(uint256 _tokenId)\n  public\n  onlyIfWhitelisted(msg.sender)\n  {\n    _delistToken(_tokenId);\n\n    disabledListings[_tokenId] = true;\n\n    emit ListingDisabled(_tokenId);\n  }\n\n  function enableListing(uint256 _tokenId)\n  public\n  onlyIfWhitelisted(msg.sender)\n  {\n    disabledListings[_tokenId] = false;\n\n    emit ListingEnabled(_tokenId);\n  }\n\n  function setMinBidAmount(uint256 _minBidAmount) onlyIfWhitelisted(msg.sender) public {\n    minBidAmount = _minBidAmount;\n    emit UpdateMinBidAmount(minBidAmount);\n  }\n\n  function setKodavV2(IKODAV2Methods _kodaAddress) onlyIfWhitelisted(msg.sender) public {\n    kodaAddress = _kodaAddress;\n  }\n\n  function setKoCommissionAccount(address _koCommissionAccount) public onlyIfWhitelisted(msg.sender) {\n    require(_koCommissionAccount != address(0), \"Invalid address\");\n    koCommissionAccount = _koCommissionAccount;\n  }\n\n  function setArtistRoyaltyPercentage(uint256 _artistRoyaltyPercentage) public onlyIfWhitelisted(msg.sender) {\n    emit UpdateRoyaltyPercentageFee(artistRoyaltyPercentage, _artistRoyaltyPercentage);\n    artistRoyaltyPercentage = _artistRoyaltyPercentage;\n  }\n\n  function setPlatformPercentage(uint256 _platformFeePercentage) public onlyIfWhitelisted(msg.sender) {\n    emit UpdatePlatformPercentageFee(platformFeePercentage, _platformFeePercentage);\n    platformFeePercentage = _platformFeePercentage;\n  }\n}\n",
  "sourcePath": "/Users/jamesmorgan/Dropbox/workspace-blockrocket/knownorigin/known-origin-contracts/contracts/v2/marketplace/TokenMarketplaceV2.sol",
  "compiler": {
    "name": "solc",
    "version": "0.4.24+commit.e67f0147.Emscripten.clang"
  },
  "schemaVersion": "3.1.0",
  "updatedAt": "2020-11-13T16:55:37.406Z",
  "networkType": "ethereum",
  "devdoc": {
    "methods": {
      "addAddressToWhitelist(address)": {
        "details": "add an address to the whitelist",
        "params": {
          "_operator": "address"
        },
        "return": "true if the address was added to the whitelist, false if the address was already in the whitelist"
      },
      "addAddressesToWhitelist(address[])": {
        "details": "add addresses to the whitelist",
        "params": {
          "_operators": "addresses"
        },
        "return": "true if at least one address was added to the whitelist, false if all addresses were already in the whitelist"
      },
      "checkRole(address,string)": {
        "details": "reverts if addr does not have role",
        "params": {
          "_operator": "address",
          "_role": "the name of the role // reverts"
        }
      },
      "hasRole(address,string)": {
        "details": "determine if addr has role",
        "params": {
          "_operator": "address",
          "_role": "the name of the role"
        },
        "return": "bool"
      },
      "pause()": {
        "details": "called by the owner to pause, triggers stopped state"
      },
      "removeAddressFromWhitelist(address)": {
        "details": "remove an address from the whitelist",
        "params": {
          "_operator": "address"
        },
        "return": "true if the address was removed from the whitelist, false if the address wasn't in the whitelist in the first place"
      },
      "removeAddressesFromWhitelist(address[])": {
        "details": "remove addresses from the whitelist",
        "params": {
          "_operators": "addresses"
        },
        "return": "true if at least one address was removed from the whitelist, false if all addresses weren't in the whitelist in the first place"
      },
      "renounceOwnership()": {
        "details": "Allows the current owner to relinquish control of the contract."
      },
      "transferOwnership(address)": {
        "details": "Allows the current owner to transfer control of the contract to a newOwner.",
        "params": {
          "_newOwner": "The address to transfer ownership to."
        }
      },
      "unpause()": {
        "details": "called by the owner to unpause, returns to normal state"
      },
      "whitelist(address)": {
        "details": "getter to determine if address is in whitelist"
      }
    }
  },
  "userdoc": {
    "methods": {
      "disableAuction(uint256)": {
        "notice": "////////////////"
      },
      "listToken(uint256,uint256)": {
        "notice": "///////////////////////"
      },
      "placeBid(uint256)": {
        "notice": "///////////////////////"
      },
      "renounceOwnership()": {
        "notice": "Renouncing to ownership will leave the contract without an owner. It will not be possible to call the functions with the `onlyOwner` modifier anymore."
      },
      "tokenOffer(uint256)": {
        "notice": "////////////////"
      }
    }
  }
}