{
  "contractName": "TokenMarketplaceV2",
  "abi": [
    {
      "constant": true,
      "inputs": [
        {
          "name": "_operator",
          "type": "address"
        },
        {
          "name": "_role",
          "type": "string"
        }
      ],
      "name": "checkRole",
      "outputs": [],
      "payable": false,
      "stateMutability": "view",
      "type": "function"
    },
    {
      "constant": true,
      "inputs": [],
      "name": "ROLE_WHITELISTED",
      "outputs": [
        {
          "name": "",
          "type": "string"
        }
      ],
      "payable": false,
      "stateMutability": "view",
      "type": "function"
    },
    {
      "constant": true,
      "inputs": [
        {
          "name": "_operator",
          "type": "address"
        },
        {
          "name": "_role",
          "type": "string"
        }
      ],
      "name": "hasRole",
      "outputs": [
        {
          "name": "",
          "type": "bool"
        }
      ],
      "payable": false,
      "stateMutability": "view",
      "type": "function"
    },
    {
      "constant": false,
      "inputs": [
        {
          "name": "_operators",
          "type": "address[]"
        }
      ],
      "name": "removeAddressesFromWhitelist",
      "outputs": [],
      "payable": false,
      "stateMutability": "nonpayable",
      "type": "function"
    },
    {
      "constant": false,
      "inputs": [
        {
          "name": "_operator",
          "type": "address"
        }
      ],
      "name": "removeAddressFromWhitelist",
      "outputs": [],
      "payable": false,
      "stateMutability": "nonpayable",
      "type": "function"
    },
    {
      "constant": false,
      "inputs": [],
      "name": "unpause",
      "outputs": [],
      "payable": false,
      "stateMutability": "nonpayable",
      "type": "function"
    },
    {
      "constant": true,
      "inputs": [],
      "name": "minBidAmount",
      "outputs": [
        {
          "name": "",
          "type": "uint256"
        }
      ],
      "payable": false,
      "stateMutability": "view",
      "type": "function"
    },
    {
      "constant": true,
      "inputs": [],
      "name": "artistRoyaltyPercentage",
      "outputs": [
        {
          "name": "",
          "type": "uint256"
        }
      ],
      "payable": false,
      "stateMutability": "view",
      "type": "function"
    },
    {
      "constant": true,
      "inputs": [],
      "name": "paused",
      "outputs": [
        {
          "name": "",
          "type": "bool"
        }
      ],
      "payable": false,
      "stateMutability": "view",
      "type": "function"
    },
    {
      "constant": true,
      "inputs": [],
      "name": "koCommissionAccount",
      "outputs": [
        {
          "name": "",
          "type": "address"
        }
      ],
      "payable": false,
      "stateMutability": "view",
      "type": "function"
    },
    {
      "constant": false,
      "inputs": [],
      "name": "renounceOwnership",
      "outputs": [],
      "payable": false,
      "stateMutability": "nonpayable",
      "type": "function"
    },
    {
      "constant": false,
      "inputs": [
        {
          "name": "_operator",
          "type": "address"
        }
      ],
      "name": "addAddressToWhitelist",
      "outputs": [],
      "payable": false,
      "stateMutability": "nonpayable",
      "type": "function"
    },
    {
      "constant": false,
      "inputs": [],
      "name": "pause",
      "outputs": [],
      "payable": false,
      "stateMutability": "nonpayable",
      "type": "function"
    },
    {
      "constant": true,
      "inputs": [],
      "name": "owner",
      "outputs": [
        {
          "name": "",
          "type": "address"
        }
      ],
      "payable": false,
      "stateMutability": "view",
      "type": "function"
    },
    {
      "constant": true,
      "inputs": [
        {
          "name": "_operator",
          "type": "address"
        }
      ],
      "name": "whitelist",
      "outputs": [
        {
          "name": "",
          "type": "bool"
        }
      ],
      "payable": false,
      "stateMutability": "view",
      "type": "function"
    },
    {
      "constant": true,
      "inputs": [],
      "name": "platformFeePercentage",
      "outputs": [
        {
          "name": "",
          "type": "uint256"
        }
      ],
      "payable": false,
      "stateMutability": "view",
      "type": "function"
    },
    {
      "constant": true,
      "inputs": [
        {
          "name": "",
          "type": "uint256"
        }
      ],
      "name": "listings",
      "outputs": [
        {
          "name": "price",
          "type": "uint256"
        },
        {
          "name": "seller",
          "type": "address"
        }
      ],
      "payable": false,
      "stateMutability": "view",
      "type": "function"
    },
    {
      "constant": true,
      "inputs": [],
      "name": "kodaAddress",
      "outputs": [
        {
          "name": "",
          "type": "address"
        }
      ],
      "payable": false,
      "stateMutability": "view",
      "type": "function"
    },
    {
      "constant": false,
      "inputs": [
        {
          "name": "_operators",
          "type": "address[]"
        }
      ],
      "name": "addAddressesToWhitelist",
      "outputs": [],
      "payable": false,
      "stateMutability": "nonpayable",
      "type": "function"
    },
    {
      "constant": false,
      "inputs": [
        {
          "name": "_newOwner",
          "type": "address"
        }
      ],
      "name": "transferOwnership",
      "outputs": [],
      "payable": false,
      "stateMutability": "nonpayable",
      "type": "function"
    },
    {
      "inputs": [
        {
          "name": "_kodaAddress",
          "type": "address"
        },
        {
          "name": "_koCommissionAccount",
          "type": "address"
        }
      ],
      "payable": false,
      "stateMutability": "nonpayable",
      "type": "constructor"
    },
    {
      "anonymous": false,
      "inputs": [
        {
          "indexed": false,
          "name": "_oldPercentage",
          "type": "uint256"
        },
        {
          "indexed": false,
          "name": "_newPercentage",
          "type": "uint256"
        }
      ],
      "name": "UpdatePlatformPercentageFee",
      "type": "event"
    },
    {
      "anonymous": false,
      "inputs": [
        {
          "indexed": false,
          "name": "_oldPercentage",
          "type": "uint256"
        },
        {
          "indexed": false,
          "name": "_newPercentage",
          "type": "uint256"
        }
      ],
      "name": "UpdateRoyaltyPercentageFee",
      "type": "event"
    },
    {
      "anonymous": false,
      "inputs": [
        {
          "indexed": false,
          "name": "minBidAmount",
          "type": "uint256"
        }
      ],
      "name": "UpdateMinBidAmount",
      "type": "event"
    },
    {
      "anonymous": false,
      "inputs": [
        {
          "indexed": true,
          "name": "_tokenId",
          "type": "uint256"
        },
        {
          "indexed": true,
          "name": "_seller",
          "type": "address"
        },
        {
          "indexed": false,
          "name": "_price",
          "type": "uint256"
        }
      ],
      "name": "TokenListed",
      "type": "event"
    },
    {
      "anonymous": false,
      "inputs": [
        {
          "indexed": true,
          "name": "_tokenId",
          "type": "uint256"
        }
      ],
      "name": "TokenDeListed",
      "type": "event"
    },
    {
      "anonymous": false,
      "inputs": [
        {
          "indexed": true,
          "name": "_tokenId",
          "type": "uint256"
        },
        {
          "indexed": true,
          "name": "_buyer",
          "type": "address"
        },
        {
          "indexed": true,
          "name": "_seller",
          "type": "address"
        },
        {
          "indexed": false,
          "name": "_price",
          "type": "uint256"
        }
      ],
      "name": "TokenPurchased",
      "type": "event"
    },
    {
      "anonymous": false,
      "inputs": [
        {
          "indexed": true,
          "name": "_tokenId",
          "type": "uint256"
        },
        {
          "indexed": true,
          "name": "_currentOwner",
          "type": "address"
        },
        {
          "indexed": true,
          "name": "_bidder",
          "type": "address"
        },
        {
          "indexed": false,
          "name": "_amount",
          "type": "uint256"
        }
      ],
      "name": "BidPlaced",
      "type": "event"
    },
    {
      "anonymous": false,
      "inputs": [
        {
          "indexed": true,
          "name": "_tokenId",
          "type": "uint256"
        },
        {
          "indexed": true,
          "name": "_bidder",
          "type": "address"
        }
      ],
      "name": "BidWithdrawn",
      "type": "event"
    },
    {
      "anonymous": false,
      "inputs": [
        {
          "indexed": true,
          "name": "_tokenId",
          "type": "uint256"
        },
        {
          "indexed": true,
          "name": "_currentOwner",
          "type": "address"
        },
        {
          "indexed": true,
          "name": "_bidder",
          "type": "address"
        },
        {
          "indexed": false,
          "name": "_amount",
          "type": "uint256"
        }
      ],
      "name": "BidAccepted",
      "type": "event"
    },
    {
      "anonymous": false,
      "inputs": [
        {
          "indexed": true,
          "name": "_tokenId",
          "type": "uint256"
        },
        {
          "indexed": true,
          "name": "_currentOwner",
          "type": "address"
        },
        {
          "indexed": true,
          "name": "_bidder",
          "type": "address"
        },
        {
          "indexed": false,
          "name": "_amount",
          "type": "uint256"
        }
      ],
      "name": "BidRejected",
      "type": "event"
    },
    {
      "anonymous": false,
      "inputs": [
        {
          "indexed": true,
          "name": "_tokenId",
          "type": "uint256"
        },
        {
          "indexed": true,
          "name": "_auctioneer",
          "type": "address"
        }
      ],
      "name": "AuctionEnabled",
      "type": "event"
    },
    {
      "anonymous": false,
      "inputs": [
        {
          "indexed": true,
          "name": "_tokenId",
          "type": "uint256"
        },
        {
          "indexed": true,
          "name": "_auctioneer",
          "type": "address"
        }
      ],
      "name": "AuctionDisabled",
      "type": "event"
    },
    {
      "anonymous": false,
      "inputs": [],
      "name": "Pause",
      "type": "event"
    },
    {
      "anonymous": false,
      "inputs": [],
      "name": "Unpause",
      "type": "event"
    },
    {
      "anonymous": false,
      "inputs": [
        {
          "indexed": true,
          "name": "operator",
          "type": "address"
        },
        {
          "indexed": false,
          "name": "role",
          "type": "string"
        }
      ],
      "name": "RoleAdded",
      "type": "event"
    },
    {
      "anonymous": false,
      "inputs": [
        {
          "indexed": true,
          "name": "operator",
          "type": "address"
        },
        {
          "indexed": false,
          "name": "role",
          "type": "string"
        }
      ],
      "name": "RoleRemoved",
      "type": "event"
    },
    {
      "anonymous": false,
      "inputs": [
        {
          "indexed": true,
          "name": "previousOwner",
          "type": "address"
        }
      ],
      "name": "OwnershipRenounced",
      "type": "event"
    },
    {
      "anonymous": false,
      "inputs": [
        {
          "indexed": true,
          "name": "previousOwner",
          "type": "address"
        },
        {
          "indexed": true,
          "name": "newOwner",
          "type": "address"
        }
      ],
      "name": "OwnershipTransferred",
      "type": "event"
    },
    {
      "constant": false,
      "inputs": [
        {
          "name": "_tokenId",
          "type": "uint256"
        }
      ],
      "name": "placeBid",
      "outputs": [],
      "payable": true,
      "stateMutability": "payable",
      "type": "function"
    },
    {
      "constant": false,
      "inputs": [
        {
          "name": "_tokenId",
          "type": "uint256"
        }
      ],
      "name": "withdrawBid",
      "outputs": [],
      "payable": false,
      "stateMutability": "nonpayable",
      "type": "function"
    },
    {
      "constant": false,
      "inputs": [
        {
          "name": "_tokenId",
          "type": "uint256"
        }
      ],
      "name": "rejectBid",
      "outputs": [],
      "payable": false,
      "stateMutability": "nonpayable",
      "type": "function"
    },
    {
      "constant": false,
      "inputs": [
        {
          "name": "_tokenId",
          "type": "uint256"
        },
        {
          "name": "_acceptedAmount",
          "type": "uint256"
        }
      ],
      "name": "acceptBid",
      "outputs": [],
      "payable": false,
      "stateMutability": "nonpayable",
      "type": "function"
    },
    {
      "constant": false,
      "inputs": [
        {
          "name": "_tokenId",
          "type": "uint256"
        },
        {
          "name": "_listingPrice",
          "type": "uint256"
        }
      ],
      "name": "listToken",
      "outputs": [],
      "payable": false,
      "stateMutability": "nonpayable",
      "type": "function"
    },
    {
      "constant": false,
      "inputs": [
        {
          "name": "_tokenId",
          "type": "uint256"
        }
      ],
      "name": "delistToken",
      "outputs": [],
      "payable": false,
      "stateMutability": "nonpayable",
      "type": "function"
    },
    {
      "constant": false,
      "inputs": [
        {
          "name": "_tokenId",
          "type": "uint256"
        }
      ],
      "name": "buyToken",
      "outputs": [],
      "payable": true,
      "stateMutability": "payable",
      "type": "function"
    },
    {
      "constant": true,
      "inputs": [
        {
          "name": "_tokenId",
          "type": "uint256"
        }
      ],
      "name": "tokenOffer",
      "outputs": [
        {
          "name": "_bidder",
          "type": "address"
        },
        {
          "name": "_offer",
          "type": "uint256"
        },
        {
          "name": "_owner",
          "type": "address"
        },
        {
          "name": "_enabled",
          "type": "bool"
        },
        {
          "name": "_paused",
          "type": "bool"
        }
      ],
      "payable": false,
      "stateMutability": "view",
      "type": "function"
    },
    {
      "constant": true,
      "inputs": [
        {
          "name": "_tokenId",
          "type": "uint256"
        }
      ],
      "name": "determineSaleValues",
      "outputs": [
        {
          "name": "_sellerTotal",
          "type": "uint256"
        },
        {
          "name": "_platformFee",
          "type": "uint256"
        },
        {
          "name": "_royaltyFee",
          "type": "uint256"
        }
      ],
      "payable": false,
      "stateMutability": "view",
      "type": "function"
    },
    {
      "constant": true,
      "inputs": [
        {
          "name": "_tokenId",
          "type": "uint256"
        }
      ],
      "name": "tokenListingDetails",
      "outputs": [
        {
          "name": "_price",
          "type": "uint256"
        },
        {
          "name": "_lister",
          "type": "address"
        },
        {
          "name": "_currentOwner",
          "type": "address"
        }
      ],
      "payable": false,
      "stateMutability": "view",
      "type": "function"
    },
    {
      "constant": false,
      "inputs": [
        {
          "name": "_tokenId",
          "type": "uint256"
        }
      ],
      "name": "disableAuction",
      "outputs": [],
      "payable": false,
      "stateMutability": "nonpayable",
      "type": "function"
    },
    {
      "constant": false,
      "inputs": [
        {
          "name": "_tokenId",
          "type": "uint256"
        }
      ],
      "name": "enableAuction",
      "outputs": [],
      "payable": false,
      "stateMutability": "nonpayable",
      "type": "function"
    },
    {
      "constant": false,
      "inputs": [
        {
          "name": "_minBidAmount",
          "type": "uint256"
        }
      ],
      "name": "setMinBidAmount",
      "outputs": [],
      "payable": false,
      "stateMutability": "nonpayable",
      "type": "function"
    },
    {
      "constant": false,
      "inputs": [
        {
          "name": "_kodaAddress",
          "type": "address"
        }
      ],
      "name": "setKodavV2",
      "outputs": [],
      "payable": false,
      "stateMutability": "nonpayable",
      "type": "function"
    },
    {
      "constant": false,
      "inputs": [
        {
          "name": "_koCommissionAccount",
          "type": "address"
        }
      ],
      "name": "setKoCommissionAccount",
      "outputs": [],
      "payable": false,
      "stateMutability": "nonpayable",
      "type": "function"
    },
    {
      "constant": false,
      "inputs": [
        {
          "name": "_artistRoyaltyPercentage",
          "type": "uint256"
        }
      ],
      "name": "setArtistRoyaltyPercentage",
      "outputs": [],
      "payable": false,
      "stateMutability": "nonpayable",
      "type": "function"
    },
    {
      "constant": false,
      "inputs": [
        {
          "name": "_platformFeePercentage",
          "type": "uint256"
        }
      ],
      "name": "setPlatformPercentage",
      "outputs": [],
      "payable": false,
      "stateMutability": "nonpayable",
      "type": "function"
    }
  ],
  "bytecode": "0x60806040526002805461ffff1916610100179055668e1bc9bf040000600355606460065560196007553480156200003557600080fd5b5060405160408062002f628339810160405280516020909101516000805433600160a060020a03199182168117909255600480548216600160a060020a038087169190911790915560058054909216908416179055620000a390640100000000620000ab810262001a2c1704565b505062000261565b600054600160a060020a03163314620000c357600080fd5b62000113816040805190810160405280600981526020017f77686974656c697374000000000000000000000000000000000000000000000081525062000116640100000000026401000000009004565b50565b62000192826001836040518082805190602001908083835b602083106200014f5780518252601f1990920191602091820191016200012e565b51815160209384036101000a60001901801990921691161790529201948552506040519384900301909220929150506401000000006200023c810262002b4d1704565b81600160a060020a03167fbfec83d64eaa953f2708271a023ab9ee82057f8f3578d548c1a4ba0b5b700489826040518080602001828103825283818151815260200191508051906020019080838360005b83811015620001fd578181015183820152602001620001e3565b50505050905090810190601f1680156200022b5780820380516001836020036101000a031916815260200191505b509250505060405180910390a25050565b600160a060020a0316600090815260209190915260409020805460ff19166001179055565b612cf180620002716000396000f3006080604052600436106101cc5763ffffffff7c010000000000000000000000000000000000000000000000000000000060003504166302e9d5e481146101d15780630872ef6e146101ee5780630988ca8c146102065780630eaaf4c81461026d57806314d39bad1461028557806318b919e91461029d578063217fe6c61461032757806324953eaa146103a257806326aa5942146103f7578063286dd3f51461042d5780632d296bf11461044e5780633f4ba83a14610459578063417fd6b61461046e57806349751788146104865780635c06d0e0146104ad5780635c975abb146104c25780636e3341b3146104d75780636e93dbdc146104ef578063715018a61461052057806375c1631d146105355780637b9417c8146105505780638456cb59146105715780638795dcff146105865780638da5cb5b146105da578063953e474a146105ef5780639841ee39146106105780639979ef45146106285780639b19251a14610633578063bb435c8d14610654578063bbee17a31461066c578063bed659bc1461068d578063cdd78cfc146106a5578063cfc30738146106ba578063de74e57b146106fa578063e0758c9d14610733578063e2ec6ec314610748578063f2fde38b1461079d575b600080fd5b3480156101dd57600080fd5b506101ec6004356024356107be565b005b3480156101fa57600080fd5b506101ec600435610b47565b34801561021257600080fd5b5060408051602060046024803582810135601f81018590048502860185019096528585526101ec958335600160a060020a0316953695604494919390910191908190840183828082843750949750610bc29650505050505050565b34801561027957600080fd5b506101ec600435610c30565b34801561029157600080fd5b506101ec600435610e3d565b3480156102a957600080fd5b506102b2610eae565b6040805160208082528351818301528351919283929083019185019080838360005b838110156102ec5781810151838201526020016102d4565b50505050905090810190601f1680156103195780820380516001836020036101000a031916815260200191505b509250505060405180910390f35b34801561033357600080fd5b5060408051602060046024803582810135601f810185900485028601850190965285855261038e958335600160a060020a0316953695604494919390910191908190840183828082843750949750610ed39650505050505050565b604080519115158252519081900360200190f35b3480156103ae57600080fd5b50604080516020600480358082013583810280860185019096528085526101ec95369593946024949385019291829185019084908082843750949750610f489650505050505050565b34801561040357600080fd5b5061040f600435610f95565b60408051938452602084019290925282820152519081900360600190f35b34801561043957600080fd5b506101ec600160a060020a036004351661104f565b6101ec600435611096565b34801561046557600080fd5b506101ec6114db565b34801561047a57600080fd5b506101ec600435611538565b34801561049257600080fd5b5061049b6115a2565b60408051918252519081900360200190f35b3480156104b957600080fd5b5061049b6115a8565b3480156104ce57600080fd5b5061038e6115ae565b3480156104e357600080fd5b506101ec6004356115b7565b3480156104fb57600080fd5b506105046117f2565b60408051600160a060020a039092168252519081900360200190f35b34801561052c57600080fd5b506101ec611801565b34801561054157600080fd5b506101ec600435602435611860565b34801561055c57600080fd5b506101ec600160a060020a0360043516611a2c565b34801561057d57600080fd5b506101ec611a70565b34801561059257600080fd5b5061059e600435611acf565b60408051600160a060020a0396871681526020810195909552929094168383015215156060830152911515608082015290519081900360a00190f35b3480156105e657600080fd5b50610504611bb6565b3480156105fb57600080fd5b506101ec600160a060020a0360043516611bc5565b34801561061c57600080fd5b506101ec600435611c76565b6101ec600435611ce7565b34801561063f57600080fd5b5061038e600160a060020a03600435166120c2565b34801561066057600080fd5b506101ec6004356120f1565b34801561067857600080fd5b506101ec600160a060020a0360043516612178565b34801561069957600080fd5b506101ec6004356121c9565b3480156106b157600080fd5b5061049b612354565b3480156106c657600080fd5b506106d260043561235a565b60408051938452600160a060020a039283166020850152911682820152519081900360600190f35b34801561070657600080fd5b50610712600435612420565b60408051928352600160a060020a0390911660208301528051918290030190f35b34801561073f57600080fd5b50610504612442565b34801561075457600080fd5b50604080516020600480358082013583810280860185019096528085526101ec953695939460249493850192918291850190849080828437509497506124519650505050505050565b3480156107a957600080fd5b506101ec600160a060020a036004351661249e565b600254600090819081908190819060ff16156107d957600080fd5b600254610100900460ff161515610828576040805160e560020a62461bcd02815260206004820152601f6024820152600080516020612ca6833981519152604482015290519081900360640190fd5b6002805461ff0019169055600480546040805160e160020a6331a9108f0281529283018a905251600160a060020a0390911691636352211e9160248083019260209291908290030181600087803b15801561088257600080fd5b505af1158015610896573d6000803e3d6000fd5b505050506040513d60208110156108ac57600080fd5b50519450600160a060020a0385163314610910576040805160e560020a62461bcd02815260206004820152600f60248201527f4e6f7420746f6b656e206f776e65720000000000000000000000000000000000604482015290519081900360640190fd5b600087815260086020526040812060018101549095509350831180156109365750858310155b151561098c576040805160e560020a62461bcd02815260206004820152601a60248201527f4f6666657220616d6f756e74206e6f7420736174697366696564000000000000604482015290519081900360640190fd5b60008781526008602090815260408083208054600160a060020a03198116825560019091018490556004805483517f824eec3b0000000000000000000000000000000000000000000000000000000081529182018d90529251600160a060020a039283169750919092169363824eec3b93602480850194919392918390030190829087803b158015610a1d57600080fd5b505af1158015610a31573d6000803e3d6000fd5b505050506040513d6020811015610a4757600080fd5b50519050610a568184876124be565b60048054604080517f42842e0e0000000000000000000000000000000000000000000000000000000081523393810193909352600160a060020a038581166024850152604484018b905290519116916342842e0e91606480830192600092919082900301818387803b158015610acb57600080fd5b505af1158015610adf573d6000803e3d6000fd5b5050505081600160a060020a031685600160a060020a0316887fe6d56779a392535d3a591e92b65ba36f2ecc424bbf5220d0176a7da29385b504866040518082815260200191505060405180910390a450506002805461ff0019166101001790555050505050565b33610b7581604080519081016040528060098152602001600080516020612c86833981519152815250610bc2565b610b7e82612612565b6000828152600a6020526040808220805460ff1916905551339184917fdeb115d202a55795fb5e47cee9ce6c0bd792a016a2d1251f937b1bb24e92332e9190a35050565b610c2c826001836040518082805190602001908083835b60208310610bf85780518252601f199092019160209182019101610bd9565b51815160209384036101000a60001901801990921691161790529201948552506040519384900301909220929150506126a4565b5050565b60025460ff1615610c4057600080fd5b600254610100900460ff161515610c8f576040805160e560020a62461bcd02815260206004820152601f6024820152600080516020612ca6833981519152604482015290519081900360640190fd5b6002805461ff001916905560048054604080517f4f558e79000000000000000000000000000000000000000000000000000000008152928301849052518392600160a060020a0390921691634f558e799160248083019260209291908290030181600087803b158015610d0157600080fd5b505af1158015610d15573d6000803e3d6000fd5b505050506040513d6020811015610d2b57600080fd5b50511515610d83576040805160e560020a62461bcd02815260206004820152601460248201527f546f6b656e20646f6573206e6f74206578697374000000000000000000000000604482015290519081900360640190fd5b6000828152600860205260409020548290600160a060020a03163314610df3576040805160e560020a62461bcd02815260206004820152600f60248201527f4e6f74206f66666572206d616b65720000000000000000000000000000000000604482015290519081900360640190fd5b610dfc83612612565b604051339084907f5e9c7ae3229b2cda5065d7058fcc05765c695c29ce05313fbe96cb2ca639231a90600090a350506002805461ff00191661010017905550565b33610e6b81604080519081016040528060098152602001600080516020612c86833981519152815250610bc2565b600754604080519182526020820184905280517feacf709830352fe1a96d6837caea6476163d682a42a64eb621b34d9b901b50009281900390910190a150600755565b6040805180820190915260098152600080516020612c86833981519152602082015281565b6000610f3f836001846040518082805190602001908083835b60208310610f0b5780518252601f199092019160209182019101610eec565b51815160209384036101000a60001901801990921691161790529201948552506040519384900301909220929150506126b9565b90505b92915050565b60008054600160a060020a03163314610f6057600080fd5b5060005b8151811015610c2c57610f8d8282815181101515610f7e57fe5b9060200190602002015161104f565b600101610f64565b6000806000610fa2612c6e565b50600084815260086020908152604080832081518083019092528054600160a060020a03168252600101549181018290526007549092908190610ffd90610ff1856103e863ffffffff6126d816565b9063ffffffff6126ed16565b60065490925061101990610ff1856103e863ffffffff6126d816565b90506110428161103684876020015161271690919063ffffffff16565b9063ffffffff61271616565b9891975095509350505050565b600054600160a060020a0316331461106657600080fd5b61109381604080519081016040528060098152602001600080516020612c86833981519152815250612728565b50565b61109e612c6e565b60008060006110ab612c6e565b600254610100900460ff1615156110fa576040805160e560020a62461bcd02815260206004820152601f6024820152600080516020612ca6833981519152604482015290519081900360640190fd5b6002805461ff0019811690915560ff161561111457600080fd5b60008681526009602090815260409182902082518084019093528054835260010154600160a060020a0316908201819052909550151561119e576040805160e560020a62461bcd02815260206004820152601060248201527f4e6f206c697374696e6720666f756e6400000000000000000000000000000000604482015290519081900360640190fd5b600480546040805160e160020a6331a9108f02815292830189905251600160a060020a0390911691636352211e9160248083019260209291908290030181600087803b1580156111ed57600080fd5b505af1158015611201573d6000803e3d6000fd5b505050506040513d602081101561121757600080fd5b50516020860151909450600160a060020a038086169116146112a9576040805160e560020a62461bcd02815260206004820152602a60248201527f4c697374696e67206e6f742076616c69642c20746f6b656e206f776e6572206860448201527f6173206368616e67656400000000000000000000000000000000000000000000606482015290519081900360840190fd5b84519250348314611304576040805160e560020a62461bcd02815260206004820152601860248201527f4c697374207072696365206e6f74207361746973666965640000000000000000604482015290519081900360640190fd5b60048054604080517f824eec3b00000000000000000000000000000000000000000000000000000000815292830189905251600160a060020a039091169163824eec3b9160248083019260209291908290030181600087803b15801561136957600080fd5b505af115801561137d573d6000803e3d6000fd5b505050506040513d602081101561139357600080fd5b505160008781526008602090815260409182902082518084019093528054600160a060020a0316808452600190910154918301919091529193509150156113dd576113dd86612612565b6113e88284866124be565b60048054604080517f42842e0e000000000000000000000000000000000000000000000000000000008152600160a060020a0388811694820194909452336024820152604481018a9052905192909116916342842e0e9160648082019260009290919082900301818387803b15801561146057600080fd5b505af1158015611474573d6000803e3d6000fd5b5050505061148186612839565b604080518481529051600160a060020a03861691339189917f704cf6cb1221490022185412a0f82fd80ca9ccf7b5f84482727d0f6924265bd8919081900360200190a450506002805461ff00191661010017905550505050565b600054600160a060020a031633146114f257600080fd5b60025460ff16151561150357600080fd5b6002805460ff191690556040517f7805862f689e2f13df9f062ff482ad3ad112aca9e0847911ed832e158c525b3390600090a1565b3361156681604080519081016040528060098152602001600080516020612c86833981519152815250610bc2565b60038290556040805183815290517f2bc4b9fa5449471c716310263f78104dee5bcb66018bcdb48fd1f61f5de81a1b9181900360200190a15050565b60035481565b60065481565b60025460ff1681565b6002546000908190819060ff16156115ce57600080fd5b600254610100900460ff16151561161d576040805160e560020a62461bcd02815260206004820152601f6024820152600080516020612ca6833981519152604482015290519081900360640190fd5b6002805461ff0019169055600480546040805160e160020a6331a9108f02815292830187905251600160a060020a0390911691636352211e9160248083019260209291908290030181600087803b15801561167757600080fd5b505af115801561168b573d6000803e3d6000fd5b505050506040513d60208110156116a157600080fd5b50519250600160a060020a0383163314611705576040805160e560020a62461bcd02815260206004820152600f60248201527f4e6f7420746f6b656e206f776e65720000000000000000000000000000000000604482015290519081900360640190fd5b6000848152600860205260408120600101549250821161176f576040805160e560020a62461bcd02815260206004820152600d60248201527f4e6f206f66666572206f70656e00000000000000000000000000000000000000604482015290519081900360640190fd5b50600083815260086020526040902054600160a060020a031661179184612612565b80600160a060020a031683600160a060020a0316857f6d699e170cc72516120ba19fe48e744504798d1afc2ffb65ff1154a6f4fa4d15856040518082815260200191505060405180910390a450506002805461ff0019166101001790555050565b600554600160a060020a031681565b600054600160a060020a0316331461181857600080fd5b60008054604051600160a060020a03909116917ff8df31144d9c2f0f6b59d69b8b98abd5459d07f2742c4df920b25aae33c6482091a260008054600160a060020a0319169055565b60025460009060ff161561187357600080fd5b600480546040805160e160020a6331a9108f02815292830186905251600160a060020a0390911691636352211e9160248083019260209291908290030181600087803b1580156118c257600080fd5b505af11580156118d6573d6000803e3d6000fd5b505050506040513d60208110156118ec57600080fd5b50519050600160a060020a0381163314611950576040805160e560020a62461bcd02815260206004820152600f60248201527f4e6f7420746f6b656e206f776e65720000000000000000000000000000000000604482015290519081900360640190fd5b6003548210156119aa576040805160e560020a62461bcd02815260206004820152601860248201527f4c697374696e67207072696365206e6f7420656e6f7567680000000000000000604482015290519081900360640190fd5b604080518082018252838152336020808301828152600088815260098352859020935184555160019093018054600160a060020a031916600160a060020a039094169390931790925582518581529251909286927f7765a1c07bdce3390c521eaeb86030b188b77cbaba2d76bd7c9c32d906bfbcba92918290030190a3505050565b600054600160a060020a03163314611a4357600080fd5b61109381604080519081016040528060098152602001600080516020612c86833981519152815250612885565b600054600160a060020a03163314611a8757600080fd5b60025460ff1615611a9757600080fd5b6002805460ff191660011790556040517f6985a02210a168e66602d3235cb6db0e70f92b3ba4d376a33c0f3d9434bff62590600090a1565b6000806000806000611adf612c6e565b506000868152600860209081526040808320815180830183528154600160a060020a0390811680835260019093015482860181905260048054865160e160020a6331a9108f0281529182018f9052955193979496919590921693636352211e936024808501949192918390030190829087803b158015611b5e57600080fd5b505af1158015611b72573d6000803e3d6000fd5b505050506040513d6020811015611b8857600080fd5b50516000998a52600a602052604090992054600254929a9199985060ff908116159750909116945092505050565b600054600160a060020a031681565b33611bf381604080519081016040528060098152602001600080516020612c86833981519152815250610bc2565b600160a060020a0382161515611c53576040805160e560020a62461bcd02815260206004820152600f60248201527f496e76616c696420616464726573730000000000000000000000000000000000604482015290519081900360640190fd5b5060058054600160a060020a031916600160a060020a0392909216919091179055565b33611ca481604080519081016040528060098152602001600080516020612c86833981519152815250610bc2565b600654604080519182526020820184905280517f3d843ef224be86afeee7f914f0fa9ddae84d6d9df67ca5edcb781900ee88bff49281900390910190a150600655565b60025460009060ff1615611cfa57600080fd5b600254610100900460ff161515611d49576040805160e560020a62461bcd02815260206004820152601f6024820152600080516020612ca6833981519152604482015290519081900360640190fd5b6002805461ff001916905560048054604080517f4f558e79000000000000000000000000000000000000000000000000000000008152928301859052518492600160a060020a0390921691634f558e799160248083019260209291908290030181600087803b158015611dbb57600080fd5b505af1158015611dcf573d6000803e3d6000fd5b505050506040513d6020811015611de557600080fd5b50511515611e3d576040805160e560020a62461bcd02815260206004820152601460248201527f546f6b656e20646f6573206e6f74206578697374000000000000000000000000604482015290519081900360640190fd5b6003546000848152600860205260409020600101548491611e64919063ffffffff61295716565b341015611ebb576040805160e560020a62461bcd02815260206004820152601060248201527f4f66666572206e6f7420656e6f75676800000000000000000000000000000000604482015290519081900360640190fd5b6000848152600a6020526040902054849060ff1615611f24576040805160e560020a62461bcd02815260206004820152601c60248201527f546f6b656e206e6f7420656e61626c656420666f72206f666665727300000000604482015290519081900360640190fd5b611f2d33612964565b15611fa8576040805160e560020a62461bcd02815260206004820152602360248201527f556e61626c6520746f20706c616365206120626964206173206120636f6e747260448201527f6163740000000000000000000000000000000000000000000000000000000000606482015290519081900360840190fd5b611fb185612612565b60408051808201825233815234602080830191825260008981526008825284812093518454600160a060020a031916600160a060020a03918216178555925160019094019390935560048054855160e160020a6331a9108f0281529182018b905294519490921693636352211e936024808501948390030190829087803b15801561203b57600080fd5b505af115801561204f573d6000803e3d6000fd5b505050506040513d602081101561206557600080fd5b50516040805134815290519195503391600160a060020a0387169188917f3d87e1d02e187b9fe1095bc12567b7485b6cf54c47eea3dc9b5fd64d03cb67509181900360200190a450506002805461ff001916610100179055505050565b6000610f4282604080519081016040528060098152602001600080516020612c86833981519152815250610ed3565b3361211f81604080519081016040528060098152602001600080516020612c86833981519152815250610bc2565b61212882612612565b61213182612839565b6000828152600a6020526040808220805460ff1916600117905551339184917fe0c56951f00a75f5139f9af608a2ae603fe7c340a8f4b4b3125e9a7018041b609190a35050565b336121a681604080519081016040528060098152602001600080516020612c86833981519152815250610bc2565b5060048054600160a060020a031916600160a060020a0392909216919091179055565b60025460ff16156121d957600080fd5b600081815260096020526040902060010154600160a060020a0316151561224a576040805160e560020a62461bcd02815260206004820152601060248201527f4e6f206c697374696e6720666f756e6400000000000000000000000000000000604482015290519081900360640190fd5b600480546040805160e160020a6331a9108f028152928301849052513392600160a060020a0390921691636352211e9160248083019260209291908290030181600087803b15801561229b57600080fd5b505af11580156122af573d6000803e3d6000fd5b505050506040513d60208110156122c557600080fd5b5051600160a060020a03161461234b576040805160e560020a62461bcd02815260206004820152602160248201527f4f6e6c79207468652063757272656e74206f776e65722063616e2064656c697360448201527f7400000000000000000000000000000000000000000000000000000000000000606482015290519081900360840190fd5b61109381612839565b60075481565b6000806000612367612c6e565b506000848152600960209081526040808320815180830183528154808252600190920154600160a060020a0390811682860181905260048054865160e160020a6331a9108f0281529182018d9052955193979496919590921693636352211e936024808501949192918390030190829087803b1580156123e657600080fd5b505af11580156123fa573d6000803e3d6000fd5b505050506040513d602081101561241057600080fd5b5051919790965090945092505050565b60096020526000908152604090208054600190910154600160a060020a031682565b600454600160a060020a031681565b60008054600160a060020a0316331461246957600080fd5b5060005b8151811015610c2c57612496828281518110151561248757fe5b90602001906020020151611a2c565b60010161246d565b600054600160a060020a031633146124b557600080fd5b6110938161296c565b60048054604080517f32fd84780000000000000000000000000000000000000000000000000000000081529283018690528051600093849384938493600160a060020a03909216926332fd8478926024808301939282900301818787803b15801561252857600080fd5b505af115801561253c573d6000803e3d6000fd5b505050506040513d604081101561255257600080fd5b50805160209091015160048054604080517fde56a2450000000000000000000000000000000000000000000000000000000081529283018c90528051949850929650600160a060020a03169263de56a245926024808401939192918290030181600087803b1580156125c357600080fd5b505af11580156125d7573d6000803e3d6000fd5b505050506040513d60408110156125ed57600080fd5b5080516020909101519092509050612609848483858a8a6129dc565b50505050505050565b60008181526008602052604090208054600190910154600160a060020a039091169081158015906126435750600081115b1561269f576000838152600860205260408082208054600160a060020a031916815560010182905551600160a060020a0384169183156108fc02918491818181858888f1935050505015801561269d573d6000803e3d6000fd5b505b505050565b6126ae82826126b9565b1515610c2c57600080fd5b600160a060020a03166000908152602091909152604090205460ff1690565b600081838115156126e557fe5b049392505050565b60008215156126fe57506000610f42565b5081810281838281151561270e57fe5b0414610f4257fe5b60008282111561272257fe5b50900390565b612792826001836040518082805190602001908083835b6020831061275e5780518252601f19909201916020918201910161273f565b51815160209384036101000a6000190180199092169116179052920194855250604051938490030190922092915050612b2b565b81600160a060020a03167fd211483f91fc6eff862467f8de606587a30c8fc9981056f051b897a418df803a826040518080602001828103825283818151815260200191508051906020019080838360005b838110156127fb5781810151838201526020016127e3565b50505050905090810190601f1680156128285780820380516001836020036101000a031916815260200191505b509250505060405180910390a25050565b6000818152600960205260408082208281556001018054600160a060020a03191690555182917f6caa49919a8c0059b871ec5c8b81a13a285b53cd92216d310fcdcf9c893e5a4591a250565b6128ef826001836040518082805190602001908083835b602083106128bb5780518252601f19909201916020918201910161289c565b51815160209384036101000a6000190180199092169116179052920194855250604051938490030190922092915050612b4d565b81600160a060020a03167fbfec83d64eaa953f2708271a023ab9ee82057f8f3578d548c1a4ba0b5b70048982604051808060200182810382528381815181526020019150805190602001908083836000838110156127fb5781810151838201526020016127e3565b81810182811015610f4257fe5b6000903b1190565b600160a060020a038116151561298157600080fd5b60008054604051600160a060020a03808516939216917f8be0079c531659141344cd1fd0a4f28419497f9722a3daafe3b4186f6b6457e091a360008054600160a060020a031916600160a060020a0392909216919091179055565b6000806000806129f960065460075461295790919063ffffffff16565b9350612a21612a1485610ff1896103e863ffffffff6126d816565b879063ffffffff61271616565b604051909350600160a060020a0386169084156108fc029085906000818181858888f19350505050158015612a5a573d6000803e3d6000fd5b50600754612a7490610ff1886103e863ffffffff6126d816565b600554604051919350600160a060020a03169083156108fc029084906000818181858888f19350505050158015612aaf573d6000803e3d6000fd5b50612ac483611036888563ffffffff61271616565b9050600160a060020a0388161515612b1257604051600160a060020a038b169082156108fc029083906000818181858888f19350505050158015612b0c573d6000803e3d6000fd5b50612b1f565b612b1f8a8a8a8a85612b72565b50505050505050505050565b600160a060020a0316600090815260209190915260409020805460ff19169055565b600160a060020a0316600090815260209190915260409020805460ff19166001179055565b600080808080612b88898863ffffffff61295716565b9450612ba289670de0b6b3a764000063ffffffff6126ed16565b9350612bb4848663ffffffff6126d816565b9250612bde670de0b6b3a7640000612bd2888663ffffffff6126ed16565b9063ffffffff6126d816565b604051909250600160a060020a038b169083156108fc029084906000818181858888f19350505050158015612c17573d6000803e3d6000fd5b50612c28868363ffffffff61271616565b604051909150600160a060020a0389169082156108fc029083906000818181858888f19350505050158015612c61573d6000803e3d6000fd5b5050505050505050505050565b604080518082019091526000808252602082015290560077686974656c69737400000000000000000000000000000000000000000000005265656e7472616e637947756172643a207265656e7472616e742063616c6c00a165627a7a72305820587391709faaceea6ea2c8151ff3f0d19f7842683c1e817dbb700581ae01615b0029",
  "source": "pragma solidity ^0.4.24;\n\nimport \"openzeppelin-solidity/contracts/lifecycle/Pausable.sol\";\nimport \"openzeppelin-solidity/contracts/access/Whitelist.sol\";\nimport \"openzeppelin-solidity/contracts/math/SafeMath.sol\";\n\ninterface IKODAV2Methods {\n  function ownerOf(uint256 _tokenId) external view returns (address _owner);\n\n  function exists(uint256 _tokenId) external view returns (bool _exists);\n\n  function editionOfTokenId(uint256 _tokenId) external view returns (uint256 tokenId);\n\n  function artistCommission(uint256 _tokenId) external view returns (address _artistAccount, uint256 _artistCommission);\n\n  function editionOptionalCommission(uint256 _tokenId) external view returns (uint256 _rate, address _recipient);\n\n  function safeTransferFrom(address _from, address _to, uint256 _tokenId) external;\n}\n\n// Based on ITokenMarketplace.sol\ncontract TokenMarketplaceV2 is Whitelist, Pausable {\n  using SafeMath for uint256;\n\n  event UpdatePlatformPercentageFee(uint256 _oldPercentage, uint256 _newPercentage);\n  event UpdateRoyaltyPercentageFee(uint256 _oldPercentage, uint256 _newPercentage);\n  event UpdateMinBidAmount(uint256 minBidAmount);\n\n  event TokenListed(\n    uint256 indexed _tokenId,\n    address indexed _seller,\n    uint256 _price\n  );\n\n  event TokenDeListed(\n    uint256 indexed _tokenId\n  );\n\n  event TokenPurchased(\n    uint256 indexed _tokenId,\n    address indexed _buyer,\n    address indexed _seller,\n    uint256 _price\n  );\n\n  event BidPlaced(\n    uint256 indexed _tokenId,\n    address indexed _currentOwner,\n    address indexed _bidder,\n    uint256 _amount\n  );\n\n  event BidWithdrawn(\n    uint256 indexed _tokenId,\n    address indexed _bidder\n  );\n\n  event BidAccepted(\n    uint256 indexed _tokenId,\n    address indexed _currentOwner,\n    address indexed _bidder,\n    uint256 _amount\n  );\n\n  event BidRejected(\n    uint256 indexed _tokenId,\n    address indexed _currentOwner,\n    address indexed _bidder,\n    uint256 _amount\n  );\n\n  event AuctionEnabled(\n    uint256 indexed _tokenId,\n    address indexed _auctioneer\n  );\n\n  event AuctionDisabled(\n    uint256 indexed _tokenId,\n    address indexed _auctioneer\n  );\n\n  struct Offer {\n    address bidder;\n    uint256 offer;\n  }\n\n  struct Listing {\n    uint256 price;\n    address seller;\n  }\n\n  bool private _notEntered = true;\n\n  // Min increase in bid/list amount\n  uint256 public minBidAmount = 0.04 ether;\n\n  // Interface into the KODA world\n  IKODAV2Methods public kodaAddress;\n\n  // KO account which can receive commission\n  address public koCommissionAccount;\n\n  uint256 public artistRoyaltyPercentage = 100;\n  uint256 public platformFeePercentage = 25;\n\n  // Token ID to Offer mapping\n  mapping(uint256 => Offer) offers;\n\n  // Token ID to Listing\n  mapping(uint256 => Listing) public listings;\n\n  // Explicitly disable sales for specific tokens\n  mapping(uint256 => bool) disabledTokens;\n\n  ///////////////\n  // Modifiers //\n  ///////////////\n\n  modifier onlyWhenOfferOwner(uint256 _tokenId) {\n    require(offers[_tokenId].bidder == msg.sender, \"Not offer maker\");\n    _;\n  }\n\n  modifier onlyWhenTokenExists(uint256 _tokenId) {\n    require(kodaAddress.exists(_tokenId), \"Token does not exist\");\n    _;\n  }\n\n  modifier onlyWhenBidOverMinAmount(uint256 _tokenId) {\n    require(msg.value >= offers[_tokenId].offer.add(minBidAmount), \"Offer not enough\");\n    _;\n  }\n\n  modifier onlyWhenTokenAuctionEnabled(uint256 _tokenId) {\n    require(!disabledTokens[_tokenId], \"Token not enabled for offers\");\n    _;\n  }\n\n  modifier nonReentrant() {\n    // On the first call to nonReentrant, _notEntered will be true\n    require(_notEntered, \"ReentrancyGuard: reentrant call\");\n\n    // Any calls to nonReentrant after this point will fail\n    _notEntered = false;\n\n    _;\n\n    // By storing the original value once again, a refund is triggered (see\n    // https://eips.ethereum.org/EIPS/eip-2200)\n    _notEntered = true;\n  }\n\n  /////////////////\n  // Constructor //\n  /////////////////\n\n  // Set the caller as the default KO account\n  constructor(IKODAV2Methods _kodaAddress, address _koCommissionAccount) public {\n    kodaAddress = _kodaAddress;\n    koCommissionAccount = _koCommissionAccount;\n    super.addAddressToWhitelist(msg.sender);\n  }\n\n  //////////////////////////\n  // User Bidding Actions //\n  //////////////////////////\n\n  function placeBid(uint256 _tokenId)\n  public\n  payable\n  whenNotPaused\n  nonReentrant\n  onlyWhenTokenExists(_tokenId)\n  onlyWhenBidOverMinAmount(_tokenId)\n  onlyWhenTokenAuctionEnabled(_tokenId)\n  {\n    require(!isContract(msg.sender), \"Unable to place a bid as a contract\");\n    _refundHighestBidder(_tokenId);\n\n    offers[_tokenId] = Offer(msg.sender, msg.value);\n\n    address currentOwner = kodaAddress.ownerOf(_tokenId);\n\n    emit BidPlaced(_tokenId, currentOwner, msg.sender, msg.value);\n  }\n\n  function withdrawBid(uint256 _tokenId)\n  public\n  whenNotPaused\n  nonReentrant\n  onlyWhenTokenExists(_tokenId)\n  onlyWhenOfferOwner(_tokenId)\n  {\n    _refundHighestBidder(_tokenId);\n\n    emit BidWithdrawn(_tokenId, msg.sender);\n  }\n\n  function rejectBid(uint256 _tokenId)\n  public\n  whenNotPaused\n  nonReentrant\n  {\n    address currentOwner = kodaAddress.ownerOf(_tokenId);\n    require(currentOwner == msg.sender, \"Not token owner\");\n\n    uint256 currentHighestBiddersAmount = offers[_tokenId].offer;\n    require(currentHighestBiddersAmount > 0, \"No offer open\");\n\n    address currentHighestBidder = offers[_tokenId].bidder;\n\n    _refundHighestBidder(_tokenId);\n\n    emit BidRejected(_tokenId, currentOwner, currentHighestBidder, currentHighestBiddersAmount);\n  }\n\n  function acceptBid(uint256 _tokenId, uint256 _acceptedAmount)\n  public\n  whenNotPaused\n  nonReentrant\n  {\n    address currentOwner = kodaAddress.ownerOf(_tokenId);\n    require(currentOwner == msg.sender, \"Not token owner\");\n\n    Offer storage offer = offers[_tokenId];\n\n    uint256 winningOffer = offer.offer;\n    // Check valid offer and offer not replaced whilst inflight\n    require(winningOffer > 0 && winningOffer >= _acceptedAmount, \"Offer amount not satisfied\");\n\n    address winningBidder = offers[_tokenId].bidder;\n\n    delete offers[_tokenId];\n\n    // Get edition no.\n    uint256 editionNumber = kodaAddress.editionOfTokenId(_tokenId);\n\n    _handleFunds(editionNumber, winningOffer, currentOwner);\n\n    kodaAddress.safeTransferFrom(msg.sender, winningBidder, _tokenId);\n\n    emit BidAccepted(_tokenId, currentOwner, winningBidder, winningOffer);\n  }\n\n  function _refundHighestBidder(uint256 _tokenId) internal {\n    // Get current highest bidder\n    address currentHighestBidder = offers[_tokenId].bidder;\n\n    // Get current highest bid amount\n    uint256 currentHighestBiddersAmount = offers[_tokenId].offer;\n\n    if (currentHighestBidder != address(0) && currentHighestBiddersAmount > 0) {\n\n      // Clear out highest bidder\n      delete offers[_tokenId];\n\n      // Refund it\n      currentHighestBidder.transfer(currentHighestBiddersAmount);\n    }\n  }\n\n  //////////////////////////\n  // User Listing Actions //\n  //////////////////////////\n\n  function listToken(uint256 _tokenId, uint256 _listingPrice)\n  public\n  whenNotPaused {\n    // Check ownership before listing\n    address tokenOwner = kodaAddress.ownerOf(_tokenId);\n    require(tokenOwner == msg.sender, \"Not token owner\");\n\n    // Check price over min bid\n    require(_listingPrice >= minBidAmount, \"Listing price not enough\");\n\n    // List the token\n    listings[_tokenId] = Listing({\n    price : _listingPrice,\n    seller : msg.sender\n    });\n\n    emit TokenListed(_tokenId, msg.sender, _listingPrice);\n  }\n\n  function delistToken(uint256 _tokenId)\n  public\n  whenNotPaused {\n\n    // check listing found\n    require(listings[_tokenId].seller != address(0), \"No listing found\");\n\n    // check owner is msg.sender\n    require(kodaAddress.ownerOf(_tokenId) == msg.sender, \"Only the current owner can delist\");\n\n    _delistToken(_tokenId);\n  }\n\n  function buyToken(uint256 _tokenId)\n  public\n  payable\n  nonReentrant\n  whenNotPaused {\n    Listing memory listing = listings[_tokenId];\n\n    // check token is listed\n    require(listing.seller != address(0), \"No listing found\");\n\n    // check current owner is the lister as it may have changed hands\n    address currentOwner = kodaAddress.ownerOf(_tokenId);\n    require(listing.seller == currentOwner, \"Listing not valid, token owner has changed\");\n\n    // check listing satisfied\n    uint256 listingPrice = listing.price;\n    require(msg.value == listingPrice, \"List price not satisfied\");\n\n    // Get edition no.\n    uint256 editionNumber = kodaAddress.editionOfTokenId(_tokenId);\n\n    // refund any open offers on it\n    Offer memory offer = offers[_tokenId];\n    if (offer.bidder != address(0)) {\n      _refundHighestBidder(_tokenId);\n    }\n\n    // split funds\n    _handleFunds(editionNumber, listingPrice, currentOwner);\n\n    // transfer token to buyer\n    kodaAddress.safeTransferFrom(currentOwner, msg.sender, _tokenId);\n\n    // de-list the token\n    _delistToken(_tokenId);\n\n    // Fire confirmation event\n    emit TokenPurchased(_tokenId, msg.sender, currentOwner, listingPrice);\n  }\n\n  function _delistToken(uint256 _tokenId) private {\n    delete listings[_tokenId];\n\n    emit TokenDeListed(_tokenId);\n  }\n\n  ////////////////////\n  // Funds handling //\n  ////////////////////\n\n  function _handleFunds(uint256 _editionNumber, uint256 _offer, address _currentOwner) internal {\n\n    // Get existing artist commission\n    (address artistAccount, uint256 artistCommissionRate) = kodaAddress.artistCommission(_editionNumber);\n\n    // Get existing optional commission\n    (uint256 optionalCommissionRate, address optionalCommissionRecipient) = kodaAddress.editionOptionalCommission(_editionNumber);\n\n    _splitFunds(artistAccount, artistCommissionRate, optionalCommissionRecipient, optionalCommissionRate, _offer, _currentOwner);\n  }\n\n  function _splitFunds(\n    address _artistAccount,\n    uint256 _artistCommissionRate,\n    address _optionalCommissionRecipient,\n    uint256 _optionalCommissionRate,\n    uint256 _offer,\n    address _currentOwner\n  ) internal {\n\n    // Work out total % of royalties to payout = creator royalties + KO commission\n    uint256 totalCommissionPercentageToPay = platformFeePercentage.add(artistRoyaltyPercentage);\n\n    // Send current owner majority share of the offer\n    uint256 totalToSendToOwner = _offer.sub(\n      _offer.div(1000).mul(totalCommissionPercentageToPay)\n    );\n    _currentOwner.transfer(totalToSendToOwner);\n\n    // Send % to KO\n    uint256 koCommission = _offer.div(1000).mul(platformFeePercentage);\n    koCommissionAccount.transfer(koCommission);\n\n    // Send to seller minus royalties and commission\n    uint256 remainingRoyalties = _offer.sub(koCommission).sub(totalToSendToOwner);\n\n    if (_optionalCommissionRecipient == address(0)) {\n      // After KO and Seller - send the rest to the original artist\n      _artistAccount.transfer(remainingRoyalties);\n    } else {\n      _handleOptionalSplits(_artistAccount, _artistCommissionRate, _optionalCommissionRecipient, _optionalCommissionRate, remainingRoyalties);\n    }\n  }\n\n  function _handleOptionalSplits(\n    address _artistAccount,\n    uint256 _artistCommissionRate,\n    address _optionalCommissionRecipient,\n    uint256 _optionalCommissionRate,\n    uint256 _remainingRoyalties\n  ) internal {\n    uint256 _totalCollaboratorsRate = _artistCommissionRate.add(_optionalCommissionRate);\n    uint256 _scaledUpCommission = _artistCommissionRate.mul(10 ** 18);\n\n    // work out % of royalties total to split e.g. 43 / 85 = 50.5882353%\n    uint256 primaryArtistPercentage = _scaledUpCommission.div(_totalCollaboratorsRate);\n\n    uint256 totalPrimaryRoyaltiesToArtist = _remainingRoyalties.mul(primaryArtistPercentage).div(10 ** 18);\n    _artistAccount.transfer(totalPrimaryRoyaltiesToArtist);\n\n    uint256 remainingRoyaltiesToCollaborator = _remainingRoyalties.sub(totalPrimaryRoyaltiesToArtist);\n    _optionalCommissionRecipient.transfer(remainingRoyaltiesToCollaborator);\n  }\n\n  ///////////////////\n  // Query Methods //\n  ///////////////////\n\n  function tokenOffer(uint256 _tokenId) external view returns (address _bidder, uint256 _offer, address _owner, bool _enabled, bool _paused) {\n    Offer memory offer = offers[_tokenId];\n    return (\n    offer.bidder,\n    offer.offer,\n    kodaAddress.ownerOf(_tokenId),\n    !disabledTokens[_tokenId],\n    paused\n    );\n  }\n\n  function determineSaleValues(uint256 _tokenId) external view returns (uint256 _sellerTotal, uint256 _platformFee, uint256 _royaltyFee) {\n    Offer memory offer = offers[_tokenId];\n    uint256 offerValue = offer.offer;\n    uint256 fee = offerValue.div(1000).mul(platformFeePercentage);\n    uint256 royalties = offerValue.div(1000).mul(artistRoyaltyPercentage);\n\n    return (\n    offer.offer.sub(fee).sub(royalties),\n    fee,\n    royalties\n    );\n  }\n\n  function tokenListingDetails(uint256 _tokenId) external view returns (uint256 _price, address _lister, address _currentOwner) {\n    Listing memory listing = listings[_tokenId];\n    return (\n    listing.price,\n    listing.seller,\n    kodaAddress.ownerOf(_tokenId)\n    );\n  }\n\n  function isContract(address account) internal view returns (bool) {\n    // This method relies in extcodesize, which returns 0 for contracts in\n    // construction, since the code is only stored at the end of the\n    // constructor execution.\n    uint256 size;\n    // solhint-disable-next-line no-inline-assembly\n    assembly {size := extcodesize(account)}\n    return size > 0;\n  }\n\n  ///////////////////\n  // Admin Actions //\n  ///////////////////\n\n  function disableAuction(uint256 _tokenId)\n  public\n  onlyIfWhitelisted(msg.sender)\n  {\n    _refundHighestBidder(_tokenId);\n    _delistToken(_tokenId);\n\n    disabledTokens[_tokenId] = true;\n\n    emit AuctionDisabled(_tokenId, msg.sender);\n  }\n\n  function enableAuction(uint256 _tokenId)\n  public\n  onlyIfWhitelisted(msg.sender)\n  {\n    _refundHighestBidder(_tokenId);\n\n    disabledTokens[_tokenId] = false;\n\n    emit AuctionEnabled(_tokenId, msg.sender);\n  }\n\n  function setMinBidAmount(uint256 _minBidAmount) onlyIfWhitelisted(msg.sender) public {\n    minBidAmount = _minBidAmount;\n    emit UpdateMinBidAmount(minBidAmount);\n  }\n\n  function setKodavV2(IKODAV2Methods _kodaAddress) onlyIfWhitelisted(msg.sender) public {\n    kodaAddress = _kodaAddress;\n  }\n\n  function setKoCommissionAccount(address _koCommissionAccount) public onlyIfWhitelisted(msg.sender) {\n    require(_koCommissionAccount != address(0), \"Invalid address\");\n    koCommissionAccount = _koCommissionAccount;\n  }\n\n  function setArtistRoyaltyPercentage(uint256 _artistRoyaltyPercentage) public onlyIfWhitelisted(msg.sender) {\n    emit UpdateRoyaltyPercentageFee(artistRoyaltyPercentage, _artistRoyaltyPercentage);\n    artistRoyaltyPercentage = _artistRoyaltyPercentage;\n  }\n\n  function setPlatformPercentage(uint256 _platformFeePercentage) public onlyIfWhitelisted(msg.sender) {\n    emit UpdatePlatformPercentageFee(platformFeePercentage, _platformFeePercentage);\n    platformFeePercentage = _platformFeePercentage;\n  }\n}\n",
  "sourcePath": "/Users/jamesmorgan/Dropbox/workspace-blockrocket/knownorigin/known-origin-contracts/contracts/v2/marketplace/TokenMarketplaceV2.sol",
  "compiler": {
    "name": "solc",
    "version": "0.4.24+commit.e67f0147.Emscripten.clang"
  },
  "schemaVersion": "3.1.0",
  "updatedAt": "2020-10-23T15:02:15.687Z",
  "networkType": "ethereum",
  "devdoc": {
    "methods": {
      "addAddressToWhitelist(address)": {
        "details": "add an address to the whitelist",
        "params": {
          "_operator": "address"
        },
        "return": "true if the address was added to the whitelist, false if the address was already in the whitelist"
      },
      "addAddressesToWhitelist(address[])": {
        "details": "add addresses to the whitelist",
        "params": {
          "_operators": "addresses"
        },
        "return": "true if at least one address was added to the whitelist, false if all addresses were already in the whitelist"
      },
      "checkRole(address,string)": {
        "details": "reverts if addr does not have role",
        "params": {
          "_operator": "address",
          "_role": "the name of the role // reverts"
        }
      },
      "hasRole(address,string)": {
        "details": "determine if addr has role",
        "params": {
          "_operator": "address",
          "_role": "the name of the role"
        },
        "return": "bool"
      },
      "pause()": {
        "details": "called by the owner to pause, triggers stopped state"
      },
      "removeAddressFromWhitelist(address)": {
        "details": "remove an address from the whitelist",
        "params": {
          "_operator": "address"
        },
        "return": "true if the address was removed from the whitelist, false if the address wasn't in the whitelist in the first place"
      },
      "removeAddressesFromWhitelist(address[])": {
        "details": "remove addresses from the whitelist",
        "params": {
          "_operators": "addresses"
        },
        "return": "true if at least one address was removed from the whitelist, false if all addresses weren't in the whitelist in the first place"
      },
      "renounceOwnership()": {
        "details": "Allows the current owner to relinquish control of the contract."
      },
      "transferOwnership(address)": {
        "details": "Allows the current owner to transfer control of the contract to a newOwner.",
        "params": {
          "_newOwner": "The address to transfer ownership to."
        }
      },
      "unpause()": {
        "details": "called by the owner to unpause, returns to normal state"
      },
      "whitelist(address)": {
        "details": "getter to determine if address is in whitelist"
      }
    }
  },
  "userdoc": {
    "methods": {
      "disableAuction(uint256)": {
        "notice": "////////////////"
      },
      "listToken(uint256,uint256)": {
        "notice": "///////////////////////"
      },
      "placeBid(uint256)": {
        "notice": "///////////////////////"
      },
      "renounceOwnership()": {
        "notice": "Renouncing to ownership will leave the contract without an owner. It will not be possible to call the functions with the `onlyOwner` modifier anymore."
      },
      "tokenOffer(uint256)": {
        "notice": "////////////////"
      }
    }
  }
}