{
  "contractName": "TokenMarketplace",
  "abi": [
    {
      "constant": true,
      "inputs": [
        {
          "name": "_operator",
          "type": "address"
        },
        {
          "name": "_role",
          "type": "string"
        }
      ],
      "name": "checkRole",
      "outputs": [],
      "payable": false,
      "stateMutability": "view",
      "type": "function"
    },
    {
      "constant": true,
      "inputs": [],
      "name": "ROLE_WHITELISTED",
      "outputs": [
        {
          "name": "",
          "type": "string"
        }
      ],
      "payable": false,
      "stateMutability": "view",
      "type": "function"
    },
    {
      "constant": true,
      "inputs": [
        {
          "name": "_operator",
          "type": "address"
        },
        {
          "name": "_role",
          "type": "string"
        }
      ],
      "name": "hasRole",
      "outputs": [
        {
          "name": "",
          "type": "bool"
        }
      ],
      "payable": false,
      "stateMutability": "view",
      "type": "function"
    },
    {
      "constant": false,
      "inputs": [
        {
          "name": "_operators",
          "type": "address[]"
        }
      ],
      "name": "removeAddressesFromWhitelist",
      "outputs": [],
      "payable": false,
      "stateMutability": "nonpayable",
      "type": "function"
    },
    {
      "constant": false,
      "inputs": [
        {
          "name": "_operator",
          "type": "address"
        }
      ],
      "name": "removeAddressFromWhitelist",
      "outputs": [],
      "payable": false,
      "stateMutability": "nonpayable",
      "type": "function"
    },
    {
      "constant": false,
      "inputs": [],
      "name": "unpause",
      "outputs": [],
      "payable": false,
      "stateMutability": "nonpayable",
      "type": "function"
    },
    {
      "constant": true,
      "inputs": [],
      "name": "minBidAmount",
      "outputs": [
        {
          "name": "",
          "type": "uint256"
        }
      ],
      "payable": false,
      "stateMutability": "view",
      "type": "function"
    },
    {
      "constant": true,
      "inputs": [],
      "name": "paused",
      "outputs": [
        {
          "name": "",
          "type": "bool"
        }
      ],
      "payable": false,
      "stateMutability": "view",
      "type": "function"
    },
    {
      "constant": true,
      "inputs": [],
      "name": "defaultKOPercentage",
      "outputs": [
        {
          "name": "",
          "type": "uint256"
        }
      ],
      "payable": false,
      "stateMutability": "view",
      "type": "function"
    },
    {
      "constant": true,
      "inputs": [],
      "name": "koCommissionAccount",
      "outputs": [
        {
          "name": "",
          "type": "address"
        }
      ],
      "payable": false,
      "stateMutability": "view",
      "type": "function"
    },
    {
      "constant": false,
      "inputs": [],
      "name": "renounceOwnership",
      "outputs": [],
      "payable": false,
      "stateMutability": "nonpayable",
      "type": "function"
    },
    {
      "constant": false,
      "inputs": [
        {
          "name": "_operator",
          "type": "address"
        }
      ],
      "name": "addAddressToWhitelist",
      "outputs": [],
      "payable": false,
      "stateMutability": "nonpayable",
      "type": "function"
    },
    {
      "constant": false,
      "inputs": [],
      "name": "pause",
      "outputs": [],
      "payable": false,
      "stateMutability": "nonpayable",
      "type": "function"
    },
    {
      "constant": true,
      "inputs": [],
      "name": "owner",
      "outputs": [
        {
          "name": "",
          "type": "address"
        }
      ],
      "payable": false,
      "stateMutability": "view",
      "type": "function"
    },
    {
      "constant": true,
      "inputs": [
        {
          "name": "_operator",
          "type": "address"
        }
      ],
      "name": "whitelist",
      "outputs": [
        {
          "name": "",
          "type": "bool"
        }
      ],
      "payable": false,
      "stateMutability": "view",
      "type": "function"
    },
    {
      "constant": true,
      "inputs": [],
      "name": "defaultArtistRoyaltyPercentage",
      "outputs": [
        {
          "name": "",
          "type": "uint256"
        }
      ],
      "payable": false,
      "stateMutability": "view",
      "type": "function"
    },
    {
      "constant": true,
      "inputs": [],
      "name": "kodaAddress",
      "outputs": [
        {
          "name": "",
          "type": "address"
        }
      ],
      "payable": false,
      "stateMutability": "view",
      "type": "function"
    },
    {
      "constant": false,
      "inputs": [
        {
          "name": "_operators",
          "type": "address[]"
        }
      ],
      "name": "addAddressesToWhitelist",
      "outputs": [],
      "payable": false,
      "stateMutability": "nonpayable",
      "type": "function"
    },
    {
      "constant": false,
      "inputs": [
        {
          "name": "_newOwner",
          "type": "address"
        }
      ],
      "name": "transferOwnership",
      "outputs": [],
      "payable": false,
      "stateMutability": "nonpayable",
      "type": "function"
    },
    {
      "inputs": [
        {
          "name": "_kodaAddress",
          "type": "address"
        },
        {
          "name": "_koCommissionAccount",
          "type": "address"
        }
      ],
      "payable": false,
      "stateMutability": "nonpayable",
      "type": "constructor"
    },
    {
      "anonymous": false,
      "inputs": [
        {
          "indexed": true,
          "name": "_tokenId",
          "type": "uint256"
        },
        {
          "indexed": true,
          "name": "_currentOwner",
          "type": "address"
        },
        {
          "indexed": true,
          "name": "_bidder",
          "type": "address"
        },
        {
          "indexed": false,
          "name": "_amount",
          "type": "uint256"
        }
      ],
      "name": "BidPlaced",
      "type": "event"
    },
    {
      "anonymous": false,
      "inputs": [
        {
          "indexed": true,
          "name": "_tokenId",
          "type": "uint256"
        },
        {
          "indexed": true,
          "name": "_bidder",
          "type": "address"
        }
      ],
      "name": "BidWithdrawn",
      "type": "event"
    },
    {
      "anonymous": false,
      "inputs": [
        {
          "indexed": true,
          "name": "_tokenId",
          "type": "uint256"
        },
        {
          "indexed": true,
          "name": "_currentOwner",
          "type": "address"
        },
        {
          "indexed": true,
          "name": "_bidder",
          "type": "address"
        },
        {
          "indexed": false,
          "name": "_amount",
          "type": "uint256"
        }
      ],
      "name": "BidAccepted",
      "type": "event"
    },
    {
      "anonymous": false,
      "inputs": [
        {
          "indexed": true,
          "name": "_tokenId",
          "type": "uint256"
        },
        {
          "indexed": true,
          "name": "_currentOwner",
          "type": "address"
        },
        {
          "indexed": true,
          "name": "_bidder",
          "type": "address"
        },
        {
          "indexed": false,
          "name": "_amount",
          "type": "uint256"
        }
      ],
      "name": "BidRejected",
      "type": "event"
    },
    {
      "anonymous": false,
      "inputs": [
        {
          "indexed": true,
          "name": "_tokenId",
          "type": "uint256"
        },
        {
          "indexed": true,
          "name": "_auctioneer",
          "type": "address"
        }
      ],
      "name": "AuctionEnabled",
      "type": "event"
    },
    {
      "anonymous": false,
      "inputs": [
        {
          "indexed": true,
          "name": "_tokenId",
          "type": "uint256"
        },
        {
          "indexed": true,
          "name": "_auctioneer",
          "type": "address"
        }
      ],
      "name": "AuctionDisabled",
      "type": "event"
    },
    {
      "anonymous": false,
      "inputs": [],
      "name": "Pause",
      "type": "event"
    },
    {
      "anonymous": false,
      "inputs": [],
      "name": "Unpause",
      "type": "event"
    },
    {
      "anonymous": false,
      "inputs": [
        {
          "indexed": true,
          "name": "operator",
          "type": "address"
        },
        {
          "indexed": false,
          "name": "role",
          "type": "string"
        }
      ],
      "name": "RoleAdded",
      "type": "event"
    },
    {
      "anonymous": false,
      "inputs": [
        {
          "indexed": true,
          "name": "operator",
          "type": "address"
        },
        {
          "indexed": false,
          "name": "role",
          "type": "string"
        }
      ],
      "name": "RoleRemoved",
      "type": "event"
    },
    {
      "anonymous": false,
      "inputs": [
        {
          "indexed": true,
          "name": "previousOwner",
          "type": "address"
        }
      ],
      "name": "OwnershipRenounced",
      "type": "event"
    },
    {
      "anonymous": false,
      "inputs": [
        {
          "indexed": true,
          "name": "previousOwner",
          "type": "address"
        },
        {
          "indexed": true,
          "name": "newOwner",
          "type": "address"
        }
      ],
      "name": "OwnershipTransferred",
      "type": "event"
    },
    {
      "constant": false,
      "inputs": [
        {
          "name": "_tokenId",
          "type": "uint256"
        }
      ],
      "name": "placeBid",
      "outputs": [],
      "payable": true,
      "stateMutability": "payable",
      "type": "function"
    },
    {
      "constant": false,
      "inputs": [
        {
          "name": "_tokenId",
          "type": "uint256"
        }
      ],
      "name": "withdrawBid",
      "outputs": [],
      "payable": false,
      "stateMutability": "nonpayable",
      "type": "function"
    },
    {
      "constant": false,
      "inputs": [
        {
          "name": "_tokenId",
          "type": "uint256"
        }
      ],
      "name": "rejectBid",
      "outputs": [],
      "payable": false,
      "stateMutability": "nonpayable",
      "type": "function"
    },
    {
      "constant": false,
      "inputs": [
        {
          "name": "_tokenId",
          "type": "uint256"
        }
      ],
      "name": "acceptBid",
      "outputs": [],
      "payable": false,
      "stateMutability": "nonpayable",
      "type": "function"
    },
    {
      "constant": true,
      "inputs": [
        {
          "name": "_tokenId",
          "type": "uint256"
        }
      ],
      "name": "tokenOffer",
      "outputs": [
        {
          "name": "_bidder",
          "type": "address"
        },
        {
          "name": "_offer",
          "type": "uint256"
        },
        {
          "name": "_owner",
          "type": "address"
        },
        {
          "name": "_enabled",
          "type": "bool"
        },
        {
          "name": "_paused",
          "type": "bool"
        }
      ],
      "payable": false,
      "stateMutability": "view",
      "type": "function"
    },
    {
      "constant": false,
      "inputs": [
        {
          "name": "_tokenId",
          "type": "uint256"
        }
      ],
      "name": "disableAuction",
      "outputs": [],
      "payable": false,
      "stateMutability": "nonpayable",
      "type": "function"
    },
    {
      "constant": false,
      "inputs": [
        {
          "name": "_tokenId",
          "type": "uint256"
        }
      ],
      "name": "enableAuction",
      "outputs": [],
      "payable": false,
      "stateMutability": "nonpayable",
      "type": "function"
    },
    {
      "constant": false,
      "inputs": [
        {
          "name": "_minBidAmount",
          "type": "uint256"
        }
      ],
      "name": "setMinBidAmount",
      "outputs": [],
      "payable": false,
      "stateMutability": "nonpayable",
      "type": "function"
    },
    {
      "constant": false,
      "inputs": [
        {
          "name": "_kodaAddress",
          "type": "address"
        }
      ],
      "name": "setKodavV2",
      "outputs": [],
      "payable": false,
      "stateMutability": "nonpayable",
      "type": "function"
    },
    {
      "constant": false,
      "inputs": [
        {
          "name": "_koCommissionAccount",
          "type": "address"
        }
      ],
      "name": "setKoCommissionAccount",
      "outputs": [],
      "payable": false,
      "stateMutability": "nonpayable",
      "type": "function"
    }
  ],
  "bytecode": "0x60806040526002805460ff19169055668e1bc9bf0400006003556032600655601e6007553480156200003057600080fd5b50604051604080620020f58339810160405280516020909101516000805433600160a060020a03199182168117909255600480548216600160a060020a0380871691909117909155600580549092169084161790556200009e90640100000000620000a6810262000ffa1704565b50506200025c565b600054600160a060020a03163314620000be57600080fd5b6200010e816040805190810160405280600981526020017f77686974656c697374000000000000000000000000000000000000000000000081525062000111640100000000026401000000009004565b50565b6200018d826001836040518082805190602001908083835b602083106200014a5780518252601f19909201916020918201910162000129565b51815160209384036101000a600019018019909216911617905292019485525060405193849003019092209291505064010000000062000237810262001cb51704565b81600160a060020a03167fbfec83d64eaa953f2708271a023ab9ee82057f8f3578d548c1a4ba0b5b700489826040518080602001828103825283818151815260200191508051906020019080838360005b83811015620001f8578181015183820152602001620001de565b50505050905090810190601f168015620002265780820380516001836020036101000a031916815260200191505b509250505060405180910390a25050565b600160a060020a0316600090815260209190915260409020805460ff19166001179055565b611e89806200026c6000396000f3006080604052600436106101745763ffffffff7c01000000000000000000000000000000000000000000000000000000006000350416630872ef6e81146101795780630988ca8c146101935780630eaaf4c8146101fa57806318b919e914610212578063217fe6c61461029c57806324953eaa14610317578063286dd3f51461036c5780632b1fd58a1461038d5780633f4ba83a146103a5578063417fd6b6146103ba57806349751788146103d25780635c975abb146103f95780636511708f1461040e5780636e3341b3146104235780636e93dbdc1461043b578063715018a61461046c5780637b9417c8146104815780638456cb59146104a25780638795dcff146104b75780638da5cb5b1461050b578063953e474a146105205780639979ef45146105415780639b19251a1461054c578063b9906cc21461056d578063bb435c8d14610582578063bbee17a31461059a578063e0758c9d146105bb578063e2ec6ec3146105d0578063f2fde38b14610625575b600080fd5b34801561018557600080fd5b50610191600435610646565b005b34801561019f57600080fd5b5060408051602060046024803582810135601f8101859004850286018501909652858552610191958335600160a060020a03169536956044949193909101919081908401838280828437509497506106c19650505050505050565b34801561020657600080fd5b5061019160043561072f565b34801561021e57600080fd5b506102276108d3565b6040805160208082528351818301528351919283929083019185019080838360005b83811015610261578181015183820152602001610249565b50505050905090810190601f16801561028e5780820380516001836020036101000a031916815260200191505b509250505060405180910390f35b3480156102a857600080fd5b5060408051602060046024803582810135601f8101859004850286018501909652858552610303958335600160a060020a03169536956044949193909101919081908401838280828437509497506108f89650505050505050565b604080519115158252519081900360200190f35b34801561032357600080fd5b50604080516020600480358082013583810280860185019096528085526101919536959394602494938501929182918501908490808284375094975061096d9650505050505050565b34801561037857600080fd5b50610191600160a060020a03600435166109ba565b34801561039957600080fd5b50610191600435610a01565b3480156103b157600080fd5b50610191610d14565b3480156103c657600080fd5b50610191600435610d71565b3480156103de57600080fd5b506103e7610da5565b60408051918252519081900360200190f35b34801561040557600080fd5b50610303610dab565b34801561041a57600080fd5b506103e7610db4565b34801561042f57600080fd5b50610191600435610dba565b34801561044757600080fd5b50610450610f8c565b60408051600160a060020a039092168252519081900360200190f35b34801561047857600080fd5b50610191610f9b565b34801561048d57600080fd5b50610191600160a060020a0360043516610ffa565b3480156104ae57600080fd5b5061019161103e565b3480156104c357600080fd5b506104cf60043561109d565b60408051600160a060020a0396871681526020810195909552929094168383015215156060830152911515608082015290519081900360a00190f35b34801561051757600080fd5b50610450611184565b34801561052c57600080fd5b50610191600160a060020a0360043516611193565b610191600435611244565b34801561055857600080fd5b50610303600160a060020a0360043516611532565b34801561057957600080fd5b506103e7611561565b34801561058e57600080fd5b50610191600435611567565b3480156105a657600080fd5b50610191600160a060020a03600435166115e5565b3480156105c757600080fd5b50610450611636565b3480156105dc57600080fd5b5060408051602060048035808201358381028086018501909652808552610191953695939460249493850192918291850190849080828437509497506116459650505050505050565b34801561063157600080fd5b50610191600160a060020a0360043516611692565b3361067481604080519081016040528060098152602001600080516020611e3e8339815191528152506106c1565b61067d826116b2565b600082815260096020526040808220805460ff1916905551339184917fdeb115d202a55795fb5e47cee9ce6c0bd792a016a2d1251f937b1bb24e92332e9190a35050565b61072b826001836040518082805190602001908083835b602083106106f75780518252601f1990920191602091820191016106d8565b51815160209384036101000a6000190180199092169116179052920194855250604051938490030190922092915050611744565b5050565b60025460ff161561073f57600080fd5b60048054604080517f4f558e79000000000000000000000000000000000000000000000000000000008152928301849052518392600160a060020a0390921691634f558e799160248083019260209291908290030181600087803b1580156107a657600080fd5b505af11580156107ba573d6000803e3d6000fd5b505050506040513d60208110156107d057600080fd5b50511515610828576040805160e560020a62461bcd02815260206004820152601460248201527f546f6b656e20646f6573206e6f74206578697374000000000000000000000000604482015290519081900360640190fd5b6000828152600860205260409020548290600160a060020a03163314610898576040805160e560020a62461bcd02815260206004820152600f60248201527f4e6f74206f66666572206d616b65720000000000000000000000000000000000604482015290519081900360640190fd5b6108a1836116b2565b604051339084907f5e9c7ae3229b2cda5065d7058fcc05765c695c29ce05313fbe96cb2ca639231a90600090a3505050565b6040805180820190915260098152600080516020611e3e833981519152602082015281565b6000610964836001846040518082805190602001908083835b602083106109305780518252601f199092019160209182019101610911565b51815160209384036101000a6000190180199092169116179052920194855250604051938490030190922092915050611759565b90505b92915050565b60008054600160a060020a0316331461098557600080fd5b5060005b815181101561072b576109b282828151811015156109a357fe5b906020019060200201516109ba565b600101610989565b600054600160a060020a031633146109d157600080fd5b6109fe81604080519081016040528060098152602001600080516020611e3e833981519152815250611778565b50565b60025460009081908190819060ff1615610a1a57600080fd5b600480546040805160e160020a6331a9108f02815292830188905251600160a060020a0390911691636352211e9160248083019260209291908290030181600087803b158015610a6957600080fd5b505af1158015610a7d573d6000803e3d6000fd5b505050506040513d6020811015610a9357600080fd5b50519350600160a060020a0384163314610af7576040805160e560020a62461bcd02815260206004820152600f60248201527f4e6f7420746f6b656e206f776e65720000000000000000000000000000000000604482015290519081900360640190fd5b60008581526008602052604081206001015493508311610b61576040805160e560020a62461bcd02815260206004820152600d60248201527f4e6f206f66666572206f70656e00000000000000000000000000000000000000604482015290519081900360640190fd5b6000858152600860209081526040808320546004805483517f824eec3b0000000000000000000000000000000000000000000000000000000081529182018b90529251600160a060020a039283169750919092169363824eec3b93602480850194919392918390030190829087803b158015610bdc57600080fd5b505af1158015610bf0573d6000803e3d6000fd5b505050506040513d6020811015610c0657600080fd5b50519050610c15818486611889565b60048054604080517f42842e0e0000000000000000000000000000000000000000000000000000000081523393810193909352600160a060020a0385811660248501526044840189905290519116916342842e0e91606480830192600092919082900301818387803b158015610c8a57600080fd5b505af1158015610c9e573d6000803e3d6000fd5b5050505081600160a060020a031684600160a060020a0316867fe6d56779a392535d3a591e92b65ba36f2ecc424bbf5220d0176a7da29385b504866040518082815260200191505060405180910390a45050506000918252506008602052604081208054600160a060020a031916815560010155565b600054600160a060020a03163314610d2b57600080fd5b60025460ff161515610d3c57600080fd5b6002805460ff191690556040517f7805862f689e2f13df9f062ff482ad3ad112aca9e0847911ed832e158c525b3390600090a1565b33610d9f81604080519081016040528060098152602001600080516020611e3e8339815191528152506106c1565b50600355565b60035481565b60025460ff1681565b60075481565b6002546000908190819060ff1615610dd157600080fd5b600480546040805160e160020a6331a9108f02815292830187905251600160a060020a0390911691636352211e9160248083019260209291908290030181600087803b158015610e2057600080fd5b505af1158015610e34573d6000803e3d6000fd5b505050506040513d6020811015610e4a57600080fd5b50519250600160a060020a0383163314610eae576040805160e560020a62461bcd02815260206004820152600f60248201527f4e6f7420746f6b656e206f776e65720000000000000000000000000000000000604482015290519081900360640190fd5b60008481526008602052604081206001015492508211610f18576040805160e560020a62461bcd02815260206004820152600d60248201527f4e6f206f66666572206f70656e00000000000000000000000000000000000000604482015290519081900360640190fd5b50600083815260086020526040902054600160a060020a0316610f3a846116b2565b80600160a060020a031683600160a060020a0316857f6d699e170cc72516120ba19fe48e744504798d1afc2ffb65ff1154a6f4fa4d15856040518082815260200191505060405180910390a450505050565b600554600160a060020a031681565b600054600160a060020a03163314610fb257600080fd5b60008054604051600160a060020a03909116917ff8df31144d9c2f0f6b59d69b8b98abd5459d07f2742c4df920b25aae33c6482091a260008054600160a060020a0319169055565b600054600160a060020a0316331461101157600080fd5b6109fe81604080519081016040528060098152602001600080516020611e3e8339815191528152506119dd565b600054600160a060020a0316331461105557600080fd5b60025460ff161561106557600080fd5b6002805460ff191660011790556040517f6985a02210a168e66602d3235cb6db0e70f92b3ba4d376a33c0f3d9434bff62590600090a1565b60008060008060006110ad611e26565b506000868152600860209081526040808320815180830183528154600160a060020a0390811680835260019093015482860181905260048054865160e160020a6331a9108f0281529182018f9052955193979496919590921693636352211e936024808501949192918390030190829087803b15801561112c57600080fd5b505af1158015611140573d6000803e3d6000fd5b505050506040513d602081101561115657600080fd5b50516000998a526009602052604090992054600254929a9199985060ff908116159750909116945092505050565b600054600160a060020a031681565b336111c181604080519081016040528060098152602001600080516020611e3e8339815191528152506106c1565b600160a060020a0382161515611221576040805160e560020a62461bcd02815260206004820152600f60248201527f496e76616c696420616464726573730000000000000000000000000000000000604482015290519081900360640190fd5b5060058054600160a060020a031916600160a060020a0392909216919091179055565b60025460009060ff161561125757600080fd5b60048054604080517f4f558e79000000000000000000000000000000000000000000000000000000008152928301859052518492600160a060020a0390921691634f558e799160248083019260209291908290030181600087803b1580156112be57600080fd5b505af11580156112d2573d6000803e3d6000fd5b505050506040513d60208110156112e857600080fd5b50511515611340576040805160e560020a62461bcd02815260206004820152601460248201527f546f6b656e20646f6573206e6f74206578697374000000000000000000000000604482015290519081900360640190fd5b6003546000848152600860205260409020600101548491611367919063ffffffff611aaf16565b3410156113be576040805160e560020a62461bcd02815260206004820152601060248201527f4f66666572206e6f7420656e6f75676800000000000000000000000000000000604482015290519081900360640190fd5b600084815260096020526040902054849060ff1615611427576040805160e560020a62461bcd02815260206004820152601c60248201527f546f6b656e206e6f7420656e61626c656420666f72206f666665727300000000604482015290519081900360640190fd5b611430856116b2565b60408051808201825233815234602080830191825260008981526008825284812093518454600160a060020a031916600160a060020a03918216178555925160019094019390935560048054855160e160020a6331a9108f0281529182018b905294519490921693636352211e936024808501948390030190829087803b1580156114ba57600080fd5b505af11580156114ce573d6000803e3d6000fd5b505050506040513d60208110156114e457600080fd5b50516040805134815290519195503391600160a060020a0387169188917f3d87e1d02e187b9fe1095bc12567b7485b6cf54c47eea3dc9b5fd64d03cb67509181900360200190a45050505050565b600061096782604080519081016040528060098152602001600080516020611e3e8339815191528152506108f8565b60065481565b3361159581604080519081016040528060098152602001600080516020611e3e8339815191528152506106c1565b61159e826116b2565b600082815260096020526040808220805460ff1916600117905551339184917fe0c56951f00a75f5139f9af608a2ae603fe7c340a8f4b4b3125e9a7018041b609190a35050565b3361161381604080519081016040528060098152602001600080516020611e3e8339815191528152506106c1565b5060048054600160a060020a031916600160a060020a0392909216919091179055565b600454600160a060020a031681565b60008054600160a060020a0316331461165d57600080fd5b5060005b815181101561072b5761168a828281518110151561167b57fe5b90602001906020020151610ffa565b600101611661565b600054600160a060020a031633146116a957600080fd5b6109fe81611abc565b60008181526008602052604090208054600190910154600160a060020a039091169081158015906116e35750600081115b1561173f576000838152600860205260408082208054600160a060020a031916815560010182905551600160a060020a0384169183156108fc02918491818181858888f1935050505015801561173d573d6000803e3d6000fd5b505b505050565b61174e8282611759565b151561072b57600080fd5b600160a060020a03166000908152602091909152604090205460ff1690565b6117e2826001836040518082805190602001908083835b602083106117ae5780518252601f19909201916020918201910161178f565b51815160209384036101000a6000190180199092169116179052920194855250604051938490030190922092915050611b2c565b81600160a060020a03167fd211483f91fc6eff862467f8de606587a30c8fc9981056f051b897a418df803a826040518080602001828103825283818151815260200191508051906020019080838360005b8381101561184b578181015183820152602001611833565b50505050905090810190601f1680156118785780820380516001836020036101000a031916815260200191505b509250505060405180910390a25050565b60048054604080517f32fd84780000000000000000000000000000000000000000000000000000000081529283018690528051600093849384938493600160a060020a03909216926332fd8478926024808301939282900301818787803b1580156118f357600080fd5b505af1158015611907573d6000803e3d6000fd5b505050506040513d604081101561191d57600080fd5b50805160209091015160048054604080517fde56a2450000000000000000000000000000000000000000000000000000000081529283018c90528051949850929650600160a060020a03169263de56a245926024808401939192918290030181600087803b15801561198e57600080fd5b505af11580156119a2573d6000803e3d6000fd5b505050506040513d60408110156119b857600080fd5b50805160209091015190925090506119d4848483858a8a611b4e565b50505050505050565b611a47826001836040518082805190602001908083835b60208310611a135780518252601f1990920191602091820191016119f4565b51815160209384036101000a6000190180199092169116179052920194855250604051938490030190922092915050611cb5565b81600160a060020a03167fbfec83d64eaa953f2708271a023ab9ee82057f8f3578d548c1a4ba0b5b700489826040518080602001828103825283818151815260200191508051906020019080838360008381101561184b578181015183820152602001611833565b8181018281101561096757fe5b600160a060020a0381161515611ad157600080fd5b60008054604051600160a060020a03808516939216917f8be0079c531659141344cd1fd0a4f28419497f9722a3daafe3b4186f6b6457e091a360008054600160a060020a031916600160a060020a0392909216919091179055565b600160a060020a0316600090815260209190915260409020805460ff19169055565b600080600080611b6b600654600754611aaf90919063ffffffff16565b9350611b9f611b9285611b86896103e863ffffffff611cda16565b9063ffffffff611cef16565b879063ffffffff611d1816565b604051909350600160a060020a0386169084156108fc029085906000818181858888f19350505050158015611bd8573d6000803e3d6000fd5b50600754611bf290611b86886103e863ffffffff611cda16565b600554604051919350600160a060020a03169083156108fc029084906000818181858888f19350505050158015611c2d573d6000803e3d6000fd5b50611c4e83611c42888563ffffffff611d1816565b9063ffffffff611d1816565b9050600160a060020a0388161515611c9c57604051600160a060020a038b169082156108fc029083906000818181858888f19350505050158015611c96573d6000803e3d6000fd5b50611ca9565b611ca98a8a8a8a85611d2a565b50505050505050505050565b600160a060020a0316600090815260209190915260409020805460ff19166001179055565b60008183811515611ce757fe5b049392505050565b6000821515611d0057506000610967565b50818102818382811515611d1057fe5b041461096757fe5b600082821115611d2457fe5b50900390565b600080808080611d40898863ffffffff611aaf16565b9450611d5a89670de0b6b3a764000063ffffffff611cef16565b9350611d6c848663ffffffff611cda16565b9250611d96670de0b6b3a7640000611d8a888663ffffffff611cef16565b9063ffffffff611cda16565b604051909250600160a060020a038b169083156108fc029084906000818181858888f19350505050158015611dcf573d6000803e3d6000fd5b50611de0868363ffffffff611d1816565b604051909150600160a060020a0389169082156108fc029083906000818181858888f19350505050158015611e19573d6000803e3d6000fd5b5050505050505050505050565b604080518082019091526000808252602082015290560077686974656c6973740000000000000000000000000000000000000000000000a165627a7a723058201ef2b02d1f1dc11cacbf16ec4ed1c3cef0d2b72df8863a2a17fe59cae66bab940029",
  "source": "pragma solidity ^0.4.24;\n\nimport \"openzeppelin-solidity/contracts/access/rbac/Roles.sol\";\nimport \"openzeppelin-solidity/contracts/lifecycle/Pausable.sol\";\nimport \"openzeppelin-solidity/contracts/access/Whitelist.sol\";\nimport \"openzeppelin-solidity/contracts/math/SafeMath.sol\";\n\ninterface ITokenMarketplace {\n\n  event BidPlaced(\n    uint256 indexed _tokenId,\n    address indexed _currentOwner,\n    address indexed _bidder,\n    uint256 _amount\n  );\n\n  event BidWithdrawn(\n    uint256 indexed _tokenId,\n    address indexed _bidder\n  );\n\n  event BidAccepted(\n    uint256 indexed _tokenId,\n    address indexed _currentOwner,\n    address indexed _bidder,\n    uint256 _amount\n  );\n\n  event BidRejected(\n    uint256 indexed _tokenId,\n    address indexed _currentOwner,\n    address indexed _bidder,\n    uint256 _amount\n  );\n\n  event AuctionEnabled(\n    uint256 indexed _tokenId,\n    address indexed _auctioneer\n  );\n\n  event AuctionDisabled(\n    uint256 indexed _tokenId,\n    address indexed _auctioneer\n  );\n\n  function placeBid(uint256 _tokenId) payable external returns (bool success);\n\n  function withdrawBid(uint256 _tokenId) external returns (bool success);\n\n  function acceptBid(uint256 _tokenId) external returns (uint256 tokenId);\n\n  function rejectBid(uint256 _tokenId) external returns (bool success);\n\n  function enableAuction(uint256 _tokenId) external returns (bool success);\n\n  function disableAuction(uint256 _tokenId) external returns (bool success);\n}\n\ninterface IKODAV2 {\n  function ownerOf(uint256 _tokenId) external view returns (address _owner);\n\n  function exists(uint256 _tokenId) external view returns (bool _exists);\n\n  function editionOfTokenId(uint256 _tokenId) external view returns (uint256 tokenId);\n\n  function artistCommission(uint256 _tokenId) external view returns (address _artistAccount, uint256 _artistCommission);\n\n  function editionOptionalCommission(uint256 _tokenId) external view returns (uint256 _rate, address _recipient);\n\n  function safeTransferFrom(address _from, address _to, uint256 _tokenId) external;\n}\n\ncontract TokenMarketplace is Whitelist, Pausable, ITokenMarketplace {\n  using SafeMath for uint256;\n\n  struct Offer {\n    address bidder;\n    uint256 offer;\n  }\n\n  // Min increase in bid amount\n  uint256 public minBidAmount = 0.04 ether;\n\n  // Interface into the KODA world\n  IKODAV2 public kodaAddress;\n\n  // KO account which can receive commission\n  address public koCommissionAccount;\n\n  // 50 = 5%\n  uint256 public defaultArtistRoyaltyPercentage = 50;\n\n  // 30 = 3%\n  uint256 public defaultKOPercentage = 30;\n\n  // Token ID to Offer mapping\n  mapping(uint256 => Offer) offers;\n\n  // Explicitly disable sales for specific tokens\n  mapping(uint256 => bool) disabledTokens;\n\n  ///////////////\n  // Modifiers //\n  ///////////////\n\n  modifier onlyWhenOfferOwner(uint256 _tokenId) {\n    require(offers[_tokenId].bidder == msg.sender, \"Not offer maker\");\n    _;\n  }\n\n  modifier onlyWhenTokenExists(uint256 _tokenId) {\n    require(kodaAddress.exists(_tokenId), \"Token does not exist\");\n    _;\n  }\n\n  modifier onlyWhenBidOverMinAmount(uint256 _tokenId) {\n    require(msg.value >= offers[_tokenId].offer.add(minBidAmount), \"Offer not enough\");\n    _;\n  }\n\n  modifier onlyWhenTokenAuctionEnabled(uint256 _tokenId) {\n    require(!disabledTokens[_tokenId], \"Token not enabled for offers\");\n    _;\n  }\n\n  /////////////////\n  // Constructor //\n  /////////////////\n\n  // Set the caller as the default KO account\n  constructor(IKODAV2 _kodaAddress, address _koCommissionAccount) public {\n    kodaAddress = _kodaAddress;\n    koCommissionAccount = _koCommissionAccount;\n    super.addAddressToWhitelist(msg.sender);\n  }\n\n  //////////////////\n  // User Actions //\n  //////////////////\n\n  function placeBid(uint256 _tokenId)\n  public\n  payable\n  whenNotPaused\n  onlyWhenTokenExists(_tokenId)\n  onlyWhenBidOverMinAmount(_tokenId)\n  onlyWhenTokenAuctionEnabled(_tokenId)\n  {\n    _refundHighestBidder(_tokenId);\n\n    offers[_tokenId] = Offer(msg.sender, msg.value);\n\n    address currentOwner = kodaAddress.ownerOf(_tokenId);\n\n    emit BidPlaced(_tokenId, currentOwner, msg.sender, msg.value);\n  }\n\n  function withdrawBid(uint256 _tokenId)\n  public\n  whenNotPaused\n  onlyWhenTokenExists(_tokenId)\n  onlyWhenOfferOwner(_tokenId)\n  {\n    _refundHighestBidder(_tokenId);\n\n    emit BidWithdrawn(_tokenId, msg.sender);\n  }\n\n  function rejectBid(uint256 _tokenId)\n  public\n  whenNotPaused\n  {\n    address currentOwner = kodaAddress.ownerOf(_tokenId);\n    require(currentOwner == msg.sender, \"Not token owner\");\n\n    uint256 currentHighestBiddersAmount = offers[_tokenId].offer;\n    require(currentHighestBiddersAmount > 0, \"No offer open\");\n\n    address currentHighestBidder = offers[_tokenId].bidder;\n\n    _refundHighestBidder(_tokenId);\n\n    emit BidRejected(_tokenId, currentOwner, currentHighestBidder, currentHighestBiddersAmount);\n  }\n\n  function acceptBid(uint256 _tokenId)\n  public\n  whenNotPaused\n  {\n    address currentOwner = kodaAddress.ownerOf(_tokenId);\n    require(currentOwner == msg.sender, \"Not token owner\");\n\n    uint256 winningOffer = offers[_tokenId].offer;\n    require(winningOffer > 0, \"No offer open\");\n\n    address winningBidder = offers[_tokenId].bidder;\n\n    // Get edition no.\n    uint256 editionNumber = kodaAddress.editionOfTokenId(_tokenId);\n\n    _handleFunds(editionNumber, winningOffer, currentOwner);\n\n    kodaAddress.safeTransferFrom(msg.sender, winningBidder, _tokenId);\n\n    emit BidAccepted(_tokenId, currentOwner, winningBidder, winningOffer);\n\n    delete offers[_tokenId];\n  }\n\n  function _refundHighestBidder(uint256 _tokenId) internal {\n    // Get current highest bidder\n    address currentHighestBidder = offers[_tokenId].bidder;\n\n    // Get current highest bid amount\n    uint256 currentHighestBiddersAmount = offers[_tokenId].offer;\n\n    if (currentHighestBidder != address(0) && currentHighestBiddersAmount > 0) {\n\n      // Clear out highest bidder\n      delete offers[_tokenId];\n\n      // Refund it\n      currentHighestBidder.transfer(currentHighestBiddersAmount);\n    }\n  }\n\n  function _handleFunds(uint256 _editionNumber, uint256 _offer, address _currentOwner) internal {\n\n    // Get existing artist commission\n    (address artistAccount, uint256 artistCommissionRate) = kodaAddress.artistCommission(_editionNumber);\n\n    // Get existing optional commission\n    (uint256 optionalCommissionRate, address optionalCommissionRecipient) = kodaAddress.editionOptionalCommission(_editionNumber);\n\n    _splitFunds(artistAccount, artistCommissionRate, optionalCommissionRecipient, optionalCommissionRate, _offer, _currentOwner);\n  }\n\n  function _splitFunds(\n    address _artistAccount,\n    uint256 _artistCommissionRate,\n    address _optionalCommissionRecipient,\n    uint256 _optionalCommissionRate,\n    uint256 _offer,\n    address _currentOwner\n  ) internal {\n\n    // Work out total % of royalties to payout = creator royalties + KO commission\n    uint256 totalCommissionPercentageToPay = defaultKOPercentage.add(defaultArtistRoyaltyPercentage);\n\n    // Send current owner majority share of the offer\n    uint256 totalToSendToOwner = _offer.sub(\n      _offer.div(1000).mul(totalCommissionPercentageToPay)\n    );\n    _currentOwner.transfer(totalToSendToOwner);\n\n    // Send % to KO\n    uint256 koCommission = _offer.div(1000).mul(defaultKOPercentage);\n    koCommissionAccount.transfer(koCommission);\n\n    // Send to seller minus royalties and commission\n    uint256 remainingRoyalties = _offer.sub(koCommission).sub(totalToSendToOwner);\n\n    if (_optionalCommissionRecipient == address(0)) {\n      // After KO and Seller - send the rest to the original artist\n      _artistAccount.transfer(remainingRoyalties);\n    } else {\n      _handleOptionalSplits(_artistAccount, _artistCommissionRate, _optionalCommissionRecipient, _optionalCommissionRate, remainingRoyalties);\n    }\n  }\n\n  function _handleOptionalSplits(\n    address _artistAccount,\n    uint256 _artistCommissionRate,\n    address _optionalCommissionRecipient,\n    uint256 _optionalCommissionRate,\n    uint256 _remainingRoyalties\n  ) internal {\n    uint256 _totalCollaboratorsRate = _artistCommissionRate.add(_optionalCommissionRate);\n    uint256 _scaledUpCommission = _artistCommissionRate.mul(10 ** 18);\n\n    // work out % of royalties total to split e.g. 43 / 85 = 50.5882353%\n    uint256 primaryArtistPercentage = _scaledUpCommission.div(_totalCollaboratorsRate);\n\n    uint256 totalPrimaryRoyaltiesToArtist = _remainingRoyalties.mul(primaryArtistPercentage).div(10 ** 18);\n    _artistAccount.transfer(totalPrimaryRoyaltiesToArtist);\n\n    uint256 remainingRoyaltiesToCollaborator = _remainingRoyalties.sub(totalPrimaryRoyaltiesToArtist);\n    _optionalCommissionRecipient.transfer(remainingRoyaltiesToCollaborator);\n  }\n\n  ///////////////////\n  // Query Methods //\n  ///////////////////\n\n  function tokenOffer(uint256 _tokenId) external view returns (address _bidder, uint256 _offer, address _owner, bool _enabled, bool _paused) {\n    Offer memory offer = offers[_tokenId];\n    return (\n    offer.bidder,\n    offer.offer,\n    kodaAddress.ownerOf(_tokenId),\n    !disabledTokens[_tokenId],\n    paused\n    );\n  }\n\n  ///////////////////\n  // Admin Actions //\n  ///////////////////\n\n  function disableAuction(uint256 _tokenId)\n  public\n  onlyIfWhitelisted(msg.sender)\n  {\n    _refundHighestBidder(_tokenId);\n\n    disabledTokens[_tokenId] = true;\n\n    emit AuctionDisabled(_tokenId, msg.sender);\n  }\n\n  function enableAuction(uint256 _tokenId)\n  public\n  onlyIfWhitelisted(msg.sender)\n  {\n    _refundHighestBidder(_tokenId);\n\n    disabledTokens[_tokenId] = false;\n\n    emit AuctionEnabled(_tokenId, msg.sender);\n  }\n\n  function setMinBidAmount(uint256 _minBidAmount) onlyIfWhitelisted(msg.sender) public {\n    minBidAmount = _minBidAmount;\n  }\n\n  function setKodavV2(IKODAV2 _kodaAddress) onlyIfWhitelisted(msg.sender) public {\n    kodaAddress = _kodaAddress;\n  }\n\n  function setKoCommissionAccount(address _koCommissionAccount) public onlyIfWhitelisted(msg.sender) {\n    require(_koCommissionAccount != address(0), \"Invalid address\");\n    koCommissionAccount = _koCommissionAccount;\n  }\n}\n",
  "sourcePath": "/Users/jamesmorgan/Dropbox/workspace-blockrocket/knownorigin/known-origin-contracts/contracts/v2/marketplace/TokenMarketplace.sol",
  "compiler": {
    "name": "solc",
    "version": "0.4.24+commit.e67f0147.Emscripten.clang"
  },
  "schemaVersion": "3.0.23",
  "updatedAt": "2020-03-29T15:09:55.626Z",
  "networkType": "ethereum",
  "devdoc": {
    "methods": {
      "addAddressToWhitelist(address)": {
        "details": "add an address to the whitelist",
        "params": {
          "_operator": "address"
        },
        "return": "true if the address was added to the whitelist, false if the address was already in the whitelist"
      },
      "addAddressesToWhitelist(address[])": {
        "details": "add addresses to the whitelist",
        "params": {
          "_operators": "addresses"
        },
        "return": "true if at least one address was added to the whitelist, false if all addresses were already in the whitelist"
      },
      "checkRole(address,string)": {
        "details": "reverts if addr does not have role",
        "params": {
          "_operator": "address",
          "_role": "the name of the role // reverts"
        }
      },
      "hasRole(address,string)": {
        "details": "determine if addr has role",
        "params": {
          "_operator": "address",
          "_role": "the name of the role"
        },
        "return": "bool"
      },
      "pause()": {
        "details": "called by the owner to pause, triggers stopped state"
      },
      "removeAddressFromWhitelist(address)": {
        "details": "remove an address from the whitelist",
        "params": {
          "_operator": "address"
        },
        "return": "true if the address was removed from the whitelist, false if the address wasn't in the whitelist in the first place"
      },
      "removeAddressesFromWhitelist(address[])": {
        "details": "remove addresses from the whitelist",
        "params": {
          "_operators": "addresses"
        },
        "return": "true if at least one address was removed from the whitelist, false if all addresses weren't in the whitelist in the first place"
      },
      "renounceOwnership()": {
        "details": "Allows the current owner to relinquish control of the contract."
      },
      "transferOwnership(address)": {
        "details": "Allows the current owner to transfer control of the contract to a newOwner.",
        "params": {
          "_newOwner": "The address to transfer ownership to."
        }
      },
      "unpause()": {
        "details": "called by the owner to unpause, returns to normal state"
      },
      "whitelist(address)": {
        "details": "getter to determine if address is in whitelist"
      }
    }
  },
  "userdoc": {
    "methods": {
      "disableAuction(uint256)": {
        "notice": "////////////////"
      },
      "placeBid(uint256)": {
        "notice": "///////////////"
      },
      "renounceOwnership()": {
        "notice": "Renouncing to ownership will leave the contract without an owner. It will not be possible to call the functions with the `onlyOwner` modifier anymore."
      },
      "tokenOffer(uint256)": {
        "notice": "////////////////"
      }
    }
  }
}