{
  "contractName": "TokenMarketplace",
  "abi": [
    {
      "constant": true,
      "inputs": [
        {
          "name": "_operator",
          "type": "address"
        },
        {
          "name": "_role",
          "type": "string"
        }
      ],
      "name": "checkRole",
      "outputs": [],
      "payable": false,
      "stateMutability": "view",
      "type": "function"
    },
    {
      "constant": true,
      "inputs": [],
      "name": "ROLE_WHITELISTED",
      "outputs": [
        {
          "name": "",
          "type": "string"
        }
      ],
      "payable": false,
      "stateMutability": "view",
      "type": "function"
    },
    {
      "constant": true,
      "inputs": [
        {
          "name": "_operator",
          "type": "address"
        },
        {
          "name": "_role",
          "type": "string"
        }
      ],
      "name": "hasRole",
      "outputs": [
        {
          "name": "",
          "type": "bool"
        }
      ],
      "payable": false,
      "stateMutability": "view",
      "type": "function"
    },
    {
      "constant": false,
      "inputs": [
        {
          "name": "_operators",
          "type": "address[]"
        }
      ],
      "name": "removeAddressesFromWhitelist",
      "outputs": [],
      "payable": false,
      "stateMutability": "nonpayable",
      "type": "function"
    },
    {
      "constant": false,
      "inputs": [
        {
          "name": "_operator",
          "type": "address"
        }
      ],
      "name": "removeAddressFromWhitelist",
      "outputs": [],
      "payable": false,
      "stateMutability": "nonpayable",
      "type": "function"
    },
    {
      "constant": false,
      "inputs": [],
      "name": "unpause",
      "outputs": [],
      "payable": false,
      "stateMutability": "nonpayable",
      "type": "function"
    },
    {
      "constant": true,
      "inputs": [],
      "name": "minBidAmount",
      "outputs": [
        {
          "name": "",
          "type": "uint256"
        }
      ],
      "payable": false,
      "stateMutability": "view",
      "type": "function"
    },
    {
      "constant": true,
      "inputs": [],
      "name": "paused",
      "outputs": [
        {
          "name": "",
          "type": "bool"
        }
      ],
      "payable": false,
      "stateMutability": "view",
      "type": "function"
    },
    {
      "constant": true,
      "inputs": [],
      "name": "defaultKOPercentage",
      "outputs": [
        {
          "name": "",
          "type": "uint256"
        }
      ],
      "payable": false,
      "stateMutability": "view",
      "type": "function"
    },
    {
      "constant": true,
      "inputs": [],
      "name": "koCommissionAccount",
      "outputs": [
        {
          "name": "",
          "type": "address"
        }
      ],
      "payable": false,
      "stateMutability": "view",
      "type": "function"
    },
    {
      "constant": false,
      "inputs": [],
      "name": "renounceOwnership",
      "outputs": [],
      "payable": false,
      "stateMutability": "nonpayable",
      "type": "function"
    },
    {
      "constant": false,
      "inputs": [
        {
          "name": "_operator",
          "type": "address"
        }
      ],
      "name": "addAddressToWhitelist",
      "outputs": [],
      "payable": false,
      "stateMutability": "nonpayable",
      "type": "function"
    },
    {
      "constant": false,
      "inputs": [],
      "name": "pause",
      "outputs": [],
      "payable": false,
      "stateMutability": "nonpayable",
      "type": "function"
    },
    {
      "constant": true,
      "inputs": [],
      "name": "owner",
      "outputs": [
        {
          "name": "",
          "type": "address"
        }
      ],
      "payable": false,
      "stateMutability": "view",
      "type": "function"
    },
    {
      "constant": true,
      "inputs": [
        {
          "name": "_operator",
          "type": "address"
        }
      ],
      "name": "whitelist",
      "outputs": [
        {
          "name": "",
          "type": "bool"
        }
      ],
      "payable": false,
      "stateMutability": "view",
      "type": "function"
    },
    {
      "constant": true,
      "inputs": [],
      "name": "defaultArtistRoyaltyPercentage",
      "outputs": [
        {
          "name": "",
          "type": "uint256"
        }
      ],
      "payable": false,
      "stateMutability": "view",
      "type": "function"
    },
    {
      "constant": true,
      "inputs": [],
      "name": "kodaAddress",
      "outputs": [
        {
          "name": "",
          "type": "address"
        }
      ],
      "payable": false,
      "stateMutability": "view",
      "type": "function"
    },
    {
      "constant": false,
      "inputs": [
        {
          "name": "_operators",
          "type": "address[]"
        }
      ],
      "name": "addAddressesToWhitelist",
      "outputs": [],
      "payable": false,
      "stateMutability": "nonpayable",
      "type": "function"
    },
    {
      "constant": false,
      "inputs": [
        {
          "name": "_newOwner",
          "type": "address"
        }
      ],
      "name": "transferOwnership",
      "outputs": [],
      "payable": false,
      "stateMutability": "nonpayable",
      "type": "function"
    },
    {
      "inputs": [
        {
          "name": "_kodaAddress",
          "type": "address"
        },
        {
          "name": "_koCommissionAccount",
          "type": "address"
        }
      ],
      "payable": false,
      "stateMutability": "nonpayable",
      "type": "constructor"
    },
    {
      "anonymous": false,
      "inputs": [
        {
          "indexed": false,
          "name": "_address",
          "type": "address"
        },
        {
          "indexed": false,
          "name": "_tokenId",
          "type": "uint256"
        },
        {
          "indexed": false,
          "name": "_data",
          "type": "bytes"
        },
        {
          "indexed": false,
          "name": "_gas",
          "type": "uint256"
        }
      ],
      "name": "Received",
      "type": "event"
    },
    {
      "anonymous": false,
      "inputs": [
        {
          "indexed": true,
          "name": "_bidder",
          "type": "address"
        },
        {
          "indexed": true,
          "name": "_tokenId",
          "type": "uint256"
        },
        {
          "indexed": false,
          "name": "_amount",
          "type": "uint256"
        }
      ],
      "name": "BidPlaced",
      "type": "event"
    },
    {
      "anonymous": false,
      "inputs": [
        {
          "indexed": true,
          "name": "_bidder",
          "type": "address"
        },
        {
          "indexed": true,
          "name": "_tokenId",
          "type": "uint256"
        },
        {
          "indexed": false,
          "name": "_amount",
          "type": "uint256"
        }
      ],
      "name": "BidIncreased",
      "type": "event"
    },
    {
      "anonymous": false,
      "inputs": [
        {
          "indexed": true,
          "name": "_bidder",
          "type": "address"
        },
        {
          "indexed": true,
          "name": "_tokenId",
          "type": "uint256"
        }
      ],
      "name": "BidWithdrawn",
      "type": "event"
    },
    {
      "anonymous": false,
      "inputs": [
        {
          "indexed": true,
          "name": "_bidder",
          "type": "address"
        },
        {
          "indexed": true,
          "name": "_tokenId",
          "type": "uint256"
        },
        {
          "indexed": false,
          "name": "_amount",
          "type": "uint256"
        }
      ],
      "name": "BidAccepted",
      "type": "event"
    },
    {
      "anonymous": false,
      "inputs": [
        {
          "indexed": true,
          "name": "_caller",
          "type": "address"
        },
        {
          "indexed": true,
          "name": "_bidder",
          "type": "address"
        },
        {
          "indexed": true,
          "name": "_tokenId",
          "type": "uint256"
        },
        {
          "indexed": false,
          "name": "_amount",
          "type": "uint256"
        }
      ],
      "name": "BidRejected",
      "type": "event"
    },
    {
      "anonymous": false,
      "inputs": [
        {
          "indexed": true,
          "name": "_tokenId",
          "type": "uint256"
        },
        {
          "indexed": true,
          "name": "_auctioneer",
          "type": "address"
        }
      ],
      "name": "AuctionEnabled",
      "type": "event"
    },
    {
      "anonymous": false,
      "inputs": [
        {
          "indexed": true,
          "name": "_tokenId",
          "type": "uint256"
        },
        {
          "indexed": true,
          "name": "_auctioneer",
          "type": "address"
        }
      ],
      "name": "AuctionDisabled",
      "type": "event"
    },
    {
      "anonymous": false,
      "inputs": [],
      "name": "Pause",
      "type": "event"
    },
    {
      "anonymous": false,
      "inputs": [],
      "name": "Unpause",
      "type": "event"
    },
    {
      "anonymous": false,
      "inputs": [
        {
          "indexed": true,
          "name": "operator",
          "type": "address"
        },
        {
          "indexed": false,
          "name": "role",
          "type": "string"
        }
      ],
      "name": "RoleAdded",
      "type": "event"
    },
    {
      "anonymous": false,
      "inputs": [
        {
          "indexed": true,
          "name": "operator",
          "type": "address"
        },
        {
          "indexed": false,
          "name": "role",
          "type": "string"
        }
      ],
      "name": "RoleRemoved",
      "type": "event"
    },
    {
      "anonymous": false,
      "inputs": [
        {
          "indexed": true,
          "name": "previousOwner",
          "type": "address"
        }
      ],
      "name": "OwnershipRenounced",
      "type": "event"
    },
    {
      "anonymous": false,
      "inputs": [
        {
          "indexed": true,
          "name": "previousOwner",
          "type": "address"
        },
        {
          "indexed": true,
          "name": "newOwner",
          "type": "address"
        }
      ],
      "name": "OwnershipTransferred",
      "type": "event"
    },
    {
      "constant": false,
      "inputs": [
        {
          "name": "_tokenId",
          "type": "uint256"
        }
      ],
      "name": "placeBid",
      "outputs": [],
      "payable": true,
      "stateMutability": "payable",
      "type": "function"
    },
    {
      "constant": false,
      "inputs": [
        {
          "name": "_tokenId",
          "type": "uint256"
        }
      ],
      "name": "increaseBid",
      "outputs": [],
      "payable": true,
      "stateMutability": "payable",
      "type": "function"
    },
    {
      "constant": false,
      "inputs": [
        {
          "name": "_tokenId",
          "type": "uint256"
        }
      ],
      "name": "withdrawBid",
      "outputs": [],
      "payable": false,
      "stateMutability": "nonpayable",
      "type": "function"
    },
    {
      "constant": false,
      "inputs": [
        {
          "name": "_tokenId",
          "type": "uint256"
        }
      ],
      "name": "rejectBid",
      "outputs": [],
      "payable": false,
      "stateMutability": "nonpayable",
      "type": "function"
    },
    {
      "constant": false,
      "inputs": [
        {
          "name": "_tokenId",
          "type": "uint256"
        }
      ],
      "name": "acceptBid",
      "outputs": [],
      "payable": false,
      "stateMutability": "nonpayable",
      "type": "function"
    },
    {
      "constant": true,
      "inputs": [
        {
          "name": "_tokenId",
          "type": "uint256"
        }
      ],
      "name": "tokenInfo",
      "outputs": [
        {
          "name": "_bidder",
          "type": "address"
        },
        {
          "name": "_offer",
          "type": "uint256"
        },
        {
          "name": "_owner",
          "type": "address"
        },
        {
          "name": "_enabled",
          "type": "bool"
        }
      ],
      "payable": false,
      "stateMutability": "view",
      "type": "function"
    },
    {
      "constant": false,
      "inputs": [
        {
          "name": "_tokenId",
          "type": "uint256"
        }
      ],
      "name": "disableAuction",
      "outputs": [],
      "payable": false,
      "stateMutability": "nonpayable",
      "type": "function"
    },
    {
      "constant": false,
      "inputs": [
        {
          "name": "_tokenId",
          "type": "uint256"
        }
      ],
      "name": "enableAuction",
      "outputs": [],
      "payable": false,
      "stateMutability": "nonpayable",
      "type": "function"
    },
    {
      "constant": false,
      "inputs": [
        {
          "name": "_address",
          "type": "address"
        },
        {
          "name": "_tokenId",
          "type": "uint256"
        },
        {
          "name": "_data",
          "type": "bytes"
        }
      ],
      "name": "onERC721Received",
      "outputs": [
        {
          "name": "",
          "type": "bytes4"
        }
      ],
      "payable": false,
      "stateMutability": "nonpayable",
      "type": "function"
    },
    {
      "constant": false,
      "inputs": [
        {
          "name": "_minBidAmount",
          "type": "uint256"
        }
      ],
      "name": "setMinBidAmount",
      "outputs": [],
      "payable": false,
      "stateMutability": "nonpayable",
      "type": "function"
    },
    {
      "constant": false,
      "inputs": [
        {
          "name": "_kodaAddress",
          "type": "address"
        }
      ],
      "name": "setKodavV2",
      "outputs": [],
      "payable": false,
      "stateMutability": "nonpayable",
      "type": "function"
    },
    {
      "constant": false,
      "inputs": [
        {
          "name": "_koCommissionAccount",
          "type": "address"
        }
      ],
      "name": "setKoCommissionAccount",
      "outputs": [],
      "payable": false,
      "stateMutability": "nonpayable",
      "type": "function"
    }
  ],
  "bytecode": "0x60806040526002805460ff19169055668e1bc9bf0400006003556032600655601e6007553480156200003057600080fd5b50604051604080620023188339810160405280516020909101516000805433600160a060020a03199182168117909255600480548216600160a060020a0380871691909117909155600580549092169084161790556200009e90640100000000620000a68102620011781704565b50506200025c565b600054600160a060020a03163314620000be57600080fd5b6200010e816040805190810160405280600981526020017f77686974656c697374000000000000000000000000000000000000000000000081525062000111640100000000026401000000009004565b50565b6200018d826001836040518082805190602001908083835b602083106200014a5780518252601f19909201916020918201910162000129565b51815160209384036101000a600019018019909216911617905292019485525060405193849003019092209291505064010000000062000237810262001feb1704565b81600160a060020a03167fbfec83d64eaa953f2708271a023ab9ee82057f8f3578d548c1a4ba0b5b700489826040518080602001828103825283818151815260200191508051906020019080838360005b83811015620001f8578181015183820152602001620001de565b50505050905090810190601f168015620002265780820380516001836020036101000a031916815260200191505b509250505060405180910390a25050565b600160a060020a0316600090815260209190915260409020805460ff19166001179055565b6120ac806200026c6000396000f3006080604052600436106101895763ffffffff7c010000000000000000000000000000000000000000000000000000000060003504166270c537811461018e5780630872ef6e1461019b5780630988ca8c146101b35780630eaaf4c81461021a57806318b919e914610232578063217fe6c6146102bc57806324953eaa14610337578063286dd3f51461038c5780632b1fd58a146103ad5780633f4ba83a146103c5578063417fd6b6146103da57806349751788146103f25780635c975abb146104195780636511708f1461042e5780636e3341b3146104435780636e93dbdc1461045b578063715018a61461048c5780637b9417c8146104a15780638456cb59146104c25780638da5cb5b146104d7578063953e474a146104ec5780639979ef451461050d5780639b19251a14610518578063b9906cc214610539578063bb435c8d1461054e578063bbee17a314610566578063cc33c87514610587578063e0758c9d146105d4578063e2ec6ec3146105e9578063f0b9e5ba1461063e578063f2fde38b146106dc575b600080fd5b6101996004356106fd565b005b3480156101a757600080fd5b50610199600435610871565b3480156101bf57600080fd5b5060408051602060046024803582810135601f8101859004850286018501909652858552610199958335600160a060020a03169536956044949193909101919081908401838280828437509497506109d69650505050505050565b34801561022657600080fd5b50610199600435610a44565b34801561023e57600080fd5b50610247610afe565b6040805160208082528351818301528351919283929083019185019080838360005b83811015610281578181015183820152602001610269565b50505050905090810190601f1680156102ae5780820380516001836020036101000a031916815260200191505b509250505060405180910390f35b3480156102c857600080fd5b5060408051602060046024803582810135601f8101859004850286018501909652858552610323958335600160a060020a0316953695604494919390910191908190840183828082843750949750610b239650505050505050565b604080519115158252519081900360200190f35b34801561034357600080fd5b506040805160206004803580820135838102808601850190965280855261019995369593946024949385019291829185019084908082843750949750610b989650505050505050565b34801561039857600080fd5b50610199600160a060020a0360043516610be5565b3480156103b957600080fd5b50610199600435610c2c565b3480156103d157600080fd5b50610199610ee6565b3480156103e657600080fd5b50610199600435610f43565b3480156103fe57600080fd5b50610407610f77565b60408051918252519081900360200190f35b34801561042557600080fd5b50610323610f7d565b34801561043a57600080fd5b50610407610f86565b34801561044f57600080fd5b50610199600435610f8c565b34801561046757600080fd5b5061047061110a565b60408051600160a060020a039092168252519081900360200190f35b34801561049857600080fd5b50610199611119565b3480156104ad57600080fd5b50610199600160a060020a0360043516611178565b3480156104ce57600080fd5b506101996111bc565b3480156104e357600080fd5b5061047061121b565b3480156104f857600080fd5b50610199600160a060020a036004351661122a565b6101996004356112db565b34801561052457600080fd5b50610323600160a060020a0360043516611545565b34801561054557600080fd5b50610407611574565b34801561055a57600080fd5b5061019960043561157a565b34801561057257600080fd5b50610199600160a060020a03600435166116e2565b34801561059357600080fd5b5061059f600435611733565b60408051600160a060020a03958616815260208101949094529190931682820152911515606082015290519081900360800190f35b3480156105e057600080fd5b50610470611807565b3480156105f557600080fd5b5060408051602060048035808201358381028086018501909652808552610199953695939460249493850192918291850190849080828437509497506118169650505050505050565b34801561064a57600080fd5b50604080516020600460443581810135601f81018490048402850184019095528484526106a7948235600160a060020a03169460248035953695946064949201919081908401838280828437509497506118639650505050505050565b604080517fffffffff000000000000000000000000000000000000000000000000000000009092168252519081900360200190f35b3480156106e857600080fd5b50610199600160a060020a0360043516611951565b60025460ff161561070d57600080fd5b6000818152600860205260409020548190600160a060020a0316331461077d576040805160e560020a62461bcd02815260206004820152600f60248201527f4e6f74206f66666572206d616b65720000000000000000000000000000000000604482015290519081900360640190fd5b60035460008381526008602052604090206001015483916107a4919063ffffffff61197116565b3410156107fb576040805160e560020a62461bcd02815260206004820152601060248201527f4f66666572206e6f7420656e6f75676800000000000000000000000000000000604482015290519081900360640190fd5b60008381526008602052604090206001015461081d903463ffffffff61197116565b6000848152600860209081526040918290206001019290925580513481529051859233927fabdd90c2558a13a111c790b3e52da9a52768834a1139e2993b68b6db09c071c5929081900390910190a3505050565b3361089f816040805190810160405280600981526020016000805160206120618339815191528152506109d6565b60048054604080517f4f558e79000000000000000000000000000000000000000000000000000000008152928301859052518492600160a060020a0390921691634f558e799160248083019260209291908290030181600087803b15801561090657600080fd5b505af115801561091a573d6000803e3d6000fd5b505050506040513d602081101561093057600080fd5b50511515610988576040805160e560020a62461bcd02815260206004820152601460248201527f546f6b656e20646f6573206e6f74206578697374000000000000000000000000604482015290519081900360640190fd5b6109918361197e565b600083815260096020526040808220805460ff1916905551339185917fdeb115d202a55795fb5e47cee9ce6c0bd792a016a2d1251f937b1bb24e92332e9190a3505050565b610a40826001836040518082805190602001908083835b60208310610a0c5780518252601f1990920191602091820191016109ed565b51815160209384036101000a6000190180199092169116179052920194855250604051938490030190922092915050611a10565b5050565b60025460ff1615610a5457600080fd5b6000818152600860205260409020548190600160a060020a03163314610ac4576040805160e560020a62461bcd02815260206004820152600f60248201527f4e6f74206f66666572206d616b65720000000000000000000000000000000000604482015290519081900360640190fd5b610acd8261197e565b604051829033907f03f0427e8bcfdf5f69217150cf160ebe2dac5fa607336fd7643bfd61a901908090600090a35050565b6040805180820190915260098152600080516020612061833981519152602082015281565b6000610b8f836001846040518082805190602001908083835b60208310610b5b5780518252601f199092019160209182019101610b3c565b51815160209384036101000a6000190180199092169116179052920194855250604051938490030190922092915050611a25565b90505b92915050565b60008054600160a060020a03163314610bb057600080fd5b5060005b8151811015610a4057610bdd8282815181101515610bce57fe5b90602001906020020151610be5565b600101610bb4565b600054600160a060020a03163314610bfc57600080fd5b610c2981604080519081016040528060098152602001600080516020612061833981519152815250611a44565b50565b60025460009081908190819060ff1615610c4557600080fd5b60048054604080517f6352211e00000000000000000000000000000000000000000000000000000000815292830188905251600160a060020a0390911691636352211e9160248083019260209291908290030181600087803b158015610caa57600080fd5b505af1158015610cbe573d6000803e3d6000fd5b505050506040513d6020811015610cd457600080fd5b50519350600160a060020a0384163314610d38576040805160e560020a62461bcd02815260206004820152600f60248201527f4e6f7420746f6b656e206f776e65720000000000000000000000000000000000604482015290519081900360640190fd5b6000858152600860209081526040808320600181015490546004805484517f824eec3b0000000000000000000000000000000000000000000000000000000081529182018c90529351929850600160a060020a03918216975092169363824eec3b93602480850194919392918390030190829087803b158015610dba57600080fd5b505af1158015610dce573d6000803e3d6000fd5b505050506040513d6020811015610de457600080fd5b50519050610df3818486611b55565b60048054604080517f42842e0e0000000000000000000000000000000000000000000000000000000081523393810193909352600160a060020a0385811660248501526044840189905290519116916342842e0e91606480830192600092919082900301818387803b158015610e6857600080fd5b505af1158015610e7c573d6000803e3d6000fd5b5050604080518681529051889350600160a060020a03861692507f90c92f2d4052ed516f2beb1265c36e62af39eb7aaa59cb7595335ce67dc8b96c9181900360200190a35050506000918252506008602052604081208054600160a060020a031916815560010155565b600054600160a060020a03163314610efd57600080fd5b60025460ff161515610f0e57600080fd5b6002805460ff191690556040517f7805862f689e2f13df9f062ff482ad3ad112aca9e0847911ed832e158c525b3390600090a1565b33610f71816040805190810160405280600981526020016000805160206120618339815191528152506109d6565b50600355565b60035481565b60025460ff1681565b60075481565b600254600090819060ff1615610fa157600080fd5b60048054604080517f6352211e0000000000000000000000000000000000000000000000000000000081529283018690525185923392600160a060020a031691636352211e916024808201926020929091908290030181600087803b15801561100957600080fd5b505af115801561101d573d6000803e3d6000fd5b505050506040513d602081101561103357600080fd5b5051600160a060020a031614611093576040805160e560020a62461bcd02815260206004820152600f60248201527f4e6f7420746f6b656e206f776e65720000000000000000000000000000000000604482015290519081900360640190fd5b60008481526008602052604090208054600190910154600160a060020a03909116935091506110c18461197e565b6040805183815290518591600160a060020a0386169133917f841d03d1231c7a17778be9efc220fccbcf8e0d79180778eb59c0653373aa9018919081900360200190a450505050565b600554600160a060020a031681565b600054600160a060020a0316331461113057600080fd5b60008054604051600160a060020a03909116917ff8df31144d9c2f0f6b59d69b8b98abd5459d07f2742c4df920b25aae33c6482091a260008054600160a060020a0319169055565b600054600160a060020a0316331461118f57600080fd5b610c2981604080519081016040528060098152602001600080516020612061833981519152815250611ca9565b600054600160a060020a031633146111d357600080fd5b60025460ff16156111e357600080fd5b6002805460ff191660011790556040517f6985a02210a168e66602d3235cb6db0e70f92b3ba4d376a33c0f3d9434bff62590600090a1565b600054600160a060020a031681565b33611258816040805190810160405280600981526020016000805160206120618339815191528152506109d6565b600160a060020a03821615156112b8576040805160e560020a62461bcd02815260206004820152600f60248201527f496e76616c696420616464726573730000000000000000000000000000000000604482015290519081900360640190fd5b5060058054600160a060020a031916600160a060020a0392909216919091179055565b60025460ff16156112eb57600080fd5b60048054604080517f4f558e79000000000000000000000000000000000000000000000000000000008152928301849052518392600160a060020a0390921691634f558e799160248083019260209291908290030181600087803b15801561135257600080fd5b505af1158015611366573d6000803e3d6000fd5b505050506040513d602081101561137c57600080fd5b505115156113d4576040805160e560020a62461bcd02815260206004820152601460248201527f546f6b656e20646f6573206e6f74206578697374000000000000000000000000604482015290519081900360640190fd5b60035460008381526008602052604090206001015483916113fb919063ffffffff61197116565b341015611452576040805160e560020a62461bcd02815260206004820152601060248201527f4f66666572206e6f7420656e6f75676800000000000000000000000000000000604482015290519081900360640190fd5b600083815260096020526040902054839060ff16156114bb576040805160e560020a62461bcd02815260206004820152601c60248201527f546f6b656e206e6f7420656e61626c656420666f72206f666665727300000000604482015290519081900360640190fd5b6114c48461197e565b6040805180820182523380825234602080840182815260008a81526008835286902094518554600160a060020a031916600160a060020a039091161785555160019094019390935583519081529251879391927fdf8644c0a4c21ed214ce69f395675b3a5fcd1039083daea5058898de40ea3149928290030190a350505050565b6000610b9282604080519081016040528060098152602001600080516020612061833981519152815250610b23565b60065481565b336115a8816040805190810160405280600981526020016000805160206120618339815191528152506109d6565b60048054604080517f4f558e79000000000000000000000000000000000000000000000000000000008152928301859052518492600160a060020a0390921691634f558e799160248083019260209291908290030181600087803b15801561160f57600080fd5b505af1158015611623573d6000803e3d6000fd5b505050506040513d602081101561163957600080fd5b50511515611691576040805160e560020a62461bcd02815260206004820152601460248201527f546f6b656e20646f6573206e6f74206578697374000000000000000000000000604482015290519081900360640190fd5b61169a8361197e565b600083815260096020526040808220805460ff1916600117905551339185917fe0c56951f00a75f5139f9af608a2ae603fe7c340a8f4b4b3125e9a7018041b609190a3505050565b33611710816040805190810160405280600981526020016000805160206120618339815191528152506109d6565b5060048054600160a060020a031916600160a060020a0392909216919091179055565b6000818152600860209081526040808320805460018201546004805485517f6352211e000000000000000000000000000000000000000000000000000000008152918201899052945187968796879695600160a060020a039081169594911692636352211e9260248084019391929182900301818a87803b1580156117b757600080fd5b505af11580156117cb573d6000803e3d6000fd5b505050506040513d60208110156117e157600080fd5b50516000988952600960205260409098205491989097965060ff90911615945092505050565b600454600160a060020a031681565b60008054600160a060020a0316331461182e57600080fd5b5060005b8151811015610a405761185b828281518110151561184c57fe5b90602001906020020151611178565b600101611832565b60007f52548e4e28236d78290c101c358cfbcd432a3b9c0063ecb10e6cb5aad585329b8484845a6040518085600160a060020a0316600160a060020a0316815260200184815260200180602001838152602001828103825284818151815260200191508051906020019080838360005b838110156118eb5781810151838201526020016118d3565b50505050905090810190601f1680156119185780820380516001836020036101000a031916815260200191505b509550505050505060405180910390a1507ff0b9e5ba000000000000000000000000000000000000000000000000000000009392505050565b600054600160a060020a0316331461196857600080fd5b610c2981611d7b565b81810182811015610b9257fe5b60008181526008602052604090208054600190910154600160a060020a039091169081158015906119af5750600081115b15611a0b576000838152600860205260408082208054600160a060020a031916815560010182905551600160a060020a0384169183156108fc02918491818181858888f19350505050158015611a09573d6000803e3d6000fd5b505b505050565b611a1a8282611a25565b1515610a4057600080fd5b600160a060020a03166000908152602091909152604090205460ff1690565b611aae826001836040518082805190602001908083835b60208310611a7a5780518252601f199092019160209182019101611a5b565b51815160209384036101000a6000190180199092169116179052920194855250604051938490030190922092915050611deb565b81600160a060020a03167fd211483f91fc6eff862467f8de606587a30c8fc9981056f051b897a418df803a826040518080602001828103825283818151815260200191508051906020019080838360005b83811015611b17578181015183820152602001611aff565b50505050905090810190601f168015611b445780820380516001836020036101000a031916815260200191505b509250505060405180910390a25050565b60048054604080517f32fd84780000000000000000000000000000000000000000000000000000000081529283018690528051600093849384938493600160a060020a03909216926332fd8478926024808301939282900301818787803b158015611bbf57600080fd5b505af1158015611bd3573d6000803e3d6000fd5b505050506040513d6040811015611be957600080fd5b50805160209091015160048054604080517fde56a2450000000000000000000000000000000000000000000000000000000081529283018c90528051949850929650600160a060020a03169263de56a245926024808401939192918290030181600087803b158015611c5a57600080fd5b505af1158015611c6e573d6000803e3d6000fd5b505050506040513d6040811015611c8457600080fd5b5080516020909101519092509050611ca0848484848a8a611e0d565b50505050505050565b611d13826001836040518082805190602001908083835b60208310611cdf5780518252601f199092019160209182019101611cc0565b51815160209384036101000a6000190180199092169116179052920194855250604051938490030190922092915050611feb565b81600160a060020a03167fbfec83d64eaa953f2708271a023ab9ee82057f8f3578d548c1a4ba0b5b7004898260405180806020018281038252838181518152602001915080519060200190808383600083811015611b17578181015183820152602001611aff565b600160a060020a0381161515611d9057600080fd5b60008054604051600160a060020a03808516939216917f8be0079c531659141344cd1fd0a4f28419497f9722a3daafe3b4186f6b6457e091a360008054600160a060020a031916600160a060020a0392909216919091179055565b600160a060020a0316600090815260209190915260409020805460ff19169055565b6000806000806000806000611e2d6006548561197190919063ffffffff16565b9650611e5187611e458b6103e863ffffffff61201016565b9063ffffffff61202516565b9550611e63898763ffffffff61204e16565b604051909550600160a060020a0389169086156108fc029087906000818181858888f19350505050158015611e9c573d6000803e3d6000fd5b50600754611eb690611e458b6103e863ffffffff61201016565b600554604051919550600160a060020a03169085156108fc029086906000818181858888f19350505050158015611ef1573d6000803e3d6000fd5b50611f028c8c63ffffffff61197116565b9250611f1a6103e8611e458e8663ffffffff61201016565b9150600160a060020a038d166108fc611f3f84611e458d6103e863ffffffff61201016565b6040518115909202916000818181858888f19350505050158015611f67573d6000803e3d6000fd5b50600160a060020a038a1615611fdc57611f8d6103e8611e458d8663ffffffff61201016565b9050600160a060020a038a166108fc611fb283611e458d6103e863ffffffff61201016565b6040518115909202916000818181858888f19350505050158015611fda573d6000803e3d6000fd5b505b50505050505050505050505050565b600160a060020a0316600090815260209190915260409020805460ff19166001179055565b6000818381151561201d57fe5b049392505050565b600082151561203657506000610b92565b5081810281838281151561204657fe5b0414610b9257fe5b60008282111561205a57fe5b50900390560077686974656c6973740000000000000000000000000000000000000000000000a165627a7a723058206547bc7e77448fac2e6b70cfe81a1b1c5a98274c131b2de0aed7408b1ad76c3b0029",
  "source": "pragma solidity ^0.4.24;\n\nimport \"openzeppelin-solidity/contracts/access/rbac/Roles.sol\";\nimport \"openzeppelin-solidity/contracts/lifecycle/Pausable.sol\";\nimport \"openzeppelin-solidity/contracts/access/Whitelist.sol\";\nimport \"openzeppelin-solidity/contracts/math/SafeMath.sol\";\n\nimport \"../../v1/ERC721Receiver.sol\";\n\ninterface ITokenMarketplace {\n\n  event BidPlaced(\n    address indexed _bidder,\n    uint256 indexed _tokenId,\n    uint256 _amount\n  );\n\n  event BidIncreased(\n    address indexed _bidder,\n    uint256 indexed _tokenId,\n    uint256 _amount\n  );\n\n  event BidWithdrawn(\n    address indexed _bidder,\n    uint256 indexed _tokenId\n  );\n\n  event BidAccepted(\n    address indexed _bidder,\n    uint256 indexed _tokenId,\n    uint256 _amount\n  );\n\n  event BidRejected(\n    address indexed _caller,\n    address indexed _bidder,\n    uint256 indexed _tokenId,\n    uint256 _amount\n  );\n\n  event AuctionEnabled(\n    uint256 indexed _tokenId,\n    address indexed _auctioneer\n  );\n\n  event AuctionDisabled(\n    uint256 indexed _tokenId,\n    address indexed _auctioneer\n  );\n\n  function placeBid(uint256 _tokenId) payable external returns (bool success);\n\n  function increaseBid(uint256 _tokenId) payable external returns (bool success);\n\n  function withdrawBid(uint256 _tokenId) external returns (bool success);\n\n  function acceptBid(uint256 _tokenId) external returns (uint256 tokenId);\n\n  function rejectBid(uint256 _tokenId) external returns (bool success);\n\n  function enableAuction(uint256 _tokenId) external returns (bool success);\n\n  function disableAuction(uint256 _tokenId) external returns (bool success);\n}\n\ninterface IKODAV2 {\n  function ownerOf(uint256 _tokenId) external view returns (address _owner);\n\n  function exists(uint256 _tokenId) external view returns (bool _exists);\n\n  function editionOfTokenId(uint256 _tokenId) external view returns (uint256 tokenId);\n\n  function artistCommission(uint256 _tokenId) external view returns (address _artistAccount, uint256 _artistCommission);\n\n  function editionOptionalCommission(uint256 _tokenId) external view returns (uint256 _rate, address _recipient);\n\n  function safeTransferFrom(address _from, address _to, uint256 _tokenId) external;\n}\n\n/**\n * @title\n * @dev\n *\n * Goals\n * Allow Token X to be placed on the market\n *\n *\n */\ncontract TokenMarketplace is Whitelist, Pausable, ERC721Receiver, ITokenMarketplace {\n  using SafeMath for uint256;\n\n  event Received(address _address, uint256 _tokenId, bytes _data, uint256 _gas);\n\n  struct Offer {\n    address bidder;\n    uint256 offer;\n  }\n\n  // Min increase in bid amount\n  uint256 public minBidAmount = 0.04 ether;\n\n  // Interface into the KODA world\n  IKODAV2 public kodaAddress;\n\n  // KO account which can receive commission\n  address public koCommissionAccount;\n\n  // 50 = 5%\n  uint256 public defaultArtistRoyaltyPercentage = 50;\n\n  // 30 = 3%\n  uint256 public defaultKOPercentage = 30;\n\n  // Token ID to Offer mapping\n  mapping(uint256 => Offer) offers;\n\n  mapping(uint256 => bool) disabledTokens;\n\n  ///////////////\n  // Modifiers //\n  ///////////////\n\n  modifier onlyTokenOwner(uint256 _tokenId) {\n    require(kodaAddress.ownerOf(_tokenId) == msg.sender, \"Not token owner\");\n    _;\n  }\n\n  modifier onlyWhenOfferOwner(uint256 _tokenId) {\n    require(offers[_tokenId].bidder == msg.sender, \"Not offer maker\");\n    _;\n  }\n\n  modifier onlyWhenTokenExists(uint256 _tokenId) {\n    require(kodaAddress.exists(_tokenId), \"Token does not exist\");\n    _;\n  }\n\n  modifier onlyWhenBidOverMinAmount(uint256 _tokenId) {\n    require(msg.value >= offers[_tokenId].offer.add(minBidAmount), \"Offer not enough\");\n    _;\n  }\n\n  modifier onlyWhenTokenAuctionEnabled(uint256 _tokenId) {\n    require(!disabledTokens[_tokenId], \"Token not enabled for offers\");\n    _;\n  }\n\n  /////////////////\n  // Constructor //\n  /////////////////\n\n  // Set the caller as the default KO account\n  constructor(IKODAV2 _kodaAddress, address _koCommissionAccount) public {\n    kodaAddress = _kodaAddress;\n    koCommissionAccount = _koCommissionAccount;\n    super.addAddressToWhitelist(msg.sender);\n  }\n\n  //////////////////\n  // User Actions //\n  //////////////////\n\n  function placeBid(uint256 _tokenId)\n  public\n  payable\n  whenNotPaused\n  onlyWhenTokenExists(_tokenId)\n  onlyWhenBidOverMinAmount(_tokenId)\n  onlyWhenTokenAuctionEnabled(_tokenId)\n  {\n    _refundHighestBidder(_tokenId);\n\n    offers[_tokenId] = Offer(msg.sender, msg.value);\n\n    emit BidPlaced(msg.sender, _tokenId, msg.value);\n  }\n\n  function increaseBid(uint256 _tokenId)\n  public\n  payable\n  whenNotPaused\n  onlyWhenOfferOwner(_tokenId)\n  onlyWhenBidOverMinAmount(_tokenId)\n  {\n    offers[_tokenId].offer = offers[_tokenId].offer.add(msg.value);\n\n    emit BidIncreased(msg.sender, _tokenId, msg.value);\n  }\n\n  function withdrawBid(uint256 _tokenId)\n  public\n  whenNotPaused\n  onlyWhenOfferOwner(_tokenId)\n  {\n\n    _refundHighestBidder(_tokenId);\n\n    emit BidWithdrawn(msg.sender, _tokenId);\n  }\n\n  function rejectBid(uint256 _tokenId)\n  public\n  whenNotPaused\n  onlyTokenOwner(_tokenId)\n  {\n    address currentHighestBidder = offers[_tokenId].bidder;\n    uint256 currentHighestBiddersAmount = offers[_tokenId].offer;\n\n    _refundHighestBidder(_tokenId);\n\n    emit BidRejected(msg.sender, currentHighestBidder, _tokenId, currentHighestBiddersAmount);\n  }\n\n  function acceptBid(uint256 _tokenId)\n  public\n  whenNotPaused\n  {\n    address currentOwner = kodaAddress.ownerOf(_tokenId);\n    require(currentOwner == msg.sender, \"Not token owner\");\n\n    uint256 winningOffer = offers[_tokenId].offer;\n    address winningBidder = offers[_tokenId].bidder;\n\n    // Get edition no.\n    uint256 _editionNumber = kodaAddress.editionOfTokenId(_tokenId);\n\n    _handleFunds(_editionNumber, winningOffer, currentOwner);\n\n    kodaAddress.safeTransferFrom(msg.sender, winningBidder, _tokenId);\n\n    emit BidAccepted(winningBidder, _tokenId, winningOffer);\n\n    delete offers[_tokenId];\n  }\n\n  function tokenInfo(uint256 _tokenId) external view returns (address _bidder, uint256 _offer, address _owner, bool _enabled) {\n    Offer offer = offers[_tokenId];\n    return (\n    offer.bidder,\n    offer.offer,\n    kodaAddress.ownerOf(_tokenId),\n    !disabledTokens[_tokenId]\n    );\n  }\n\n  /**\n   * Returns funds of the previous highest bidder back to them if present\n   */\n  function _refundHighestBidder(uint256 _tokenId) internal {\n    // Get current highest bidder\n    address currentHighestBidder = offers[_tokenId].bidder;\n\n    // Get current highest bid amount\n    uint256 currentHighestBiddersAmount = offers[_tokenId].offer;\n\n    if (currentHighestBidder != address(0) && currentHighestBiddersAmount > 0) {\n\n      // Clear out highest bidder\n      delete offers[_tokenId];\n\n      // Refund it\n      currentHighestBidder.transfer(currentHighestBiddersAmount);\n    }\n  }\n\n  function _handleFunds(uint256 _editionNumber, uint256 _offer, address _currentOwner) internal {\n\n    // Get existing artist commission\n    (address artistAccount, uint256 artistCommission) = kodaAddress.artistCommission(_editionNumber);\n\n    // Get existing optional commission\n    (uint256 optionalCommissionRate, address optionalCommissionRecipient) = kodaAddress.editionOptionalCommission(_editionNumber);\n\n    _splitFunds(artistAccount, artistCommission, optionalCommissionRate, optionalCommissionRecipient, _offer, _currentOwner);\n  }\n\n  function _splitFunds(\n    address artistAccount,\n    uint256 artistCommission,\n    uint256 optionalCommissionRate,\n    address optionalCommissionRecipient,\n    uint256 _offer,\n    address _currentOwner\n  ) internal {\n\n    // Work out total % of royalties to payout e.g. 3 + 5 = 8%\n    uint256 totalCommissionPercentageToPay = koCommission.add(defaultArtistRoyaltyPercentage);\n\n    // KO + artist commission to payout e.g. 8% of the offer\n    uint256 totalCommissionToPay = _offer.div(1000).mul(totalCommissionPercentageToPay);\n\n    // Send current owner their share e.g. 92% of the offer\n    uint256 totalToSendToOwner = _offer.sub(totalCommissionToPay);\n    _currentOwner.transfer(totalToSendToOwner);\n\n    // Send 3% to KO\n    uint256 koCommission = _offer.div(1000).mul(defaultKOPercentage);\n    koCommissionAccount.transfer(koCommission);\n\n    // 42% + 43% = 85%\n    uint256 _totalCollaboratorsRate = artistCommission.add(optionalCommissionRate);\n\n    // work out % of royalties total to split e.g. 43 / 85 = 0.505882353\n    uint256 _collaboratorOneRate = artistCommission.div(_totalCollaboratorsRate).mul(1000);\n\n    // Send commission to primary artist\n    artistAccount.transfer(_offer.div(1000).mul(_collaboratorOneRate));\n\n    // If there is an extra commission address\n    if (optionalCommissionRecipient != address(0)) {\n\n      // work out % of royalties total to split e.g. 42 / 85 = 0.494117647\n      uint256 _collaboratorTwoRate = optionalCommissionRate.div(_totalCollaboratorsRate).mul(1000);\n\n      // Send commission to additional address\n      optionalCommissionRecipient.transfer(_offer.div(1000).mul(_collaboratorTwoRate));\n    }\n  }\n\n  ///////////////////\n  // Admin Actions //\n  ///////////////////\n\n  function disableAuction(uint256 _tokenId)\n  public\n  onlyIfWhitelisted(msg.sender)\n  onlyWhenTokenExists(_tokenId)\n  {\n    _refundHighestBidder(_tokenId);\n    disabledTokens[_tokenId] = true;\n\n    emit AuctionDisabled(_tokenId, msg.sender);\n  }\n\n  function enableAuction(uint256 _tokenId)\n  public\n  onlyIfWhitelisted(msg.sender)\n  onlyWhenTokenExists(_tokenId)\n  {\n    _refundHighestBidder(_tokenId);\n    disabledTokens[_tokenId] = false;\n\n    emit AuctionEnabled(_tokenId, msg.sender);\n  }\n\n  function onERC721Received(address _address, uint256 _tokenId, bytes _data) public returns (bytes4) {\n    Received(_address, _tokenId, _data, msg.gas);\n    return ERC721_RECEIVED;\n  }\n\n  function setMinBidAmount(uint256 _minBidAmount) onlyIfWhitelisted(msg.sender) public {\n    minBidAmount = _minBidAmount;\n  }\n\n  function setKodavV2(IKODAV2 _kodaAddress) onlyIfWhitelisted(msg.sender) public {\n    kodaAddress = _kodaAddress;\n  }\n\n  function setKoCommissionAccount(address _koCommissionAccount) public onlyIfWhitelisted(msg.sender) {\n    require(_koCommissionAccount != address(0), \"Invalid address\");\n    koCommissionAccount = _koCommissionAccount;\n  }\n}\n",
  "sourcePath": "/Users/jamesmorgan/Dropbox/workspace-blockrocket/knownorigin/known-origin-contracts/contracts/v2/marketplace/TokenMarketplace.sol",
  "compiler": {
    "name": "solc",
    "version": "0.4.24+commit.e67f0147.Emscripten.clang"
  },
  "schemaVersion": "3.0.19",
  "updatedAt": "2020-03-13T16:17:40.552Z",
  "devdoc": {
    "methods": {
      "addAddressToWhitelist(address)": {
        "details": "add an address to the whitelist",
        "params": {
          "_operator": "address"
        },
        "return": "true if the address was added to the whitelist, false if the address was already in the whitelist"
      },
      "addAddressesToWhitelist(address[])": {
        "details": "add addresses to the whitelist",
        "params": {
          "_operators": "addresses"
        },
        "return": "true if at least one address was added to the whitelist, false if all addresses were already in the whitelist"
      },
      "checkRole(address,string)": {
        "details": "reverts if addr does not have role",
        "params": {
          "_operator": "address",
          "_role": "the name of the role // reverts"
        }
      },
      "hasRole(address,string)": {
        "details": "determine if addr has role",
        "params": {
          "_operator": "address",
          "_role": "the name of the role"
        },
        "return": "bool"
      },
      "pause()": {
        "details": "called by the owner to pause, triggers stopped state"
      },
      "removeAddressFromWhitelist(address)": {
        "details": "remove an address from the whitelist",
        "params": {
          "_operator": "address"
        },
        "return": "true if the address was removed from the whitelist, false if the address wasn't in the whitelist in the first place"
      },
      "removeAddressesFromWhitelist(address[])": {
        "details": "remove addresses from the whitelist",
        "params": {
          "_operators": "addresses"
        },
        "return": "true if at least one address was removed from the whitelist, false if all addresses weren't in the whitelist in the first place"
      },
      "renounceOwnership()": {
        "details": "Allows the current owner to relinquish control of the contract."
      },
      "transferOwnership(address)": {
        "details": "Allows the current owner to transfer control of the contract to a newOwner.",
        "params": {
          "_newOwner": "The address to transfer ownership to."
        }
      },
      "unpause()": {
        "details": "called by the owner to unpause, returns to normal state"
      },
      "whitelist(address)": {
        "details": "getter to determine if address is in whitelist"
      }
    },
    "title": "@dev * Goals Allow Token X to be placed on the market *"
  },
  "userdoc": {
    "methods": {
      "disableAuction(uint256)": {
        "notice": "////////////////"
      },
      "placeBid(uint256)": {
        "notice": "///////////////"
      },
      "renounceOwnership()": {
        "notice": "Renouncing to ownership will leave the contract without an owner. It will not be possible to call the functions with the `onlyOwner` modifier anymore."
      }
    }
  }
}