{
  "contractName": "TokenMarketplace",
  "abi": [
    {
      "constant": true,
      "inputs": [
        {
          "name": "_operator",
          "type": "address"
        },
        {
          "name": "_role",
          "type": "string"
        }
      ],
      "name": "checkRole",
      "outputs": [],
      "payable": false,
      "stateMutability": "view",
      "type": "function"
    },
    {
      "constant": true,
      "inputs": [],
      "name": "ROLE_WHITELISTED",
      "outputs": [
        {
          "name": "",
          "type": "string"
        }
      ],
      "payable": false,
      "stateMutability": "view",
      "type": "function"
    },
    {
      "constant": true,
      "inputs": [
        {
          "name": "_operator",
          "type": "address"
        },
        {
          "name": "_role",
          "type": "string"
        }
      ],
      "name": "hasRole",
      "outputs": [
        {
          "name": "",
          "type": "bool"
        }
      ],
      "payable": false,
      "stateMutability": "view",
      "type": "function"
    },
    {
      "constant": false,
      "inputs": [
        {
          "name": "_operators",
          "type": "address[]"
        }
      ],
      "name": "removeAddressesFromWhitelist",
      "outputs": [],
      "payable": false,
      "stateMutability": "nonpayable",
      "type": "function"
    },
    {
      "constant": false,
      "inputs": [
        {
          "name": "_operator",
          "type": "address"
        }
      ],
      "name": "removeAddressFromWhitelist",
      "outputs": [],
      "payable": false,
      "stateMutability": "nonpayable",
      "type": "function"
    },
    {
      "constant": false,
      "inputs": [],
      "name": "unpause",
      "outputs": [],
      "payable": false,
      "stateMutability": "nonpayable",
      "type": "function"
    },
    {
      "constant": true,
      "inputs": [],
      "name": "minBidAmount",
      "outputs": [
        {
          "name": "",
          "type": "uint256"
        }
      ],
      "payable": false,
      "stateMutability": "view",
      "type": "function"
    },
    {
      "constant": true,
      "inputs": [],
      "name": "artistRoyaltyPercentage",
      "outputs": [
        {
          "name": "",
          "type": "uint256"
        }
      ],
      "payable": false,
      "stateMutability": "view",
      "type": "function"
    },
    {
      "constant": true,
      "inputs": [],
      "name": "paused",
      "outputs": [
        {
          "name": "",
          "type": "bool"
        }
      ],
      "payable": false,
      "stateMutability": "view",
      "type": "function"
    },
    {
      "constant": true,
      "inputs": [],
      "name": "koCommissionAccount",
      "outputs": [
        {
          "name": "",
          "type": "address"
        }
      ],
      "payable": false,
      "stateMutability": "view",
      "type": "function"
    },
    {
      "constant": false,
      "inputs": [],
      "name": "renounceOwnership",
      "outputs": [],
      "payable": false,
      "stateMutability": "nonpayable",
      "type": "function"
    },
    {
      "constant": false,
      "inputs": [
        {
          "name": "_operator",
          "type": "address"
        }
      ],
      "name": "addAddressToWhitelist",
      "outputs": [],
      "payable": false,
      "stateMutability": "nonpayable",
      "type": "function"
    },
    {
      "constant": false,
      "inputs": [],
      "name": "pause",
      "outputs": [],
      "payable": false,
      "stateMutability": "nonpayable",
      "type": "function"
    },
    {
      "constant": true,
      "inputs": [],
      "name": "owner",
      "outputs": [
        {
          "name": "",
          "type": "address"
        }
      ],
      "payable": false,
      "stateMutability": "view",
      "type": "function"
    },
    {
      "constant": true,
      "inputs": [
        {
          "name": "_operator",
          "type": "address"
        }
      ],
      "name": "whitelist",
      "outputs": [
        {
          "name": "",
          "type": "bool"
        }
      ],
      "payable": false,
      "stateMutability": "view",
      "type": "function"
    },
    {
      "constant": true,
      "inputs": [],
      "name": "platformFeePercentage",
      "outputs": [
        {
          "name": "",
          "type": "uint256"
        }
      ],
      "payable": false,
      "stateMutability": "view",
      "type": "function"
    },
    {
      "constant": true,
      "inputs": [],
      "name": "kodaAddress",
      "outputs": [
        {
          "name": "",
          "type": "address"
        }
      ],
      "payable": false,
      "stateMutability": "view",
      "type": "function"
    },
    {
      "constant": false,
      "inputs": [
        {
          "name": "_operators",
          "type": "address[]"
        }
      ],
      "name": "addAddressesToWhitelist",
      "outputs": [],
      "payable": false,
      "stateMutability": "nonpayable",
      "type": "function"
    },
    {
      "constant": false,
      "inputs": [
        {
          "name": "_newOwner",
          "type": "address"
        }
      ],
      "name": "transferOwnership",
      "outputs": [],
      "payable": false,
      "stateMutability": "nonpayable",
      "type": "function"
    },
    {
      "inputs": [
        {
          "name": "_kodaAddress",
          "type": "address"
        },
        {
          "name": "_koCommissionAccount",
          "type": "address"
        }
      ],
      "payable": false,
      "stateMutability": "nonpayable",
      "type": "constructor"
    },
    {
      "anonymous": false,
      "inputs": [
        {
          "indexed": false,
          "name": "_oldPercentage",
          "type": "uint256"
        },
        {
          "indexed": false,
          "name": "_newPercentage",
          "type": "uint256"
        }
      ],
      "name": "UpdatePlatformPercentageFee",
      "type": "event"
    },
    {
      "anonymous": false,
      "inputs": [
        {
          "indexed": false,
          "name": "_oldPercentage",
          "type": "uint256"
        },
        {
          "indexed": false,
          "name": "_newPercentage",
          "type": "uint256"
        }
      ],
      "name": "UpdateRoyaltyPercentageFee",
      "type": "event"
    },
    {
      "anonymous": false,
      "inputs": [
        {
          "indexed": true,
          "name": "_tokenId",
          "type": "uint256"
        },
        {
          "indexed": true,
          "name": "_currentOwner",
          "type": "address"
        },
        {
          "indexed": true,
          "name": "_bidder",
          "type": "address"
        },
        {
          "indexed": false,
          "name": "_amount",
          "type": "uint256"
        }
      ],
      "name": "BidPlaced",
      "type": "event"
    },
    {
      "anonymous": false,
      "inputs": [
        {
          "indexed": true,
          "name": "_tokenId",
          "type": "uint256"
        },
        {
          "indexed": true,
          "name": "_bidder",
          "type": "address"
        }
      ],
      "name": "BidWithdrawn",
      "type": "event"
    },
    {
      "anonymous": false,
      "inputs": [
        {
          "indexed": true,
          "name": "_tokenId",
          "type": "uint256"
        },
        {
          "indexed": true,
          "name": "_currentOwner",
          "type": "address"
        },
        {
          "indexed": true,
          "name": "_bidder",
          "type": "address"
        },
        {
          "indexed": false,
          "name": "_amount",
          "type": "uint256"
        }
      ],
      "name": "BidAccepted",
      "type": "event"
    },
    {
      "anonymous": false,
      "inputs": [
        {
          "indexed": true,
          "name": "_tokenId",
          "type": "uint256"
        },
        {
          "indexed": true,
          "name": "_currentOwner",
          "type": "address"
        },
        {
          "indexed": true,
          "name": "_bidder",
          "type": "address"
        },
        {
          "indexed": false,
          "name": "_amount",
          "type": "uint256"
        }
      ],
      "name": "BidRejected",
      "type": "event"
    },
    {
      "anonymous": false,
      "inputs": [
        {
          "indexed": true,
          "name": "_tokenId",
          "type": "uint256"
        },
        {
          "indexed": true,
          "name": "_auctioneer",
          "type": "address"
        }
      ],
      "name": "AuctionEnabled",
      "type": "event"
    },
    {
      "anonymous": false,
      "inputs": [
        {
          "indexed": true,
          "name": "_tokenId",
          "type": "uint256"
        },
        {
          "indexed": true,
          "name": "_auctioneer",
          "type": "address"
        }
      ],
      "name": "AuctionDisabled",
      "type": "event"
    },
    {
      "anonymous": false,
      "inputs": [],
      "name": "Pause",
      "type": "event"
    },
    {
      "anonymous": false,
      "inputs": [],
      "name": "Unpause",
      "type": "event"
    },
    {
      "anonymous": false,
      "inputs": [
        {
          "indexed": true,
          "name": "operator",
          "type": "address"
        },
        {
          "indexed": false,
          "name": "role",
          "type": "string"
        }
      ],
      "name": "RoleAdded",
      "type": "event"
    },
    {
      "anonymous": false,
      "inputs": [
        {
          "indexed": true,
          "name": "operator",
          "type": "address"
        },
        {
          "indexed": false,
          "name": "role",
          "type": "string"
        }
      ],
      "name": "RoleRemoved",
      "type": "event"
    },
    {
      "anonymous": false,
      "inputs": [
        {
          "indexed": true,
          "name": "previousOwner",
          "type": "address"
        }
      ],
      "name": "OwnershipRenounced",
      "type": "event"
    },
    {
      "anonymous": false,
      "inputs": [
        {
          "indexed": true,
          "name": "previousOwner",
          "type": "address"
        },
        {
          "indexed": true,
          "name": "newOwner",
          "type": "address"
        }
      ],
      "name": "OwnershipTransferred",
      "type": "event"
    },
    {
      "constant": false,
      "inputs": [
        {
          "name": "_tokenId",
          "type": "uint256"
        }
      ],
      "name": "placeBid",
      "outputs": [],
      "payable": true,
      "stateMutability": "payable",
      "type": "function"
    },
    {
      "constant": false,
      "inputs": [
        {
          "name": "_tokenId",
          "type": "uint256"
        }
      ],
      "name": "withdrawBid",
      "outputs": [],
      "payable": false,
      "stateMutability": "nonpayable",
      "type": "function"
    },
    {
      "constant": false,
      "inputs": [
        {
          "name": "_tokenId",
          "type": "uint256"
        }
      ],
      "name": "rejectBid",
      "outputs": [],
      "payable": false,
      "stateMutability": "nonpayable",
      "type": "function"
    },
    {
      "constant": false,
      "inputs": [
        {
          "name": "_tokenId",
          "type": "uint256"
        }
      ],
      "name": "acceptBid",
      "outputs": [],
      "payable": false,
      "stateMutability": "nonpayable",
      "type": "function"
    },
    {
      "constant": true,
      "inputs": [
        {
          "name": "_tokenId",
          "type": "uint256"
        }
      ],
      "name": "tokenOffer",
      "outputs": [
        {
          "name": "_bidder",
          "type": "address"
        },
        {
          "name": "_offer",
          "type": "uint256"
        },
        {
          "name": "_owner",
          "type": "address"
        },
        {
          "name": "_enabled",
          "type": "bool"
        },
        {
          "name": "_paused",
          "type": "bool"
        }
      ],
      "payable": false,
      "stateMutability": "view",
      "type": "function"
    },
    {
      "constant": true,
      "inputs": [
        {
          "name": "_tokenId",
          "type": "uint256"
        }
      ],
      "name": "determineSaleValues",
      "outputs": [
        {
          "name": "_sellerTotal",
          "type": "uint256"
        },
        {
          "name": "_platformFee",
          "type": "uint256"
        },
        {
          "name": "_royaltyFee",
          "type": "uint256"
        }
      ],
      "payable": false,
      "stateMutability": "view",
      "type": "function"
    },
    {
      "constant": false,
      "inputs": [
        {
          "name": "_tokenId",
          "type": "uint256"
        }
      ],
      "name": "disableAuction",
      "outputs": [],
      "payable": false,
      "stateMutability": "nonpayable",
      "type": "function"
    },
    {
      "constant": false,
      "inputs": [
        {
          "name": "_tokenId",
          "type": "uint256"
        }
      ],
      "name": "enableAuction",
      "outputs": [],
      "payable": false,
      "stateMutability": "nonpayable",
      "type": "function"
    },
    {
      "constant": false,
      "inputs": [
        {
          "name": "_minBidAmount",
          "type": "uint256"
        }
      ],
      "name": "setMinBidAmount",
      "outputs": [],
      "payable": false,
      "stateMutability": "nonpayable",
      "type": "function"
    },
    {
      "constant": false,
      "inputs": [
        {
          "name": "_kodaAddress",
          "type": "address"
        }
      ],
      "name": "setKodavV2",
      "outputs": [],
      "payable": false,
      "stateMutability": "nonpayable",
      "type": "function"
    },
    {
      "constant": false,
      "inputs": [
        {
          "name": "_koCommissionAccount",
          "type": "address"
        }
      ],
      "name": "setKoCommissionAccount",
      "outputs": [],
      "payable": false,
      "stateMutability": "nonpayable",
      "type": "function"
    },
    {
      "constant": false,
      "inputs": [
        {
          "name": "_artistRoyaltyPercentage",
          "type": "uint256"
        }
      ],
      "name": "setArtistRoyaltyPercentage",
      "outputs": [],
      "payable": false,
      "stateMutability": "nonpayable",
      "type": "function"
    },
    {
      "constant": false,
      "inputs": [
        {
          "name": "_platformFeePercentage",
          "type": "uint256"
        }
      ],
      "name": "setPlatformPercentage",
      "outputs": [],
      "payable": false,
      "stateMutability": "nonpayable",
      "type": "function"
    }
  ],
  "bytecode": "0x60806040526002805460ff19169055668e1bc9bf0400006003556032600655601e6007553480156200003057600080fd5b50604051604080620023008339810160405280516020909101516000805433600160a060020a03199182168117909255600480548216600160a060020a0380871691909117909155600580549092169084161790556200009e90640100000000620000a68102620011ac1704565b50506200025c565b600054600160a060020a03163314620000be57600080fd5b6200010e816040805190810160405280600981526020017f77686974656c697374000000000000000000000000000000000000000000000081525062000111640100000000026401000000009004565b50565b6200018d826001836040518082805190602001908083835b602083106200014a5780518252601f19909201916020918201910162000129565b51815160209384036101000a600019018019909216911617905292019485525060405193849003019092209291505064010000000062000237810262001f101704565b81600160a060020a03167fbfec83d64eaa953f2708271a023ab9ee82057f8f3578d548c1a4ba0b5b700489826040518080602001828103825283818151815260200191508051906020019080838360005b83811015620001f8578181015183820152602001620001de565b50505050905090810190601f168015620002265780820380516001836020036101000a031916815260200191505b509250505060405180910390a25050565b600160a060020a0316600090815260209190915260409020805460ff19166001179055565b612094806200026c6000396000f3006080604052600436106101955763ffffffff7c01000000000000000000000000000000000000000000000000000000006000350416630872ef6e811461019a5780630988ca8c146101b45780630eaaf4c81461021b57806314d39bad1461023357806318b919e91461024b578063217fe6c6146102d557806324953eaa1461035057806326aa5942146103a5578063286dd3f5146103db5780632b1fd58a146103fc5780633f4ba83a14610414578063417fd6b61461042957806349751788146104415780635c06d0e0146104685780635c975abb1461047d5780636e3341b3146104925780636e93dbdc146104aa578063715018a6146104db5780637b9417c8146104f05780638456cb59146105115780638795dcff146105265780638da5cb5b1461057a578063953e474a1461058f5780639841ee39146105b05780639979ef45146105c85780639b19251a146105d3578063bb435c8d146105f4578063bbee17a31461060c578063cdd78cfc1461062d578063e0758c9d14610642578063e2ec6ec314610657578063f2fde38b146106ac575b600080fd5b3480156101a657600080fd5b506101b26004356106cd565b005b3480156101c057600080fd5b5060408051602060046024803582810135601f81018590048502860185019096528585526101b2958335600160a060020a03169536956044949193909101919081908401838280828437509497506107489650505050505050565b34801561022757600080fd5b506101b26004356107b6565b34801561023f57600080fd5b506101b260043561095a565b34801561025757600080fd5b506102606109cb565b6040805160208082528351818301528351919283929083019185019080838360005b8381101561029a578181015183820152602001610282565b50505050905090810190601f1680156102c75780820380516001836020036101000a031916815260200191505b509250505060405180910390f35b3480156102e157600080fd5b5060408051602060046024803582810135601f810185900485028601850190965285855261033c958335600160a060020a03169536956044949193909101919081908401838280828437509497506109f09650505050505050565b604080519115158252519081900360200190f35b34801561035c57600080fd5b50604080516020600480358082013583810280860185019096528085526101b295369593946024949385019291829185019084908082843750949750610a659650505050505050565b3480156103b157600080fd5b506103bd600435610ab2565b60408051938452602084019290925282820152519081900360600190f35b3480156103e757600080fd5b506101b2600160a060020a0360043516610b6c565b34801561040857600080fd5b506101b2600435610bb3565b34801561042057600080fd5b506101b2610ec6565b34801561043557600080fd5b506101b2600435610f23565b34801561044d57600080fd5b50610456610f57565b60408051918252519081900360200190f35b34801561047457600080fd5b50610456610f5d565b34801561048957600080fd5b5061033c610f63565b34801561049e57600080fd5b506101b2600435610f6c565b3480156104b657600080fd5b506104bf61113e565b60408051600160a060020a039092168252519081900360200190f35b3480156104e757600080fd5b506101b261114d565b3480156104fc57600080fd5b506101b2600160a060020a03600435166111ac565b34801561051d57600080fd5b506101b26111f0565b34801561053257600080fd5b5061053e60043561124f565b60408051600160a060020a0396871681526020810195909552929094168383015215156060830152911515608082015290519081900360a00190f35b34801561058657600080fd5b506104bf611336565b34801561059b57600080fd5b506101b2600160a060020a0360043516611345565b3480156105bc57600080fd5b506101b26004356113f6565b6101b2600435611467565b3480156105df57600080fd5b5061033c600160a060020a0360043516611755565b34801561060057600080fd5b506101b2600435611784565b34801561061857600080fd5b506101b2600160a060020a0360043516611802565b34801561063957600080fd5b50610456611853565b34801561064e57600080fd5b506104bf611859565b34801561066357600080fd5b50604080516020600480358082013583810280860185019096528085526101b2953695939460249493850192918291850190849080828437509497506118689650505050505050565b3480156106b857600080fd5b506101b2600160a060020a03600435166118b5565b336106fb81604080519081016040528060098152602001600080516020612049833981519152815250610748565b610704826118d5565b600082815260096020526040808220805460ff1916905551339184917fdeb115d202a55795fb5e47cee9ce6c0bd792a016a2d1251f937b1bb24e92332e9190a35050565b6107b2826001836040518082805190602001908083835b6020831061077e5780518252601f19909201916020918201910161075f565b51815160209384036101000a6000190180199092169116179052920194855250604051938490030190922092915050611967565b5050565b60025460ff16156107c657600080fd5b60048054604080517f4f558e79000000000000000000000000000000000000000000000000000000008152928301849052518392600160a060020a0390921691634f558e799160248083019260209291908290030181600087803b15801561082d57600080fd5b505af1158015610841573d6000803e3d6000fd5b505050506040513d602081101561085757600080fd5b505115156108af576040805160e560020a62461bcd02815260206004820152601460248201527f546f6b656e20646f6573206e6f74206578697374000000000000000000000000604482015290519081900360640190fd5b6000828152600860205260409020548290600160a060020a0316331461091f576040805160e560020a62461bcd02815260206004820152600f60248201527f4e6f74206f66666572206d616b65720000000000000000000000000000000000604482015290519081900360640190fd5b610928836118d5565b604051339084907f5e9c7ae3229b2cda5065d7058fcc05765c695c29ce05313fbe96cb2ca639231a90600090a3505050565b3361098881604080519081016040528060098152602001600080516020612049833981519152815250610748565b600754604080519182526020820184905280517feacf709830352fe1a96d6837caea6476163d682a42a64eb621b34d9b901b50009281900390910190a150600755565b6040805180820190915260098152600080516020612049833981519152602082015281565b6000610a5c836001846040518082805190602001908083835b60208310610a285780518252601f199092019160209182019101610a09565b51815160209384036101000a600019018019909216911617905292019485525060405193849003019092209291505061197c565b90505b92915050565b60008054600160a060020a03163314610a7d57600080fd5b5060005b81518110156107b257610aaa8282815181101515610a9b57fe5b90602001906020020151610b6c565b600101610a81565b6000806000610abf612031565b50600084815260086020908152604080832081518083019092528054600160a060020a03168252600101549181018290526007549092908190610b1a90610b0e856103e863ffffffff61199b16565b9063ffffffff6119b016565b600654909250610b3690610b0e856103e863ffffffff61199b16565b9050610b5f81610b538487602001516119d990919063ffffffff16565b9063ffffffff6119d916565b9891975095509350505050565b600054600160a060020a03163314610b8357600080fd5b610bb0816040805190810160405280600981526020016000805160206120498339815191528152506119eb565b50565b60025460009081908190819060ff1615610bcc57600080fd5b600480546040805160e160020a6331a9108f02815292830188905251600160a060020a0390911691636352211e9160248083019260209291908290030181600087803b158015610c1b57600080fd5b505af1158015610c2f573d6000803e3d6000fd5b505050506040513d6020811015610c4557600080fd5b50519350600160a060020a0384163314610ca9576040805160e560020a62461bcd02815260206004820152600f60248201527f4e6f7420746f6b656e206f776e65720000000000000000000000000000000000604482015290519081900360640190fd5b60008581526008602052604081206001015493508311610d13576040805160e560020a62461bcd02815260206004820152600d60248201527f4e6f206f66666572206f70656e00000000000000000000000000000000000000604482015290519081900360640190fd5b6000858152600860209081526040808320546004805483517f824eec3b0000000000000000000000000000000000000000000000000000000081529182018b90529251600160a060020a039283169750919092169363824eec3b93602480850194919392918390030190829087803b158015610d8e57600080fd5b505af1158015610da2573d6000803e3d6000fd5b505050506040513d6020811015610db857600080fd5b50519050610dc7818486611afc565b60048054604080517f42842e0e0000000000000000000000000000000000000000000000000000000081523393810193909352600160a060020a0385811660248501526044840189905290519116916342842e0e91606480830192600092919082900301818387803b158015610e3c57600080fd5b505af1158015610e50573d6000803e3d6000fd5b5050505081600160a060020a031684600160a060020a0316867fe6d56779a392535d3a591e92b65ba36f2ecc424bbf5220d0176a7da29385b504866040518082815260200191505060405180910390a45050506000918252506008602052604081208054600160a060020a031916815560010155565b600054600160a060020a03163314610edd57600080fd5b60025460ff161515610eee57600080fd5b6002805460ff191690556040517f7805862f689e2f13df9f062ff482ad3ad112aca9e0847911ed832e158c525b3390600090a1565b33610f5181604080519081016040528060098152602001600080516020612049833981519152815250610748565b50600355565b60035481565b60065481565b60025460ff1681565b6002546000908190819060ff1615610f8357600080fd5b600480546040805160e160020a6331a9108f02815292830187905251600160a060020a0390911691636352211e9160248083019260209291908290030181600087803b158015610fd257600080fd5b505af1158015610fe6573d6000803e3d6000fd5b505050506040513d6020811015610ffc57600080fd5b50519250600160a060020a0383163314611060576040805160e560020a62461bcd02815260206004820152600f60248201527f4e6f7420746f6b656e206f776e65720000000000000000000000000000000000604482015290519081900360640190fd5b600084815260086020526040812060010154925082116110ca576040805160e560020a62461bcd02815260206004820152600d60248201527f4e6f206f66666572206f70656e00000000000000000000000000000000000000604482015290519081900360640190fd5b50600083815260086020526040902054600160a060020a03166110ec846118d5565b80600160a060020a031683600160a060020a0316857f6d699e170cc72516120ba19fe48e744504798d1afc2ffb65ff1154a6f4fa4d15856040518082815260200191505060405180910390a450505050565b600554600160a060020a031681565b600054600160a060020a0316331461116457600080fd5b60008054604051600160a060020a03909116917ff8df31144d9c2f0f6b59d69b8b98abd5459d07f2742c4df920b25aae33c6482091a260008054600160a060020a0319169055565b600054600160a060020a031633146111c357600080fd5b610bb081604080519081016040528060098152602001600080516020612049833981519152815250611c50565b600054600160a060020a0316331461120757600080fd5b60025460ff161561121757600080fd5b6002805460ff191660011790556040517f6985a02210a168e66602d3235cb6db0e70f92b3ba4d376a33c0f3d9434bff62590600090a1565b600080600080600061125f612031565b506000868152600860209081526040808320815180830183528154600160a060020a0390811680835260019093015482860181905260048054865160e160020a6331a9108f0281529182018f9052955193979496919590921693636352211e936024808501949192918390030190829087803b1580156112de57600080fd5b505af11580156112f2573d6000803e3d6000fd5b505050506040513d602081101561130857600080fd5b50516000998a526009602052604090992054600254929a9199985060ff908116159750909116945092505050565b600054600160a060020a031681565b3361137381604080519081016040528060098152602001600080516020612049833981519152815250610748565b600160a060020a03821615156113d3576040805160e560020a62461bcd02815260206004820152600f60248201527f496e76616c696420616464726573730000000000000000000000000000000000604482015290519081900360640190fd5b5060058054600160a060020a031916600160a060020a0392909216919091179055565b3361142481604080519081016040528060098152602001600080516020612049833981519152815250610748565b600654604080519182526020820184905280517f3d843ef224be86afeee7f914f0fa9ddae84d6d9df67ca5edcb781900ee88bff49281900390910190a150600655565b60025460009060ff161561147a57600080fd5b60048054604080517f4f558e79000000000000000000000000000000000000000000000000000000008152928301859052518492600160a060020a0390921691634f558e799160248083019260209291908290030181600087803b1580156114e157600080fd5b505af11580156114f5573d6000803e3d6000fd5b505050506040513d602081101561150b57600080fd5b50511515611563576040805160e560020a62461bcd02815260206004820152601460248201527f546f6b656e20646f6573206e6f74206578697374000000000000000000000000604482015290519081900360640190fd5b600354600084815260086020526040902060010154849161158a919063ffffffff611d2216565b3410156115e1576040805160e560020a62461bcd02815260206004820152601060248201527f4f66666572206e6f7420656e6f75676800000000000000000000000000000000604482015290519081900360640190fd5b600084815260096020526040902054849060ff161561164a576040805160e560020a62461bcd02815260206004820152601c60248201527f546f6b656e206e6f7420656e61626c656420666f72206f666665727300000000604482015290519081900360640190fd5b611653856118d5565b60408051808201825233815234602080830191825260008981526008825284812093518454600160a060020a031916600160a060020a03918216178555925160019094019390935560048054855160e160020a6331a9108f0281529182018b905294519490921693636352211e936024808501948390030190829087803b1580156116dd57600080fd5b505af11580156116f1573d6000803e3d6000fd5b505050506040513d602081101561170757600080fd5b50516040805134815290519195503391600160a060020a0387169188917f3d87e1d02e187b9fe1095bc12567b7485b6cf54c47eea3dc9b5fd64d03cb67509181900360200190a45050505050565b6000610a5f826040805190810160405280600981526020016000805160206120498339815191528152506109f0565b336117b281604080519081016040528060098152602001600080516020612049833981519152815250610748565b6117bb826118d5565b600082815260096020526040808220805460ff1916600117905551339184917fe0c56951f00a75f5139f9af608a2ae603fe7c340a8f4b4b3125e9a7018041b609190a35050565b3361183081604080519081016040528060098152602001600080516020612049833981519152815250610748565b5060048054600160a060020a031916600160a060020a0392909216919091179055565b60075481565b600454600160a060020a031681565b60008054600160a060020a0316331461188057600080fd5b5060005b81518110156107b2576118ad828281518110151561189e57fe5b906020019060200201516111ac565b600101611884565b600054600160a060020a031633146118cc57600080fd5b610bb081611d2f565b60008181526008602052604090208054600190910154600160a060020a039091169081158015906119065750600081115b15611962576000838152600860205260408082208054600160a060020a031916815560010182905551600160a060020a0384169183156108fc02918491818181858888f19350505050158015611960573d6000803e3d6000fd5b505b505050565b611971828261197c565b15156107b257600080fd5b600160a060020a03166000908152602091909152604090205460ff1690565b600081838115156119a857fe5b049392505050565b60008215156119c157506000610a5f565b508181028183828115156119d157fe5b0414610a5f57fe5b6000828211156119e557fe5b50900390565b611a55826001836040518082805190602001908083835b60208310611a215780518252601f199092019160209182019101611a02565b51815160209384036101000a6000190180199092169116179052920194855250604051938490030190922092915050611d9f565b81600160a060020a03167fd211483f91fc6eff862467f8de606587a30c8fc9981056f051b897a418df803a826040518080602001828103825283818151815260200191508051906020019080838360005b83811015611abe578181015183820152602001611aa6565b50505050905090810190601f168015611aeb5780820380516001836020036101000a031916815260200191505b509250505060405180910390a25050565b60048054604080517f32fd84780000000000000000000000000000000000000000000000000000000081529283018690528051600093849384938493600160a060020a03909216926332fd8478926024808301939282900301818787803b158015611b6657600080fd5b505af1158015611b7a573d6000803e3d6000fd5b505050506040513d6040811015611b9057600080fd5b50805160209091015160048054604080517fde56a2450000000000000000000000000000000000000000000000000000000081529283018c90528051949850929650600160a060020a03169263de56a245926024808401939192918290030181600087803b158015611c0157600080fd5b505af1158015611c15573d6000803e3d6000fd5b505050506040513d6040811015611c2b57600080fd5b5080516020909101519092509050611c47848483858a8a611dc1565b50505050505050565b611cba826001836040518082805190602001908083835b60208310611c865780518252601f199092019160209182019101611c67565b51815160209384036101000a6000190180199092169116179052920194855250604051938490030190922092915050611f10565b81600160a060020a03167fbfec83d64eaa953f2708271a023ab9ee82057f8f3578d548c1a4ba0b5b7004898260405180806020018281038252838181518152602001915080519060200190808383600083811015611abe578181015183820152602001611aa6565b81810182811015610a5f57fe5b600160a060020a0381161515611d4457600080fd5b60008054604051600160a060020a03808516939216917f8be0079c531659141344cd1fd0a4f28419497f9722a3daafe3b4186f6b6457e091a360008054600160a060020a031916600160a060020a0392909216919091179055565b600160a060020a0316600090815260209190915260409020805460ff19169055565b600080600080611dde600654600754611d2290919063ffffffff16565b9350611e06611df985610b0e896103e863ffffffff61199b16565b879063ffffffff6119d916565b604051909350600160a060020a0386169084156108fc029085906000818181858888f19350505050158015611e3f573d6000803e3d6000fd5b50600754611e5990610b0e886103e863ffffffff61199b16565b600554604051919350600160a060020a03169083156108fc029084906000818181858888f19350505050158015611e94573d6000803e3d6000fd5b50611ea983610b53888563ffffffff6119d916565b9050600160a060020a0388161515611ef757604051600160a060020a038b169082156108fc029083906000818181858888f19350505050158015611ef1573d6000803e3d6000fd5b50611f04565b611f048a8a8a8a85611f35565b50505050505050505050565b600160a060020a0316600090815260209190915260409020805460ff19166001179055565b600080808080611f4b898863ffffffff611d2216565b9450611f6589670de0b6b3a764000063ffffffff6119b016565b9350611f77848663ffffffff61199b16565b9250611fa1670de0b6b3a7640000611f95888663ffffffff6119b016565b9063ffffffff61199b16565b604051909250600160a060020a038b169083156108fc029084906000818181858888f19350505050158015611fda573d6000803e3d6000fd5b50611feb868363ffffffff6119d916565b604051909150600160a060020a0389169082156108fc029083906000818181858888f19350505050158015612024573d6000803e3d6000fd5b5050505050505050505050565b604080518082019091526000808252602082015290560077686974656c6973740000000000000000000000000000000000000000000000a165627a7a7230582032840afe4671324456ec8cfaf7db49c3544cf58a6095e0e7d7b351eb74b131970029",
  "source": "pragma solidity ^0.4.24;\n\nimport \"openzeppelin-solidity/contracts/access/rbac/Roles.sol\";\nimport \"openzeppelin-solidity/contracts/lifecycle/Pausable.sol\";\nimport \"openzeppelin-solidity/contracts/access/Whitelist.sol\";\nimport \"openzeppelin-solidity/contracts/math/SafeMath.sol\";\nimport \"./ITokenMarketplace.sol\";\n\ninterface IKODAV2 {\n  function ownerOf(uint256 _tokenId) external view returns (address _owner);\n\n  function exists(uint256 _tokenId) external view returns (bool _exists);\n\n  function editionOfTokenId(uint256 _tokenId) external view returns (uint256 tokenId);\n\n  function artistCommission(uint256 _tokenId) external view returns (address _artistAccount, uint256 _artistCommission);\n\n  function editionOptionalCommission(uint256 _tokenId) external view returns (uint256 _rate, address _recipient);\n\n  function safeTransferFrom(address _from, address _to, uint256 _tokenId) external;\n}\n\ncontract TokenMarketplace is Whitelist, Pausable, ITokenMarketplace {\n  using SafeMath for uint256;\n\n  event UpdatePlatformPercentageFee(uint256 _oldPercentage, uint256 _newPercentage);\n  event UpdateRoyaltyPercentageFee(uint256 _oldPercentage, uint256 _newPercentage);\n\n  struct Offer {\n    address bidder;\n    uint256 offer;\n  }\n\n  // Min increase in bid amount\n  uint256 public minBidAmount = 0.04 ether;\n\n  // Interface into the KODA world\n  IKODAV2 public kodaAddress;\n\n  // KO account which can receive commission\n  address public koCommissionAccount;\n\n  uint256 public artistRoyaltyPercentage = 50;\n  uint256 public platformFeePercentage = 30;\n\n  // Token ID to Offer mapping\n  mapping(uint256 => Offer) offers;\n\n  // Explicitly disable sales for specific tokens\n  mapping(uint256 => bool) disabledTokens;\n\n  ///////////////\n  // Modifiers //\n  ///////////////\n\n  modifier onlyWhenOfferOwner(uint256 _tokenId) {\n    require(offers[_tokenId].bidder == msg.sender, \"Not offer maker\");\n    _;\n  }\n\n  modifier onlyWhenTokenExists(uint256 _tokenId) {\n    require(kodaAddress.exists(_tokenId), \"Token does not exist\");\n    _;\n  }\n\n  modifier onlyWhenBidOverMinAmount(uint256 _tokenId) {\n    require(msg.value >= offers[_tokenId].offer.add(minBidAmount), \"Offer not enough\");\n    _;\n  }\n\n  modifier onlyWhenTokenAuctionEnabled(uint256 _tokenId) {\n    require(!disabledTokens[_tokenId], \"Token not enabled for offers\");\n    _;\n  }\n\n  /////////////////\n  // Constructor //\n  /////////////////\n\n  // Set the caller as the default KO account\n  constructor(IKODAV2 _kodaAddress, address _koCommissionAccount) public {\n    kodaAddress = _kodaAddress;\n    koCommissionAccount = _koCommissionAccount;\n    super.addAddressToWhitelist(msg.sender);\n  }\n\n  //////////////////\n  // User Actions //\n  //////////////////\n\n  function placeBid(uint256 _tokenId)\n  public\n  payable\n  whenNotPaused\n  onlyWhenTokenExists(_tokenId)\n  onlyWhenBidOverMinAmount(_tokenId)\n  onlyWhenTokenAuctionEnabled(_tokenId)\n  {\n    _refundHighestBidder(_tokenId);\n\n    offers[_tokenId] = Offer(msg.sender, msg.value);\n\n    address currentOwner = kodaAddress.ownerOf(_tokenId);\n\n    emit BidPlaced(_tokenId, currentOwner, msg.sender, msg.value);\n  }\n\n  function withdrawBid(uint256 _tokenId)\n  public\n  whenNotPaused\n  onlyWhenTokenExists(_tokenId)\n  onlyWhenOfferOwner(_tokenId)\n  {\n    _refundHighestBidder(_tokenId);\n\n    emit BidWithdrawn(_tokenId, msg.sender);\n  }\n\n  function rejectBid(uint256 _tokenId)\n  public\n  whenNotPaused\n  {\n    address currentOwner = kodaAddress.ownerOf(_tokenId);\n    require(currentOwner == msg.sender, \"Not token owner\");\n\n    uint256 currentHighestBiddersAmount = offers[_tokenId].offer;\n    require(currentHighestBiddersAmount > 0, \"No offer open\");\n\n    address currentHighestBidder = offers[_tokenId].bidder;\n\n    _refundHighestBidder(_tokenId);\n\n    emit BidRejected(_tokenId, currentOwner, currentHighestBidder, currentHighestBiddersAmount);\n  }\n\n  function acceptBid(uint256 _tokenId)\n  public\n  whenNotPaused\n  {\n    address currentOwner = kodaAddress.ownerOf(_tokenId);\n    require(currentOwner == msg.sender, \"Not token owner\");\n\n    uint256 winningOffer = offers[_tokenId].offer;\n    require(winningOffer > 0, \"No offer open\");\n\n    address winningBidder = offers[_tokenId].bidder;\n\n    // Get edition no.\n    uint256 editionNumber = kodaAddress.editionOfTokenId(_tokenId);\n\n    _handleFunds(editionNumber, winningOffer, currentOwner);\n\n    kodaAddress.safeTransferFrom(msg.sender, winningBidder, _tokenId);\n\n    emit BidAccepted(_tokenId, currentOwner, winningBidder, winningOffer);\n\n    delete offers[_tokenId];\n  }\n\n  function _refundHighestBidder(uint256 _tokenId) internal {\n    // Get current highest bidder\n    address currentHighestBidder = offers[_tokenId].bidder;\n\n    // Get current highest bid amount\n    uint256 currentHighestBiddersAmount = offers[_tokenId].offer;\n\n    if (currentHighestBidder != address(0) && currentHighestBiddersAmount > 0) {\n\n      // Clear out highest bidder\n      delete offers[_tokenId];\n\n      // Refund it\n      currentHighestBidder.transfer(currentHighestBiddersAmount);\n    }\n  }\n\n  function _handleFunds(uint256 _editionNumber, uint256 _offer, address _currentOwner) internal {\n\n    // Get existing artist commission\n    (address artistAccount, uint256 artistCommissionRate) = kodaAddress.artistCommission(_editionNumber);\n\n    // Get existing optional commission\n    (uint256 optionalCommissionRate, address optionalCommissionRecipient) = kodaAddress.editionOptionalCommission(_editionNumber);\n\n    _splitFunds(artistAccount, artistCommissionRate, optionalCommissionRecipient, optionalCommissionRate, _offer, _currentOwner);\n  }\n\n  function _splitFunds(\n    address _artistAccount,\n    uint256 _artistCommissionRate,\n    address _optionalCommissionRecipient,\n    uint256 _optionalCommissionRate,\n    uint256 _offer,\n    address _currentOwner\n  ) internal {\n\n    // Work out total % of royalties to payout = creator royalties + KO commission\n    uint256 totalCommissionPercentageToPay = platformFeePercentage.add(artistRoyaltyPercentage);\n\n    // Send current owner majority share of the offer\n    uint256 totalToSendToOwner = _offer.sub(\n      _offer.div(1000).mul(totalCommissionPercentageToPay)\n    );\n    _currentOwner.transfer(totalToSendToOwner);\n\n    // Send % to KO\n    uint256 koCommission = _offer.div(1000).mul(platformFeePercentage);\n    koCommissionAccount.transfer(koCommission);\n\n    // Send to seller minus royalties and commission\n    uint256 remainingRoyalties = _offer.sub(koCommission).sub(totalToSendToOwner);\n\n    if (_optionalCommissionRecipient == address(0)) {\n      // After KO and Seller - send the rest to the original artist\n      _artistAccount.transfer(remainingRoyalties);\n    } else {\n      _handleOptionalSplits(_artistAccount, _artistCommissionRate, _optionalCommissionRecipient, _optionalCommissionRate, remainingRoyalties);\n    }\n  }\n\n  function _handleOptionalSplits(\n    address _artistAccount,\n    uint256 _artistCommissionRate,\n    address _optionalCommissionRecipient,\n    uint256 _optionalCommissionRate,\n    uint256 _remainingRoyalties\n  ) internal {\n    uint256 _totalCollaboratorsRate = _artistCommissionRate.add(_optionalCommissionRate);\n    uint256 _scaledUpCommission = _artistCommissionRate.mul(10 ** 18);\n\n    // work out % of royalties total to split e.g. 43 / 85 = 50.5882353%\n    uint256 primaryArtistPercentage = _scaledUpCommission.div(_totalCollaboratorsRate);\n\n    uint256 totalPrimaryRoyaltiesToArtist = _remainingRoyalties.mul(primaryArtistPercentage).div(10 ** 18);\n    _artistAccount.transfer(totalPrimaryRoyaltiesToArtist);\n\n    uint256 remainingRoyaltiesToCollaborator = _remainingRoyalties.sub(totalPrimaryRoyaltiesToArtist);\n    _optionalCommissionRecipient.transfer(remainingRoyaltiesToCollaborator);\n  }\n\n  ///////////////////\n  // Query Methods //\n  ///////////////////\n\n  function tokenOffer(uint256 _tokenId) external view returns (address _bidder, uint256 _offer, address _owner, bool _enabled, bool _paused) {\n    Offer memory offer = offers[_tokenId];\n    return (\n    offer.bidder,\n    offer.offer,\n    kodaAddress.ownerOf(_tokenId),\n    !disabledTokens[_tokenId],\n    paused\n    );\n  }\n\n  function determineSaleValues(uint256 _tokenId) external view returns (uint256 _sellerTotal, uint256 _platformFee, uint256 _royaltyFee) {\n    Offer memory offer = offers[_tokenId];\n    uint256 offerValue = offer.offer;\n    uint256 fee = offerValue.div(1000).mul(platformFeePercentage);\n    uint256 royalties = offerValue.div(1000).mul(artistRoyaltyPercentage);\n\n    return (\n    offer.offer.sub(fee).sub(royalties),\n    fee,\n    royalties\n    );\n  }\n\n  ///////////////////\n  // Admin Actions //\n  ///////////////////\n\n  function disableAuction(uint256 _tokenId)\n  public\n  onlyIfWhitelisted(msg.sender)\n  {\n    _refundHighestBidder(_tokenId);\n\n    disabledTokens[_tokenId] = true;\n\n    emit AuctionDisabled(_tokenId, msg.sender);\n  }\n\n  function enableAuction(uint256 _tokenId)\n  public\n  onlyIfWhitelisted(msg.sender)\n  {\n    _refundHighestBidder(_tokenId);\n\n    disabledTokens[_tokenId] = false;\n\n    emit AuctionEnabled(_tokenId, msg.sender);\n  }\n\n  function setMinBidAmount(uint256 _minBidAmount) onlyIfWhitelisted(msg.sender) public {\n    minBidAmount = _minBidAmount;\n  }\n\n  function setKodavV2(IKODAV2 _kodaAddress) onlyIfWhitelisted(msg.sender) public {\n    kodaAddress = _kodaAddress;\n  }\n\n  function setKoCommissionAccount(address _koCommissionAccount) public onlyIfWhitelisted(msg.sender) {\n    require(_koCommissionAccount != address(0), \"Invalid address\");\n    koCommissionAccount = _koCommissionAccount;\n  }\n\n  function setArtistRoyaltyPercentage(uint256 _artistRoyaltyPercentage) public onlyIfWhitelisted(msg.sender) {\n    emit UpdateRoyaltyPercentageFee(artistRoyaltyPercentage, _artistRoyaltyPercentage);\n    artistRoyaltyPercentage = _artistRoyaltyPercentage;\n  }\n\n  function setPlatformPercentage(uint256 _platformFeePercentage) public onlyIfWhitelisted(msg.sender) {\n    emit UpdatePlatformPercentageFee(platformFeePercentage, _platformFeePercentage);\n    platformFeePercentage = _platformFeePercentage;\n  }\n}\n",
  "sourcePath": "/Users/jamesmorgan/Dropbox/workspace-blockrocket/knownorigin/known-origin-contracts/contracts/v2/marketplace/TokenMarketplace.sol",
  "compiler": {
    "name": "solc",
    "version": "0.4.24+commit.e67f0147.Emscripten.clang"
  },
  "schemaVersion": "3.0.23",
  "updatedAt": "2020-04-15T20:46:57.620Z",
  "networkType": "ethereum",
  "devdoc": {
    "methods": {
      "addAddressToWhitelist(address)": {
        "details": "add an address to the whitelist",
        "params": {
          "_operator": "address"
        },
        "return": "true if the address was added to the whitelist, false if the address was already in the whitelist"
      },
      "addAddressesToWhitelist(address[])": {
        "details": "add addresses to the whitelist",
        "params": {
          "_operators": "addresses"
        },
        "return": "true if at least one address was added to the whitelist, false if all addresses were already in the whitelist"
      },
      "checkRole(address,string)": {
        "details": "reverts if addr does not have role",
        "params": {
          "_operator": "address",
          "_role": "the name of the role // reverts"
        }
      },
      "hasRole(address,string)": {
        "details": "determine if addr has role",
        "params": {
          "_operator": "address",
          "_role": "the name of the role"
        },
        "return": "bool"
      },
      "pause()": {
        "details": "called by the owner to pause, triggers stopped state"
      },
      "removeAddressFromWhitelist(address)": {
        "details": "remove an address from the whitelist",
        "params": {
          "_operator": "address"
        },
        "return": "true if the address was removed from the whitelist, false if the address wasn't in the whitelist in the first place"
      },
      "removeAddressesFromWhitelist(address[])": {
        "details": "remove addresses from the whitelist",
        "params": {
          "_operators": "addresses"
        },
        "return": "true if at least one address was removed from the whitelist, false if all addresses weren't in the whitelist in the first place"
      },
      "renounceOwnership()": {
        "details": "Allows the current owner to relinquish control of the contract."
      },
      "transferOwnership(address)": {
        "details": "Allows the current owner to transfer control of the contract to a newOwner.",
        "params": {
          "_newOwner": "The address to transfer ownership to."
        }
      },
      "unpause()": {
        "details": "called by the owner to unpause, returns to normal state"
      },
      "whitelist(address)": {
        "details": "getter to determine if address is in whitelist"
      }
    }
  },
  "userdoc": {
    "methods": {
      "disableAuction(uint256)": {
        "notice": "////////////////"
      },
      "placeBid(uint256)": {
        "notice": "///////////////"
      },
      "renounceOwnership()": {
        "notice": "Renouncing to ownership will leave the contract without an owner. It will not be possible to call the functions with the `onlyOwner` modifier anymore."
      },
      "tokenOffer(uint256)": {
        "notice": "////////////////"
      }
    }
  }
}